:100000007BC0000099C0000097C0000095C00000B0
:1000100093C0000091C000008FC000008DC00000A0
:100020008BC0000089C0000087C0000085C00000B0
:1000300083C00000F5C600007FC000007DC0000046
:100040007BC0000079C0000077C0000075C00000D0
:1000500073C0000071C000006FC000006DC00000E0
:100060000C94C7140C94491267C000000C949D12A4
:1000700063C0000061C000005FC000005DC0000000
:100080005BC0000059C0000057C0000055C0000010
:1000900053C0000051C000004FC000004DC0000020
:1000A0004BC0000049C0000047C0000045C0000030
:1000B00043C0000041C000003FC000000C94C808CD
:1000C0000C94D4080C9415090C9464080C947414C2
:1000D00033C0000031C000002FC000002DC0000060
:1000E0002BC00000660352035403560358035A03FF
:1000F0005C035E036003620311241FBECFEFD1E2F5
:10010000DEBFCDBF00E00CBF13E0A0E0B2E0EAE448
:10011000FDE200E00BBF02C007900D92A839B107C5
:10012000D9F726E0A8E9B3E001C01D92A232B207D8
:10013000E1F7EFD50C94A31663CF0F931F93CF93E2
:10014000DF93D82F8B01C42F80919803841307C0AD
:100150008091990390919A038617970799F00E94CE
:100160005E148111FCCF10939A0300939903C093FE
:10017000980323E041E06C2FC8010E94F0138CB576
:1001800084608CBD8D2F0E944B15DF91CF911F9104
:100190000F9108951F93CF93DF93EC01162F462FF5
:1001A000BC018CE0CADF412FBE0180E0C6DF412FD9
:1001B000BE0180E0C2DF412FBE0180E1BEDF412FE2
:1001C000BE0180E0BADF412FBE0185E0B6DFDF91DE
:1001D000CF911F9108951F93CF93DF93C62F9C015A
:1001E000AFEFBFEF0E94D8152CED35E040E050E0B6
:1001F0000E94AE15D22F132F4C2F62E270E080E0E8
:100200009CDF4C2F62E270E0812F97DF4C2F62E27F
:1002100070E08D2F92DFDF91CF911F9108951F9392
:10022000CF93DF93C62F9C01AFEFBFEF0E94D8158D
:100230002AEF30E040E050E00E94AE15D22F132F9D
:100240004C2F62E270E082E078DF4C2F62E270E0D7
:10025000812F73DF4C2F62E270E08D2F6EDFDF9114
:10026000CF911F9108951F93CF93DF93C62F9C01C9
:10027000AFEFBFEF0E94D81528E833E140E050E02F
:100280000E94AE15D22F132F4C2F62E270E080E057
:1002900054DF4C2F62E270E0812F4FDF4C2F62E27F
:1002A00070E08D2F4ADFDF91CF911F9108951F934A
:1002B000CF93DF93C62F9C01AFEFBFEF0E94D815FD
:1002C0002AEF30E040E050E00E94AE15D22F132F0D
:1002D0004C2F62E270E082E030DF4C2F62E270E08F
:1002E000812F2BDF4C2F62E270E08D2F26DFDF9114
:1002F000CF911F9108951F93CF93DF93C62F9C0139
:10030000ABEABAEA0E94D815DC01B695A79526EFAC
:100310003FEF49E050E00E94ED15665B794F89445C
:10032000964028E833E140E050E00E94AE15D22F1D
:10033000132F4C2F65E071E080E0FFDE4C2F65E06D
:1003400071E0812FFADE4C2F65E071E08D2FF5DE34
:10035000DF91CF911F9108951F93CF93DF93C62F05
:100360009C01AFEFBFEF0E94D81520E137E240E0DB
:1003700050E00E94AE15D22F132F4C2F62E270E096
:1003800080E0DBDE4C2F62E270E0812FD6DE4C2F66
:1003900062E270E08D2FD1DEDF91CF911F91089541
:1003A0007498719A6C9A699A8DE790E00E94DC13B8
:1003B000749A60E082E290E0EDDE60E080914104BA
:1003C0009091420408DF60E080913C0490913D04EC
:1003D00026DF61E082E290E0DDDE61E080913E04B4
:1003E00090913F04B9DF62E082E290E0D3DE62E008
:1003F00085E091E0CFDE62E080914104909142047B
:1004000032DF62E080913C0490913D0450DF62E075
:100410008091AF039091B0036EDF71980895CF93F0
:10042000E2E0F1E02081BC016150710941E050E05F
:1004300002C0440F551F6A95E2F7942F9095292327
:100440002083E8E0F1E020819223908392B1942B05
:1004500092B9E5E0F1E09081942B90839BB1942BCD
:100460009BB998B1942B98B9E1E0F1E09081942B7D
:100470009083E7E0F1E09081942B908391B1942BED
:1004800091B9E4E0F1E09081942B90839AB1942BA0
:100490009AB997B1492B47B9CFEFC80F2C2F48E233
:1004A00050E060E080E019D22C2F48E250E060E09C
:1004B0008AE013D2CF910895CF93CFEFC80F2C2F9E
:1004C00048E250E060E08AE008D22FEF81EE94E04D
:1004D000215080409040E1F700C000002C2F48E2FE
:1004E00050E064E28AE0F9D1CF910895CF93CFEF45
:1004F000C80F2C2F48E250E060E08AE0EED12FEFE9
:1005000081EE94E0215080409040E1F700C000006F
:100510002C2F48E250E06AE08AE0DFD1CF910895C5
:10052000CF93CFEFC80F2C2F48E250E060E08AE075
:10053000D4D12FEF81EE94E0215080409040E1F73C
:1005400000C000002C2F48E250E061E18AE0C5D1F4
:10055000CF910895CF93CFEFC80F2C2F48E250E0F2
:1005600060E08AE0BAD12FEF81EE94E02150804024
:100570009040E1F700C000002C2F48E250E064E119
:100580008AE0ABD1CF9108952FEF280F48E250E0D9
:1005900060E08AE0A2D12FEF81EE94E0215080400C
:1005A0009040E1F700C000000895CF93DF93E2E0B0
:1005B000F1E02081BC016150710941E050E002C0CE
:1005C000440F551F6A95E2F7C42FC095922F9C23C4
:1005D0009083E8E0F1E090819C23908392B19C238A
:1005E00092B9E5E0F1E090819C2390839BB19C233C
:1005F0009BB998B19C2398B9E1E0F1E09081942BEC
:100600009083E7E0F1E09081942B908391B1942B5B
:1006100091B9E4E0F1E09081942B90839AB1942B0E
:100620009AB997B1942B97B998B1492B48B9EFE98A
:10063000FFE03197F1F700C00000DFEFD80F2D2F5A
:1006400048E250E060E080E048D12D2F48E250E0E1
:100650006FEF8AE042D188B1C823C8B9DF91CF914A
:1006600008950F931F93CF939C0188B1A901415026
:10067000510901E010E002C0000F111F4A95E2F796
:10068000802B88B98FE99FE00197F1F700C0000047
:100690002A303105C8F4F9018827EE58FF4F8F4FF3
:1006A0000C94D0156FEC13C065E211C065E80FC063
:1006B00069EC0DC061E90BC061E109C067EC07C0DE
:1006C00061E005C061E803C06FEF01C063E0CFEFF8
:1006D000C20F2C2F48E250E08AE0FFD08FE99FE064
:1006E0000197F1F700C000002C2F48E250E060E0D5
:1006F00080E0F3D08FE99FE00197F1F700C00000A0
:1007000088B10095082308B9CF911F910F910895E2
:10071000CF93DF9328B1AC0141505109C1E0D0E043
:1007200002C0CC0FDD1F4A95E2F79C2F922B98B99F
:10073000EFE9FFE03197F1F700C000004FEF480FFD
:1007400068E270E08AE0EBD0813881F158F48330C0
:1007500099F118F4813039F12CC08131F1F08532F2
:1007600081F027C0873CE1F028F4853869F08139B1
:1007700089F01FC0893C59F08F3CD9F421E030E06A
:100780001DC022E030E01AC023E030E017C024E0B2
:1007900030E014C025E030E011C026E030E00EC0AB
:1007A00027E030E00BC028E030E008C029E030E06E
:1007B00005C02FEF3FEF02C020E030E08FE99FE05F
:1007C0000197F1F700C0000098B1C095C923C8B9DE
:1007D000C901DF91CF910895E2E0F1E02081AC0101
:1007E0004150510981E090E002C0880F991F4A955D
:1007F000E2F7282B20832FEF39E648E121503040E3
:100800004040E1F700C00000A8952081982F909506
:1008100029232083E8E0F1E02081282B20832FEF9B
:1008200039E648E1215030404040E1F700C0000087
:10083000A89522B1282B22B92081292320832FEFCC
:1008400039E648E1215030404040E1F700C0000067
:10085000A895E5E0F1E02081282B208322B129230F
:1008600022B92FEF39E648E1215030404040E1F70E
:1008700000C00000A8952BB1282B2BB9208129237B
:1008800020832FEF39E648E1215030404040E1F726
:1008900000C00000A89528B1822B88B98BB18923AC
:1008A0008BB98FEF29E638E1815020403040E1F7E5
:1008B00000C00000A89588B1982398B90895CF93F7
:1008C000DF93EC01CEDECE0123DFC817D90711F488
:1008D000CE0182DFDF91CF910895FF920F931F9396
:1008E000CF93DF93D82FC62F8A01F22E0E945E1479
:1008F0008111FCCF23E041E06F2DC8010E94F0136D
:1009000080E40E944B158D2F0E944B158C2F0E9466
:100910004B15DF91CF911F910F91FF900895EF92AA
:10092000FF920F931F93CF93DF9300D0CDB7DEB725
:10093000182F7B01042F0E945E148111FCCF23E04D
:1009400041E0602FC7010E94F01381E489831A837C
:100950001B8263E0CE0101960E9495150E945214FD
:100960008330E0F383E00E942714809146040F90C7
:100970000F900F90DF91CF911F910F91FF90EF900B
:100980000895CF93DF931F921F92CDB7DEB722E079
:1009900041E066E08BE290E00E94F0135A988AE111
:1009A0008A95F1F700C05A9A8AE18A95F1F700C05A
:1009B00019821A8262E0CE0101960E9495150E946A
:1009C00052148230E0F382E00E942714E4E4F4E061
:1009D000A081B0E0BA2FAA278181A82B2CE63BE6A4
:1009E0000E94E715BC01882799270F900F90DF918F
:1009F000CF910895CF93DF931F921F92CDB7DEB7AB
:100A000022E041E066E08BE290E00E94F0135A9809
:100A10008AE18A95F1F700C05A9A8AE18A95F1F73E
:100A200000C019821A8262E0CE0101960E949515DB
:100A30000F900F90DF91CF91089582E00E942714CC
:100A4000E4E4F4E0A081B0E0BA2FAA278181A82BCA
:100A50002CE63BE60E94E715BC01882799270895FC
:100A6000AF92BF92DF92EF92FF920F931F93CF93BB
:100A7000DF93A398A298A098A1989B9A9A9A999A82
:100A8000989A20E030E002E011E0EE24E394F12CAB
:100A900068E071E045E051E0C1E0D1E0A7E0B1E0FD
:100AA0006894AA24A2F8BB24B394F801D080C701AB
:100AB000022E02C0880F991F0A94E2F7982F909592
:100AC000D922D082FB01D0809D21908392B1982BB6
:100AD00092B9FA019081982B90839881982B9883F2
:100AE0009C91982B9C9391B1982B91B9F501908191
:100AF000892B80832F5F3F4F27303105B1F6529A03
:100B00005A9872986A9A2E98269A2798DF91CF91D0
:100B10001F910F91FF90EF90DF90BF90AF900895DD
:100B200086E080938A0439C08091B3038A3090F0C4
:100B30001092B303809192048F5F8A3019F08093F2
:100B4000920408C01092920480918A04815080938C
:100B50008A04A89580918A04863009F4A39A80912A
:100B60008A04853011F4A398A29A80918A04843073
:100B700011F4A39AA29A80918A04833019F4A3985D
:100B8000A298A09A80918A04823011F4A098A19A28
:100B900080918A04813009F4A19880918A0481119E
:100BA000C3CF089572D11092080110920201A1984A
:100BB00008959EE088E10FB6F894A89580936000B0
:100BC0000FBE90936000A8951ED13BD16AD1EADF99
:100BD00047DF87E190E00E947816059709F444C04A
:100BE000A39AA29AA09AA19A65E070E087E190E0AA
:100BF0000E94901662E370E085E190E00E949016FA
:100C000062E370E08FE090E00E94901660EE7EE27A
:100C100085E090E00E94901668EB7BE087E090E032
:100C20000E94901649E150E060E070E081E190E0C0
:100C30000E948B1649E150E060E070E08BE090E0AC
:100C40000E948B166AE070E083E090E00E949016AC
:100C500064E670E081E090E00E94901660E080E041
:100C600090E00E947D16A895789409D385E190E0E4
:100C70000E94781690934204809341048FE090E0A4
:100C80000E94781690933D0480933C0481E190E0AB
:100C90000E9473166093B4037093B5038093B603F8
:100CA0009093B7038BE090E00E94731660938404E6
:100CB00070938504809386049093870485E090E088
:100CC0000E947816909391048093900487E090E0BE
:100CD0000E94781690933F0480933E0483E090E056
:100CE0000E9478169093B2038093B10381E090E064
:100CF0000E9478169093B9038093B80380E090E047
:100D00000E946B16809395041092890449DB08CFEA
:100D100008954FDF0E941C13A8950E943C128091F9
:100D2000B3038A3040F01092B303809192048F5F36
:100D300080939204F1CF809192048A30D8F010927F
:100D400092048091BA038F5F8093BA0380919304D9
:100D5000882329F0815080939304A09A01C0A09821
:100D600080918904882319F0A39AA29AD5CFA39AD7
:100D7000A298D2CF8091BA038A3070F21092BA034F
:100D8000CBCF83D081E080938F0410929404A7D0BE
:100D9000A19A8091B4039091B503A091B603B0914C
:100DA000B703892B8A2B8B2B21F08091950480939C
:100DB0000201809195048093080161C00895A19A71
:100DC000809195048093080108955FD081E080931D
:100DD000940410928F0445D1A19A109202011092AE
:100DE00008014DC00895DEDE8091950480930801CE
:100DF0002FEF89EF90E0215080409040E1F700C054
:100E00000000D0CE089583E08093B0008CE0809302
:100E1000B10089EF8093B30082E080937000089561
:100E20001F920F920FB60F9211248F938091B303EC
:100E30008F5F8093B3038F910F900FBE0F901F9021
:100E4000189588E18093810082E8809380008FE389
:100E500096E0909387008093860080E190E09093E5
:100E60008900809388008FEF9FEF90938B00809391
:100E70008A0090938D0080938C00259A0895E1E874
:100E8000F0E08081816080830895E1E8F0E0808176
:100E90008E7F80838FEF9FEF9093850080938400F7
:100EA00008958FE18093210180E69AEE90932701C7
:100EB0008093260182E0809320018FE0809373006D
:100EC00081E090E0909329018093280190932B0179
:100ED00080932A0190932D0180932C0108958FE532
:100EE0009AEE909325018093240180E69AEE9093E8
:100EF0002701809326018091B4039091B503A091BE
:100F0000B603B091B703803727E19207A105B10579
:100F100050F59C01220F331F880F991F880F991FCE
:100F2000880F991F820F931F9093290180932801A6
:100F30002091B4033091B503C901880F991F220F86
:100F4000331F220F331F220F331F820F931F9093E3
:100F50009B0480939A0410929904C29790932D0158
:100F600080932C0125C08FEF9FEF909329018093F0
:100F700028016091B4037091B5038091B6039091FC
:100F8000B70320E737E140E050E00E94AE15AB0127
:100F9000440F551F660F771F660F771F660F771F69
:100FA000640F751F70939B0460939A0420939904B7
:100FB0008091840490918504A0918604B091870467
:100FC000803727E19207A105B10528F59C01220F82
:100FD000331F880F991F880F991F880F991F820F41
:100FE000931F90932B0180932A0180918404909108
:100FF00085049C01220F331F880F991F880F991FAA
:10100000880F991F820F931F90939E0480939D04D5
:1010100010929C0408958FEF9FEF90932B01809383
:101020002A016091840470918504809186049091D6
:10103000870420E737E140E050E00E94AE15AB01A5
:10104000440F551F660F771F660F771F660F771FB8
:10105000640F751F70939E0460939D0420939C04FD
:1010600008958091B1039091B203880F991F019761
:1010700090932701809326018091B1039091B20350
:1010800081509048880F991F9093250180932401E7
:101090008091B1039091B2030197909329018093BD
:1010A00028018FEF9FEF90932B0180932A0190935B
:1010B0002D0180932C018091B8039091B9039093F6
:1010C00098048093970408951F920F920FB60F9281
:1010D00011240BB60F922F933F934F935F936F930F
:1010E0007F938F939F93AF93BF93EF93FF938091E1
:1010F00094048823C1F0809195048093020180912B
:1011000095048093080180919704909198049C0124
:10111000215031093093980420939704892B29F5A5
:10112000B4DE2FDE22C080918F048823F1F08091FD
:101130009904815080939904811108C080919A0488
:1011400090919B04909329018093280180919C04A5
:10115000815080939C04811108C080919D049091DE
:101160009E0490932B0180932A01FF91EF91BF91F0
:10117000AF919F918F917F916F915F914F913F912F
:101180002F910F900BBE0F900FBE0F901F901895D0
:101190001F920F920FB60F921124109202010F901E
:1011A0000FBE0F901F9018951F920F920FB60F92BF
:1011B00011240BB60F922F933F934F935F936F932E
:1011C0007F938F939F93AF93BF93EF93FF938FB7CB
:1011D00080688FBF5ADE31DC6093AB037093AC0341
:1011E0008093AD039093AE03CCDB7093B003609318
:1011F000AF03109208018FEF9FEF90932B01809324
:101200002A01A198FF91EF91BF91AF919F918F918A
:101210007F916F915F914F913F912F910F900BBEF6
:101220000F900FBE0F901F9018951F920F920FB640
:101230000F9211240BB60F922F933F934F935F930E
:101240006F937F938F939F93AF93BF93EF93FF938E
:101250008FB780688FBFCEDBFF91EF91BF91AF91C9
:101260009F918F917F916F915F914F913F912F91BE
:101270000F900BBE0F900FBE0F901F9018950E94FD
:1012800018131092A1040895FF920F931F93CF9308
:10129000DF9300D000D0CDB7DEB78A01DA011D920E
:1012A0001C92FC0120812D3221F40196FF24F3943D
:1012B00001C0F12CFC013196DC019C9180ED890F7D
:1012C00089838A3008F046C080E08F5F282F30E0A5
:1012D000519190ED950FA1E0B0E0AC0FBD1FA20FB2
:1012E000B31F9C939A3088F35A3081F5681780F1C8
:1012F000882309F1982F60E070E0F901E91BF109FA
:1013000041E050E04C0F5D1FE40FF51F4081FB01F1
:10131000EE0FFF1F660F771F660F771F660F771F91
:101320006E0F7F1F640F711D915039F7D8016D93B7
:101330007C9301C080E0FF2081F0F80120813181A1
:101340003195219531093183208307C080E005C0A4
:1013500080E003C09A3071F380E026960FB6F894CF
:10136000DEBF0FBECDBFDF91CF911F910F91FF90D8
:1013700008958F929F92AF92BF92CF92DF92EF9299
:10138000FF920F931F93CF93DF93CDB7DEB72B97C9
:101390000FB6F894DEBF0FBECDBF8A01DA011D92F1
:1013A0001D921D921C921397FC0120812D3219F47D
:1013B000019641E001C040E0FC013196DC019C91C6
:1013C00080ED890F89838A3008F05DC080E08F5FEF
:1013D000282F30E0519190ED950FA1E0B0E0AC0FD7
:1013E000BD1FA20FB31F9C939A3088F35A3009F0A7
:1013F00046C0681708F445C0882371F1982FC12CA6
:10140000D12C7601F901E91BF10961E070E06C0F64
:101410007D1FE60FF71F5081CC0CDD1CEE1CFF1C5E
:1014200046015701880C991CAA1CBB1C880C991CEE
:10143000AA1CBB1CC80CD91CEA1CFB1CC50ED11C69
:10144000E11CF11C9150F1F6D801CD92DD92ED92A4
:10145000FC92139701C080E04423C1F0F801408161
:1014600051816281738170956095509541955F4F70
:101470006F4F7F4F408351836283738307C080E047
:1014800005C080E003C09A3031F380E02B960FB6A0
:10149000F894DEBF0FBECDBFDF91CF911F910F91AA
:1014A000FF90EF90DF90CF90BF90AF909F908F9084
:1014B0000895CF93DF93CDB7DEB72A970FB6F89490
:1014C000DEBF0FBECDBF9C012F5F3F4FDC018C9173
:1014D000805389838A3058F5F9019E012E5F3F4F72
:1014E00040E001C0492F91E0940F81918053D901D0
:1014F0008D939D018A3008F59930A1F71EC0819126
:10150000882321F08130A9F4852F01C0842F90E039
:10151000022E02C0880F991F0A94E2F7DB019C910A
:10152000890F8C932150310950F781E00FC080E082
:101530000DC080E00BC080E009C04730E1F7FE013C
:10154000319627E030E040E051E0D9CF2A960FB63F
:10155000F894DEBF0FBECDBFDF91CF9108950C94FC
:10156000C7130895CF92DF92EF92FF920F931F93CC
:10157000CF93DF93CDB7DEB72C970FB6F894DEBFCD
:101580000FBECDBFE62E992344F42DE230E038871C
:101590002F8391958195910901C01F824AE0BE0178
:1015A0006F5F7F4F0E940916BE016F5F7F4FCE01B4
:1015B00007960E94F715BE01695F7F4FCE01019625
:1015C0000E940216E1100FC020C0D886CF82B80159
:1015D000CE0107960E94F715BE01695F7F4FC801D3
:1015E0000E94021608C08E010F5F1F4FF12C6894F5
:1015F000CC24C5F8D12CF80101900020E9F73197EF
:10160000E01BF10BEE15FF0500F3CE0101960E94E1
:10161000B6132C960FB6F894DEBF0FBECDBFDF9188
:10162000CF911F910F91FF90EF90DF90CF90089591
:10163000CF92DF92EF92FF920F931F93CF93DF939E
:10164000CDB7DEB766970FB6F894DEBF0FBECDBF3D
:10165000E42E992364F42DE230E03D872C879095A9
:101660008095709561957F4F8F4F9F4F01C01C866D
:101670002AE0AE014F5F5F4F0E941316BE016F5FFD
:101680007F4FCE010C960E94F715BE01645F7F4F1D
:10169000CE0101960E940216E1100FC020C0DD8627
:1016A000CC86B801CE010C960E94F715BE01645F8E
:1016B0007F4FC8010E94021608C08E010F5F1F4FA6
:1016C000F12C6894CC24C5F8D12CF80101900020AD
:1016D000E9F73197E01BF10BEE15FF0500F3CE01A2
:1016E00001960E94B61366960FB6F894DEBF0FBE41
:1016F000CDBFDF91CF911F910F91FF90EF90DF90C1
:10170000CF9008955F926F927F928F929F92AF9247
:10171000BF92CF92DF92EF92FF920F931F93CF93DE
:10172000DF93CDB7DEB764970FB6F894DEBF0FBE78
:10173000CDBF4C01762EC42E442389F0842F01E0C6
:1017400010E09801220F331F000F111F000F111F0F
:10175000000F111F020F131F815099F702C001E003
:1017600010E0C401992024F4882799278819990941
:10177000582E692EB8010E949A154AE0BE016F5F8B
:101780007F4F0E940916CE0101967C01D12C0F2EAD
:10179000F0E3AF2EB12CF02D0DC0BC86AB86B701A7
:1017A000CE010B960E94F715BE01655F7F4FC70102
:1017B0000E940216F70101900020E9F73197EE1917
:1017C000FF09EC15FD0548F37E019BE0E90EF11CD5
:1017D000852D962DB8010E949A15CB014AE0B701DC
:1017E0000E940916F70101900020E9F731978EE277
:1017F00090E091838083BE016F5F7F4FC7010E949D
:10180000F71599202CF48DE290E09A83898301C02A
:101810001982BE01655F7F4FCE0101960E94F715C8
:1018200071100FC021C0DC86CB86B801CE010B96AB
:101830000E94F715BE01655F7F4FC8010E94021626
:1018400009C08E010F5F1F4FE72CF12C6894CC2448
:10185000C5F8D12CF80101900020E9F73197E01B81
:10186000F10BEE15FF05F8F2CE0101967FD76496D5
:101870000FB6F894DEBF0FBECDBFDF91CF911F91A1
:101880000F91FF90EF90DF90CF90BF90AF909F901F
:101890008F907F906F905F900895CF93DF93CDB737
:1018A000DEB729970FB6F894DEBF0FBECDBF99E023
:1018B000E5E0F2E0DE01119601900D929A95E1F7D4
:1018C000FE01319627E030E090E070E361E3AC0187
:1018D000022E02C0559547950A94E2F740FF02C0D8
:1018E000608301C070832150310931962F3F4FEF43
:1018F000340769F7CE01019639D729960FB6F894C7
:10190000DEBF0FBECDBFDF91CF9108950F931F9320
:10191000CF93DF93CDB7DEB727970FB6F894DEBF2E
:101920000FBECDBFFC013281818119821B821A82D8
:101930001C821D821E821F822081223509F03AC03E
:10194000833509F08EC5343509F08BC583818A3023
:1019500081F4109289048EE092E019D798E088E132
:101960000FB6F894A895809360000FBE9093600026
:10197000FFCF803209F075C58481813309F071C5CC
:1019800085818A3009F06DC5109289046FEF7FEF71
:1019900087E190E00E94901685E192E0F8D698E009
:1019A00088E10FB6F894A895809360000FBE9093DD
:1019B0006000FFCF90E0932B233509F06AC4638168
:1019C000603209F0B0C18D3420E5920709F4F2C00D
:1019D000A0F4843524E4920709F459C128F48E3424
:1019E000944409F428C19BC185342EE49207F1F098
:1019F0008834904509F49DC092C18D3423E5920747
:101A000009F47EC050F4803522E5920709F46CC1D8
:101A10008434934509F45BC082C1803523E5920785
:101A200021F18335934509F439C079C1848181332B
:101A300059F485818A30A9F481E080938904729AEF
:101A400083E292E0A4D60DC5803359F485818A30B3
:101A500041F410928904A6D8729889E292E097D650
:101A600000C58FE292E093D6FCC48481813341F4B7
:101A700085818A3079F485D98AE392E088D6F1C4E9
:101A8000803341F485818A3029F48CD880E492E057
:101A90007ED6E7C48FE292E07AD6E3C484818133B4
:101AA00041F485818A3079F48AD986E492E06FD650
:101AB000D8C4803341F485818A3029F473D88CE40A
:101AC00092E065D6CEC48FE292E061D6CAC484812A
:101AD000813341F485818A3079F482E592E057D6EA
:101AE00074D9BFC4803341F485818A3029F45AD82F
:101AF00088E592E04CD6B5C48FE292E048D6B1C4F6
:101B00008481813341F485818A3079F48EE592E0D5
:101B10003ED669D9A6C4803341F485818A3029F440
:101B200041D884E692E033D69CC48FE292E02FD66F
:101B300098C4AE014C5F5F4F66E0CF01049619DC9C
:101B4000811104C08FE292E022D68BC48C819D81EA
:101B5000AE81BF81AC01BD014951510961097109D3
:101B6000483A544D6140710540F0892B8A2B8B2BEC
:101B700021F08AE692E00BD674C485E792E0F6D5B0
:101B80006C817D818E819F8141E052DD8AE792E008
:101B9000FED54C815D816E817F814093B40350936B
:101BA000B5036093B6037093B70381E190E00E94A0
:101BB0008B1657C4AE014C5F5F4F66E0CF010496B1
:101BC000D8DB811104C08FE292E0E1D54AC48C8158
:101BD0009D81AE81BF81AC01BD01495151096109AF
:101BE0007109483A544D6140710540F0892B8A2BA8
:101BF0008B2B21F08AE692E0CAD533C48EE792E0BF
:101C0000B5D56C817D818E819F8141E011DD8AE7B0
:101C100092E0BDD54C815D816E817F8140938404CB
:101C20005093850460938604709387048BE090E062
:101C30000E948B1616C4AE014E5F5F4F66E0CF0167
:101C4000049622DB811104C08FE292E0A0D509C482
:101C50008A819B810197883E934020F08AE692E03A
:101C600096D5FFC383E892E081D561E08A819B81AC
:101C700079DC81E193E08BD56A817B817093B90334
:101C80006093B80381E090E00E949016EAC3AE0131
:101C90004E5F5F4F66E0CF010496F6DA811104C013
:101CA0008FE292E074D5DDC38A819B810197883EE3
:101CB000934020F08AE692E06AD5D3C388E892E0A8
:101CC00055D541E061E08A819B811CDD8AE792E085
:101CD0005ED56A817B817093B2036093B10383E028
:101CE00090E00E949016BDC3BE016F5F7F4FCF0191
:101CF0000496DFDB811104C08FE292E048D5B1C3C6
:101D00008DE892E033D58981C8DD82E193E03FD54B
:101D100069816093950480E090E0EFD7A2C382E9E7
:101D200092E035D59EC300ED060F083008F0ADC235
:101D30002481283409F452C138F4213409F452C101
:101D4000223409F4B3C19DC22D3409F487C024356F
:101D500009F48EC12C3409F094C2883423E492072C
:101D600029F08D34934409F43AC074C0AE014E5F3B
:101D70005F4F64E0CF01069687DA811104C08FE2DD
:101D800092E005D56EC38A819B818D3D954020F000
:101D90008AE692E0FCD465C38EE992E0E7D461E084
:101DA0008A819B81DFDB87EA92E0F1D46A817B81C3
:101DB00080914104909142048617970709F451C31A
:101DC000709342046093410485E190E0A9D7602FAD
:101DD00080914104909142040E94EB0042C3AE0105
:101DE0004E5F5F4F63E0CF0106964EDA811104C06B
:101DF0008FE292E0CCD435C38A819B81C297893C23
:101E0000910520F08AE692E0C2D42BC38BEA92E0DF
:101E1000ADD441E061E08A819B8174DC87EA92E085
:101E2000B6D46A817B8180913C0490913D048617F1
:101E3000970709F416C370933D0460933C048FE048
:101E400090E06ED7602F80913C0490913D040E94F9
:101E50000F0107C382E992E09AD403C38D3423E4CF
:101E6000920709F442C08D3426E5920709F478C040
:101E70008834934409F0AEC0AE014E5F5F4F64E01A
:101E8000CF01069601DA811104C08FE292E07FD47F
:101E9000E8C28A819B818938934120F08AE692E0EA
:101EA00076D4DFC284EB92E061D461E08A819B81C9
:101EB00059DB87EA92E06BD46A817B81809141048F
:101EC000909142048617970709F4CBC2709342049D
:101ED0006093410485E190E023D7602F8091410415
:101EE000909142040E943301BCC2AE014E5F5F4F2D
:101EF00063E0CF010696C8D9811104C08FE292E059
:101F000046D4AFC28A819B81C297893C910520F05B
:101F10008AE692E03CD4A5C280EC92E027D441E06E
:101F200061E08A819B81EEDB87EA92E030D46A81AE
:101F30007B8180913C0490913D048617970709F4BA
:101F400090C270933D0460933C048FE090E0E8D62B
:101F5000602F80913C0490913D040E94570181C202
:101F6000AE014E5F5F4F64E0CF0106968DD98111BF
:101F700004C08FE292E00BD474C28A819B818456A4
:101F800091098D36974020F08AE692E000D469C22C
:101F90008CEC92E0EBD342E061E08A819B81B2DB82
:101FA00088ED92E0F4D36A817B818091AF039091B8
:101FB000B0038617970709F454C27093B003609377
:101FC000AF0389E090E0ACD6602F8A819B810E94AC
:101FD0007B0147C282E992E0DAD343C28BED92E003
:101FE000D6D33FC287359F4409F03BC2AE014E5F56
:101FF0005F4F64E0CF01069647D9811104C08FE29C
:1020000092E0C5D32EC28A819B818131974220F014
:102010008AE692E0BCD325C286EF92E0A7D361E0C6
:102020008A819B819FDA8FEF92E0B1D36A817B81B5
:1020300070933F0460933E0487E090E071D66A811C
:102040007B8180913E0490913F048617970709F4A5
:1020500008C270933F0460933E0487E090E060D62E
:10206000602F80913E0490913F040E94AC01F9C121
:102070008335944509F0F5C185818A3021F08FE2DE
:1020800092E085D3EEC183E093E070D3002E000C84
:10209000110B61E0C80166DA82E193E078D3C801F0
:1020A0000E94D502C8010E945F04DBC1823524E48E
:1020B000920709F4B7C048F4823522E4920729F167
:1020C0008235934409F47FC0CCC182352CE4920759
:1020D00009F44AC089349E4409F0C3C185818A301D
:1020E00021F08FE292E053D3BCC1002E000C110B03
:1020F000C8010E940F0283E193E038D361E0C80178
:1021000031DA89E193E043D3ACC18681813399F41C
:1021100087818A3029F5002E000C110BC8010E941E
:102120005C0287E193E022D361E0C8011BDA8BE116
:1021300093E02DD396C1803399F487818A3081F45E
:10214000002E000C110BC8010E94C40287E193E02D
:102150000DD361E0C80106DA8FE193E018D381C1A5
:102160008FE292E014D37DC18681813399F4878117
:102170008A3029F5002E000C110BC8010E9476024E
:1021800083E293E0F3D261E0C801ECD98BE193E004
:10219000FED267C1803399F487818A3081F4002EA2
:1021A000000C110BC8010E94C40283E293E0DED24E
:1021B00061E0C801D7D98FE193E0E9D252C18FE243
:1021C00092E0E5D24EC18681813399F487818A30CD
:1021D00029F5002E000C110BC8010E94900287E225
:1021E00093E0C4D261E0C801BDD98BE193E0CFD2C6
:1021F00038C1803399F487818A3081F4002E000C35
:10220000110BC8010E94C40287E293E0AFD261E0E3
:10221000C801A8D98FE193E0BAD223C18FE292E03E
:10222000B6D21FC18681813399F487818A3029F51E
:10223000002E000C110BC8010E94AA028BE293E051
:1022400095D261E0C8018ED98BE193E0A0D209C19B
:10225000803399F487818A3081F4002E000C110BB1
:10226000C8010E94C4028BE293E080D261E0C80101
:1022700079D98FE193E08BD2F4C08FE292E087D2DC
:10228000F0C082E992E083D2ECC082E992E07FD292
:10229000E8C0273409F0E2C023812A3009F0DEC00B
:1022A00085342EE4920771F198F4883423E4920780
:1022B000A9F128F48035914409F497C0CBC08D343E
:1022C00023E49207C1F18934944409F487C0C2C061
:1022D000883426E5920709F43CC050F4883420E5A0
:1022E000920709F456C08D34904509F463C0B2C01A
:1022F0008D3426E5920709F43DC08634974509F4EC
:1023000066C0A8C08FE293E031D28091890461E079
:1023100090E028D982E193E03AD2A3C084E393E02D
:1023200025D261E080914104909142041BD987EA53
:1023300092E02DD296C089E393E018D241E061E0AB
:1023400080913C0490913D04DDD987EA92E01FD250
:1023500088C08EE393E00AD26091AB037091AC0326
:102360008091AD039091AE0341E062D98FEF92E08E
:102370000ED277C083E493E0F9D16091AF037091FE
:10238000B00380E090E041E053D98FEF92E0FFD1BD
:1023900068C088E493E0EAD16091B4037091B5031A
:1023A0008091B6039091B70341E042D98AE792E069
:1023B000EED157C08DE493E0D9D161E080918404DF
:1023C00090918504CFD88AE792E0E1D14AC082E5B6
:1023D00093E0CCD186E593E0DAD143C08CE693E07C
:1023E000C5D180E793E0D3D13CC08AE893E0BED169
:1023F0008091890461E090E0B5D882E993E0B6D19C
:1024000061E08091410490914204ACD882E993E06C
:10241000ADD141E061E080913C0490913D0472D9DE
:1024200082E993E0A3D16091B4037091B5038091E8
:10243000B6039091B70341E0FBD882E993E096D1CF
:1024400061E080918404909185048CD882E193E0CE
:102450009ED107C082E992E09AD103C082E992E05E
:1024600096D127960FB6F894DEBF0FBECDBFDF9191
:10247000CF911F910F910895F5D08093A1048823E7
:1024800039F08BEB93E09093A00480939F043ECAB5
:1024900008951F920F920FB60F9211240BB60F9250
:1024A0008F939F93EF93FF9380919D03882329F04F
:1024B0008091C6008093930435C080919F03811161
:1024C0002DC0E091A003F0E08091C600EE5DFA4FD0
:1024D0008083E091A003F0E0EE5DFA4F80818A30C6
:1024E00029F480919E038F5F80939E038091A003C7
:1024F0008F5F8093A0038091A003803811F4109225
:10250000A0039091A0038091A103981303C081E0E0
:1025100080939F0385E08093930404C08091C6005C
:1025200080939304FF91EF919F918F910F900BBE39
:102530000F900FBE0F901F9018951F920F920FB61D
:102540000F9211240BB60F928F939F93EF93FF93EB
:102550008091000281111DC080919C038F5F809348
:102560009C0380919C03803811F410929C039091FD
:102570009C0380919B03981304C081E08093000228
:1025800008C0E0919C03F0E0EE55FB4F8081809302
:10259000C60085E080939304FF91EF919F918F9106
:1025A0000F900BBE0F900FBE0F901F9018958F923B
:1025B0009F92AF92BF92CF92DF92EF92FF92699A71
:1025C000E1ECF0E0208128612083208120682083D5
:1025D000208120642083E2ECF0E0208126602083CB
:1025E0006C01E12CF12CA0E2B3E0A7019601F5D239
:1025F0004B015C0124E2920E24EFA21EB11CA0E468
:10260000B6E0A7019601E9D29B01AC01C501B40176
:10261000A5D2215031093093C5002093C400FF900A
:10262000EF90DF90CF90BF90AF909F908F900895E4
:1026300080E492E0BCCF0895E1ECF0E080818F77F8
:102640008083A6ECB0E02C911092A1031092A0031D
:102650008C9110929F0310929E03908190689083BA
:10266000820F0895CF93C0919E03CC2309F440C0FC
:1026700080E0A1ECB0E0282F30E0E091A103F0E091
:10268000EE5DFA4F9081F901E554FC4F90839C91E7
:102690009F779C939091A1039F5F9093A10390914A
:1026A000A103903811F41092A10310929F039C9102
:1026B00090689C93F901E554FC4F90819A3091F415
:1026C000E1ECF0E090819F77908390919E03915090
:1026D00090939E03908190689083F901E554FC4F9C
:1026E00011820CC091118F5F88232CF680E006C008
:1026F00080919F03882311F09FDF8C2FCF91089545
:10270000382F20919B0390919C03291304C0809142
:102710000002882351F1E0919B03F0E0EE55FB4F5E
:102720003083E1ECF0E080818F7B808380919B039C
:102730008F5F80939B0380919B03803811F41092EC
:102740009B0380910002882351F0E0919C03F0E00C
:10275000EE55FB4F80818093C60010920002E1ECA1
:10276000F0E080818064808381E00895CF93DF93DF
:10277000EC018881882341F08881C2DF8823E1F35E
:10278000219688818111F8CFDF91CF910895CF9361
:10279000DF93EC018881882341F08881B1DF8823B1
:1027A000E1F3219688818111F8CF8AE0A9DF88239F
:1027B000E1F3DF91CF9108951092D5001092D400EB
:1027C000289A2398229A219A84E58CBD8CB580683A
:1027D0008CBD8CB580688CBD8CB583608CBD089534
:1027E00090930302809302026093A4034093A30397
:1027F0002093010208959091A303992319F088234F
:10280000A9F002C0811112C0E0910202F09103020E
:10281000208181E090E00090A40302C0880F991FFE
:102820000A94E2F78095822380830895E091020262
:10283000F0910302208181E090E00090A40302C0A7
:10284000880F991F0A94E2F7822B808308958134C0
:1028500008F080E4A4E4B4E020E015C0E091AA030D
:10286000F0E0EE51FA4F90819D932F5F9091AA0373
:102870009F5F9093AA039091AA03903411F4109251
:10288000AA031092A8033091AA039091A9033913C7
:1028900004C09091A803992319F02813DFCF08955D
:1028A000822F08958091A803811106C08091A90309
:1028B0009091AA03891B089580E408958091A5034F
:1028C0009091A603891B08958CB58F778CBD2EB58A
:1028D0001092AA031092A9038EB51092A8039CB57A
:1028E00090689CBD820F08951F920F920FB60F92B1
:1028F00011240BB60F922F933F934F935F936F93D7
:102900007F938F939F93AF93BF93EF93FF938091A8
:10291000A803811124C0E091A903F0E08EB5EE5127
:10292000FA4F80838091A9038F5F8093A9038091E0
:10293000A903803411F41092A9039091A903809106
:10294000AA03981303C081E08093A8039091A20387
:1029500080910102981304C01092A70301C0B4DF54
:1029600084E993E00E94AF0AFF91EF91BF91AF918C
:102970009F918F917F916F915F914F913F912F9197
:102980000F900BBE0F900FBE0F901F9018951F92C7
:102990000F920FB60F9211240BB60F922F933F9305
:1029A0004F935F936F937F938F939F93AF93BF9357
:1029B000EF93FF938091A703882349F18091A803A7
:1029C000811124C0E091A903F0E08EB5EE51FA4FD9
:1029D00080838091A9038F5F8093A9038091A903CD
:1029E000803411F41092A9039091A9038091AA0355
:1029F000981303C081E08093A8039091A203809173
:102A0000010298130EC01092A70307C05DDF9091DA
:102A1000A20380910102981304C080E0ECDE1092C2
:102A2000A20380910402811123C08091A6038F5FCD
:102A30008093A6038091A603803411F41092A6031C
:102A40009091A5038091A603981304C081E0809320
:102A500004020EC081E0CFDEE091A603F0E0EE5567
:102A6000FA4F80818EBD8091A2038F5F8093A20375
:102A7000FF91EF91BF91AF919F918F917F916F9156
:102A80005F914F913F912F910F900BBE0F900FBE12
:102A90000F901F901895382F2091A5039091A603B1
:102AA000291304C080910402882361F1E091A503F9
:102AB000F0E0EE55FA4F30838CB58F778CBD809166
:102AC000A5038F5F8093A5038091A503803411F443
:102AD0001092A50380910402882381F081E08BDEAF
:102AE000E091A603F0E0EE55FA4F80818EBD809113
:102AF000A2038F5F8093A203109204028CB58068BA
:102B00008CBD81E008951F93CF93DF93EC01162FC6
:102B1000662339F08881BFDF8823E1F321961150C5
:102B2000C9F7DF91CF911F91089521E02093A7036A
:102B3000EACF0895AA1BBB1B51E107C0AA1FBB1F08
:102B4000A617B70710F0A61BB70B881F991F5A9539
:102B5000A9F780959095BC01CD010895A1E21A2EA8
:102B6000AA1BBB1BFD010DC0AA1FBB1FEE1FFF1F31
:102B7000A217B307E407F50720F0A21BB30BE40B81
:102B8000F50B661F771F881F991F1A9469F76095C8
:102B90007095809590959B01AC01BD01CF01089582
:102BA000EE0FFF1F881F8BBF0790F691E02D199441
:102BB000A29FB001B39FC001A39F700D811D11247E
:102BC000911DB29F700D811D1124911D0895F0DF9C
:102BD000B7FF0895821B930B0895EADFA59F900D20
:102BE000B49F900DA49F800D911D11240895FB01A9
:102BF000DC010D900020E9F7119701900D92002063
:102C0000E1F70895FB01DC0101900D920020E1F74E
:102C10000895BB274A3031F4992322F4BDE2909500
:102C200081959F4F30C0BB272A3051F4992342F43D
:102C3000BDE290958095709561957F4F8F4F9F4F26
:102C400001C0BB27FA01A62F621771058105910506
:102C5000330B30FB66F0AA27660F771F881F991F7A
:102C6000AA1FA21710F0A21B63953850A9F7A05D08
:102C7000AA3308F0A95DA19336F7B111B193108280
:102C8000CA0119C0BB27FB015527AA27880F991F26
:102C9000AA1FA41710F0A41B83955051B9F7A05D8B
:102CA000AA3308F0A95DA193009779F7B111B19308
:102CB0001192CB0100C0DC01FC01672F71917723D9
:102CC000E1F7329704C07C916D9370836291AE17E7
:102CD000BF07C8F30895F999FECF92BD81BDF89A58
:102CE000992780B50895A6E1B0E044E050E01DC00A
:102CF000A8E1B0E042E050E018C0262FF999FECFDD
:102D00001FBA92BD81BD20BD0FB6F894FA9AF99A08
:102D10000FBE01960895242FF1DF252FEFDF00C0AD
:102D2000ECDF272FEBCFDC01CB01FC01F999FECFC3
:102D300006C0F2BDE1BDF89A319600B40D92415043
:0A2D40005040B8F70895F894FFCF53
:102D4A0001012500013030303030303030007265FA
:102D5A00626F6F7400666163746F72792072657353
:102D6A0065740053454E3D310053454E3D30004693
:102D7A004F524D415420455252005350533D310059
:102D8A005350533D30005353533D31005353533D39
:102D9A0030005344533D31005344533D3000534DAA
:102DAA00533D3100534D533D30004E554D4245522F
:102DBA0020455252005348503D00206D7300534D38
:102DCA00503D00534E443D005354443D005350522D
:102DDA003D00434F4D4D414E442045525200534809
:102DEA0043204C45443D00206D4100534D43204C47
:102DFA0045443D00534843204D4F534645543D00FA
:102E0A00534D43204D4F534645543D00534D562094
:102E1A004D4F534645543D0020560046756E637427
:102E2A00696F6E206E6F74207265616C697A656471
:102E3A0020796574210053574F20416D703D002061
:102E4A006D560053535420536C6F742D546573742C
:102E5A003A200053494E0053524200423D3100424B
:102E6A003D300053524C00535243005352440047E2
:102E7A00454E3D004748433D00474D433D004748C6
:102E8A00563D00474D563D004748503D00474D507E
:102E9A003D0046573D005274685445435F6D435F99
:102EAA00556E69742056302E302E350049443D0047
:102EBA00527468544543205454412D4571756970C4
:102ECA006D656E742056315F3000504152414D534A
:082EDA003D002C006A610000BC
:00000001FF
