S01800004D435F5274685445435F56305F305F352E737265630B
S11300007BC000009AC0000098C0000096C00000A9
S113001094C0000092C0000090C000008EC0000098
S11300208CC000008AC0000088C0000086C00000A8
S113003084C000000C94041580C000007EC0000041
S11300407CC000007AC0000078C0000076C00000C8
S113005074C0000072C0000070C000006EC00000D8
S11300600C941A210C949D1E68C000000C94F11E7F
S113007064C0000062C0000060C000005EC00000F8
S11300805CC000005AC0000058C0000056C0000008
S113009054C0000052C0000050C000004EC0000018
S11300A04CC000004AC0000048C0000046C0000028
S11300B044C0000042C0000040C000000C94D016B0
S11300C00C94FE160C9480170C9458160C94C820AB
S11300D034C0000032C0000030C000002EC0000058
S11300E02CC00000A60E920E940E960E980E9A0E38
S11300F09C0E9E0EA00EA20E11241FBECFEFD1E2C5
S1130100DEBFCDBF00E00CBF13E0A0E0B2E0E4ED41
S1130110F6E400E00BBF02C007900D92AE3EB107BB
S1130120D9F727E0AEEEB3E001C01D92AA33B207BF
S1130130E1F70E946D140C94682362CFCF93DF9390
S11301400197EC01CC0FDD1FCE01845D9F4F0E940F
S11301504423FE01E158FB4F91838083CE01845EEA
S11301609F4F0E944423C157DB4F99838883DF91BB
S1130170CF9108950F931F93CF93DF930197EC01D1
S1130180CC0FDD1FFE01E158FB4F82E090E091832C
S113019080838E0101571B4F88EB9BE0F80191830C
S11301A0808362E070E0CE01845D9F4F0E946523EE
S11301B0F80160817181CE01845E9F4F0E946523A6
S11301C0DF91CF911F910F910895CF93CFEFC60F79
S11301D09C01AFEFBFEF0E94472220E137E240E0ED
S11301E050E00E940122DA01C90120E04C2F62E2B2
S11301F070E00E945C11CF9108950F931F93CF93E9
S1130200DF938C01E2E0F1E02081EC01219781E0B1
S113021090E00C2E02C0880F991F0A94E2F7982FE1
S1130220909529232083E8E0F1E0208192239083B4
S113023092B1982B92B9E5E0F1E09081982B9083EC
S11302409BB1982B9BB998B1982B98B9E1E0F1E058
S11302509081982B9083E7E0F1E09081982B908334
S113026091B1982B91B9E4E0F1E09081982B9083BF
S11302709AB1982B9AB997B1892B87B92FEF200F90
S113028042E250E061E080E00E943111CC0FDD1FBA
S1130290C157DB4FB8018881998197DFDF91CF91F6
S11302A01F910F910895EF92FF920F931F93CF9395
S11302B0DF931F921F92CDB7DEB7FC01228130E09D
S11302C0322F22278181282B038100531A8219821D
S11302D029348EE4380749F027358FE4380771F163
S11302E02735374409F0C9C079C085818A3029F09F
S11302F087E192E00E941219C4C0002E000C110B79
S1130300F801E356FA4F81E4808348E050E06CE35F
S113031070E08EE995E00E944923C8012BDFC801F3
S11303206CDF82E292E00E94101961E0C8010E9431
S1130330141989E792E00E941219A3C0AE014F5F1D
S11303405F4F64E0CF0106960E94DD17811105C05E
S113035087E192E00E94121994C089819A818131C7
S1130360974228F086E292E00E9412198AC081E343
S113037092E00E941019002E000C110B61E0C801DC
S11303800E94141985E392E00E94101943E061E091
S113039089819A810E94E21988E392E00E941219ED
S11303A0C801019769817A81FC01EE0FFF1FE157B3
S11303B0FB4F208131812617370709F462C0880F6B
S11303C0991F7F0171836083845E9F4F0E94652320
S11303D0B801F70180819181F8DE53C0AE014F5F0F
S11303E05F4F64E0CF0106960E94DD17811105C0BE
S11303F087E192E00E94121944C089819A81029790
S113040029F086E292E00E9412193BC08BE392E04D
S11304100E941019002E000C110B61E0C8010E940B
S1130420141985E392E00E94101961E082E090E0E3
S11304300E9414198FE392E00E94121901501109CD
S1130440F801EE0FFF1FE158FB4F208131818981B4
S11304509A8128173907A9F0000F111FF801E158F4
S1130460FB4F82E090E09183808362E070E0C801FA
S1130470845D9F4F0E94652304C089E492E00E943A
S113048012190F900F90DF91CF911F910F91FF9050
S1130490EF900895CF93DF93FC01C381C053228171
S11304A030E0322F22278181282B273587E4380733
S11304B009F127353F44D9F585E592E00E941019EA
S11304C00C2E000CDD0B61E0CE010E94141985E3B3
S11304D092E00E941019CC0FDD1FC357DB4F43E09D
S11304E061E0888199810E94E21988E392E00E9488
S11304F0121921C089E592E00E9410190C2E000CFB
S1130500DD0B61E0CE010E94141985E392E00E94A4
S11305101019CC0FDD1FC358DB4F61E0888199812E
S11305200E9414198FE392E00E94121904C089E416
S113053092E00E941219DF91CF910895CF93DF9337
S11305400197EC01CC0FDD1FCE01845D9F4F0E940B
S11305504423FE01E055FB4F91838083CE01845EEA
S11305609F4F0E944423C056DB4F99838883DF91B9
S1130570CF9108950F931F93CF93DF930197EC01CD
S1130580CC0FDD1FFE01E055FB4F89E190E0918324
S113059080838E0100561B4F88EB9BE0F80191830A
S11305A0808369E170E0CE01845D9F4F0E946523E2
S11305B0F80160817181CE01845E9F4F0E946523A2
S11305C0DF91CF911F910F9108958233910571F0BE
S11305D084369105A1F04997D1F42FEF260F45E019
S11305E051E064E08AE00C94001208952FEF260F86
S11305F045E051E065E08AE00C94001208952FEF85
S1130600260F45E051E066E08AE00C94001208955C
S1130610CF93CFEFC60F9C01AFEFBFEF0E944722ED
S113062020E137E240E050E00E940122DA01C901F2
S113063020E04C2F62E270E00E945C11CF9108959B
S11306400F931F93CF93DF93E2E0F1E020818C01BD
S11306500150110941E050E0002E02C0440F551F23
S11306600A94E2F7942F909529232083E8E0F1E09F
S113067020819223908392B1942B92B9E5E0F1E02A
S11306809081942B90839BB1942B9BB998B1942B1C
S113069098B9E1E0F1E09081942B9083E7E0F1E0F8
S11306A09081942B908391B1942B91B9E4E0F1E083
S11306B09081942B90839AB1942B9AB997B1492B3A
S11306C047B9CFEFC80F2C2F42E250E061E081E040
S11306D00E9431112C2F45E051E068EF80E00E9428
S11306E000122C2F45E051E064E08AE00E940012E1
S11306F0E801CC0FDD1FFE01E055FB4FB8018081FE
S1130700918163DFC056DB4FB8018881998180DF16
S1130710DF91CF911F910F9108956FEF680F8BE2D6
S113072090E00E9481119C01A0E1B7E20C94472261
S11307300895CF93DF93DFEFD80F4D2F65E071E07D
S113074089E00E942212C82FC3702D2F45E051E08A
S11307506C2F8AE00E9400126C2F64602D2F45E0FC
S113076051E08AE00E940012DF91CF910895EF9248
S1130770FF920F931F93CF93DF931F921F92CDB7D6
S1130780DEB7FC01228130E0322F22278181282B21
S1130790038100531A821982273587E43807C1F18F
S11307A028F42235364409F4D9C0F2C029348EE441
S11307B0380729F027353F4409F481C0E9C0858111
S11307C08A3029F087E192E00E941219E5C0002ED8
S11307D0000C110BF801E356FA4F86E4808348E0DD
S11307E050E06CE370E08EE995E00E944923C80173
S11307F0C1DEC80125DF82E292E00E94101961E0A7
S1130800C8010E94141982E692E00E941219C4C021
S1130810AE014F5F5F4F64E0CF0106960E94DD1783
S1130820811105C087E192E00E941219B5C0898147
S11308309A818436910551F08233910539F04997B4
S113084029F086E292E00E941219A6C08BE392E09E
S11308500E941019002E000C110B61E0C8010E94C7
S113086014198DE592E00E94101961E089819A8142
S11308700E9414198FE392E00E941219C801019793
S113088069817A81FC01EE0FFF1FE055FB4F208147
S113089031812617370709F47FC0880F991FFC019F
S11308A0E055FB4F7F0171836083845D9F4F0E94FD
S11308B06523B801F7018081918187DE6DC0AE01A7
S11308C04F5F5F4F64E0CF0106960E94DD178111F0
S11308D005C087E192E00E9412195EC089819A8165
S11308E08131974228F086E292E00E94121954C0A6
S11308F081E392E00E941019002E000C110B61E0BC
S1130900C8010E9414198DE592E00E94101943E079
S113091061E089819A810E94E21988E392E00E9451
S11309201219C801019769817A81FC01EE0FFF1F3A
S1130930E056FB4F208131812617370769F1880F74
S1130940991F7F0171836083845E9F4F0E9465239A
S1130950B801F701808191815BDE1EC085818A30F8
S113096029F087E192E00E94121916C0002E000CB3
S1130970110BC801DEDE80E692E00E94101961E0EE
S1130980C8010E94141982E692E00E94121904C060
S113099089E492E00E9412190F900F90DF91CF9199
S11309A01F910F91FF90EF900895CF93DF93FC0177
S11309B0D381C0EDCD0F228130E0322F22278181F7
S11309C0282B273587E4380779F028F42635364470
S11309D009F461C079C0233589E4380709F43FC0BC
S11309E027353F44F1F070C089E592E00E94101968
S11309F00C2E000CDD0B61E0CE010E9414198DE574
S1130A0092E00E941019CC0FDD1FC255DB4F61E04C
S1130A10888199810E9414198FE392E00E9412192F
S1130A2057C085E592E00E9410190C2E000CDD0BD6
S1130A3061E0CE010E9414198DE592E00E94101924
S1130A40CC0FDD1FC256DB4F43E061E08881998102
S1130A500E94E21988E392E00E94121939C084E6E8
S1130A6092E00E94101961E08C2FCC0F990B0E9428
S1130A7014198DE592E00E9410194FEC4D0F65E0BA
S1130A8071E089E00E9422120E94AB1A84E093E094
S1130A900E9412191DC088E692E00E9410190C2EC3
S1130AA0000CDD0B61E0CE010E9414198DE592E08B
S1130AB00E941019CE0131DE61E00E9414198CE607
S1130AC092E00E94121904C089E492E00E94121973
S1130AD0DF91CF910895CF93DF930197EC01CC0F71
S1130AE0DD1FCE01845D9F4F0E944423FE01E05F21
S1130AF0FA4F91838083CE01845E9F4F0E944423EA
S1130B00C050DB4F99838883DF91CF9108950F9371
S1130B101F93CF93DF930197EC01CC0FDD1FFE01F0
S1130B20E05FFA4F84EF91E0918380838E0100505F
S1130B301B4F88EC90E0F8019183808364EF71E0AF
S1130B40CE01845D9F4F0E946523F801608171810D
S1130B50CE01845E9F4F0E946523DF91CF911F9148
S1130B600F9108951F93CF93DF931F921F92CDB7D8
S1130B70DEB7162F9C01AFEFBFEF0E9447222CED8A
S1130B8035E040E050E00E9401223A8329838981C4
S1130B909A814FEF410F20E062E270E00E945C1105
S1130BA00F900F90DF91CF911F910895CF93CFEFC6
S1130BB0C60F9C01AFEFBFEF0E9447222AEF30E03F
S1130BC040E050E00E940122DA01C90122E04C2FEA
S1130BD062E270E00E945C11CF9108950F931F931D
S1130BE0CF93DF938C01E2E0F1E02081EC012197C7
S1130BF081E090E00C2E02C0880F991F0A94E2F75E
S1130C00982F909529232083E8E0F1E02081922316
S1130C10908392B1982B92B9E5E0F1E09081982B02
S1130C2090839BB1982B9BB998B1982B98B9E1E02C
S1130C30F1E09081982B9083E7E0F1E09081982B8C
S1130C40908391B1982B91B9E4E0F1E09081982BD5
S1130C5090839AB1982B9AB997B1892B87B92FEFC2
S1130C60200F42E250E065E080E00E943111CC0F99
S1130C70DD1FFE01E05FFA4FB8018081918172DFD0
S1130C80C050DB4FB8018881998190DFDF91CF910B
S1130C901F910F910895EF92FF920F931F93CF939B
S1130CA0DF931F921F92CDB7DEB7FC01228130E0A3
S1130CB0322F22278181282B038100531A82198223
S1130CC02D3483E4380709F481C029348EE43807CD
S1130CD029F02834334409F0C9C029C085818A30F9
S1130CE029F087E192E00E941219C4C0002E000C82
S1130CF0110BF801E356FA4F8CE4808348E050E08E
S1130D006CE370E08EE995E00E944923C801FFDEA0
S1130D10C80164DF82E292E00E94101961E0C80118
S1130D200E94141985E992E00E941219A3C0AE0131
S1130D304F5F5F4F64E0CF0106960E94DD1781117B
S1130D4005C087E192E00E94121994C089819A81BA
S1130D508D3D954028F086E292E00E9412198AC0E7
S1130D6080E792E00E941019002E000C110B61E044
S1130D70C8010E94141984E792E00E94101961E0EE
S1130D8089819A810E94141987E792E00E941219BE
S1130D90C801019769817A81FC01EE0FFF1FE05FB2
S1130DA0FA4F208131812617370709F463C0880F71
S1130DB0991F7F0171836083845D9F4F0E94652327
S1130DC0B801F70180819181CDDE54C0AE014F5F3F
S1130DD05F4F63E0CF0106960E94DD17811105C0C5
S1130DE087E192E00E94121945C089819A81C297D5
S1130DF0893C910528F086E292E00E9412193AC0DB
S1130E008BE792E00E941019002E000C110B61E098
S1130E10C8010E94141984E792E00E94101941E06D
S1130E2061E089819A810E94E21987E792E00E9439
S1130E301219C801019769817A81FC01EE0FFF1F25
S1130E40E050FB4F208131812617370799F0880F36
S1130E50991F7F0171836083845E9F4F0E94652385
S1130E60B801F70180819181A1DE04C089E492E098
S1130E700E9412190F900F90DF91CF911F910F9143
S1130E80FF90EF900895CF93DF93FC01C381C0538B
S1130E90228130E0322F22278181282B283483E4D9
S1130EA0380721F02D343344F1F03BC08FE792E052
S1130EB00E9410190C2E000CDD0B61E0CE010E9483
S1130EC0141984E792E00E941019CC0FDD1FC25F51
S1130ED0DA4F61E0888199810E94141987E792E0D2
S1130EE00E94121922C083E892E00E9410190C2E6D
S1130EF0000CDD0B61E0CE010E94141984E792E03E
S1130F000E941019CC0FDD1FC250DB4F41E061E09D
S1130F10888199810E94E21987E792E00E94121960
S1130F2004C089E492E00E941219DF91CF910895E0
S1130F30CF93DF930197EC01CC0FDD1FCE01845DCD
S1130F409F4F0E944423C05EDA4F99838883DF91C8
S1130F50CF9108950197880F991FFC01E05EFA4F25
S1130F601182108260E070E0845D9F4F0C946523D1
S1130F700895CF93CFEFC80F2C2F48E250E060E0E4
S1130F808AE00E9400122FEF81EE94E0215080400D
S1130F909040E1F700C000002C2F48E250E064E2EA
S1130FA08AE00E940012CF910895CF93CFEFC80F2B
S1130FB02C2F48E250E060E08AE00E9400122FEFFC
S1130FC081EE94E0215080409040E1F700C00000A1
S1130FD02C2F48E250E06AE08AE00E940012CF9190
S1130FE00895CF93CFEFC80F2C2F48E250E060E074
S1130FF08AE00E9400122FEF81EE94E0215080409D
S11310009040E1F700C000002C2F48E250E061E17D
S11310108AE00E940012CF910895CF93CFEFC80FBA
S11310202C2F48E250E060E08AE00E9400122FEF8B
S113103081EE94E0215080409040E1F700C0000030
S11310402C2F48E250E064E18AE00E940012CF9124
S113105008952FEF280F48E250E060E08AE00E94F4
S113106000122FEF81EE94E0215080409040E1F790
S113107000C000000895CF93CFEFC60F2FEF3FEFCE
S1131080DC010E94562220E43CE940E050E00E944A
S11310902322DA01C90120E04C2F62E270E00E94B1
S11310A05C11CF9108950F931F93CF93E2E0F1E089
S11310B020818C010150110941E050E0002E02C052
S11310C0440F551F0A94E2F7942F90952923208307
S11310D0E8E0F1E020819223908392B1942B92B9BD
S11310E0E5E0F1E09081942B90839BB1942B9BB924
S11310F098B1942B98B9E1E0F1E09081942B90831E
S1131100E7E0F1E09081942B908391B1942B91B915
S1131110E4E0F1E09081942B90839AB1942B9AB9F6
S113112097B1492B47B9CFEFC80F2C2F42E250E0BB
S113113061E083E00E9431112C2F48E250E060E02E
S113114080E00E9400122C2F48E250E060E08AE028
S11311500E940012F801EE0FFF1FE05EFA4FB80183
S11311608081918188DFCF911F910F9108956FEF56
S1131170680F85E091E00E9481119C01A0E4BCE924
S11311800C94472208956FEF680F8BE290E00E9461
S113119081119C01A0EDB7E00C9447220895EF92D1
S11311A0FF920F931F93CF93DF931F921F92CDB79C
S11311B0DEB7FC01228130E0322F22278181282BE7
S11311C0038100531A821982223584E4380709F412
S11311D0DDC048F4223582E43807E1F12235334496
S11311E009F4A0C058C122358CE4380709F466C05C
S11311F029348EE4380729F02635374409F04BC1E9
S1131200F9C095819A3029F087E192E00E94121981
S113121046C1002E000C110BF801E356FA4F82E48C
S1131220808348E050E06CE370E08EE995E00E9432
S11312304923C8018FDEC80136DF82E292E00E94B2
S1131240101961E0C8010E94141989E892E00E9413
S1131250121925C196819133A9F487818A3049F501
S1131260002E000C110BC80184DE87E892E00E9476
S1131270101961E0C8010E9414198BE892E00E94E1
S113128012190DC19033A9F487818A3091F4002E8C
S1131290000C110BC801DDDE87E892E00E941019F2
S11312A061E0C8010E9414198FE892E00E941219AB
S11312B0F6C087E192E00E941219F1C09681913341
S11312C0A9F487818A3049F5002E000C110BC8015E
S11312D06CDE83E992E00E94101961E0C8010E946B
S11312E014198BE892E00E941219D9C09033A9F422
S11312F087818A3091F4002E000C110BC801A9DEFD
S113130083E992E00E94101961E0C8010E94141957
S11313108FE892E00E941219C2C087E192E00E9415
S11313201219BDC096819133A9F487818A3049F599
S1131330002E000C110BC80154DE87E992E00E94D4
S1131340101961E0C8010E9414198BE892E00E9410
S11313501219A5C09033A9F487818A3091F4002E24
S1131360000C110BC80175DE87E992E00E94101988
S113137061E0C8010E9414198FE892E00E941219DA
S11313808EC087E192E00E94121989C09681913340
S1131390A9F487818A3049F5002E000C110BC8018D
S11313A03CDE8BE992E00E94101961E0C8010E94C2
S11313B014198BE892E00E94121971C09033A9F4B9
S11313C087818A3091F4002E000C110BC80141DE94
S11313D08BE992E00E94101961E0C8010E9414197F
S11313E08FE892E00E9412195AC087E192E00E94AD
S11313F0121955C0AE014F5F5F4F65E0CF010696ED
S11314000E94DD17811105C087E192E00E94121944
S113141046C029813A81205E314B21343C4928F071
S113142086E292E00E9412193AC08FE992E00E948B
S11314301019002E000C110B61E0C8010E94141950
S113144083EA92E00E94101943E061E089819A8165
S11314500E94E21988E392E00E941219C8010197E0
S113146069817A81FC01EE0FFF1FE05EFA4F208153
S113147031812617370799F0880F991F7F017183EF
S11314806083845D9F4F0E946523B801F7018081CA
S11314909181F1DD04C089E492E00E9412190F9059
S11314A00F90DF91CF911F910F91FF90EF900895CE
S11314B0CF93DF93FC01C381C053228130E0322FEC
S11314C022278181282B263584E4380731F12635FB
S11314D087E4380729F02334344409F050C036C077
S11314E086EA92E00E9410190C2E000CDD0B61E0DC
S11314F0CE010E94141983EA92E00E941019CC0FC5
S1131500DD1FC25EDA4F61E0888199810E9414195F
S113151088E392E00E94121936C08AEA92E00E949F
S113152010190C2E000CDD0B61E0CE010E94141981
S113153083EA92E00E941019CE0119DE61E00E9454
S113154014198CE692E00E9412191DC08EEA92E0F2
S11315500E9410190C2E000CDD0B61E0CE010E94DC
S1131560141983EA92E00E941019CE010CDE61E0A6
S11315700E94141987E792E00E94121904C089E4BA
S113158092E00E941219DF91CF910895CF93DF93D7
S11315900197EC01CC0FDD1FCE01845D9F4F0E94AB
S11315A04423FE01E05CFA4F91838083CE01845E84
S11315B09F4F0E944423FE01E05DFA4F9183808394
S11315C0CE01845F9F4F0E944423C05BDA4F99830E
S11315D08883DF91CF910895EF92FF920F931F9329
S11315E0CF93DF930197EC01CC0FDD1FFE01E05C8C
S11315F0FA4F84EF91E091838083CE01805D9A4F0E
S11316007C0188EC90E0F701918380838E01005B7C
S11316101A4F88EE93E0F8019183808364EF71E0C0
S1131620CE01845D9F4F0E946523F7016081718123
S1131630CE01845E9F4F0E946523F8016081718111
S1131640CE01845F9F4F0E946523DF91CF911F914C
S11316500F91FF90EF900895CF93CFEFC60F9C01A9
S1131660AFEFBFEF0E94472228E833E140E050E0AB
S11316700E940122DA01C90120E04C2F62E270E0ED
S11316801BD6CF910895CF93CFEFC60F9C01AFEF38
S1131690BFEF0E9447222AEF30E040E050E00E9472
S11316A00122DA01C90122E04C2F62E270E004D683
S11316B0CF9108958F929F92AF92BF92CF92DF9273
S11316C0EF92FF920F931F93CF93DF931F921F927A
S11316D0CDB7DEB7162FA0E0B0E0880F991FAA1F80
S11316E0BB1FAC01BD01440F551F661F771F440F7C
S11316F0551F661F771F6C017D01C40ED51EE61EA3
S1131700F71EC701B6012BEA3AEA4AEA5AEA0E94EE
S1131710662200E20E948F22822E932EA42EB52EE2
S1131720A50194015695479537952795AFEFBFEFDF
S11317300E945C22665B794F8944964028E833E135
S113174040E050E00E9401223A83298389819A81F2
S11317504FEF410F20E065E071E0AED50F900F90A0
S1131760DF91CF911F910F91FF90EF90DF90CF9079
S1131770BF90AF909F908F900895FF920F931F9307
S1131780CF93DF938C01E2E0F1E02081EC0121971B
S113179081E090E00C2E02C0880F991F0A94E2F7B2
S11317A0982F909529232083E8E0F1E0208192236B
S11317B0908392B1982B92B9E5E0F1E09081982B57
S11317C090839BB1982B9BB998B1982B98B9E1E081
S11317D0F1E09081982B9083E7E0F1E09081982BE1
S11317E0908391B1982B91B9E4E0F1E09081982B2A
S11317F090839AB1982B9AB997B1892B87B9FF2412
S1131800FA94F00E2F2D42E250E065E080E029D5F5
S11318102F2D45E051E065E080E023D5CC0FDD1F9E
S1131820FE01E05CFA4FB8018081918115DFFE0171
S1131830E05DFA4FB8018081918125DFC05BDA4F0A
S1131840B8018881998136DFDF91CF911F910F9183
S1131850FF900895880F991FFC01E457FA4F2081E7
S11318603181ACE6BBE60E9447222FEF3FEF40E018
S113187050E00E940122C9010895880F991FFC01BC
S1131880EA58FA4F20813181ACE6BBE60E94472238
S11318902FEF3FEF40E050E00E940122C90108957C
S11318A06FEF680F8BE290E078C508956FEF680FD3
S11318B08BE290E072C508956FEF680F8BE290E0C1
S11318C06CC50895EF92FF920F931F93CF93DF930C
S11318D01F921F92CDB7DEB7FC01228130E0322F78
S11318E022278181282B038100531A8219822D34E7
S11318F083E4380709F47EC020F42834334499F192
S11319000BC129348EE4380729F02D34364509F407
S1131910BAC002C185818A3029F087E192E00E9431
S11319201219FEC0002E000C110BF801E356FA4FF9
S11319308DE4808348E050E06CE370E08EE995E04C
S11319400E944923C80148DEC80117DF82E292E001
S11319500E94101961E0C8010E9414198FED92E0F1
S11319600E941219DDC0AE014F5F5F4F64E0CF01EA
S113197006960E94DD17811105C087E192E00E945E
S11319801219CEC089819A818938934128F086E260
S113199092E00E941219C4C082EB92E00E941019D6
S11319A061E089819A810E94141987E792E00E947C
S11319B01219002E000C110BC801019769817A815C
S11319C0FC01EE0FFF1FE05CFA4F208131812617E6
S11319D0370709F4A5C0880F991F7F0171836083BD
S11319E0845D9F4F0E946523B801F7018081918136
S11319F033DE96C0AE014F5F5F4F63E0CF010696C2
S1131A000E94DD17811105C087E192E00E9412193E
S1131A1087C089819A81C297893C910528F086E222
S1131A2092E00E9412197CC08EEB92E00E94101981
S1131A3041E061E089819A810E94E21987E792E09E
S1131A400E941219002E000C110BC8010197698124
S1131A507A81FC01EE0FFF1FE05DFA4F2081318196
S1131A602617370709F45CC0880F991F7F0171831B
S1131A706083845E9F4F0E946523B801F7018081D3
S1131A80918101DE4DC0AE014F5F5F4F64E0CF0135
S1131A9006960E94DD17811105C087E192E00E943D
S1131AA012193EC089819A81845691098D369740D6
S1131AB028F086E292E00E94121932C08AEC92E089
S1131AC00E94101942E061E089819A810E94E21922
S1131AD088E392E00E941219002E000C110BC80139
S1131AE0019769817A81FC01EE0FFF1FE05BFA4FD9
S1131AF0208131812617370799F0880F991F7F01BC
S1131B0071836083845F9F4F0E946523B801F7014E
S1131B1080819181CFDD04C089E492E00E94121992
S1131B200F900F90DF91CF911F910F91FF90EF9045
S1131B300895CF93DF93FC01C381C053228130E029
S1131B40322F22278181282B28348DE4380709F489
S1131B506BC040F4283483E4380769F02D343344EF
S1131B6039F196C02D348DE4380709F477C02D344B
S1131B703645E1F18DC08FE792E00E9410190C2EDA
S1131B80000CDD0B61E0CE010E94141986ED92E099
S1131B900E941019CC0FDD1FC25CDA4F61E088810E
S1131BA099810E94141987E792E00E94121974C067
S1131BB083E892E00E9410190C2E000CDD0B61E00A
S1131BC0CE010E94141986ED92E00E941019CC0FE8
S1131BD0DD1FC25DDA4F41E061E0888199810E9496
S1131BE0E21987E792E00E94121956C089ED92E04B
S1131BF00E9410190C2E000CDD0B61E0CE010E9436
S1131C00141986ED92E00E941019CC0FDD1FC25BFF
S1131C10DA4F42E062E0888199810E94E21988E308
S1131C2092E00E94121938C08DED92E00E941019C2
S1131C300C2E000CDD0B61E0CE010E94141986ED20
S1131C4092E00E941019CE0105DE43E063E00E9499
S1131C50E21988E392E00E9412191EC081EE92E01C
S1131C600E9410190C2E000CDD0B61E0CE010E94C5
S1131C70141986ED92E00E941019CE01FEDD43E0B6
S1131C8063E00E94E21988E392E00E94121904C002
S1131C9089E492E00E941219DF91CF910895CF93C5
S1131CA0DF930197EC01CC0FDD1FCE01845D9F4FC4
S1131CB00E944423C05ADA4F99838883DF91CF91DD
S1131CC008959C0121503109220F331FF901E05A74
S1131CD0FA4F91838083BC01C901845D9F4F0C94AA
S1131CE065230895CF93DF939C0188B1A9014150E6
S1131CF05109C1E0D0E002C0CC0FDD1F4A95E2F7E4
S1131D008C2B88B98FE99FE00197F1F700C00000A0
S1131D106A307105C8F4FB018827EE58FF4F8F4FD6
S1131D200C943F226FEC13C065E211C065E80FC04C
S1131D3069EC0DC061E90BC061E109C067EC07C043
S1131D4061E005C061E803C06FEF01C063E0DFEF4D
S1131D50D20F2D2F48E250E08AE052D38FE99FE062
S1131D600197F1F700C000002D2F48E250E060E039
S1131D7080E046D38FE99FE00197F1F700C00000AF
S1131D8088B1C095C823C8B9DF91CF910895EF9267
S1131D90FF920F931F93CF93DF937C01E2E0F1E076
S1131DA020818C010150110981E090E0002E02C0D5
S1131DB0880F991F0A94E2F7C82FC095922F9C238D
S1131DC09083E8E0F1E090819C23908392B19C237E
S1131DD092B9E5E0F1E090819C2390839BB19C2330
S1131DE09BB998B19C2398B9E1E0F1E09081982BDC
S1131DF09083E7E0F1E09081982B908391B1982B48
S1131E0091B9E4E0F1E09081982B90839AB1982BFA
S1131E109AB997B1982B97B998B1892B88B98FE95A
S1131E209FE00197F1F700C00000DFEFDE0D2D2FDA
S1131E3048E250E060E080E0E3D22D2F48E250E039
S1131E406FEF8AE0DDD288B1C823C8B98FE99FE07B
S1131E500197F1F700C00000000F111FF801E05ACC
S1131E60FA4F60817181C7013DDFDF91CF911F91EE
S1131E700F91FF90EF900895CF93DF9328B1AC01B9
S1131E8041505109C1E0D0E002C0CC0FDD1F4A959A
S1131E90E2F79C2F922B98B9EFE9FFE03197F1F725
S1131EA000C000004FEF480F68E270E08AE0CAD239
S1131EB0813881F158F4833099F118F4813039F183
S1131EC02CC08131F1F0853281F027C0873CE1F0EC
S1131ED028F4853869F0813989F01FC0893C59F0AC
S1131EE08F3CD9F421E030E01DC022E030E01AC07C
S1131EF023E030E017C024E030E014C025E030E0F7
S1131F0011C026E030E00EC027E030E00BC028E02E
S1131F1030E008C029E030E005C02FEF3FEF02C0F9
S1131F2020E030E08FE99FE00197F1F700C0000066
S1131F3098B1C095C923C8B9C901DF91CF9108955B
S1131F40CF92DF92EF92FF920F931F93CF93DF9381
S1131F508C0192DF7C016894CC24C1F8DD24D394F5
S1131F60F6018081980121503109C1E0D0E002C01E
S1131F70CC0FDD1F2A95E2F78C2BF601808361E0FC
S1131F8070E0C801AFDEFFEF29E688E1F1502040A0
S1131F908040E1F700C00000A895F6018081DC2FA5
S1131FA0D0958D2380836894CC24C3F8DD24D39406
S1131FB0F60180818C2BF601808362E070E0C80119
S1131FC091DEFFEF29E688E1F15020408040E1F7FF
S1131FD000C00000A89582B18C2B82B9F6018081E3
S1131FE08D23808363E070E0C8017CDEFFEF29E687
S1131FF088E1F15020408040E1F700C00000A8953E
S11320000F2EF5E0CF2EDD24D394F02DF601808140
S11320108C2BF601808382B18D2382B964E070E059
S1132020C80160DEFFEF29E688E1F15020408040DE
S1132030E1F700C00000A8958BB18C2B8BB9F60199
S113204080818D23808365E070E0C8014BDEFFEF63
S113205029E688E1F15020408040E1F700C000000B
S1132060A89588B1C82BC8B98BB18D238BB966E00C
S113207070E0C80137DE9FEFE9E6F8E19150E040F7
S1132080F040E1F700C00000A89588B1D823D8B982
S1132090B701C80127DEDF91CF911F910F91FF9007
S11320A0EF90DF90CF9008950F931F93CF93DF931A
S11320B01F921F92CDB7DEB7FC01228130E0322F90
S11320C022278181282B038100531A821982293403
S11320D08EE4380751F0233584E5380709F470C0DD
S11320E024343E4409F086C029C085818A3029F011
S11320F087E192E00E94121981C0002E000C110B9E
S1132100F801E356FA4F84E5808348E050E06CE33D
S113211070E08EE995E00E944923C801D2DDC80130
S113212036DE82E292E00E94101961E0C8010E944A
S1132130141985EE92E00E94121960C0AE014F5F3F
S11321405F4F64E0CF01069638D7811105C087E15F
S113215092E00E94121952C069817A816A30710535
S113216028F086E292E00E94121948C0002E000C6A
S1132170110BC8010197880F991FFC01E05AFA4F0F
S113218071836083845D9F4F0E94652369817A8196
S1132190C801A8DD87EE92E00E94101961E0C80131
S11321A00E9414198BEE92E00E94101961E089815B
S11321B09A810E94141984E093E00E9412191EC0AF
S11321C085818A3029F087E192E00E94121916C0B5
S11321D0002E000C110BC801B3DE80EF92E00E94C8
S11321E0101961E0C8010E94141984E093E00E9470
S11321F0121904C089E492E00E9412190F900F9002
S1132200DF91CF911F910F910895CF93DF93FC013C
S1132210228130E0322F22278181282B24343E442E
S1132220D1F4C38185E093E0FBD7C0530C2E000C9E
S1132230DD0B61E0CE01F8D78DEA93E0F1D7CC0F46
S1132240DD1FC25ADA4F61E088819981EDD784E0BD
S113225093E0E8D703C089E492E0E4D7DF91CF911B
S11322600895FF920F931F93CF93DF93D82FC62F18
S11322708A01F22E0E94B2208111FCCF23E041E0BA
S11322806F2DC8010E9444208CE00E949E2180E0B2
S11322900E949E218D2F0E949E2180E10E949E21FA
S11322A080E00E949E218C2F0E949E21DF91CF917D
S11322B01F910F91FF900895EF92FF920F931F9338
S11322C0CF93DF93C82FD92F7B01042F122F0E94A5
S11322D0B2208111FCCF23E041E0602FC7010E94AE
S11322E04420812F0E949E218D2F0E949E218C2F9D
S11322F00E949E21DF91CF911F910F91FF90EF904B
S11323000895FF920F931F93CF93DF931F921F9211
S1132310CDB7DEB78C01F62E0E94B2208111FCCF1E
S113232022E041E06F2DC8010E944420F801208181
S113233081E090E002C0880F991FFA94E2F7982F89
S1132340909592239083FAE0FA95F1F700C0F80192
S11323509081892B8083FAE1FA95F1F700C0198204
S11323601A8262E0CE0101960E94E8210E94A62012
S11323708230E0F382E00E947B20E0ECF4E0808194
S113238090E0982F88272181822B0F900F90DF9166
S1132390CF911F910F91FF900895FF920F931F9378
S11323A0CF93DF931F921F92CDB7DEB78C01F62E29
S11323B00E94B2208111FCCF22E041E06F2DC801C0
S11323C00E94442019821A8262E0CE0101960E9482
S11323D0E8210E94A6208230E0F382E00E947B2064
S11323E0E0ECF4E0808190E0982F88272181822B13
S11323F00F900F90DF91CF911F910F91FF9008954F
S1132400FF920F931F93CF93DF93D82FC62F8A0188
S1132410F22E0E94B2208111FCCF23E041E06F2D07
S1132420C8010E94442080E40E949E218D2F0E94B6
S11324309E218C2F0E949E21DF91CF911F910F919D
S1132440FF900895EF92FF920F931F93CF93DF9322
S113245000D0CDB7DEB7182F7B01042F0E94B22025
S11324608111FCCF23E041E0602FC7010E9444208A
S113247081E489831A831B8263E0CE0101960E9462
S1132480E8210E94A6208330E0F383E00E947B20B1
S11324908091C2040F900F900F90DF91CF911F9104
S11324A00F91FF90EF900895AF92BF92DF92EF9259
S11324B0FF920F931F93CF93DF93A398A298A098B2
S11324C0A1989B9A9A9A999A989A20E030E002E00F
S11324D011E0EE24E394F12C68E071E045E051E072
S11324E0C1E0D1E0A7E0B1E06894AA24A2F8BB243B
S11324F0B394F801D080C701022E02C0880F991F3F
S11325000A94E2F7982F9095D922D082FB01D080CB
S11325109D21908392B1982B92B9FA019081982BC6
S113252090839881982B98839C91982B9C9391B13C
S1132530982B91B9F5019081892B80832F5F3F4FB0
S113254027303105B1F6749A719A6C9A699A729827
S11325506A9A2E98269A2798DF91CF911F910F910E
S1132560FF90EF90DF90BF90AF90089586E0809346
S1132570AB0539C08091A7058A3090F01092A70569
S11325808091AC058F5F8A3019F08093AC0508C048
S11325901092AC058091AB0581508093AB05A89552
S11325A08091AB05863009F4A39A8091AB05853000
S11325B011F4A398A29A8091AB05843011F4A39AE4
S11325C0A29A8091AB05833019F4A398A298A09A9B
S11325D08091AB05823011F4A098A19A8091AB054B
S11325E0813009F4A1988091AB058111C3CF08957E
S11325F0CF93DF93CDB7DEB728970FB6F894DEBF3D
S11326000FBECDBF67E070E085E490E00E946523D3
S113261049E150E060E070E088E090E00E946023CF
S113262049E150E060E070E084E090E00E946023C3
S11326306AE070E082E090E00E94652364E670E066
S113264080E090E00E94652360E084E490E00E94D2
S1132650522388E0E5E0F2E0DE01119601900D924C
S11326608A95E1F748E050E0BE016F5F7F4F8CE34D
S113267090E00E94492328960FB6F894DEBF0FBE5F
S1132680CDBFDF91CF9108950F931F93CF93DF9325
S113269088E090E00E943F23609372057093730575
S11326A0809374059093750584E090E00E943F2325
S11326B0609388057093890580938A0590938B05B0
S11326C082E090E00E94442390937105809370050A
S11326D080E090E00E9444239093770580937605F0
S11326E084E490E00E94372380938D0548E050E015
S11326F06CE370E08EE995E00E9427230EE915E073
S1132700C1E0D0E0F80181918F018634C9F028F44A
S1132710813451F08234C1F01DC08D3469F08435A8
S1132720B9F08C34B9F404C0CE010E949E0012C0EA
S1132730CE010E946B050EC0CE010E94C60A0AC0DB
S1132740CE010E949E0206C0CE010E94980702C0DC
S1132750CE01A5DA2196C930D105A1F6DF91CF913A
S11327601F910F910895EF92FF920F931F93CF93B0
S1132770DF937C01062F172FC1E0D0E0F701819190
S11327807F01F80191918F01891709F442C08634C1
S1132790C1F128F4813451F0823419F13AC08D34F6
S11327A0B9F0843539F18C34A1F509C0913219F0AE
S11327B0CE010E94BA00CE010E94FD002AC09132CF
S11327C019F0CE010E948705CE010E94EE0521C0BA
S11327D0913219F0CE010E94EC0ACE010E94BD0B89
S11327E018C0913219F0CE010E94AA07CE010E94AE
S11327F053080FC0913211F0CE0163DACE01C7DA6B
S113280008C0913219F0CE010E94BA02CE010E9492
S113281020032196C930D10509F0B0CFDF91CF91C3
S11328201F910F91FF90EF90089523D1109208010A
S113283010920201A1980895CF93DF93CDB7DEB72C
S113284028970FB6F894DEBF0FBECDBF90E080E8A6
S11328500FB6F89480936100909361000FBE9EE0E0
S113286088E10FB6F894A895809360000FBE90930A
S11328706000A895BCD0D9D008D1D7DF15DE85E497
S113288090E00E944423079731F0A39AA29AA09A59
S1132890A19AAEDEA8957894CFD6F6DE10928C0578
S11328A08DE790E00E94302088E0EEE0F2E0DE0167
S11328B0119601900D928A95E1F7BE016F5F7F4FEB
S11328C08EE995E050DF52DE28960FB6F894DEBF0D
S11328D00FBECDBFDF91CF910895AEDF0E94701F70
S11328E0A8950E94901E8091A7058A3040F010920E
S11328F0A7058091AC058F5F8093AC05F1CF8091E3
S1132900AC058A30D8F01092AC058091A8058F5F91
S11329108093A80580919F04882329F08150809397
S11329209F04A09A01C0A09880918C05882319F077
S1132930A39AA29AD5CFA39AA298D2CF8091A805A0
S11329408A3070F21092A805CBCF93D081E08093A7
S1132950A9051092A6051092AD05B5D0A19A809153
S1132960720590917305A0917405B0917505892B3A
S11329708A2B8B2B21F080918D058093020180910D
S11329808D05809308016FC00895A19A80918D05EB
S11329908093080108956DD081E08093A60510927C
S11329A0A9051092AD0551D1A19A1092020110927D
S11329B0080159C008955DD081E08093A605109266
S11329C0A9051092AD0541D1A19A4DC008952DDFFE
S11329D080918D05809308012FEF89EF90E02150BD
S11329E080409040E1F700C000001FCF089583E0CD
S11329F08093B0008CE08093B10089EF8093B300A2
S1132A0082E08093700008951F920F920FB60F9288
S1132A1011248F938091A7058F5F8093A7058F91D1
S1132A200F900FBE0F901F90189588E1809381003E
S1132A3082E8809380008FE396E0909387008093F0
S1132A40860080E190E090938900809388008FEF66
S1132A509FEF90938B0080938A0090938D008093D6
S1132A608C00259A0895E1E8F0E0808181608083FC
S1132A700895E1E8F0E080818E7F80838FEF9FEFFF
S1132A80909385008093840008958FE180932101C1
S1132A9080E69AEE909327018093260182E080934A
S1132AA020018FE08093730081E090E090932901EE
S1132AB08093280190932B0180932A0190932D01F8
S1132AC080932C0108958FE59AEE909325018093CD
S1132AD0240180E69AEE9093270180932601809149
S1132AE0720590917305A0917405B09175058037B6
S1132AF027E19207A105B10550F59C01220F331F70
S1132B00880F991F880F991F880F991F820F931F91
S1132B1090932901809328012091720530917305C7
S1132B20C901880F991F220F331F220F331F220F51
S1132B30331F820F931F9093B3058093B2051092B5
S1132B40B105C29790932D0180932C0125C08FEF7E
S1132B509FEF9093290180932801609172057091F1
S1132B607305809174059091750520E737E140E085
S1132B7050E00E940122AB01440F551F660F771FDE
S1132B80660F771F660F771F640F751F7093B30569
S1132B906093B2052093B1058091880590918905D1
S1132BA0A0918A05B0918B05803727E19207A10592
S1132BB0B10528F59C01220F331F880F991F880F38
S1132BC0991F880F991F820F931F90932B01809355
S1132BD02A0180918805909189059C01220F331F59
S1132BE0880F991F880F991F880F991F820F931FB1
S1132BF09093B6058093B5051092B40508958FEFB0
S1132C009FEF90932B0180932A0160918805709126
S1132C10890580918A0590918B0520E737E140E092
S1132C2050E00E940122AB01440F551F660F771F2D
S1132C30660F771F660F771F640F751F7093B605B5
S1132C406093B5052093B405089580917005909123
S1132C507105880F991F019790932701809326018E
S1132C60809170059091710581509048880F991F4B
S1132C7090932501809324018091700590917105B2
S1132C80019790932901809328018FEF9FEF9093F0
S1132C902B0180932A0190932D0180932C01809124
S1132CA07605909177059093B0058093AF050895CC
S1132CB01F920F920FB60F9211240BB60F922F93FF
S1132CC03F934F935F936F937F938F939F93AF93B0
S1132CD0BF93EF93FF938091A6058823C1F0809161
S1132CE08D058093020180918D0580930801809168
S1132CF0AF059091B0059C01215031093093B00586
S1132D002093AF05892BC9F5B4DE1FDE36C0809150
S1132D10A9058823F9F08091B10581508093B1050C
S1132D20811108C08091B2059091B3059093290157
S1132D30809328018091B40581508093B40581115A
S1132D401CC08091B5059091B60590932B0180939A
S1132D502A0113C08091AD05882379F08091B105D3
S1132D6081508093B105811108C08091B205909182
S1132D70B3059093290180932801FF91EF91BF91AE
S1132D80AF919F918F917F916F915F914F913F91FF
S1132D902F910F900BBE0F900FBE0F901F901895A0
S1132DA01F920F920FB60F9211240BB60F922F930E
S1132DB03F934F935F936F937F938F939F93AF93BF
S1132DC0BF93EF93FF938091AD05882311F0F3DD5A
S1132DD002C010920201FF91EF91BF91AF919F91B8
S1132DE08F917F916F915F914F913F912F910F90B0
S1132DF00BBE0F900FBE0F901F9018951F920F924D
S1132E000FB60F9211240BB60F92AF92BF92CF92CE
S1132E10DF92EF92FF920F931F932F933F934F9361
S1132E205F936F937F938F939F93AF93BF93CF934E
S1132E30DF93EF93FF938FB780688FBF1ADE0F2E57
S1132E40FEE8CF2EF5E0DF2EF02D0F2EF8E7EF2E63
S1132E50F5E0FF2EF02D0EE915E0C0E0D0E0809102
S1132E608D0590E00C2E02C0959587950A94E2F7A3
S1132E7080FF14C0F80180818D3481F45E01FFEF7E
S1132E80AF1ABF0AC5010E94560CF60191838083D4
S1132E90C5010E945C0CF701918380832196F2E0C6
S1132EA0CF0ED11C22E0E20EF11C0F5F1F4FC83081
S1132EB0D105A9F6109208018FEF9FEF90932B0193
S1132EC080932A01A198FF91EF91DF91CF91BF9157
S1132ED0AF919F918F917F916F915F914F913F91AE
S1132EE02F911F910F91FF90EF90DF90CF90BF90A3
S1132EF0AF900F900BBE0F900FBE0F901F901895C0
S1132F001F920F920FB60F9211240BB60F922F93AC
S1132F103F934F935F936F937F938F939F93AF935D
S1132F20BF93EF93FF93CF93DF931F921F92CDB77D
S1132F30DEB78FB780688FBF1A82198289819A8120
S1132F40089724F529813A8180918D0590E002C08B
S1132F50959587952A95E2F780FF0FC0E981FA815C
S1132F60E256FA4F80818D3431F489819A81019639
S1132F700E94500C02C089819A8189819A810196AC
S1132F809A83898389819A810897E4F20F900F903C
S1132F90DF91CF91FF91EF91BF91AF919F918F916D
S1132FA07F916F915F914F913F912F910F900BBE45
S1132FB00F900FBE0F901F901895FF920F931F93C1
S1132FC0CF93DF9300D000D0CDB7DEB78A01DA010A
S1132FD01D921C92FC0120812D3221F40196FF24C4
S1132FE0F39401C0F12CFC013196DC019C9180ED3D
S1132FF0890F89838A3008F046C080E08F5F282FCC
S113300030E0519190ED950FA1E0B0E0AC0FBD1F01
S1133010A20FB31F9C939A3088F35A3081F5681736
S113302080F1882309F1982F60E070E0F901E91B31
S1133030F10941E050E04C0F5D1FE40FF51F4081A2
S1133040FB01EE0FFF1F660F771F660F771F660FDA
S1133050771F6E0F7F1F640F711D915039F7D801D0
S11330606D937C9301C080E0FF2081F0F801208102
S113307031813195219531093183208307C080E066
S113308005C080E003C09A3071F380E026960FB645
S1133090F894DEBF0FBECDBFDF91CF911F910F918A
S11330A0FF9008958F929F92AF92BF92CF92DF923A
S11330B0EF92FF920F931F93CF93DF93CDB7DEB7B9
S11330C02B970FB6F894DEBF0FBECDBF8A01DA018D
S11330D01D921D921D921C921397FC0120812D328A
S11330E019F4019641E001C040E0FC013196DC0195
S11330F09C9180ED890F89838A3008F05DC080E05F
S11331008F5F282F30E0519190ED950FA1E0B0E052
S1133110AC0FBD1FA20FB31F9C939A3088F35A3093
S113312009F046C0681708F445C0882371F1982F48
S1133130C12CD12C7601F901E91BF10961E070E0A1
S11331406C0F7D1FE60FF71F5081CC0CDD1CEE1CAD
S1133150FF1C46015701880C991CAA1CBB1C880C37
S1133160991CAA1CBB1CC80CD91CEA1CFB1CC50E50
S1133170D11CE11CF11C9150F1F6D801CD92DD92E5
S1133180ED92FC92139701C080E04423C1F0F80152
S1133190408151816281738170956095509541950C
S11331A05F4F6F4F7F4F408351836283738307C0A8
S11331B080E005C080E003C09A3031F380E02B96B4
S11331C00FB6F894DEBF0FBECDBFDF91CF911F9134
S11331D00F91FF90EF90DF90CF90BF90AF909F90B2
S11331E08F900895FC0120E030E080E0A1E0B0E0A1
S11331F09191903351F0913389F4AD01022E02C0C4
S1133200440F551F0A94E2F7840F2F5F3F4F283075
S1133210310571F7FB01808381E0089580E0089512
S1133220F9C6089508C70895CF92DF92EF92FF92EE
S11332300F931F93CF93DF93CDB7DEB72C970FB6C1
S1133240F894DEBF0FBECDBFE62E992344F42DE2E1
S113325030E038872F8391958195910901C01F82B1
S11332604AE0BE016F5F7F4F0E94C522BE016F5FBF
S11332707F4FCE0107960E94B322BE01695F7F4F44
S1133280CE0101960E94BE22E1100FC020C0D88654
S1133290CF82B801CE0107960E94B322BE01695FB6
S11332A07F4FC8010E94BE2208C08E010F5F1F4FCE
S11332B0F12C6894CC24C5F8D12CF801019000209D
S11332C0E9F73197E01BF10BEE15FF0500F3CE0192
S11332D00196A0D62C960FB6F894DEBF0FBECDBFD4
S11332E0DF91CF911F910F91FF90EF90DF90CF90DE
S11332F00895CF92DF92EF92FF920F931F93CF9393
S1133300DF93CDB7DEB766970FB6F894DEBF0FBE76
S1133310CDBFE42E992364F42DE230E03D872C8761
S113332090958095709561957F4F8F4F9F4F01C009
S11333301C862AE0AE014F5F5F4F0E94CF22BE0180
S11333406F5F7F4FCE010C960E94B322BE01645F73
S11333507F4FCE0101960E94BE22E1100FC020C013
S1133360DD86CC86B801CE010C960E94B322BE0144
S1133370645F7F4FC8010E94BE2208C08E010F5FA8
S11333801F4FF12C6894CC24C5F8D12CF80101907E
S11333900020E9F73197E01BF10BEE15FF0500F370
S11333A0CE01019637D666960FB6F894DEBF0FBEEF
S11333B0CDBFDF91CF911F910F91FF90EF90DF90E0
S11333C0CF9008955F926F927F928F929F92AF9267
S11333D0BF92CF92DF92EF92FF920F931F93CF93FE
S11333E0DF93CDB7DEB764970FB6F894DEBF0FBE98
S11333F0CDBF4C01762EC42E442389F0842F01E0E6
S113340010E09801220F331F000F111F000F111F2E
S1133410000F111F020F131F815099F702C001E022
S113342010E0C401992024F4882799278819990960
S1133430582E692EB801D1D74AE0BE016F5F7F4F85
S11334400E94C522CE0101967C01D12C0F2EF0E3FF
S1133450AF2EB12CF02D0DC0BC86AB86B701CE01CA
S11334600B960E94B322BE01655F7F4FC7010E9485
S1133470BE22F70101900020E9F73197EE19FF0908
S1133480EC15FD0548F37E019BE0E90EF11C852D4A
S1133490962DB801A2D7CB014AE0B7010E94C522FC
S11334A0F70101900020E9F731978EE290E09183D3
S11334B08083BE016F5F7F4FC7010E94B3229920B2
S11334C02CF48DE290E09A83898301C01982BE01B5
S11334D0655F7F4FCE0101960E94B32271100FC029
S11334E021C0DC86CB86B801CE010B960E94B322A4
S11334F0BE01655F7F4FC8010E94BE2209C08E01D4
S11335000F5F1F4FE72CF12C6894CC24C5F8D12C05
S1133510F80101900020E9F73197E01BF10BEE155B
S1133520FF05F8F2CE01019675D564960FB6F894AE
S1133530DEBF0FBECDBFDF91CF911F910F91FF90E2
S1133540EF90DF90CF90BF90AF909F908F907F903F
S11335506F905F900895CF93DF93CDB7DEB729972F
S11335600FB6F894DEBF0FBECDBF99E0E9E0F3E0FB
S1133570DE01119601900D929A95E1F7FE013196C4
S113358027E030E090E070E361E3AC01022E02C07A
S1133590559547950A94E2F740FF02C0608301C045
S11335A070832150310931962F3F4FEF340769F76B
S11335B0CE0101962FD529960FB6F894DEBF0FBE23
S11335C0CDBFDF91CF910895CF93DF93CDB7DEB711
S11335D029970FB6F894DEBF0FBECDBF99E0E9E09E
S11335E0F3E0DE01119601900D929A95E1F7FE0148
S11335F0319620E030E090E070E361E3AC01022E0C
S113360002C0559547950A94E2F740FF02C06083D3
S113361001C070832F5F3F4F31962830310571F719
S1133620CE010196F7D429960FB6F894DEBF0FBEEB
S1133630CDBFDF91CF9108954FD41092B90508956D
S11336400F931F93CF93DF93CDB7DEB72F970FB6AA
S1133650F894DEBF0FBECDBF8C01FC0132818181A5
S113366019821B821A821C821D821E821F82208163
S1133670223509F03AC0833509F047C3343509F0DF
S113368044C383818A3081F410928C0582E193E0F3
S1133690C9DD98E088E10FB6F894A895809360009E
S11336A00FBE90936000FFCF803209F02EC3F80163
S11336B08481813309F029C385818A3009F025C3C7
S11336C010928C056FEF7FEF85E490E0FED789E1DF
S11336D093E0A8DD98E088E10FB6F894A89580936C
S11336E060000FBE90936000FFCF90E0932B2335D2
S11336F009F035C2F8012381203209F0FDC180357B
S1133700F2E59F0709F499C1C8F48534EEE49E07F5
S113371071F150F48E3424E4920709F437C18435EE
S1133720944409F45EC1E4C18834F0E59F0709F4C8
S1133730ADC08D34904509F4E9C0DAC18035E3E5C4
S11337409E07B1F150F4843423E5920709F466C06E
S11337508D34934509F47EC0CBC18335F3E59F07CF
S113376009F441C08334944509F48FC1C1C1F801FF
S11337708481813359F485818A30B1F481E0809366
S11337808C05729A87E293E04DDDBFC2803361F409
S1133790F80185818A3041F410928C0546D87298DC
S11337A08DE293E03FDDB1C287E192E03BDDADC243
S11337B0F8018481813341F485818A3081F4C5D84C
S11337C083E393E02FDDA1C2803349F4F8018581BE
S11337D08A3029F42AD889E393E024DD96C287E16C
S11337E092E020DD92C2F8018481813341F4858125
S11337F08A3081F4CAD88FE393E014DD86C2803323
S113380049F4F80185818A3029F40FD885E493E0DE
S113381009DD7BC287E192E005DD77C2F80184818E
S1133820813341F485818A3089F48BE493E0FADCB6
S1133830B2D86BC2803351F4F80185818A3031F4F7
S11338400E94151481E593E0EDDC5FC287E192E00C
S1133850E9DC5BC2F8018481813341F485818A30DB
S113386089F487E593E0DEDCB2D84FC2803351F4AB
S1133870F80185818A3031F40E9415148DE593E0B6
S1133880D1DC43C287E192E0CDDC3FC2AE014C5FA4
S11338905F4F66E0C801049605DC811104C087E12E
S11338A092E0C0DC32C28C819D81AE81BF81AC01CB
S11338B0BD014951510961097109483A544D6140AA
S11338C0710540F0892B8A2B8B2B21F086E292E044
S11338D0A9DC1BC283E693E0A3DC6C817D818E812D
S11338E09F8141E006DD88E693E09CDC4C815D81AC
S11338F06E817F81409372055093730560937405C4
S11339007093750588E090E0DBD6FFC1AE014C5F93
S11339105F4F66E0C8010496C5DB811104C087E1EE
S113392092E080DCF2C18C819D81AE81BF81AC01CB
S1133930BD014951510961097109483A544D614029
S1133940710540F0892B8A2B8B2B21F086E292E0C3
S113395069DCDBC18CE693E063DC6C817D818E8164
S11339609F8141E0C6DC88E693E05CDC4C815D81AC
S11339706E817F81409388055093890560938A0501
S113398070938B0584E090E09BD6BFC1AE014E5F7F
S11339905F4F66E0C801049610DB811104C087E123
S11339A092E040DCB2C18A819B810197883E9340BA
S11339B020F086E292E036DCA8C181E793E030DCB7
S11339C061E08A819B8130DC86E793E02BDC6A81AD
S11339D07B81709377056093760580E090E075D6DF
S11339E094C1AE014E5F5F4F66E0C8010496E5DA0C
S11339F0811104C087E192E015DC87C18A819B8133
S1133A000197883E934020F086E292E00BDC7DC172
S1133A108EE793E005DC41E061E08A819B81D2DCA2
S1133A2088E693E0FFDB6A817B8170937105609384
S1133A30700582E090E049D668C1F8010190002049
S1133A40E9F7CF010E978017910721F087E192E003
S1133A50E9DB5BC1BE016F5F7F4FC8010496C2DB27
S1133A60811104C087E192E0DDDB4FC183E893E07C
S1133A70D7DB8981A9DD84E093E0D4DB698160939D
S1133A808D0584E490E00ED640C1F8010190002039
S1133A90E9F7CF010E978017910721F087E192E0B3
S1133AA0C1DB33C16EE975E0CE01089667D588E0C5
S1133AB0F8013496AEE9B5E001900D928A95E1F7EC
S1133AC048E050E06CE370E08EE995E0E2D5BE0199
S1133AD0685F7F4F8EE995E00E94B31388E893E016
S1133AE09FDB8EE995E09CDB84E093E09BDB0DC1DA
S1133AF089E492E097DB09C12053283060F5F8018E
S1133B0084818634A1F028F48134A9F08234B9F098
S1133B101EC08D3441F08435B1F08C34C1F4C80139
S1133B200E944B06F2C0C8010E94620CEEC0C8019C
S1133B300E94B703EAC0C8010E945301E6C0C8014D
S1133B400E94CF08E2C0C8010E945410DEC089E47C
S1133B5092E068DBDAC089E492E064DBD6C0273403
S1133B6009F0D0C0F80123812A3009F098C08834C4
S1133B70F0E59F07A9F1A0F48E34E4E49E0709F46C
S1133B804DC028F48934944409F47EC084C084353B
S1133B90E4E49E0709F44FC085349E44A9F07BC039
S1133BA0803522E5920709F454C020F48D34904501
S1133BB041F171C0833424E5920709F454C086347A
S1133BC0974509F45AC067C08DE893E029DB8091DA
S1133BD08C0561E090E028DB84E093E023DB95C072
S1133BE082E993E01DDB6091720570917305809109
S1133BF074059091750541E07CDB88E693E012DB67
S1133C0084C087E993E00CDB61E0809188059091A2
S1133C1089050ADB88E693E005DB77C08CE993E04D
S1133C20FFDA61E08091760590917705FDDA86E709
S1133C3093E0F8DA6AC081EA93E0F2DA41E061E005
S1133C408091700590917105BDDB88E693E0EADA16
S1133C505CC086EA93E0E4DA80918D05B5DC84E00B
S1133C6093E0E0DA52C08BEA93E0DADA8EE995E089
S1133C70D7DA84E093E0D6DA48C080EB93E0D0DA78
S1133C8084EB93E0CFDA41C08DEC93E0C9DA81EDA7
S1133C9093E0C8DA3AC089E492E0C4DA36C020532B
S1133CA0283060F5F80184818634A1F028F4813449
S1133CB0A9F08234B9F01EC08D3441F08435B1F0DE
S1133CC08C34C1F4C8010E9443071FC0C8010E947C
S1133CD0990D1BC0C8010E94D50417C0C8010E94D9
S1133CE04A0213C0C8010E94580A0FC0C8010E94AA
S1133CF005110BC089E492E095DA07C089E492E0EB
S1133D0091DA03C089E492E08DDA2F960FB6F89425
S1133D10DEBF0FBECDBFDF91CF911F910F910895EC
S1133D20F5D08093B905882339F08EEF93E0909312
S1133D30B8058093B70584CC08951F920F920FB6EF
S1133D400F9211240BB60F928F939F93EF93FF93CF
S1133D508091F003882329F08091C60080939F040A
S1133D6035C08091F20381112DC0E091F303F0E09E
S1133D708091C600E65CF94F8083E091F303F0E0A4
S1133D80E65CF94F80818A3029F48091F1038F5FDA
S1133D908093F1038091F3038F5F8093F303809109
S1133DA0F303803811F41092F3039091F30380919C
S1133DB0F403981303C081E08093F20385E08093B9
S1133DC09F0404C08091C60080939F04FF91EF91EB
S1133DD09F918F910F900BBE0F900FBE0F901F906D
S1133DE018951F920F920FB60F9211240BB60F92D3
S1133DF08F939F93EF93FF938091000281111DC0D5
S1133E008091EF038F5F8093EF038091EF038038FD
S1133E1011F41092EF039091EF038091EE03981345
S1133E2004C081E08093000208C0E091EF03F0E059
S1133E30E654FA4F80818093C60085E080939F0406
S1133E40FF91EF919F918F910F900BBE0F900FBE3A
S1133E500F901F9018958F929F92AF92BF92CF921E
S1133E60DF92EF92FF92699AE1ECF0E02081286101
S1133E702083208120682083208120642083E2EC39
S1133E80F0E02081266020836C01E12CF12CA0E27B
S1133E90B3E0A701960110D34B015C0124E2920E1A
S1133EA024EFA21EB11CA0E4B6E0A701960104D33E
S1133EB09B01AC01C501B401A4D221503109309356
S1133EC0C5002093C400FF90EF90DF90CF90BF9087
S1133ED0AF909F908F90089580E492E0BCCF0895B6
S1133EE0E1ECF0E080818F778083A6ECB0E02C9148
S1133EF01092F4031092F3038C911092F203109237
S1133F00F103908190689083820F0895CF93C091BC
S1133F10F103CC2309F440C080E0A1ECB0E0282FE9
S1133F2030E0E091F403F0E0E65CF94F9081F901B0
S1133F30E250FC4F90839C919F779C939091F40363
S1133F409F5F9093F4039091F403903811F41092CE
S1133F50F4031092F2039C9190689C93F901E2504F
S1133F60FC4F90819A3091F4E1ECF0E090819F77DE
S1133F7090839091F10391509093F1039081906814
S1133F809083F901E250FC4F11820CC091118F5FB4
S1133F9088232CF680E006C08091F203882311F078
S1133FA09FDF8C2FCF910895382F2091EE039091AD
S1133FB0EF03291304C080910002882351F1E0919A
S1133FC0EE03F0E0E654FA4F3083E1ECF0E0808158
S1133FD08F7B80838091EE038F5F8093EE038091CB
S1133FE0EE03803811F41092EE03809100028823CE
S1133FF051F0E091EF03F0E0E654FA4F80818093B2
S1134000C60010920002E1ECF0E0808180648083BD
S113401081E00895CF93DF93EC018881882341F0F8
S11340208881C2DF8823E1F3219688818111F8CF4A
S1134030DF91CF910895CF93DF93EC01888188239A
S113404041F08881B1DF8823E1F3219688818111D1
S1134050F8CF8AE0A9DF8823E1F3DF91CF910895B7
S11340601092D5001092D400289A2398229A219A6B
S113407084E58CBD8CB580688CBD8CB580688CBDA6
S11340808CB583608CBD08959093030280930202E3
S11340906093F7034093F6032093010208959091EF
S11340A0F603992319F08823A9F002C0811112C0E4
S11340B0E0910202F0910302208181E090E00090FF
S11340C0F70302C0880F991F0A94E2F780958223B0
S11340D080830895E0910202F0910302208181E03F
S11340E090E00090F70302C0880F991F0A94E2F74A
S11340F0822B80830895813408F080E4A0ECB4E03E
S113410020E015C0E091FD03F0E0E650F94F908106
S11341109D932F5F9091FD039F5F9093FD0390917A
S1134120FD03903411F41092FD031092FB033091BF
S1134130FD039091FC03391304C09091FB03992370
S113414019F02813DFCF0895822F08958091FB037F
S1134150811106C08091FC039091FD03891B089591
S113416080E408958091F8039091F903891B0895E0
S11341708CB58F778CBD2EB51092FD031092FC0385
S11341808EB51092FB039CB590689CBD820F089578
S11341901F920F920FB60F9211240BB60F922F930A
S11341A03F934F935F936F937F938F939F93AF93BB
S11341B0BF93EF93FF938091FB03811124C0E0919F
S11341C0FC03F0E08EB5E650F94F80838091FC0348
S11341D08F5F8093FC038091FC03803411F4109270
S11341E0FC039091FC038091FD03981303C081E0CC
S11341F08093FB039091F50380910102981304C00E
S11342001092FA0301C0B4DF8BEE93E00BD8FF9158
S1134210EF91BF91AF919F918F917F916F915F913A
S11342204F913F912F910F900BBE0F900FBE0F90A7
S11342301F9018951F920F920FB60F9211240BB670
S11342400F922F933F934F935F936F937F938F932B
S11342509F93AF93BF93EF93FF938091FA038823C7
S113426049F18091FB03811124C0E091FC03F0E04B
S11342708EB5E650F94F80838091FC038F5F809365
S1134280FC038091FC03803411F41092FC039091A0
S1134290FC038091FD03981303C081E08093FB032A
S11342A09091F5038091010298130EC01092FA03C5
S11342B007C05EDF9091F50380910102981304C05A
S11342C080E0EDDE1092F50380910402811123C099
S11342D08091F9038F5F8093F9038091F90380340F
S11342E011F41092F9039091F8038091F903981353
S11342F004C081E0809304020EC081E0D0DEE0912E
S1134300F903F0E0E654F94F80818EBD8091F50306
S11343108F5F8093F503FF91EF91BF91AF919F91D0
S11343208F917F916F915F914F913F912F910F905A
S11343300BBE0F900FBE0F901F901895382F209131
S1134340F8039091F903291304C08091040288238F
S113435061F1E091F803F0E0E654F94F30838CB555
S11343608F778CBD8091F8038F5F8093F8038091E1
S1134370F803803411F41092F80380910402882326
S113438081F081E08CDEE091F903F0E0E654F94F2E
S113439080818EBD8091F5038F5F8093F503109229
S11343A004028CB580688CBD81E008951F93CF937F
S11343B0DF93EC01162F662339F08881BFDF882351
S11343C0E1F321961150C9F7DF91CF911F91089520
S11343D021E02093FA03EACF0895AA1BBB1B51E105
S11343E007C0AA1FBB1FA617B70710F0A61BB70B61
S11343F0881F991F5A95A9F780959095BC01CD0106
S11344000895A1E21A2EAA1BBB1BFD010DC0AA1F11
S1134410BB1FEE1FFF1FA217B307E407F50720F029
S1134420A21BB30BE40BF50B661F771F881F991FA4
S11344301A9469F760957095809590959B01AC01ED
S1134440BD01CF010895052E97FB16F400940FD0FB
S113445057FD05D0D6DF07FC02D046F408C05095BE
S11344604095309521953F4F4F4F5F4F089590955C
S11344708095709561957F4F8F4F9F4F0895EE0FF4
S1134480FF1F881F8BBF0790F691E02D1994A29F00
S1134490B001B39FC001A39F700D811D1124911D14
S11344A0B29F700D811D1124911D0895F0DFB7FF97
S11344B00895821B930B0895EADFA59F900DB49F86
S11344C0900DA49F800D911D11240895E894DF930D
S11344D0CF93FC01DB01DBDF7F936F93E9019A014A
S11344E0AC01BF93AF933F932F93DF01D0DF26F44A
S11344F06C1B7D0B820B930B9E01EB01FC012BD0FB
S1134500AF91BF912F913F9126D0BE01CF01F90108
S11345102F913F91CF91DF91089597FB10F8169456
S113452000080F93083098F00850232F342F452F9C
S1134530562F672F782F892F902DF4CF05949795B8
S113454087957795679557954795379527950A9554
S1134550AAF70F9108959BDF460F571FC81FD91F55
S113456008F431960895FB01DC010D900020E9F771
S1134570119701900D920020E1F70895FB01DC01F1
S113458001900D920020E1F70895BB274A3031F4E1
S1134590992322F4BDE2909581959F4F30C0BB27AB
S11345A02A3051F4992342F4BDE290958095709598
S11345B061957F4F8F4F9F4F01C0BB27FA01A62FF4
S11345C06217710581059105330B30FB66F0AA274C
S11345D0660F771F881F991FAA1FA21710F0A21B2E
S11345E063953850A9F7A05DAA3308F0A95DA1939B
S11345F036F7B111B1931082CA0119C0BB27FB0170
S11346005527AA27880F991FAA1FA41710F0A41BC7
S113461083955051B9F7A05DAA3308F0A95DA19321
S1134620009779F7B111B1931192CB0100C0DC016D
S1134630FC01672F71917723E1F7329704C07C91D5
S11346406D9370836291AE17BF07C8F30895DC01C0
S1134650CB01FC01F999FECF06C0F2BDE1BDF89A89
S1134660319600B40D9241505040B8F70895F9992D
S1134670FECF92BD81BDF89A992780B50895A6E131
S1134680B0E044E050E0E5CFA8E1B0E042E050E023
S1134690E0CFDC01CB0102C02D9105D04150504048
S11346A0D8F70895262FF999FECF1FBA92BD81BD80
S11346B020BD0FB6F894FA9AF99A0FBE01960895A0
S11346C0242FF1DF252FEFDF00C0ECDF272FEBCF06
S10746D0F894FFCF88
S11346D401012500013030303030303030002121E8
S11346E421212121212100464F524D41542045527C
S11346F4520053494E004E554D42455220455252A4
S11347040053574F00413D002056005357470020A3
S1134714572F4F2D556E697400434F4D4D414E44F0
S1134724204552520047574F0047574700463D0023
S1134734535246004753490047564600206D5600DD
S1134744534843004C3D00206D4100534D43004702
S1134754484300474D430053524200423D31004216
S11347643D300053524C00535243005352440053BF
S1134774564700423D0047564700475644004743C6
S11347844400534843204D4F534645543D00534D34
S113479443204D4F534645543D00534D56204D4FF1
S11347A4534645543D004D3D00474D560047484D42
S11347B400474D4D00540053444E0054203D200006
S11347C4536C6F742D546573742066696E697368D1
S11347D465643A200047444E003030303030303085
S11347E430007265626F6F7400666163746F72790E
S11347F42072657365740053454E3D310053454E34
S11348043D30005350533D31005350533D30005319
S113481453533D31005353533D30005344533D31BE
S1134824005344533D3000534D533D3100534D53D5
S11348343D30005348503D00206D7300534D503DAE
S113484400534E443D002070756C736573005354DB
S1134854443D005350523D005343543D0047454E9C
S11348643D004748503D00474D503D00474E443DB0
S1134874004754443D004750523D004743543D00D3
S113488446573D005274685445435F6D435F556E0B
S113489469745F56322056302E302E370049443D19
S11348A400527468544543205454412D457175692C
S11148B4706D656E742056315F30006A6100CD
S9030000FC
