S01800004D435F5274685445435F56305F305F352E737265630B
S11300008FC00000AEC00000ACC00000AAC0000059
S1130010A8C00000A6C00000A4C00000A2C0000048
S1130020A0C000009EC000009CC000009AC0000058
S113003098C000000C948A0A94C0000092C000008A
S113004090C000008EC000008CC000008AC0000078
S113005088C0000086C0000084C0000082C0000088
S11300600C94511A0C94D3177CC000000C942718DC
S113007078C0000076C0000074C0000072C00000A8
S113008070C000006EC000006CC000006AC00000B8
S113009068C0000066C0000064C0000062C00000C8
S11300A060C000005EC000005CC000005AC00000D8
S11300B058C0000056C0000054C000000C94420C0C
S11300C00C944E0C0C948F0C0C94DE0B0C94FE19B7
S11300D048C0000046C0000044C0000042C0000008
S11300E040C00000E005CC05CE05D005D205D405FE
S11300F0D605D805DA05DC050314E614E215E21585
S1130100E215DE15E215FF13E215E215E215711290
S11301103813E215E215E215E215E215E215C414EE
S113012011241FBECFEFD1E2DEBFCDBF00E00CBF74
S113013013E0A0E0B2E0E0E7F8E300E00BBF02C0A8
S113014007900D92A23DB107D9F726E0A2EDB3E0E6
S113015001C01D92A43CB207E1F70E94030A0C946B
S1130160361C4ECF0F931F93CF93DF93D82F8B0161
S1130170C42F8091D203841307C08091D30390913C
S1130180D4038617970799F00E94E8198111FCCFD0
S11301901093D4030093D303C093D20323E041E02C
S11301A06C2FC8010E947A198CB584608CBD8D2F88
S11301B00E94D51ADF91CF911F910F9108951F933B
S11301C0CF93DF93C62F9C01AFEFBFEF0E94621B5A
S11301D028E833E140E050E00E94381BD22F132F6F
S11301E04C2F62E270E080E0BDDF4C2F62E270E0F1
S11301F0812FB8DF4C2F62E270E08D2FB3DFDF91E7
S1130200CF911F9108951F93CF93DF93C62F9C0125
S1130210AFEFBFEF0E94621B2AEF30E040E050E0F6
S11302200E94381BD22F132F4C2F62E270E082E021
S113023099DF4C2F62E270E0812F94DF4C2F62E251
S113024070E08D2F8FDFDF91CF911F9108951F9361
S1130250CF93DF93C62F9C01ABEABAEA0E94621BDC
S1130260DC01B695A79526EF3FEF49E050E00E94E8
S1130270771B665B794F8944964028E833E140E078
S113028050E00E94381BD22F132F4C2F65E071E0F1
S113029080E068DF4C2F65E071E0812F63DF4C2F35
S11302A065E071E08D2F5EDFDF91CF911F9108959E
S11302B0CF93DF930197EC01CC0FDD1FCE01805E5D
S11302C09F4F0E94121CFE01E254FB4F91838083D6
S11302D0CE01805F9F4F0E94121CCD5EDA4F99833E
S11302E08883DF91CF9108950895CF93CFEFC60F00
S11302F09C01AFEFBFEF0E94621B20E137E240E0B8
S113030050E00E94381BDA01C90120E04C2F62E260
S113031070E088D5CF9108950F931F93CF93DF9307
S11303208C01E2E0F1E02081EC01219781E090E092
S11303300C2E02C0880F991F0A94E2F7982F90950B
S113034029232083E8E0F1E020819223908392B175
S1130350982B92B9E5E0F1E09081982B90839BB1C2
S1130360982B9BB998B1982B98B9E1E0F1E0908172
S1130370982B9083E7E0F1E09081982B908391B1E2
S1130380982B91B9E4E0F1E09081982B90839AB195
S1130390982B9AB997B1892B87B92FEF200F42E296
S11303A050E061E080E013D5CC0FDD1FCD5EDA4F65
S11303B0B8018881998199DFDF91CF911F910F91C5
S11303C00895CF93DF930197EC01CC0FDD1FCE018D
S11303D0805E9F4F0E94121CFE01E655FB4F9183E5
S11303E08083CE01805F9F4F0E94121CC751DC4F57
S11303F099838883DF91CF9108958233910569F0C1
S11304008436910591F04997B9F42FEF260F45E012
S113041051E060E08AE02BC508952FEF260F45E0F8
S113042051E061E08AE023C508952FEF260F45E0EF
S113043051E062E08AE01BC50895CF93CFEFC60F69
S11304409C01AFEFBFEF0E94621B20E137E240E066
S113045050E00E94381BDA01C90120E04C2F62E20F
S113046070E0E0D4CF9108950F931F93CF93DF935F
S1130470E2E0F1E020818C010150110941E050E0FB
S1130480002E02C0440F551F0A94E2F7942F909552
S113049029232083E8E0F1E020819223908392B124
S11304A0942B92B9E5E0F1E09081942B90839BB179
S11304B0942B9BB998B1942B98B9E1E0F1E0908129
S11304C0942B9083E7E0F1E09081942B908391B199
S11304D0942B91B9E4E0F1E09081942B90839AB14C
S11304E0942B9AB997B1492B47B9CFEFC80F2C2F4A
S11304F042E250E061E081E06AD42C2F45E051E013
S113050068EF80E0B4D42C2F45E051E064E08AE049
S1130510AED4E801CC0FDD1FFE01E655FB4FB80158
S1130520808191816ADFC751DC4FB801888199814C
S113053084DFDF91CF911F910F910895EF92FF9285
S11305400F931F93CF93DF931F921F92CDB7DEB704
S1130550FC01228130E0322F22278181282B038164
S113056000531A82198229348EE4380751F0273552
S11305708FE4380709F476C02735374409F0C1C041
S11305801AC085818A3029F08EE092E00E94F40D31
S1130590BCC0002E000C110BC80166DF89E192E09B
S11305A00E94F10D61E0C8010E94F70D8DE192E017
S11305B00E94F40DAAC0AE014F5F5F4F64E0CF010B
S11305C006960E94BE0C811105C08EE092E00E9446
S11305D0F40D9BC089819A818436910551F0823350
S11305E0910539F0499729F08FE192E00E94F40DCA
S11305F08CC08AE292E00E94F10D002E000C110BD7
S113060061E0C8010E94F70D8EE292E00E94F10DB4
S113061061E089819A810E94F70D81E392E00E9452
S1130620F40DC801019769817A81FC01EE0FFF1F67
S1130630E655FB4F208131812617370709F465C041
S1130640880F991FFC01E655FB4F7F01718360837E
S1130650805E9F4F0E94331CB801F7018081918115
S1130660CCDE53C0AE014F5F5F4F64E0CF0106960E
S11306700E94BE0C811105C08EE092E00E94F40D30
S113068044C089819A818131974228F08FE192E0B8
S11306900E94F40D3AC08BE392E00E94F10D002E0B
S11306A0000C110B61E0C8010E94F70D8EE292E08C
S11306B00E94F10D43E061E089819A810E94C70E96
S11306C08FE392E00E94F40DC801019769817A8159
S11306D0FC01EE0FFF1FE751FC4F208131812617EB
S11306E0370799F0880F991F7F0171836083805FBA
S11306F09F4F0E94331CB801F701808191819DDED8
S113070004C082E492E00E94F40D0F900F90DF91F8
S1130710CF911F910F91FF90EF900895CF93DF93A6
S1130720FC01C381C053228130E0322F2227818112
S1130730282B273587E4380721F027353F44F1F08B
S11307403BC08EE492E00E94F10D0C2E000CDD0BF8
S113075061E0CE010E94F70D8EE292E00E94F10D5D
S1130760CC0FDD1FC855DB4F61E0888199810E9461
S1130770F70D81E392E00E94F40D22C082E592E03D
S11307800E94F10D0C2E000CDD0B61E0CE010E94E5
S1130790F70D8EE292E00E94F10DCC0FDD1FC951DE
S11307A0DC4F43E061E0888199810E94C70E8FE3AA
S11307B092E00E94F40D04C082E492E00E94F40DE1
S11307C0DF91CF910895CF93DF930197EC01CC0F84
S11307D0DD1FCE01805E9F4F0E94121CFE01E85671
S11307E0FB4F91838083CE01805F9F4F0E94121C38
S11307F0C550DC4F99838883DF91CF910895CF93BF
S1130800CFEFC60F9C01AFEFBFEF0E94621B2CED30
S113081035E040E050E00E94381BDA01C90120E0D5
S11308204C2F62E270E0FED2CF910895CF93CFEFC8
S1130830C60F9C01AFEFBFEF0E94621B2AEF30E0AE
S113084040E050E00E94381BDA01C90122E04C2F3D
S113085062E270E0E7D2CF9108950F931F93CF9394
S1130860DF938C01E2E0F1E02081EC01219781E04B
S113087090E00C2E02C0880F991F0A94E2F7982F7B
S1130880909529232083E8E0F1E02081922390834E
S113089092B1982B92B9E5E0F1E09081982B908386
S11308A09BB1982B9BB998B1982B98B9E1E0F1E0F2
S11308B09081982B9083E7E0F1E09081982B9083CE
S11308C091B1982B91B9E4E0F1E09081982B908359
S11308D09AB1982B9AB997B1892B87B92FEF200F2A
S11308E042E250E065E080E072D2CC0FDD1FFE01F1
S11308F0E856FB4FB8018081918181DFC550DC4F00
S1130900B8018881998192DFDF91CF911F910F9176
S11309100895CF93E2E0F1E02081BC0161507109B8
S113092041E050E002C0440F551F6A95E2F7942F4E
S1130930909529232083E8E0F1E02081922390839D
S113094092B1942B92B9E5E0F1E09081942B9083DD
S11309509BB1942B9BB998B1942B98B9E1E0F1E049
S11309609081942B9083E7E0F1E09081942B908325
S113097091B1942B91B9E4E0F1E09081942B9083B0
S11309809AB1942B9AB997B1492B47B9CFEFC80FB5
S11309902C2F48E250E060E080E069D22C2F48E23E
S11309A050E060E08AE063D2CF910895CF93CFEF17
S11309B0C80F2C2F48E250E060E08AE058D22FEFB5
S11309C081EE94E0215080409040E1F700C00000A7
S11309D02C2F48E250E064E28AE049D2CF91089596
S11309E0CF93CFEFC80F2C2F48E250E060E08AE0AD
S11309F03ED22FEF81EE94E0215080409040E1F709
S1130A0000C000002C2F48E250E06AE08AE02FD2B8
S1130A10CF910895CF93CFEFC80F2C2F48E250E029
S1130A2060E08AE024D22FEF81EE94E021508040F0
S1130A309040E1F700C000002C2F48E250E061E153
S1130A408AE015D2CF910895CF93CFEFC80F2C2F02
S1130A5048E250E060E08AE00AD22FEF81EE94E0B1
S1130A60215080409040E1F700C000002C2F48E264
S1130A7050E064E18AE0FBD1CF9108952FEF280F75
S1130A8048E250E060E08AE0F2D12FEF81EE94E09A
S1130A90215080409040E1F700C000000895CF93BA
S1130AA0DF93E2E0F1E02081BC016150710941E093
S1130AB050E002C0440F551F6A95E2F7C42FC09559
S1130AC0922F9C239083E8E0F1E090819C23908313
S1130AD092B19C2392B9E5E0F1E090819C2390834C
S1130AE09BB19C239BB998B19C2398B9E1E0F1E0B8
S1130AF09081942B9083E7E0F1E09081942B908394
S1130B0091B1942B91B9E4E0F1E09081942B90831E
S1130B109AB1942B9AB997B1942B97B998B1492B60
S1130B2048B9EFE9FFE03197F1F700C00000DFEFCB
S1130B30D80F2D2F48E250E060E080E098D12D2FAF
S1130B4048E250E06FEF8AE092D188B1C823C8B977
S1130B50DF91CF9108950F931F93CF939C0188B198
S1130B60A9014150510901E010E002C0000F111F1A
S1130B704A95E2F7802B88B98FE99FE00197F1F756
S1130B8000C000002A303105C8F4F9018827EE5866
S1130B90FF4F8F4F0C945A1B6FEC13C065E211C0CA
S1130BA065E80FC069EC0DC061E90BC061E109C0E3
S1130BB067EC07C061E005C061E803C06FEF01C0E6
S1130BC063E0CFEFC20F2C2F48E250E08AE04FD110
S1130BD08FE99FE00197F1F700C000002C2F48E255
S1130BE050E060E080E043D18FE99FE00197F1F7A6
S1130BF000C0000088B10095082308B9CF911F9167
S1130C000F910895CF93DF9328B1AC01415051095E
S1130C10C1E0D0E002C0CC0FDD1F4A95E2F79C2F63
S1130C20922B98B9EFE9FFE03197F1F700C000008B
S1130C304FEF480F68E270E08AE03BD1813881F1E0
S1130C4058F4833099F118F4813039F12CC0813192
S1130C50F1F0853281F027C0873CE1F028F4853833
S1130C6069F0813989F01FC0893C59F08F3CD9F46F
S1130C7021E030E01DC022E030E01AC023E030E083
S1130C8017C024E030E014C025E030E011C026E0B5
S1130C9030E00EC027E030E00BC028E030E008C0B0
S1130CA029E030E005C02FEF3FEF02C020E030E044
S1130CB08FE99FE00197F1F700C0000098B1C0955B
S1130CC0C923C8B9C901DF91CF910895E2E0F1E0E9
S1130CD02081AC014150510981E090E002C0880FAD
S1130CE0991F4A95E2F7282B20832FEF39E648E134
S1130CF0215030404040E1F700C00000A895208119
S1130D00982F909529232083E8E0F1E02081282B77
S1130D1020832FEF39E648E1215030404040E1F78D
S1130D2000C00000A89522B1282B22B920812923D4
S1130D3020832FEF39E648E1215030404040E1F76D
S1130D4000C00000A895E5E0F1E02081282B208375
S1130D5022B1292322B92FEF39E648E1215030404E
S1130D604040E1F700C00000A8952BB1282B2BB917
S1130D702081292320832FEF39E648E12150304098
S1130D804040E1F700C00000A89528B1822B88B943
S1130D908BB189238BB98FEF29E638E1815020404C
S1130DA03040E1F700C00000A89588B1982398B9B5
S1130DB00895CF93DF93EC01CEDECE0123DFC81775
S1130DC0D90711F4CE0182DFDF91CF910895FF920C
S1130DD00F931F93CF93DF93D82FC62F8A01F22E40
S1130DE00E94E8198111FCCF23E041E06F2DC80176
S1130DF00E947A198CE00E94D51A80E00E94D51ACC
S1130E008D2F0E94D51A80E10E94D51A80E00E949D
S1130E10D51A8C2F0E94D51ADF91CF911F910F9173
S1130E20FF900895EF92FF920F931F93CF93DF9358
S1130E30C82FD92F7B01042F122F0E94E81981118A
S1130E40FCCF23E041E0602FC7010E947A19812F73
S1130E500E94D51A8D2F0E94D51A8C2F0E94D51A64
S1130E60DF91CF911F910F91FF90EF900895FF9222
S1130E700F931F93CF93DF93D82FC62F8A01F22E9F
S1130E800E94E8198111FCCF23E041E06F2DC801D5
S1130E900E947A1980E40E94D51A8D2F0E94D51AD7
S1130EA08C2F0E94D51ADF91CF911F910F91FF9043
S1130EB00895EF92FF920F931F93CF93DF9300D087
S1130EC0CDB7DEB7182F7B01042F0E94E8198111DA
S1130ED0FCCF23E041E0602FC7010E947A1981E42E
S1130EE089831A831B8263E0CE0101960E941F1B33
S1130EF00E94DC198330E0F383E00E94B1198091F1
S1130F00D0040F900F900F90DF91CF911F910F910C
S1130F10FF90EF900895CF93DF931F921F92CDB768
S1130F20DEB722E041E066E08BE290E00E947A19AD
S1130F305A988AE18A95F1F700C05A9A8AE18A950B
S1130F40F1F700C019821A8262E0CE0101960E9474
S1130F501F1B0E94DC198230E0F382E00E94B11969
S1130F60EEECF4E0A081B0E0BA2FAA278181A82B8F
S1130F702CE63BE60E94711BBC01882799270F9041
S1130F800F90DF91CF910895CF93DF931F921F921B
S1130F90CDB7DEB722E041E066E08BE290E00E944C
S1130FA07A195A988AE18A95F1F700C05A9A8AE127
S1130FB08A95F1F700C019821A8262E0CE01019687
S1130FC00E941F1B0F900F90DF91CF91089582E034
S1130FD00E94B119EEECF4E0A081B0E0BA2FAA2788
S1130FE08181A82B2CE63BE60E94711BBC0188275B
S1130FF099270895AF92BF92DF92EF92FF920F93D9
S11310001F93CF93DF93A398A298A098A1989B9A3B
S11310109A9A999A989A20E030E002E011E0EE243E
S1131020E394F12C68E071E045E051E0C1E0D1E0E7
S1131030A7E0B1E06894AA24A2F8BB24B394F80111
S1131040D080C701022E02C0880F991F0A94E2F7CC
S1131050982F9095D922D082FB01D0809D21908336
S113106092B1982B92B9FA019081982B9083988130
S1131070982B98839C91982B9C9391B1982B91B920
S1131080F5019081892B80832F5F3F4F27303105F5
S1131090B1F6749A719A6C9A699A72986A9A2E98AF
S11310A0269A2798DF91CF911F910F91FF90EF908F
S11310B0DF90BF90AF90089586E08093240539C0F7
S11310C080910D048A3090F010920D0480912C05CB
S11310D08F5F8A3019F080932C0508C010922C057C
S11310E080912405815080932405A895809124053E
S11310F0863009F4A39A80912405853011F4A398CD
S1131100A29A80912405843011F4A39AA29A809122
S11311102405833019F4A398A298A09A80912405F9
S1131120823011F4A098A19A80912405813009F4A9
S1131130A198809124058111C3CF0895CF93DF93A3
S1131140CDB7DEB728970FB6F894DEBF0FBECDBF7C
S113115065E070E08FE490E00E94331C62E370E08D
S11311608DE490E00E94331C62E370E087E490E039
S11311700E94331C60EE7EE28DE390E00E94331CFB
S113118068EB7BE08FE390E00E94331C49E150E080
S113119060E070E089E490E00E942E1C49E150E098
S11311A060E070E083E490E00E942E1C6AE070E04E
S11311B08BE390E00E94331C64E670E089E390E0E6
S11311C00E94331C60E088E390E00E94201C88E0C9
S11311D0E5E0F2E0DE01119601900D928A95E1F7C7
S11311E048E050E0BE016F5F7F4F80E390E00E94D3
S11311F0171C28960FB6F894DEBF0FBECDBFDF9143
S1131200CF9108950F931F93CF93DF9389E490E0D8
S11312100E940D1C60930E0470930F0480931004BD
S11312209093110483E490E00E940D1C60930E05DA
S113123070930F0580931005909311058BE390E054
S11312400E94121C90930C0480930B0489E390E099
S11312500E94121C909313048093120488E390E07C
S11312600E94051C80932F0548E050E060E370E085
S113127081E395E00E94F51B01E315E0C1E0D0E0B5
S1131280F80181918F01863451F08C3429F0813436
S113129041F4CE010DD805C0CE0195DA02C0CE01CD
S11312A090D82196C930D10559F78DE490E00E9479
S11312B0121C9093BC048093BB0487E490E00E94CA
S11312C0121C90939704809396048DE390E00E94FF
S11312D0121C90932B0580932A058FE390E00E94C3
S11312E0121C9093A9048093A804DF91CF911F91BD
S11312F00F910895EF92FF920F931F93CF93DF9373
S11313007C01062F172FC1E0D0E0F70181917F0106
S1131310F80191918F018917E1F08634C1F028F426
S1131320813441F0823469F014C08C3439F084354E
S113133059F00FC0CE010E948C010BC0CE018DDA92
S113134008C0CE01E6DA05C0CE01A9DB02C0CE0199
S11313508BD82196C930D105C1F6DF91CF911F9169
S11313600F91FF90EF9008950AD110920801109206
S11313700201A1980895CF93DF93CDB7DEB72897E4
S11313800FB6F894DEBF0FBECDBF9EE088E10FB666
S1131390F894A895809360000FBE90936000A89580
S11313A0ACD0C9D0F8D0E0DF25DE8FE490E00E9415
S11313B0121C059731F0A39AA29AA09AA19ABEDEB4
S11313C0A8957894D6D21EDF109223058DE790E07D
S11313D00E94661988E0E5E0F2E0DE0111960190D2
S11313E00D928A95E1F7BE016F5F7F4F81E395E02F
S11313F081DF62DE28960FB6F894DEBF0FBECDBF44
S1131400DF91CF910895B7DF0E94A618A8950E9496
S1131410C51780910D048A3040F010920D0480911C
S11314202C058F5F80932C05F1CF80912C058A3099
S1131430D8F010922C05809114048F5F80931404CB
S113144080912D05882329F0815080932D05A09A41
S113145001C0A09880912305882319F0A39AA29A29
S1131460D5CFA39AA298D2CF809114048A3070F277
S113147010921404CBCF83D081E08093290510927D
S11314802E05A7D0A19A80910E0490910F04A091EB
S11314901004B0911104892B8A2B8B2B21F080919D
S11314A02F058093020180912F058093080161C06C
S11314B00895A19A80912F058093080108955FD023
S11314C081E080932E051092290545D1A19A1092AE
S11314D00201109208014DC0089546DF80912F0546
S11314E0809308012FEF89EF90E0215080409040D5
S11314F0E1F700C0000038CF089583E08093B00086
S11315008CE08093B10089EF8093B30082E08093F4
S1131510700008951F920F920FB60F9211248F93AB
S113152080910D048F5F80930D048F910F900FBEF7
S11315300F901F90189588E18093810082E8809332
S113154080008FE396E0909387008093860080E18B
S113155090E090938900809388008FEF9FEF9093A1
S11315608B0080938A0090938D0080938C00259A41
S11315700895E1E8F0E08081816080830895E1E8E6
S1131580F0E080818E7F80838FEF9FEF90938500C2
S11315908093840008958FE18093210180E69AEE80
S11315A0909327018093260182E0809320018FE0AD
S11315B08093730081E090E0909329018093280147
S11315C090932B0180932A0190932D0180932C01F9
S11315D008958FE59AEE909325018093240180E687
S11315E09AEE909327018093260180910E049091A6
S11315F00F04A0911004B0911104803727E19207E1
S1131600A105B10550F59C01220F331F880F991FC6
S1131610880F991F880F991F820F931F9093290198
S11316208093280120910E0430910F04C901880F82
S1131630991F220F331F220F331F220F331F820FD4
S1131640931F90933D0580933C0510923B05C297F0
S113165090932D0180932C0125C08FEF9FEF9093E1
S113166029018093280160910E0470910F048091E8
S113167010049091110420E737E140E050E00E940B
S1131680381BAB01440F551F660F771F660F771F7A
S1131690660F771F640F751F70933D0560933C05BB
S11316A020933B0580910E0590910F05A0911005A4
S11316B0B0911105803727E19207A105B10528F5FE
S11316C09C01220F331F880F991F880F991F880FC1
S11316D0991F820F931F90932B0180932A0180916D
S11316E00E0590910F059C01220F331F880F991F3F
S11316F0880F991F880F991F820F931F909340059D
S113170080933F0510923E0508958FEF9FEF9093CD
S11317102B0180932A0160910E0570910F05809131
S113172010059091110520E737E140E050E00E9458
S1131730381BAB01440F551F660F771F660F771FC9
S1131740660F771F640F751F7093400560933F0504
S113175020933E05089580910B0490910C04880F0A
S1131760991F0197909327018093260180910B0480
S113177090910C0481509048880F991F90932501F3
S11317808093240180910B0490910C040197909311
S11317902901809328018FEF9FEF90932B01809371
S11317A02A0190932D0180932C0180911204909131
S11317B0130490933A058093390508951F920F926C
S11317C00FB60F9211240BB60F922F933F934F93A2
S11317D05F936F937F938F939F93AF93BF93EF9395
S11317E0FF9380912E058823C1F080912F0580936B
S11317F0020180912F058093080180913905909111
S11318003A059C012150310930933A05209339055A
S1131810892B29F5B4DE2FDE22C080912905882387
S1131820F1F080913B05815080933B05811108C004
S113183080913C0590913D05909329018093280166
S113184080913E05815080933E05811108C08091AE
S11318503F059091400590932B0180932A01FF91BD
S1131860EF91BF91AF919F918F917F916F915F9114
S11318704F913F912F910F900BBE0F900FBE0F9081
S11318801F9018951F920F920FB60F921124109269
S113189002010F900FBE0F901F9018951F920F9288
S11318A00FB60F9211240BB60F922F933F934F93C1
S11318B05F936F937F938F939F93AF93BF93EF93B4
S11318C0FF938FB780688FBF5ADE81DB6093E50397
S11318D07093E6038093E7039093E8031CDB709313
S11318E0FA036093F903109208018FEF9FEF90932E
S11318F02B0180932A01A198FF91EF91BF91AF91A1
S11319009F918F917F916F915F914F913F912F9113
S11319100F900BBE0F900FBE0F901F9018951F9243
S11319200F920FB60F9211240BB60F922F933F9381
S11319304F935F936F937F938F939F93AF93BF93D3
S1131940EF93FF938FB780688FBF1EDBFF91EF91FA
S1131950BF91AF919F918F917F916F915F914F91C3
S11319603F912F910F900BBE0F900FBE0F901F90C1
S113197018950E94A218109243050895FF920F93A0
S11319801F93CF93DF9300D000D0CDB7DEB78A0189
S1131990DA011D921C92FC0120812D3221F4019662
S11319A0FF24F39401C0F12CFC013196DC019C91DD
S11319B080ED890F89838A3008F046C080E08F5F0C
S11319C0282F30E0519190ED950FA1E0B0E0AC0FDD
S11319D0BD1FA20FB31F9C939A3088F35A3081F530
S11319E0681780F1882309F1982F60E070E0F9010D
S11319F0E91BF10941E050E04C0F5D1FE40FF51FB6
S1131A004081FB01EE0FFF1F660F771F660F771FE4
S1131A10660F771F6E0F7F1F640F711D915039F78A
S1131A20D8016D937C9301C080E0FF2081F0F80120
S1131A30208131813195219531093183208307C07B
S1131A4080E005C080E003C09A3071F380E0269600
S1131A500FB6F894DEBF0FBECDBFDF91CF911F91BB
S1131A600F91FF9008958F929F92AF92BF92CF9261
S1131A70DF92EF92FF920F931F93CF93DF93CDB733
S1131A80DEB72B970FB6F894DEBF0FBECDBF8A0129
S1131A90DA011D921D921D921C921397FC01208164
S1131AA02D3219F4019641E001C040E0FC01319669
S1131AB0DC019C9180ED890F89838A3008F05DC038
S1131AC080E08F5F282F30E0519190ED950FA1E0D9
S1131AD0B0E0AC0FBD1FA20FB31F9C939A3088F3E4
S1131AE05A3009F046C0681708F445C0882371F1DC
S1131AF0982FC12CD12C7601F901E91BF10961E081
S1131B0070E06C0F7D1FE60FF71F5081CC0CDD1CBD
S1131B10EE1CFF1C46015701880C991CAA1CBB1C17
S1131B20880C991CAA1CBB1CC80CD91CEA1CFB1CE5
S1131B30C50ED11CE11CF11C9150F1F6D801CD92D7
S1131B40DD92ED92FC92139701C080E04423C1F032
S1131B50F80140815181628173817095609550953F
S1131B6041955F4F6F4F7F4F4083518362837383EF
S1131B7007C080E005C080E003C09A3031F380E004
S1131B802B960FB6F894DEBF0FBECDBFDF91CF9179
S1131B901F910F91FF90EF90DF90CF90BF90AF9087
S1131BA09F908F900895FC0120E030E080E0A1E058
S1131BB0B0E09191903351F0913389F4AD01022E4C
S1131BC002C0440F551F0A94E2F7840F2F5F3F4F62
S1131BD02830310571F7FB01808381E0089580E0AE
S1131BE008950C94401908950C9451190895CF92B6
S1131BF0DF92EF92FF920F931F93CF93DF93CDB7B2
S1131C00DEB72C970FB6F894DEBF0FBECDBFE62E1D
S1131C10992344F42DE230E038872F839195819500
S1131C20910901C01F824AE0BE016F5F7F4F0E948D
S1131C30931BBE016F5F7F4FCE0107960E94811BED
S1131C40BE01695F7F4FCE0101960E948C1BE1109B
S1131C500FC020C0D886CF82B801CE0107960E945B
S1131C60811BBE01695F7F4FC8010E948C1B08C0A5
S1131C708E010F5F1F4FF12C6894CC24C5F8D12C32
S1131C80F80101900020E9F73197E01BF10BEE1504
S1131C90FF0500F3CE0101960E9440192C960FB661
S1131CA0F894DEBF0FBECDBFDF91CF911F910F918E
S1131CB0FF90EF90DF90CF900895CF92DF92EF9254
S1131CC0FF920F931F93CF93DF93CDB7DEB7669741
S1131CD00FB6F894DEBF0FBECDBFE42E992364F493
S1131CE02DE230E03D872C87909580957095619525
S1131CF07F4F8F4F9F4F01C01C862AE0AE014F5F7C
S1131D005F4F0E949D1BBE016F5F7F4FCE010C96FB
S1131D100E94811BBE01645F7F4FCE0101960E9429
S1131D208C1BE1100FC020C0DD86CC86B801CE012B
S1131D300C960E94811BBE01645F7F4FC8010E9404
S1131D408C1B08C08E010F5F1F4FF12C6894CC24AC
S1131D50C5F8D12CF80101900020E9F73197E01B78
S1131D60F10BEE15FF0500F3CE0101960E94401918
S1131D7066960FB6F894DEBF0FBECDBFDF91CF914C
S1131D801F910F91FF90EF90DF90CF9008955F9295
S1131D906F927F928F929F92AF92BF92CF92DF9277
S1131DA0EF92FF920F931F93CF93DF93CDB7DEB7DC
S1131DB064970FB6F894DEBF0FBECDBF4C01762EEC
S1131DC0C42E442389F0842F01E010E09801220FEF
S1131DD0331F000F111F000F111F000F111F020FDF
S1131DE0131F815099F702C001E010E0C40199204B
S1131DF024F48827992788199909582E692EB8013F
S1131E000E94241B4AE0BE016F5F7F4F0E94931B18
S1131E10CE0101967C01D12C0F2EF0E3AF2EB12C14
S1131E20F02D0DC0BC86AB86B701CE010B960E9487
S1131E30811BBE01655F7F4FC7010E948C1BF701A8
S1131E4001900020E9F73197EE19FF09EC15FD0523
S1131E5048F37E019BE0E90EF11C852D962DB80117
S1131E600E94241BCB014AE0B7010E94931BF70197
S1131E7001900020E9F731978EE290E0918380830E
S1131E80BE016F5F7F4FC7010E94811B99202CF414
S1131E908DE290E09A83898301C01982BE01655F57
S1131EA07F4FCE0101960E94811B71100FC021C08B
S1131EB0DC86CB86B801CE010B960E94811BBE0145
S1131EC0655F7F4FC8010E948C1B09C08E010F5FA4
S1131ED01F4FE72CF12C6894CC24C5F8D12CF801C1
S1131EE001900020E9F73197E01BF10BEE15FF0597
S1131EF0F8F2CE0101960E94401964960FB6F89448
S1131F00DEBF0FBECDBFDF91CF911F910F91FF9028
S1131F10EF90DF90CF90BF90AF909F908F907F9085
S1131F206F905F900895CF93DF93CDB7DEB7299775
S1131F300FB6F894DEBF0FBECDBF99E0E6E5F2E040
S1131F40DE01119601900D929A95E1F7FE0131960A
S1131F5020E030E090E070E361E3AC01022E02C0C7
S1131F60559547950A94E2F740FF02C0608301C08B
S1131F7070832F5F3F4F31962830310571F7CE01C2
S1131F8001960E94401929960FB6F894DEBF0FBE41
S1131F90CDBFDF91CF910895DF92EF92FF920F931F
S1131FA01F93CF93DF93CDB7DEB72F970FB6F89477
S1131FB0DEBF0FBECDBF8C01DC0112962C911297AF
S1131FC011968C91119719821B821A821C821D8290
S1131FD01E821F829C91923509F03EC0833509F020
S1131FE0C6C7243509F0C3C713968C918A3089F487
S1131FF0109223058FE592E00E94511998E088E140
S11320000FB6F894A895809360000FBE909360007B
S1132010FFCF803209F0ABC7F8018481813309F026
S1132020A6C785818A3009F0A2C7109223056FEFF5
S11320307FEF8FE490E00E94331C86E692E00E94DA
S1132040511998E088E10FB6F894A8958093600040
S11320500FBE90936000FFCFE82EF12CF22A933547
S113206009F0B8C5D80113968C91803209F01EC2CC
S1132070B0E5EB16B2E5FB0609F4B6C100F5F5E4EC
S1132080EF16FEE4FF06D1F168F43EE4E31634E40F
S1132090F30609F450C184E5E81684E4F80609F46B
S11320A076C100C2A8E4EA16A0E5FA0609F4BDC0A8
S11320B0BDE4EB16B0E5FB0609F4FCC0F3C1E0E5B2
S11320C0EE16E3E5FE06E9F168F424E4E21623E5FE
S11320D0F20609F470C03DE4E31633E5F30609F4AF
S11320E087C0E0C183E5E816F80609F447C0A3E415
S11320F0EA16A4E5FA0609F4A0C1D4C1F801848162
S1132100813361F485818A30B9F481E080932305B9
S1132110729A84E792E00E94511929C7803361F4CE
S113212085818A3049F4109223051ED972988AE772
S113213092E00E9451191BC78EE092E00E9451194F
S113214016C7F8018481813349F485818A3089F482
S113215092D980E892E00E94511909C7803349F46A
S113216085818A3031F400D986E892E00E945119C1
S1132170FEC68EE092E00E945119F9C6F8018481EE
S1132180813349F485818A3089F493D98CE892E0CB
S11321900E945119ECC6803349F485818A3031F4A8
S11321A0E3D882E992E00E945119E1C68EE092E000
S11321B00E945119DCC6F8018481813349F4858178
S11321C08A3089F488E992E00E94511978D9CFC6FF
S11321D0803349F485818A3031F4C6D88EE992E09F
S11321E00E945119C4C68EE092E00E945119BFC6E4
S11321F0F8018481813349F485818A3089F484EA41
S113220092E00E94511969D9B2C6803349F485819C
S11322108A3031F4A9D88AEA92E00E945119A7C6FB
S11322208EE092E00E945119A2C6AE014C5F5F4F4E
S113223066E0C801049617DC811105C08EE092E0C7
S11322400E94511994C68C819D81AE81BF81AC01DD
S1132250BD014951510961097109483A544D614020
S1132260710548F0892B8A2B8B2B29F08FE192E0A2
S11322700E9451197CC680EB92E00E9440196C8147
S11322807D818E819F8141E018DD85EB92E00E9483
S113229051194C815D816E817F8140930E0450936E
S11322A00F04609310047093110489E490E00E9479
S11322B02E1C5DC6AE014C5F5F4F66E0C8010496FC
S11322C0D2DB811104C08EE092E0EBD750C68C8142
S11322D09D81AE81BF81AC01BD01495151096109A4
S11322E07109483A544D6140710540F0892B8A2B9D
S11322F08B2B21F08FE192E0D4D739C689EB92E0A1
S1132300BFD76C817D818E819F8141E0D6DC85EBD6
S113231092E0C7D74C815D816E817F8140930E0529
S113232050930F05609310057093110583E490E0BA
S11323300E942E1C1CC6AE014E5F5F4F66E0C801B2
S113234004961CDB811104C08EE092E0AAD70FC66C
S11323508A819B810197883E934020F08FE192E02F
S1132360A0D705C68EEB92E08BD761E08A819B8172
S11323703EDC83EC92E095D76A817B8170931304F1
S11323806093120489E390E00E94331CF0C5AE010F
S11323904E5F5F4F66E0C8010496F0DA811104C015
S11323A08EE092E07ED7E3C58A819B810197883EC7
S11323B0934020F08FE192E074D7D9C58BEC92E082
S11323C05FD741E061E08A819B81E1DC85EB92E0AB
S11323D068D76A817B8170930C0460930B048BE350
S11323E090E00E94331CC3C5F80101900020E9F776
S11323F0CF010E978017910721F08EE092E051D71C
S1132400B6C5BE016F5F7F4FC8010496CCDB811156
S113241004C08EE092E045D7AAC580ED92E030D7A3
S1132420898181DD8AE393E03CD7698160932F053C
S113243088E390E00E94201C9AC5F80101900020D6
S1132440E9F7CF010E978017910721F08EE092E013
S113245028D78DC561E375E0CE0108960E948C1BD8
S113246088E0F8013496A1E3B5E001900D928A95D5
S1132470E1F748E050E060E370E081E395E00E941A
S1132480171CBE01685F7F4F81E395E00E947A09C3
S113249085ED92E0F5D681E395E0F2D68AE393E008
S11324A000D765C582E492E0FCD661C50F2EF0ED3D
S11324B0DF2EF02DD80E87E08D1508F487C3D801E0
S11324C01496EC918E2F90E0FC01E154F109E43173
S11324D0F10508F077C38827E458FF4F8F4F0C9419
S11324E05A1BBDE4EB16B3E4FB0609F470C0E9E43F
S11324F0EE16EEE4FE0639F0F8E4EF16F3E4FF0618
S113250009F0B2C019C0D80115968C918A3021F017
S11325108EE092E0C6D62BC50D2DDD0C110BC80143
S11325200E942D0489E192E0ABD661E0C8015FDB33
S113253089E493E0B6D61BC5AE014E5F5F4F64E0FD
S1132540C80106961BDA811104C08EE092E0A9D678
S11325500EC58A819B818D3D954020F08FE192E0EC
S1132560A0D605C58AED92E08BD60D2DDD0C110B9E
S113257061E0C8013CDB8EED92E082D661E08A81A5
S11325809B8135DB81EE92E08CD6C80101976A818C
S11325907B81FC01EE0FFF1FE856FB4F2081318148
S11325A02617370709F4E3C4880F991FFC01E8567E
S11325B0FB4F7F0171836083805E9F4F0E94331CB9
S11325C0B801D7018D919C910E94FF03D0C4AE0144
S11325D04E5F5F4F63E0C8010696D0D9811104C0F5
S11325E08EE092E05ED6C3C48A819B81C297893C07
S11325F0910520F08FE192E054D6B9C485EE92E0C3
S11326003FD60D2DDD0C110B61E0C801F0DA8EED23
S113261092E036D641E061E08A819B81B8DB81EEAD
S113262092E03FD6C80101976A817B81FC01EE0FDD
S1132630FF1FE550FC4F208131812617370709F42D
S113264096C4880F991FFC01E550FC4F7F017183EC
S11326506083805F9F4F0E94331CB801D7018D9126
S11326609C910E94160483C482E492E01AD67FC42B
S1132670BDE4EB16B3E4FB0609F446C0EDE4EE1644
S1132680E6E5FE0609F47CC0F8E4EF16F3E4FF0681
S113269009F0B1C0AE014E5F5F4F64E0C801069619
S11326A06DD9811104C08EE092E0FBD560C48A81AB
S11326B09B818938934120F08FE192E0F2D557C491
S11326C089EE92E0DDD561E08A819B8190DA81EE2A
S11326D092E0E7D56A817B818091BB049091BC0430
S11326E08617970709F443C47093BC046093BB0432
S11326F08DE490E00E94331C6D2D8091BB04909179
S1132700BC040E94DF0033C4AE014E5F5F4F63E040
S1132710C801069633D9811104C08EE092E0C1D578
S113272026C48A819B81C297893C910520F08FE160
S113273092E0B7D51CC485EF92E0A2D541E061E0F8
S11327408A819B8124DB81EE92E0ABD56A817B8117
S113275080919604909197048617970709F407C40B
S1132760709397046093960487E490E00E94331C6E
S11327706D2D80919604909197040E940301F7C3F4
S1132780AE014E5F5F4F64E0C8010696F7D8811131
S113279004C08EE092E085D5EAC38A819B81845689
S11327A091098D36974020F08FE192E07AD5DFC30E
S11327B081E093E065D542E061E08A819B81E7DABC
S11327C08FE392E06ED56A817B818091F9039091C9
S11327D0FA038617970709F4CAC37093FA03609340
S11327E0F90381E490E00E94331C6D2D8A819B8162
S11327F00E942701BCC382E492E053D5B8C38DE0A4
S113280093E04FD5B4C389E4E8168EE4F80669F082
S1132810A7E5EA16AFE4FA0609F46BC0B7E5EB16D0
S1132820B7E4FB0609F0ADC018C0F80185818A3011
S113283021F08EE092E035D59AC30D2DDD0C110BFD
S1132840C8010E948C0189E192E01AD561E0C801B7
S1132850CED983EE92E025D58AC3AE014E5F5F4F99
S113286064E0C80106968AD8811104C08EE092E023
S113287018D57DC38A819B8101978436910520F008
S11328808FE192E00ED573C38AE292E0F9D40D2D64
S1132890DD0C110B61E0C801AAD988E293E0F0D401
S11328A061E082E090E0A3D981E392E0FAD4C80128
S11328B00197FC01EE0FFF1FE254FB4F4081518151
S11328C02A813B814217530709F451C3880F991F8A
S11328D07F0122E030E03183208362E070E0805E9B
S11328E09F4FC1D7B801F701808191810E94740183
S11328F03EC3AE014E5F5F4F64E0C80106963ED80A
S1132900811104C08EE092E0CCD431C38A819B81D2
S11329108131974220F08FE192E0C3D428C38BE346
S113292092E0AED40D2DDD0C110B61E0C8015FD92E
S113293088E293E0A5D443E061E08A819B8127DAB1
S11329408FE392E0AED4C80101976A817B81FC01D8
S1132950EE0FFF1FED5EFA4F2081318126173707F6
S113296009F405C3880F991F7F0171836083805F19
S11329709F4F79D7B801F701808191810E94750139
S1132980F6C282E492E08DD4F3E5EF16F4E5FF0697
S113299009F0EDC2D80115968C918A3021F08EE0B1
S11329A092E07FD4E4C28BE293E06AD40D2DDD0C77
S11329B0110B61E0C8011BD98AE393E072D4C8010A
S11329C00E944F05C8010E94D906D1C2B2E5EB1698
S11329D0B4E4FB0609F4C2C060F4F2E5EF16F2E4D5
S11329E0FF0661F122E5E21623E4F20609F486C04B
S11329F0BEC232E5E3163CE4F30609F44FC089E4B1
S1132A00E8168EE4F80609F0B2C2D80115968C9146
S1132A108A3021F08EE092E044D4A9C20D2DDD0C61
S1132A20110BC8010E94890489E192E029D461E074
S1132A30C801DDD88DE393E034D499C2F8018681CE
S1132A40813399F487818A3029F50D2DDD0C110B22
S1132A50C8010E94D6048BE393E012D461E0C8015C
S1132A60C6D88FE393E01DD482C2803399F4878162
S1132A708A3081F40D2DDD0C110BC8010E943E0536
S1132A808BE393E0FDD361E0C801B1D883E493E024
S1132A9008D46DC28EE092E004D469C2F801868144
S1132AA0813399F487818A3029F50D2DDD0C110BC2
S1132AB0C8010E94F00487E493E0E2D361E0C80116
S1132AC096D88FE393E0EDD352C2803399F4878193
S1132AD08A3081F40D2DDD0C110BC8010E943E05D6
S1132AE087E493E0CDD361E0C80181D883E493E027
S1132AF0D8D33DC28EE092E0D4D339C2F8018681A6
S1132B00813399F487818A3029F50D2DDD0C110B61
S1132B10C8010E940A058BE493E0B2D361E0C801C6
S1132B2066D88FE393E0BDD322C2803399F48781C2
S1132B308A3081F40D2DDD0C110BC8010E943E0575
S1132B408BE493E09DD361E0C80151D883E493E022
S1132B50A8D30DC28EE092E0A4D309C2F801868105
S1132B60813399F487818A3029F50D2DDD0C110B01
S1132B70C8010E9424058FE493E082D361E0C80178
S1132B8036D88FE393E08DD3F2C1803399F48781F3
S1132B908A3081F40D2DDD0C110BC8010E943E0515
S1132BA08FE493E06DD361E0C80121D883E493E01E
S1132BB078D3DDC18EE092E074D3D9C1C8010E94FC
S1132BC09E02D5C182E492E06CD3D1C182E492E04A
S1132BD068D3CDC1973409F0C7C1F80183818A3025
S1132BE009F017C1F8E4EF16F0E5FF0609F454C044
S1132BF000F53EE4E31634E4F30609F46CC068F42B
S1132C00A0E5EA16A1E4FA0609F4C5C0B9E4EB1696
S1132C10B4E4FB0609F4B8C0F8C0E4E5EE16E4E455
S1132C20FE0609F466C0F5E4EF16FEE4FF0639F18A
S1132C30ECC023E4E21624E5F20609F472C060F461
S1132C408DE4E81680E5F806C1F1A0E5EA16A2E5F0
S1132C50FA0609F45CC0D9C0BDE4EB16B6E5FB0680
S1132C6009F47BC0E6E4EE16E7E5FE0609F485C048
S1132C70F8E4EF16F6E5FF0609F0C7C05CC083E58B
S1132C8093E0FED28091230561E090E00E94F70D6D
S1132C908AE393E006D36BC188E593E0F1D26091B7
S1132CA00E0470910F04809110049091110441E07E
S1132CB004D885EB92E0F5D25AC18DE593E0E0D2D9
S1132CC061E080910E0590910F050E94F70D85EB50
S1132CD092E0E7D24CC182E693E0D2D261E08091E7
S1132CE01204909113040E94F70D83EC92E0D9D260
S1132CF03EC187E693E0C4D241E061E080910B04D9
S1132D0090910C0444D885EB92E0CBD230C18CE690
S1132D1093E0B6D280912F0506D98AE393E0C1D21D
S1132D2026C181E793E0ACD281E395E0A9D28AE39E
S1132D3093E0B7D21CC186E793E0A2D26091E50389
S1132D407091E6038091E7039091E80341E00E94CB
S1132D505D0E8BE793E0A5D20AC18FE793E090D292
S1132D606091F9037091FA0380E090E041E00E94E1
S1132D705D0E8BE793E095D2FAC084E893E080D2AD
S1132D8088E893E08ED2F3C08EE993E079D282EAA8
S1132D9093E087D2ECC08CEB93E072D28091230550
S1132DA061E090E00E94F70D84EC93E069D261E069
S1132DB08091BB049091BC040E94F70D84EC93E0D5
S1132DC05FD241E061E080919604909197040E9463
S1132DD0C70E84EC93E054D260910E0470910F04FA
S1132DE0809110049091110441E00E945D0E84ECE6
S1132DF093E046D261E080910E0590910F050E9408
S1132E00F70D8AE393E04DD2B2C082E492E049D256
S1132E10AEC00F2EF0EDDF2EF02DD80E27E02D15CD
S1132E2008F49EC08481863409F492C08C3421F065
S1132E30813409F091C046C0B8E4EB16B3E4FB0654
S1132E4031F0EDE4EE16E3E4FE06E1F037C086EC83
S1132E5093E016D20D2DDD0C110B61E0C8010E9428
S1132E60F70D8EED92E00CD2F801EE0FFF1FEA563B
S1132E70FB4F61E0808191810E94F70D81EE92E029
S1132E8010D275C08AEC93E0FBD10D2DDD0C110B33
S1132E9061E0C8010E94F70D8EED92E0F1D1F801D6
S1132EA0EE0FFF1FE750FC4F41E061E0808191810C
S1132EB00E94C70E81EE92E0F4D159C082E492E000
S1132EC0F0D155C0F7E5EF16F7E4FF0631F027E53A
S1132ED0E2162FE4F206E1F037C08EE492E0D0D19E
S1132EE00D2DDD0C110B61E0C8010E94F70D88E285
S1132EF093E0C6D1F801EE0FFF1FE454FB4F61E0ED
S1132F00808191810E94F70D81E392E0CAD12FC0A4
S1132F1082E592E0B5D10D2DDD0C110B61E0C80105
S1132F200E94F70D88E293E0ABD1F801EE0FFF1F8A
S1132F30EF5EFA4F43E061E0808191810E94C70E09
S1132F408FE392E0AED113C082E492E0AAD10FC025
S1132F50C8010E948E030BC082E492E0A2D107C094
S1132F6082E492E09ED103C082E492E09AD12F964B
S1132F700FB6F894DEBF0FBECDBFDF91CF911F9186
S1132F800F91FF90EF90DF900895F6D08093430562
S1132F90882341F085E194E09093420580934105B4
S1132FA00C94CC0F08951F920F920FB60F92112418
S1132FB00BB60F928F939F93EF93FF938091D70358
S1132FC0882329F08091C60080932D0535C0809117
S1132FD0D90381112DC0E091DA03F0E08091C6009D
S1132FE0EC53FA4F8083E091DA03F0E0EC53FA4FAC
S1132FF080818A3029F48091D8038F5F8093D8032D
S11330008091DA038F5F8093DA038091DA0380384A
S113301011F41092DA039091DA038091DB03981390
S113302003C081E08093D90385E080932D0504C01B
S11330308091C60080932D05FF91EF919F918F9110
S11330400F900BBE0F900FBE0F901F9018951F92FC
S11330500F920FB60F9211240BB60F928F939F937A
S1133060EF93FF938091000281111DC08091D603DC
S11330708F5F8093D6038091D603803811F4109229
S1133080D6039091D6038091D503981304C081E0B0
S11330908093000208C0E091D603F0E0EC5BFA4FA5
S11330A080818093C60085E080932D05FF91EF9188
S11330B09F918F910F900BBE0F900FBE0F901F909A
S11330C018958F929F92AF92BF92CF92DF92EF9218
S11330D0FF92699AE1ECF0E020812861208320814D
S11330E020682083208120642083E2ECF0E02081AA
S11330F0266020836C01E12CF12CA0E2B3E0A7014F
S11331009601F5D24B015C0124E2920E24EFA21E3B
S1133110B11CA0E4B6E0A7019601E9D29B01AC0181
S1133120C501B401A5D2215031093093C5002093C3
S1133130C400FF90EF90DF90CF90BF90AF909F902E
S11331408F90089580E492E0BCCF0895E1ECF0E024
S113315080818F778083A6ECB0E02C911092DB0302
S11331601092DA038C911092D9031092D8039081B3
S113317090689083820F0895CF93C091D803CC2395
S113318009F440C080E0A1ECB0E0282F30E0E091E9
S1133190DB03F0E0EC53FA4F9081F901EB5EFB4F57
S11331A090839C919F779C939091DB039F5F909376
S11331B0DB039091DB03903811F41092DB0310923F
S11331C0D9039C9190689C93F901EB5EFB4F90812D
S11331D09A3091F4E1ECF0E090819F7790839091A4
S11331E0D80391509093D803908190689083F9010B
S11331F0EB5EFB4F11820CC091118F5F88232CF67C
S113320080E006C08091D903882311F09FDF8C2FC2
S1133210CF910895382F2091D5039091D603291387
S113322004C080910002882351F1E091D503F0E0BD
S1133230EC5BFA4F3083E1ECF0E080818F7B80839C
S11332408091D5038F5F8093D5038091D503803817
S113325011F41092D50380910002882351F0E0917B
S1133260D603F0E0EC5BFA4F80818093C6001092A5
S11332700002E1ECF0E080818064808381E00895C5
S1133280CF93DF93EC018881882341F08881C2DFEA
S11332908823E1F3219688818111F8CFDF91CF91C2
S11332A00895CF93DF93EC018881882341F08881CE
S11332B0B1DF8823E1F3219688818111F8CF8AE078
S11332C0A9DF8823E1F3DF91CF9108951092D5000F
S11332D01092D400289A2398229A219A84E58CBDCE
S11332E08CB580688CBD8CB580688CBD8CB58360D2
S11332F08CBD089590930302809302026093DE03D1
S11333004093DD032093010208959091DD039923F6
S113331019F08823A9F002C0811112C0E0910202C1
S1133320F0910302208181E090E00090DE0302C06E
S1133330880F991F0A94E2F7809582238083089569
S1133340E0910202F0910302208181E090E000907C
S1133350DE0302C0880F991F0A94E2F7822B808350
S11333600895813408F080E4AEECB4E020E015C0A8
S1133370E091E403F0E0EC57F94F90819D932F5FC7
S11333809091E4039F5F9093E4039091E40390345D
S113339011F41092E4031092E2033091E40390914B
S11333A0E303391304C09091E203992319F028131D
S11333B0DFCF0895822F08958091E203811106C022
S11333C08091E3039091E403891B089580E40895B8
S11333D08091DF039091E003891B08958CB58F776A
S11333E08CBD2EB51092E4031092E3038EB51092B7
S11333F0E2039CB590689CBD820F08951F920F92C2
S11334000FB60F9211240BB60F922F933F934F9345
S11334105F936F937F938F939F93AF93BF93EF9338
S1133420FF938091E203811124C0E091E303F0E073
S11334308EB5EC57F94F80838091E3038F5F8093BF
S1133440E3038091E303803411F41092E303909139
S1133450E3038091E403981303C081E08093E203C3
S11334609091DC0380910102981304C01092E1034F
S113347001C0B4DF8EEC93E00E94F40DFF91EF9154
S1133480BF91AF919F918F917F916F915F914F9178
S11334903F912F910F900BBE0F900FBE0F901F9076
S11334A018951F920F920FB60F9211240BB60F921C
S11334B02F933F934F935F936F937F938F939F9338
S11334C0AF93BF93EF93FF938091E103882349F176
S11334D08091E203811124C0E091E303F0E08EB512
S11334E0EC57F94F80838091E3038F5F8093E3036C
S11334F08091E303803411F41092E3039091E30389
S11335008091E403981303C081E08093E2039091D7
S1133510DC038091010298130EC01092E10307C0EE
S11335205DDF9091DC0380910102981304C080E078
S1133530ECDE1092DC0380910402811123C080919F
S1133540E0038F5F8093E0038091E003803411F403
S11335501092E0039091DF038091E003981304C07C
S113356081E0809304020EC081E0CFDEE091E003AD
S1133570F0E0EC5BF94F80818EBD8091DC038F5FBE
S11335808093DC03FF91EF91BF91AF919F918F9155
S11335907F916F915F914F913F912F910F900BBE4F
S11335A00F900FBE0F901F901895382F2091DF03B6
S11335B09091E003291304C080910402882361F1EF
S11335C0E091DF03F0E0EC5BF94F30838CB58F774B
S11335D08CBD8091DF038F5F8093DF038091DF03D5
S11335E0803411F41092DF0380910402882381F067
S11335F081E08BDEE091E003F0E0EC5BF94F808149
S11336008EBD8091DC038F5F8093DC0310920402F3
S11336108CB580688CBD81E008951F93CF93DF93B0
S1133620EC01162F662339F08881BFDF8823E1F38C
S113363021961150C9F7DF91CF911F91089521E090
S11336402093E103EACF0895AA1BBB1B51E107C0F5
S1133650AA1FBB1FA617B70710F0A61BB70B881F1E
S1133660991F5A95A9F780959095BC01CD010895AD
S1133670A1E21A2EAA1BBB1BFD010DC0AA1FBB1F72
S1133680EE1FFF1FA217B307E407F50720F0A21BE4
S1133690B30BE40BF50B661F771F881F991F1A9451
S11336A069F760957095809590959B01AC01BD017B
S11336B0CF010895EE0FFF1F881F8BBF0790F6916F
S11336C0E02D1994A29FB001B39FC001A39F700D78
S11336D0811D1124911DB29F700D811D1124911D16
S11336E00895F0DFB7FF0895821B930B0895EADF76
S11336F0A59F900DB49F900DA49F800D911D112442
S11337000895FB01DC010D900020E9F71197019069
S11337100D920020E1F70895FB01DC0101900D9268
S11337200020E1F70895BB274A3031F4992322F4AD
S1133730BDE2909581959F4F30C0BB272A3051F44C
S1133740992342F4BDE290958095709561957F4FE1
S11337508F4F9F4F01C0BB27FA01A62F6217710537
S113376081059105330B30FB66F0AA27660F771F9E
S1133770881F991FAA1FA21710F0A21B6395385027
S1133780A9F7A05DAA3308F0A95DA19336F7B1119A
S1133790B1931082CA0119C0BB27FB015527AA2780
S11337A0880F991FAA1FA41710F0A41B83955051CA
S11337B0B9F7A05DAA3308F0A95DA193009779F742
S11337C0B111B1931192CB0100C0DC01FC01672F50
S11337D071917723E1F7329704C07C916D937083E4
S11337E06291AE17BF07C8F30895DC01CB01FC0159
S11337F0F999FECF06C0F2BDE1BDF89A319600B446
S11338000D9241505040B8F70895F999FECF92BDFA
S113381081BDF89A992780B50895A6E1B0E044E007
S113382050E0E5CFA8E1B0E042E050E0E0CFDC01B9
S1133830CB0102C02D9105D041505040D8F70895D6
S1133840262FF999FECF1FBA92BD81BD20BD0FB6B8
S1133850F894FA9AF99A0FBE01960895242FF1DF8D
S1133860252FEFDF00C0ECDF272FEBCFF894FFCF3D
S11338700101250001303030303030303000464F07
S1133880524D4154204552520053494E0046004E79
S1133890554D424552204552520053574700463D2C
S11338A00020572F4F2D556E69740053574F002039
S11338B05600434F4D4D414E442045525200475708
S11338C0470047574F0030303030303030300072CE
S11338D065626F6F7400666163746F7279207265DC
S11338E07365740053454E3D310053454E3D3000E1
S11338F05350533D31005350533D30005353533DC7
S113390031005353533D30005344533D310053442D
S1133910533D3000534D533D3100534D533D300022
S11339205348503D00206D7300534D503D00534E9D
S1133930443D002070756C736573005354443D001E
S11339405350523D005343543D00534843004C3DB3
S113395000206D4100534D4300534843204D4F53C5
S11339604645543D00534D43204D4F534645543D29
S113397000534D56204D4F534645543D0046756EF9
S11339806374696F6E206E6F74207265616C697AFE
S11339906564207965742100413D005353542053DC
S11339A06C6F742D546573743A2000535242004274
S11339B03D3100423D300053524C005352430053BA
S11339C052440047454E3D004748503D00474D5046
S11339D03D00474E443D004754443D004750523D4E
S11339E0004743543D004748563D00206D5600476C
S11339F04D563D0046573D005274685445435F6D33
S1133A00435F556E69742056302E302E350049447C
S1133A103D00527468544543205454412D457175FA
S1133A2069706D656E742056315F300050415241AB
S1133A304D533D002C0047484300474D43006A6105
S1053A40000080
S9030000FC
