S01800004D435F5274685445435F56305F305F352E737265630B
S11300007BC0000099C0000097C0000095C00000AC
S113001093C0000091C000008FC000008DC000009C
S11300208BC0000089C0000087C0000085C00000AC
S113003083C000000C9469087FC000007DC00000EC
S11300407BC0000079C0000077C0000075C00000CC
S113005073C0000071C000006FC000006DC00000DC
S11300600C941F180C94A11567C000000C94F5158E
S113007063C0000061C000005FC000005DC00000FC
S11300805BC0000059C0000057C0000055C000000C
S113009053C0000051C000004FC000004DC000001C
S11300A04BC0000049C0000047C0000045C000002C
S11300B043C0000041C000003FC000000C94210A6E
S11300C00C942D0A0C946E0A0C94BD090C94CC1754
S11300D033C0000031C000002FC000002DC000005C
S11300E02BC00000C903B503B703B903BB03BD03A9
S11300F0BF03C103C303C50311241FBECFEFD1E265
S1130100DEBFCDBF00E00CBF13E0A0E0B2E0ECE046
S1130110F4E300E00BBF02C007900D92AC3CB107C2
S1130120D9F726E0ACECB3E001C01D92AE39B207BA
S1130130E1F748D70C94041A63CF0F931F93CF931E
S1130140DF93D82F8B01C42F8091CC03841307C075
S11301508091CD039091CE038617970799F00E9462
S1130160B6178111FCCF1093CE030093CD03C09337
S1130170CC0323E041E06C2FC8010E9448178CB5E2
S113018084608CBD8D2F0E94A318DF91CF911F91A5
S11301900F9108951F93CF93DF93C62F9C01AFEF68
S11301A0BFEF0E94301928E833E140E050E00E949C
S11301B00619D22F132F4C2F62E270E080E0BDDFCE
S11301C04C2F62E270E0812FB8DF4C2F62E270E0C6
S11301D08D2FB3DFDF91CF911F9108951F93CF939C
S11301E0DF93C62F9C01AFEFBFEF0E9430192AEFB7
S11301F030E040E050E00E940619D22F132F4C2F1C
S113020062E270E082E099DF4C2F62E270E0812FBD
S113021094DF4C2F62E270E08D2F8FDFDF91CF915E
S11302201F9108951F93CF93DF93C62F9C01ABEAD0
S1130230BAEA0E943019DC01B695A79526EF3FEF84
S113024049E050E00E944519665B794F8944964025
S113025028E833E140E050E00E940619D22F132F22
S11302604C2F65E071E080E068DF4C2F65E071E0C1
S1130270812F63DF4C2F65E071E08D2F5EDFDF910E
S1130280CF911F910895CF93DF930197EC01CC0F89
S1130290DD1FCE01805E9F4F0E94E019FE01E856EB
S11302A0FB4F91838083CE01805F9F4F0E94E019B2
S11302B0C351DB4F99838883DF91CF9108950895CB
S11302C0CF93CFEFC60F9C01AFEFBFEF0E94301961
S11302D020E137E240E050E00E940619DA01C9014A
S11302E020E04C2F62E270E086D3CF9108950F9303
S11302F01F93CF93DF938C01E2E0F1E02081EC01C6
S1130300219781E090E00C2E02C0880F991F0A9477
S1130310E2F7982F909529232083E8E0F1E02081EB
S11303209223908392B1982B92B9E5E0F1E0908109
S1130330982B90839BB1982B9BB998B1982B98B923
S1130340E1E0F1E09081982B9083E7E0F1E0908187
S1130350982B908391B1982B91B9E4E0F1E09081CE
S1130360982B90839AB1982B9AB997B1892B87B916
S11303702FEF200F42E250E061E080E011D3CC0F78
S1130380DD1FC351DB4FB8018881998199DFDF916B
S1130390CF911F910F910895CF93DF930197EC01B3
S11303A0CC0FDD1FCE01805E9F4F0E94E019FE013D
S11303B0EE57FB4F91838083CE01805F9F4F0E9455
S11303C0E019CB51DC4F99838883DF91CF91089555
S11303D0CF93CFEFC60F9C01AFEFBFEF0E94301950
S11303E02CED35E040E050E00E940619DA01C90125
S11303F020E04C2F62E270E0FED2CF910895CF93BB
S1130400CFEFC60F9C01AFEFBFEF0E9430192AEF68
S113041030E040E050E00E940619DA01C90122E010
S11304204C2F62E270E0E7D2CF9108950F931F93AF
S1130430CF93DF938C01E2E0F1E02081EC0121977E
S113044081E090E00C2E02C0880F991F0A94E2F715
S1130450982F909529232083E8E0F1E020819223CE
S1130460908392B1982B92B9E5E0F1E09081982BBA
S113047090839BB1982B9BB998B1982B98B9E1E0E4
S1130480F1E09081982B9083E7E0F1E09081982B44
S1130490908391B1982B91B9E4E0F1E09081982B8D
S11304A090839AB1982B9AB997B1892B87B92FEF7A
S11304B0200F42E250E065E080E072D2CC0FDD1FF5
S11304C0FE01EE57FB4FB8018081918181DFCB5152
S11304D0DC4FB8018881998192DFDF91CF911F9120
S11304E00F910895CF93E2E0F1E02081BC016150C7
S11304F0710941E050E002C0440F551F6A95E2F7CC
S1130500942F909529232083E8E0F1E02081922321
S1130510908392B1942B92B9E5E0F1E09081942B11
S113052090839BB1942B9BB998B1942B98B9E1E03B
S1130530F1E09081942B9083E7E0F1E09081942B9B
S1130540908391B1942B91B9E4E0F1E09081942BE4
S113055090839AB1942B9AB997B1492B47B9CFEFAD
S1130560C80F2C2F48E250E060E080E069D22C2FC5
S113057048E250E060E08AE063D2CF910895CF93DF
S1130580CFEFC80F2C2F48E250E060E08AE058D249
S11305902FEF81EE94E0215080409040E1F700C0BD
S11305A000002C2F48E250E064E28AE049D2CF9167
S11305B00895CF93CFEFC80F2C2F48E250E060E0AE
S11305C08AE03ED22FEF81EE94E0215080409040AB
S11305D0E1F700C000002C2F48E250E06AE08AE016
S11305E02FD2CF910895CF93CFEFC80F2C2F48E28D
S11305F050E060E08AE024D22FEF81EE94E02150B5
S113060080409040E1F700C000002C2F48E250E009
S113061061E18AE015D2CF910895CF93CFEFC80F4F
S11306202C2F48E250E060E08AE00AD22FEF81EEFE
S113063094E0215080409040E1F700C000002C2F4E
S113064048E250E064E18AE0FBD1CF9108952FEFB6
S1130650280F48E250E060E08AE0F2D12FEF81EE0B
S113066094E0215080409040E1F700C000000895DC
S1130670CF93DF93E2E0F1E02081BC016150710986
S113068041E050E002C0440F551F6A95E2F7C42FC1
S1130690C095922F9C239083E8E0F1E090819C2305
S11306A0908392B19C2392B9E5E0F1E090819C2380
S11306B090839BB19C239BB998B19C2398B9E1E0AA
S11306C0F1E09081942B9083E7E0F1E09081942B0A
S11306D0908391B1942B91B9E4E0F1E09081942B53
S11306E090839AB1942B9AB997B1942B97B998B1F6
S11306F0492B48B9EFE9FFE03197F1F700C000005A
S1130700DFEFD80F2D2F48E250E060E080E098D171
S11307102D2F48E250E06FEF8AE092D188B1C823D0
S1130720C8B9DF91CF9108950F931F93CF939C0184
S113073088B1A9014150510901E010E002C0000F45
S1130740111F4A95E2F7802B88B98FE99FE0019742
S1130750F1F700C000002A303105C8F4F9018827F8
S1130760EE58FF4F8F4F0C9428196FEC13C065E2BD
S113077011C065E80FC069EC0DC061E90BC061E10F
S113078009C067EC07C061E005C061E803C06FEF12
S113079001C063E0CFEFC20F2C2F48E250E08AE0A3
S11307A04FD18FE99FE00197F1F700C000002C2F93
S11307B048E250E060E080E043D18FE99FE0019798
S11307C0F1F700C0000088B10095082308B9CF9163
S11307D01F910F910895CF93DF9328B1AC0141503D
S11307E05109C1E0D0E002C0CC0FDD1F4A95E2F709
S11307F09C2F922B98B9EFE9FFE03197F1F700C0F5
S113080000004FEF480F68E270E08AE03BD1813886
S113081081F158F4833099F118F4813039F12CC006
S11308208131F1F0853281F027C0873CE1F028F472
S1130830853869F0813989F01FC0893C59F08F3CB3
S1130840D9F421E030E01DC022E030E01AC023E0FA
S113085030E017C024E030E014C025E030E011C0DF
S113086026E030E00EC027E030E00BC028E030E0A6
S113087008C029E030E005C02FEF3FEF02C020E0C0
S113088030E08FE99FE00197F1F700C0000098B1D4
S1130890C095C923C8B9C901DF91CF910895E2E099
S11308A0F1E02081AC014150510981E090E002C0A7
S11308B0880F991F4A95E2F7282B20832FEF39E6FA
S11308C048E1215030404040E1F700C00000A895C5
S11308D02081982F909529232083E8E0F1E020815E
S11308E0282B20832FEF39E648E121503040404047
S11308F0E1F700C00000A89522B1282B22B920817D
S1130900292320832FEF39E648E12150304040402D
S1130910E1F700C00000A895E5E0F1E02081282B74
S1130920208322B1292322B92FEF39E648E121504F
S113093030404040E1F700C00000A8952BB1282BBF
S11309402BB92081292320832FEF39E648E1215058
S113095030404040E1F700C00000A89528B1822B48
S113096088B98BB189238BB98FEF29E638E181509F
S113097020403040E1F700C00000A89588B19823DA
S113098098B90895CF93DF93EC01CEDECE0123DF37
S1130990C817D90711F4CE0182DFDF91CF910895F2
S11309A0FF920F931F93CF93DF93D82FC62F8A0103
S11309B0F22E0E94B6178111FCCF23E041E06F2D87
S11309C0C8010E9448178CE00E94A31880E00E948E
S11309D0A3188D2F0E94A31880E10E94A31880E021
S11309E00E94A3188C2F0E94A318DF91CF911F910E
S11309F00F91FF900895EF92FF920F931F93CF935F
S1130A00DF93C82FD92F7B01042F122F0E94B61712
S1130A108111FCCF23E041E0602FC7010E944817F9
S1130A20812F0E94A3188D2F0E94A3188C2F0E943F
S1130A30A318DF91CF911F910F91FF90EF9008952C
S1130A40FF920F931F93CF93DF93D82FC62F8A0162
S1130A50F22E0E94B6178111FCCF23E041E06F2DE6
S1130A60C8010E94481780E40E94A3188D2F0E9499
S1130A70A3188C2F0E94A318DF91CF911F910F917F
S1130A80FF900895EF92FF920F931F93CF93DF93FC
S1130A9000D0CDB7DEB7182F7B01042F0E94B61704
S1130AA08111FCCF23E041E0602FC7010E94481769
S1130AB081E489831A831B8263E0CE0101960E943C
S1130AC0ED180E94AA178330E0F383E00E947F1799
S1130AD08091AA040F900F900F90DF91CF911F91F6
S1130AE00F91FF90EF900895CF93DF931F921F9281
S1130AF0CDB7DEB722E041E066E08BE290E00E94F1
S1130B0048175A988AE18A95F1F700C05A9A8AE1FF
S1130B108A95F1F700C019821A8262E0CE0101962B
S1130B200E94ED180E94AA178230E0F382E00E942E
S1130B307F17E8EAF4E0A081B0E0BA2FAA27818108
S1130B40A82B2CE63BE60E943F19BC018827992775
S1130B500F900F90DF91CF910895CF93DF931F9261
S1130B601F92CDB7DEB722E041E066E08BE290E071
S1130B700E9448175A988AE18A95F1F700C05A9A58
S1130B808AE18A95F1F700C019821A8262E0CE01E7
S1130B9001960E94ED180F900F90DF91CF91089568
S1130BA082E00E947F17E8EAF4E0A081B0E0BA2F67
S1130BB0AA278181A82B2CE63BE60E943F19BC01A1
S1130BC0882799270895AF92BF92DF92EF92FF9200
S1130BD00F931F93CF93DF93A398A298A098A19803
S1130BE09B9A9A9A999A989A20E030E002E011E050
S1130BF0EE24E394F12C68E071E045E051E0C1E0BB
S1130C00D1E0A7E0B1E06894AA24A2F8BB24B3948D
S1130C10F801D080C701022E02C0880F991F0A94E0
S1130C20E2F7982F9095D922D082FB01D0809D21A4
S1130C30908392B1982B92B9FA019081982B90836A
S1130C409881982B98839C91982B9C9391B1982B85
S1130C5091B9F5019081892B80832F5F3F4F273015
S1130C603105B1F6749A719A6C9A699A72986A9A73
S1130C702E98269A2798DF91CF911F910F91FF907C
S1130C80EF90DF90BF90AF90089586E08093FE04CC
S1130C9039C08091F7038A3090F01092F703809165
S1130CA006058F5F8A3019F08093060508C01092FC
S1130CB006058091FE0481508093FE04A8958091DE
S1130CC0FE04863009F4A39A8091FE04853011F461
S1130CD0A398A29A8091FE04843011F4A39AA29A54
S1130CE08091FE04833019F4A398A298A09A80916D
S1130CF0FE04823011F4A098A19A8091FE04813000
S1130D0009F4A1988091FE048111C3CF0895CF9373
S1130D10DF93CDB7DEB728970FB6F894DEBF0FBECA
S1130D20CDBF65E070E08FE490E00E94011A62E3B9
S1130D3070E08DE490E00E94011A62E370E087E4C1
S1130D4090E00E94011A60EE7EE28DE390E00E9442
S1130D50011A68EB7BE08FE390E00E94011A49E1FD
S1130D6050E060E070E089E490E00E94FC1949E101
S1130D7050E060E070E083E490E00E94FC196AE0D7
S1130D8070E08BE390E00E94011A64E670E089E36E
S1130D9090E00E94011A60E088E390E00E94EE195E
S1130DA088E0E5E0F2E0DE01119601900D928A956B
S1130DB0E1F748E050E0BE016F5F7F4F80E390E0D1
S1130DC00E94E51928960FB6F894DEBF0FBECDBF7A
S1130DD0DF91CF9108950F931F93CF93DF9389E40D
S1130DE090E00E94DB196093F8037093F9038093F9
S1130DF0FA039093FB0383E490E00E94DB19609371
S1130E00E8047093E9048093EA049093EB048BE381
S1130E1090E00E94E0199093F6038093F50389E330
S1130E2090E00E94E0199093FD038093FC0388E313
S1130E3090E00E94D3198093090548E050E060E3F4
S1130E4070E08BE095E00E94C3190BE015E0C1E06F
S1130E50D0E0F80181918F01813419F08C3421F0B4
S1130E6005C0CE0110DA02C0CE0196DA2196C9304F
S1130E70D10579F78DE490E00E94E01990939604EF
S1130E808093950487E490E00E94E0199093810494
S1130E90809380048DE390E00E94E019909305050F
S1130EA0809304058FE390E00E94E01990939304EB
S1130EB080939204DF91CF911F910F910895EF9247
S1130EC0FF920F931F93CF93DF937C01062F172F6D
S1130ED0C1E0D0E0F70181917F01F80191918F0188
S1130EE08917B1F0823479F018F4813431F010C0EC
S1130EF08C3431F0843551F00BC0CE01F8D908C0E0
S1130F00CE0194DA05C0CE01EDDA02C0CE01B0DB29
S1130F102196C930D105F1F6DF91CF911F910F9140
S1130F20FF90EF9008950AD11092080110920201E7
S1130F30A1980895CF93DF93CDB7DEB728970FB666
S1130F40F894DEBF0FBECDBF9EE088E10FB6F894E3
S1130F50A895809360000FBE90936000A895ACD0D4
S1130F60C9D0F8D0E0DF2FDE8FE490E00E94E019D2
S1130F70059731F0A39AA29AA09AA19AC8DEA895DF
S1130F807894D6D228DF1092FD048DE790E00E9479
S1130F90341788E0E5E0F2E0DE01119601900D924D
S1130FA08A95E1F7BE016F5F7F4F8BE095E087DFA5
S1130FB06CDE28960FB6F894DEBF0FBECDBFDF916E
S1130FC0CF910895B7DF0E947416A8950E949415D6
S1130FD08091F7038A3040F01092F7038091060560
S1130FE08F5F80930605F1CF809106058A30D8F093
S1130FF0109206058091FE038F5F8093FE0380911B
S11310000705882329F0815080930705A09A01C021
S1131010A0988091FD04882319F0A39AA29AD5CFB1
S1131020A39AA298D2CF8091FE038A3070F21092D4
S1131030FE03CBCF83D081E0809303051092080593
S1131040A7D0A19A8091F8039091F903A091FA0393
S1131050B091FB03892B8A2B8B2B21F080910905FE
S113106080930201809109058093080161C008956D
S1131070A19A809109058093080108955FD081E0C9
S1131080809308051092030545D1A19A109202019C
S1131090109208014DC0089546DF809109058093A0
S11310A008012FEF89EF90E0215080409040E1F754
S11310B000C0000038CF089583E08093B0008CE036
S11310C08093B10089EF8093B30082E08093700035
S11310D008951F920F920FB60F9211248F9380914F
S11310E0F7038F5F8093F7038F910F900FBE0F90DC
S11310F01F90189588E18093810082E88093800096
S11311008FE396E0909387008093860080E190E0DF
S113111090938900809388008FEF9FEF90938B00CA
S113112080938A0090938D0080938C00259A089573
S1131130E1E8F0E08081816080830895E1E8F0E0F7
S113114080818E7F80838FEF9FEF909385008093C3
S1131150840008958FE18093210180E69AEE9093B4
S113116027018093260182E0809320018FE0809301
S1131170730081E090E0909329018093280190937B
S11311802B0180932A0190932D0180932C010895C3
S11311908FE59AEE909325018093240180E69AEEE0
S11311A090932701809326018091F8039091F9038D
S11311B0A091FA03B091FB03803727E19207A105C0
S11311C0B10550F59C01220F331F880F991F880F1A
S11311D0991F880F991F820F931F90932901809361
S11311E028012091F8033091F903C901880F991F50
S11311F0220F331F220F331F220F331F820F931F1F
S1131200909317058093160510921505C297909335
S11312102D0180932C0125C08FEF9FEF909329011E
S1131220809328016091F8037091F9038091FA0387
S11312309091FB0320E737E140E050E00E9406195B
S1131240AB01440F551F660F771F660F771F660F9C
S1131250771F640F751F709317056093160520930D
S113126015058091E8049091E904A091EA04B091F5
S1131270EB04803727E19207A105B10528F59C010D
S1131280220F331F880F991F880F991F880F991FEA
S1131290820F931F90932B0180932A018091E8047D
S11312A09091E9049C01220F331F880F991F880F26
S11312B0991F880F991F820F931F90931A0580938B
S11312C019051092180508958FEF9FEF90932B0145
S11312D080932A016091E8047091E9048091EA0402
S11312E09091EB0420E737E140E050E00E940619BA
S11312F0AB01440F551F660F771F660F771F660FEC
S1131300771F640F751F70931A0560931905209356
S1131310180508958091F5039091F603880F991F9D
S1131320019790932701809326018091F503909172
S1131330F60381509048880F991F9093250180935C
S113134024018091F5039091F6030197909329016C
S1131350809328018FEF9FEF90932B0180932A01B4
S113136090932D0180932C018091FC039091FD03B7
S1131370909314058093130508951F920F920FB64E
S11313800F9211240BB60F922F933F934F935F93B9
S11313906F937F938F939F93AF93BF93EF93FF9339
S11313A0809108058823C1F080910905809302018A
S11313B0809109058093080180911305909114058B
S11313C09C01215031093093140520931305892B76
S11313D029F5B4DE2FDE22C0809103058823F1F0C5
S11313E080911505815080931505811108C0809165
S11313F016059091170590932901809328018091F7
S11314001805815080931805811108C08091190531
S113141090911A0590932B0180932A01FF91EF91EB
S1131420BF91AF919F918F917F916F915F914F91F8
S11314303F912F910F900BBE0F900FBE0F901F90F6
S113144018951F920F920FB60F9211241092020159
S11314500F900FBE0F901F9018951F920F920FB60A
S11314600F9211240BB60F922F933F934F935F93D8
S11314706F937F938F939F93AF93BF93EF93FF9358
S11314808FB780688FBF5ADE8BDB6093DF03709366
S1131490E0038093E1039093E20326DB7093E4037B
S11314A06093E303109208018FEF9FEF90932B0159
S11314B080932A01A198FF91EF91BF91AF919F91E1
S11314C08F917F916F915F914F913F912F910F90E9
S11314D00BBE0F900FBE0F901F9018951F920F9286
S11314E00FB60F9211240BB60F922F933F934F9385
S11314F05F936F937F938F939F93AF93BF93EF9378
S1131500FF938FB780688FBF28DBFF91EF91BF9166
S1131510AF919F918F917F916F915F914F913F9187
S11315202F910F900BBE0F900FBE0F901F90189528
S11315300E94701610921D050895FF920F931F9339
S1131540CF93DF9300D000D0CDB7DEB78A01DA01A4
S11315501D921C92FC0120812D3221F40196FF245E
S1131560F39401C0F12CFC013196DC019C9180EDD7
S1131570890F89838A3008F046C080E08F5F282F66
S113158030E0519190ED950FA1E0B0E0AC0FBD1F9C
S1131590A20FB31F9C939A3088F35A3081F56817D1
S11315A080F1882309F1982F60E070E0F901E91BCC
S11315B0F10941E050E04C0F5D1FE40FF51F40813D
S11315C0FB01EE0FFF1F660F771F660F771F660F75
S11315D0771F6E0F7F1F640F711D915039F7D8016B
S11315E06D937C9301C080E0FF2081F0F80120819D
S11315F031813195219531093183208307C080E001
S113160005C080E003C09A3071F380E026960FB6DF
S1131610F894DEBF0FBECDBFDF91CF911F910F9124
S1131620FF9008958F929F92AF92BF92CF92DF92D4
S1131630EF92FF920F931F93CF93DF93CDB7DEB753
S11316402B970FB6F894DEBF0FBECDBF8A01DA0127
S11316501D921D921D921C921397FC0120812D3224
S113166019F4019641E001C040E0FC013196DC012F
S11316709C9180ED890F89838A3008F05DC080E0F9
S11316808F5F282F30E0519190ED950FA1E0B0E0ED
S1131690AC0FBD1FA20FB31F9C939A3088F35A302E
S11316A009F046C0681708F445C0882371F1982FE3
S11316B0C12CD12C7601F901E91BF10961E070E03C
S11316C06C0F7D1FE60FF71F5081CC0CDD1CEE1C48
S11316D0FF1C46015701880C991CAA1CBB1C880CD2
S11316E0991CAA1CBB1CC80CD91CEA1CFB1CC50EEB
S11316F0D11CE11CF11C9150F1F6D801CD92DD9280
S1131700ED92FC92139701C080E04423C1F0F801EC
S113171040815181628173817095609550954195A6
S11317205F4F6F4F7F4F408351836283738307C042
S113173080E005C080E003C09A3031F380E02B964E
S11317400FB6F894DEBF0FBECDBFDF91CF911F91CE
S11317500F91FF90EF90DF90CF90BF90AF909F904C
S11317608F900895FC0120E030E080E0A1E0B0E03B
S11317709191903351F0913389F4AD01022E02C05E
S1131780440F551F0A94E2F7840F2F5F3F4F283010
S1131790310571F7FB01808381E0089580E00895AD
S11317A00C941F170895CF92DF92EF92FF920F933C
S11317B01F93CF93DF93CDB7DEB72C970FB6F89472
S11317C0DEBF0FBECDBFE62E992344F42DE230E0F8
S11317D038872F8391958195910901C01F824AE032
S11317E0BE016F5F7F4F0E946119BE016F5F7F4F23
S11317F0CE0107960E944F19BE01695F7F4FCE014B
S113180001960E945A19E1100FC020C0D886CF82D9
S1131810B801CE0107960E944F19BE01695F7F4F40
S1131820C8010E945A1908C08E010F5F1F4FF12C86
S11318306894CC24C5F8D12CF80101900020E9F774
S11318403197E01BF10BEE15FF0500F3CE01019675
S11318500E940E172C960FB6F894DEBF0FBECDBFB4
S1131860DF91CF911F910F91FF90EF90DF90CF9078
S11318700895CF92DF92EF92FF920F931F93CF932D
S1131880DF93CDB7DEB766970FB6F894DEBF0FBE11
S1131890CDBFE42E992364F42DE230E03D872C87FC
S11318A090958095709561957F4F8F4F9F4F01C0A4
S11318B01C862AE0AE014F5F5F4F0E946B19BE0188
S11318C06F5F7F4FCE010C960E944F19BE01645F7B
S11318D07F4FCE0101960E945A19E1100FC020C01B
S11318E0DD86CC86B801CE010C960E944F19BE014C
S11318F0645F7F4FC8010E945A1908C08E010F5FB0
S11319001F4FF12C6894CC24C5F8D12CF801019018
S11319100020E9F73197E01BF10BEE15FF0500F30A
S1131920CE0101960E940E1766960FB6F894DEBF9C
S11319300FBECDBFDF91CF911F910F91FF90EF901C
S1131940DF90CF9008955F926F927F928F929F92D3
S1131950AF92BF92CF92DF92EF92FF920F931F93B9
S1131960CF93DF93CDB7DEB764970FB6F894DEBF9D
S11319700FBECDBF4C01762EC42E442389F0842F94
S113198001E010E09801220F331F000F111F000F18
S1131990111F000F111F020F131F815099F702C06E
S11319A001E010E0C401992024F4882799278819BC
S11319B09909582E692EB8010E94F2184AE0BE0116
S11319C06F5F7F4F0E946119CE0101967C01D12C7B
S11319D00F2EF0E3AF2EB12CF02D0DC0BC86AB86DC
S11319E0B701CE010B960E944F19BE01655F7F4F70
S11319F0C7010E945A19F70101900020E9F73197B5
S1131A00EE19FF09EC15FD0548F37E019BE0E90E94
S1131A10F11C852D962DB8010E94F218CB014AE0E5
S1131A20B7010E946119F70101900020E9F731978D
S1131A308EE290E091838083BE016F5F7F4FC70188
S1131A400E944F1999202CF48DE290E09A838983A7
S1131A5001C01982BE01655F7F4FCE0101960E94CD
S1131A604F1971100FC021C0DC86CB86B801CE019E
S1131A700B960E944F19BE01655F7F4FC8010E94FB
S1131A805A1909C08E010F5F1F4FE72CF12C68947F
S1131A90CC24C5F8D12CF80101900020E9F7319746
S1131AA0E01BF10BEE15FF05F8F2CE0101960E9442
S1131AB00E1764960FB6F894DEBF0FBECDBFDF914C
S1131AC0CF911F910F91FF90EF90DF90CF90BF9037
S1131AD0AF909F908F907F906F905F900895CF9379
S1131AE0DF93CDB7DEB729970FB6F894DEBF0FBEEC
S1131AF0CDBF99E0EEE0F2E0DE01119601900D9287
S1131B009A95E1F7FE01319620E030E090E070E331
S1131B1061E3AC01022E02C0559547950A94E2F7A1
S1131B2040FF02C0608301C070832F5F3F4F319636
S1131B302830310571F7CE0101960E940E172996BF
S1131B400FB6F894DEBF0FBECDBFDF91CF910895DD
S1131B50DF92EF92FF920F931F93CF93DF93CDB752
S1131B60DEB72F970FB6F894DEBF0FBECDBF8C0142
S1131B70FC012281818119821B821A821C821D82AE
S1131B801E821F829081923509F03DC0833509F091
S1131B90BDC7243509F0BAC783818A3089F410920D
S1131BA0FD0487E192E00E941F1798E088E10FB6D8
S1131BB0F894A895809360000FBE90936000FFCFC7
S1131BC0803209F0A3C7F8018481813309F09EC7EC
S1131BD085818A3009F09AC71092FD046FEF7FEF78
S1131BE08FE490E00E94011A8EE192E00E941F1798
S1131BF098E088E10FB6F894A895809360000FBE32
S1131C0090936000FFCFE82EF12CF22A933509F06F
S1131C10B6C5F8018381803209F022C2F0E5EF16DF
S1131C20F2E5FF0609F4BAC100F535E4E3163EE433
S1131C30F306D9F168F4EEE4EE16E4E4FE0609F4E2
S1131C4054C1F4E5EF16F4E4FF0609F47AC104C2C2
S1131C5028E4E21620E5F20609F4C3C03DE4E316E5
S1131C6030E5F30609F400C1F7C180E5E81683E521
S1131C70F80609F43EC068F4F4E4EF16F3E5FF0651
S1131C8009F473C02DE4E21623E5F20609F48BC0CF
S1131C90E3C133E5E316F30609F449C083E4E81627
S1131CA084E5F80609F4A3C1D7C1F801848181331E
S1131CB061F485818A30C1F481E08093FD04729AD5
S1131CC08CE292E00E941F1721C7803369F4F80167
S1131CD085818A3049F41092FD0425D9729882E3F3
S1131CE092E00E941F1712C788E392E00E941F1718
S1131CF00DC7F8018481813349F485818A3091F4D8
S1131D0099D983E492E00E941F1700C7803351F4ED
S1131D10F80185818A3031F406D989E492E00E9481
S1131D201F17F4C688E392E00E941F17EFC6F8015C
S1131D308481813349F485818A3091F499D98FE47F
S1131D4092E00E941F17E2C6803351F4F8018581A6
S1131D508A3031F4E8D885E592E00E941F17D6C690
S1131D6088E392E00E941F17D1C6F8018481813371
S1131D7049F485818A3091F48BE592E00E941F1723
S1131D807DD9C4C6803351F4F80185818A3031F499
S1131D90CAD881E692E00E941F17B8C688E392E091
S1131DA00E941F17B3C6F8018481813349F48581E9
S1131DB08A3091F487E692E00E941F176DD9A6C677
S1131DC0803351F4F80185818A3031F4ACD88DE642
S1131DD092E00E941F179AC688E392E00E941F17A0
S1131DE095C6AE014C5F5F4F66E0C80104961ADCED
S1131DF0811105C088E392E00E941F1787C68C8179
S1131E009D81AE81BF81AC01BD0149515109610978
S1131E107109483A544D6140710548F0892B8A2B69
S1131E208B2B29F083E792E00E941F176FC68EE781
S1131E3092E0F4D76C817D818E819F8141E019DD30
S1131E4083E892E0FCD74C815D816E817F81409371
S1131E50F8035093F9036093FA037093FB0389E446
S1131E6090E00E94FC1952C6AE014C5F5F4F66E0E1
S1131E70C8010496D7DB811104C088E392E0DFD760
S1131E8045C68C819D81AE81BF81AC01BD014951A4
S1131E90510961097109483A544D6140710540F096
S1131EA0892B8A2B8B2B21F083E792E0C8D72EC68F
S1131EB087E892E0B3D76C817D818E819F8141E078
S1131EC0D8DC83E892E0BBD74C815D816E817F8151
S1131ED04093E8045093E9046093EA047093EB049C
S1131EE083E490E00E94FC1911C6AE014E5F5F4F7F
S1131EF066E0C801049621DB811104C088E392E006
S1131F009ED704C68A819B810197883E934020F026
S1131F1083E792E094D7FAC58CE892E07FD761E03A
S1131F208A819B8140DC81E992E089D76A817B8147
S1131F307093FD036093FC0389E390E00E94011A0F
S1131F40E5C5AE014E5F5F4F66E0C8010496F5DA61
S1131F50811104C088E392E072D7D8C58A819B813D
S1131F600197883E934020F083E792E068D7CEC57E
S1131F7089E992E053D741E061E08A819B81E3DC07
S1131F8083E892E05CD76A817B817093F603609367
S1131F90F5038BE390E00E94011AB8C5F8010190A3
S1131FA00020E9F7CF010E978017910721F088E30D
S1131FB092E045D7ABC5BE016F5F7F4FC801049661
S1131FC0D1DB811104C088E392E039D79FC58EE943
S1131FD092E024D7898183DD8DE293E030D7698153
S1131FE06093090588E390E00E94EE198FC5F8011B
S1131FF001900020E9F7CF010E978017910721F097
S113200088E392E01CD782C56BE075E0CE010896A8
S11320100E945A1988E0F8013496ABE0B5E00190CB
S11320200D928A95E1F748E050E060E370E08BE0C0
S113203095E00E94E519BE01685F7F4F8BE095E053
S11320400E945F0783EA92E0E9D68BE095E0E6D64A
S11320508DE293E0F4D65AC588EA92E0F0D656C5EC
S11320600F2EF0EDDF2EF02DD80EF7E0FD1508F45D
S113207082C3F8018481883409F498C138F4813426
S113208009F498C1823409F477C271C38D3409F418
S1132090C6C0843509F44FC28C3409F068C3FDE42A
S11320A0EF16F3E4FF0609F46CC029E4E2162EE40B
S11320B0F20639F038E4E31633E4F30609F0ABC072
S11320C018C0F80185818A3021F088E392E0B7D600
S11320D01DC50D2DDD0C110BC8010E94160284EBE9
S11320E092E09CD661E0C8015EDB8CE393E0A7D666
S11320F00DC5AE014E5F5F4F64E0C80106961DDA60
S1132100811104C088E392E09AD600C58A819B813C
S11321108D3D954020F083E792E091D6F7C488EB9B
S113212092E07CD60D2DDD0C110B61E0C8013BDB88
S11321308CEB92E073D661E08A819B8134DB8FEB78
S113214092E07DD6C80101976A817B81FC01EE0F84
S1132150FF1FEE57FB4F208131812617370709F403
S1132160D5C4880F991F7F0171836083805E9F4F60
S11321700E94011AB801F701808191810E94E8014F
S1132180C5C4AE014E5F5F4F63E0C8010696D5D962
S1132190811104C088E392E052D6B8C48A819B813D
S11321A0C297893C910520F083E792E048D6AEC4FB
S11321B083EC92E033D60D2DDD0C110B61E0C801E8
S11321C0F2DA8CEB92E02AD641E061E08A819B81CD
S11321D0BADB8FEB92E033D6C80101976A817B8129
S11321E0FC01EE0FFF1FEB51FC4F208131812617BC
S11321F0370709F48BC4880F991F7F0171836083AB
S1132200805F9F4F0E94011AB801F701808191817C
S11322100E94FF017BC488EA92E011D677C4FDE4F2
S1132220EF16F3E4FF0609F446C02DE4E21626E5B2
S1132230F20609F47CC038E4E31633E4F30609F04B
S1132240B1C0AE014E5F5F4F64E0C801069675D918
S1132250811104C088E392E0F2D558C48A819B813D
S11322608938934120F083E792E0E9D54FC487ECA5
S113227092E0D4D561E08A819B8195DA8FEB92E07C
S1132280DED56A817B8180919504909196048617AE
S1132290970709F43BC470939604609395048DE406
S11322A090E00E94011A6D2D8091950490919604FE
S11322B00E94CA002BC4AE014E5F5F4F63E0C801A9
S11322C006963BD9811104C088E392E0B8D51EC4B8
S11322D08A819B81C297893C910520F083E792E033
S11322E0AED514C483ED92E099D541E061E08A81D2
S11322F09B8129DB8FEB92E0A2D56A817B8180915F
S11323008004909181048617970709F4FFC37093A2
S113231081046093800487E490E00E94011A6D2D8B
S113232080918004909181040E94EE00EFC3AE017D
S11323304E5F5F4F64E0C8010696FFD8811104C068
S113234088E392E07CD5E2C38A819B81845691091B
S11323508D36974020F083E792E071D5D7C38FED97
S113236092E05CD542E061E08A819B81ECDA8BEEFD
S113237092E065D56A817B818091E3039091E403C7
S11323808617970709F4C2C37093E4036093E303C9
S113239081E490E00E94011A6D2D8A819B810E9444
S11323A01201B4C388EA92E04AD5B0C38EEE92E03B
S11323B046D5ACC329E4E2162EE4F20669F037E50B
S11323C0E3163FE4F30609F46BC087E5E81687E4F7
S11323D0F80609F0ADC018C0F80185818A3021F0F3
S11323E088E392E02CD592C30D2DDD0C110BC801AE
S11323F00E94770184EB92E011D561E0C801D3D942
S113240081EC92E01CD582C3AE014E5F5F4F64E065
S1132410C801069692D8811104C088E392E00FD5D2
S113242075C38A819B8101978436910520F083E7E7
S113243092E005D56BC389E093E0F0D40D2DDD0C5B
S1132440110B61E0C801AFD98DE093E0E7D461E0FE
S113245082E090E0A8D980E193E0F1D4C80101972B
S1132460FC01EE0FFF1FE856FB4F408151812A818A
S11324703B814217530709F449C3880F991F7F0111
S113248022E030E03183208362E070E0805E9F4F81
S1132490B8D7B801F701808191810E945F0136C3EA
S11324A0AE014E5F5F4F64E0C801069646D88111C5
S11324B004C088E392E0C3D429C38A819B8181311B
S11324C0974220F083E792E0BAD420C38AE193E0F4
S11324D0A5D40D2DDD0C110B61E0C80164D98DE08C
S11324E093E09CD443E061E08A819B812CDA8BEEFB
S11324F092E0A5D4C80101976A817B81FC01EE0FAB
S1132500FF1FE351FB4F208131812617370709F460
S1132510FDC2880F991F7F0171836083805F9F4F85
S113252070D7B801F701808191810E946001EEC2E9
S113253088EA92E084D4F3E5EF16F4E5FF0609F0A7
S1132540E5C2F80185818A3021F088E392E077D4EE
S1132550DDC28EE193E062D40D2DDD0C110B61E040
S1132560C80121D98DE293E06AD4C8010E943803DE
S1132570C8010E94C204CAC2F2E5EF16F4E4FF06E1
S113258009F4C4C060F432E5E31632E4F30659F109
S113259082E5E81683E4F80609F487C0B7C2E2E5E9
S11325A0EE16ECE4FE0609F44FC0F9E4EF16FEE47F
S11325B0FF0609F0ABC2F80185818A3021F088E377
S11325C092E03DD4A3C20D2DDD0C110BC8010E9475
S11325D0720284EB92E022D461E0C801E4D880E383
S11325E093E02DD493C2F8018681813399F48781D5
S11325F08A3031F50D2DDD0C110BC8010E94BF028C
S11326008EE293E00BD461E0C801CDD882E393E07D
S113261016D47CC28033A1F4F80187818A3081F416
S11326200D2DDD0C110BC8010E9427038EE293E0EF
S1132630F5D361E0C801B7D886E393E000D466C25D
S113264088E392E0FCD362C2F8018681813399F475
S113265087818A3031F50D2DDD0C110BC8010E94E4
S1132660D9028AE393E0DAD361E0C8019CD882E31B
S113267093E0E5D34BC28033A1F4F80187818A301B
S113268081F40D2DDD0C110BC8010E9427038AE390
S113269093E0C4D361E0C80186D886E393E0CFD346
S11326A035C288E392E0CBD331C2F801868181330D
S11326B099F487818A3031F50D2DDD0C110BC80199
S11326C00E94F3028EE393E0A9D361E0C8016BD8C2
S11326D082E393E0B4D31AC28033A1F4F801878172
S11326E08A3081F40D2DDD0C110BC8010E942703E3
S11326F08EE393E093D361E0C80155D886E393E079
S11327009ED304C288E392E09AD300C2F801868182
S1132710813399F487818A3031F50D2DDD0C110B4D
S1132720C8010E940D0382E493E078D361E0C801FC
S11327303AD882E393E083D3E9C18033A1F4F8016A
S113274087818A3081F40D2DDD0C110BC8010E94A4
S1132750270382E493E062D361E0C80124D886E3CE
S113276093E06DD3D3C188E392E069D3CFC188EA03
S113277092E065D3CBC188EA92E061D3C7C19734B4
S113278009F0C1C1F80183818A3009F017C1F8E466
S1132790EF16F0E5FF0609F454C000F53EE4E31635
S11327A034E4F30609F46CC068F4E0E5EE16E1E401
S11327B0FE0609F4C5C0F9E4EF16F4E4FF0609F4D3
S11327C0B8C0F8C024E5E21624E4F20609F466C0B1
S11327D035E4E3163EE4F30639F1ECC083E4E8168D
S11327E084E5F80609F472C060F4FDE4EF16F0E540
S11327F0FF06C1F120E5E21622E5F20609F45CC009
S1132800D9C03DE4E31636E5F30609F47BC086E45B
S1132810E81687E5F80609F485C0E8E4EE16E6E56F
S1132820FE0609F0C7C05CC086E493E0F7D280914D
S1132830FD0461E090E00E94D30B8DE293E0FFD2AF
S113284065C18BE493E0EAD26091F8037091F903D7
S11328508091FA039091FB0341E00BD883E892E066
S1132860EED254C180E593E0D9D261E08091E804CE
S11328709091E9040E94D30B83E892E0E0D246C130
S113288085E593E0CBD261E08091FC039091FD0358
S11328900E94D30B81E992E0D2D238C18AE593E059
S11328A0BDD241E061E08091F5039091F6034BD8ED
S11328B083E892E0C4D22AC18FE593E0AFD280913D
S11328C009050DD98DE293E0BAD220C184E693E0E4
S11328D0A5D28BE095E0A2D28DE293E0B0D216C1EE
S11328E089E693E09BD26091DF037091E0038091CD
S11328F0E1039091E20341E00E94390C8EE693E0FB
S11329009ED204C182E793E089D26091E30370917F
S1132910E40380E090E041E00E94390C8EE693E00D
S11329208ED2F4C087E793E079D28BE793E087D225
S1132930EDC081E993E072D285E993E080D2E6C0EC
S11329408FEA93E06BD28091FD0461E090E00E94F5
S1132950D30B87EB93E062D261E080919504909170
S113296096040E94D30B87EB93E058D241E061E0D8
S113297080918004909181040E94A30C87EB93E0E2
S11329804DD26091F8037091F9038091FA0390910C
S1132990FB0341E00E94390C87EB93E03FD261E0F6
S11329A08091E8049091E9040E94D30B8DE293E0B6
S11329B046D2ACC088EA92E042D2A8C00F2EF0ED15
S11329C0DF2EF02DD80EF7E0FD1508F498C0F801BD
S11329D08481813409F449C08C3409F08CC0F8E452
S11329E0EF16F3E4FF0631F02DE4E21623E4F206D9
S11329F0E1F037C089EB93E011D20D2DDD0C110B02
S1132A0061E0C8010E94D30B8CEB92E007D2F8017D
S1132A10EE0FFF1FE058FB4F61E0808191810E941F
S1132A20D30B8FEB92E00BD271C08DEB93E0F6D118
S1132A300D2DDD0C110B61E0C8010E94D30B8CEB52
S1132A4092E0ECD1F801EE0FFF1FED51FC4F41E095
S1132A5061E0808191810E94A30C8FEB92E0EFD121
S1132A6055C088EA92E0EBD151C037E5E31637E46C
S1132A70F30631F087E5E8168FE4F806E1F037C095
S1132A8081EC93E0CBD10D2DDD0C110B61E0C8017D
S1132A900E94D30B8DE093E0C1D1F801EE0FFF1F2C
S1132AA0EA56FB4F61E0808191810E94D30B80E163
S1132AB093E0C5D12BC085EC93E0B0D10D2DDD0C96
S1132AC0110B61E0C8010E94D30B8DE093E0A6D105
S1132AD0F801EE0FFF1FE551FB4F43E061E08081F9
S1132AE091810E94A30C8BEE92E0A9D10FC088EAD9
S1132AF092E0A5D10BC088EA92E0A1D107C088EA90
S1132B0092E09DD103C088EA92E099D12F960FB646
S1132B10F894DEBF0FBECDBFDF91CF911F910F910F
S1132B20FF90EF90DF900895F5D080931D058823E2
S1132B3039F08FEF93E090931C0580931B0508C830
S1132B4008951F920F920FB60F9211240BB60F9295
S1132B508F939F93EF93FF938091D103882329F060
S1132B608091C6008093070535C08091D3038111FD
S1132B702DC0E091D403F0E08091C600E256FA4FF4
S1132B808083E091D403F0E0E256FA4F80818A30EA
S1132B9029F48091D2038F5F8093D2038091D40370
S1132BA08F5F8093D4038091D403803811F4109202
S1132BB0D4039091D4038091D503981303C081E08A
S1132BC08093D30385E08093070504C08091C600F9
S1132BD080930705FF91EF919F918F910F900BBE0A
S1132BE00F900FBE0F901F9018951F920F920FB663
S1132BF00F9211240BB60F928F939F93EF93FF9331
S1132C008091000281111DC08091D0038F5F809359
S1132C10D0038091D003803811F41092D0039091A6
S1132C20D0038091CF03981304C081E08093000205
S1132C3008C0E091D003F0E0E25EFA4F8081809317
S1132C40C60085E080930705FF91EF919F918F91D6
S1132C500F900BBE0F900FBE0F901F9018958F9280
S1132C609F92AF92BF92CF92DF92EF92FF92699AB6
S1132C70E1ECF0E02081286120832081206820831A
S1132C80208120642083E2ECF0E020812660208310
S1132C906C01E12CF12CA0E2B3E0A7019601F5D27E
S1132CA04B015C0124E2920E24EFA21EB11CA0E4AD
S1132CB0B6E0A7019601E9D29B01AC01C501B401BC
S1132CC0A5D2215031093093C5002093C400FF9050
S1132CD0EF90DF90CF90BF90AF909F908F9008952A
S1132CE080E492E0BCCF0895E1ECF0E080818F773E
S1132CF08083A6ECB0E02C911092D5031092D403FB
S1132D008C911092D3031092D20390819068908397
S1132D10820F0895CF93C091D203CC2309F440C00D
S1132D2080E0A1ECB0E0282F30E0E091D503F0E0A2
S1132D30E256FA4F9081F901E150FC4F90839C9147
S1132D409F779C939091D5039F5F9093D503909127
S1132D50D503903811F41092D5031092D3039C91AB
S1132D6090689C93F901E150FC4F90819A3091F462
S1132D70E1ECF0E090819F7790839091D2039150A1
S1132D809093D203908190689083F901E150FC4FB5
S1132D9011820CC091118F5F88232CF680E006C04D
S1132DA08091D303882311F09FDF8C2FCF91089556
S1132DB0382F2091CF039091D003291304C0809120
S1132DC00002882351F1E091CF03F0E0E25EFA4F74
S1132DD03083E1ECF0E080818F7B80838091CF03AE
S1132DE08F5F8093CF038091CF03803811F41092CA
S1132DF0CF0380910002882351F0E091D003F0E0EA
S1132E00E25EFA4F80818093C60010920002E1ECEA
S1132E10F0E080818064808381E00895CF93DF9324
S1132E20EC018881882341F08881C2DF8823E1F3A3
S1132E30219688818111F8CFDF91CF910895CF93A6
S1132E40DF93EC018881882341F08881B1DF8823F6
S1132E50E1F3219688818111F8CF8AE0A9DF8823E4
S1132E60E1F3DF91CF9108951092D5001092D40030
S1132E70289A2398229A219A84E58CBD8CB580687F
S1132E808CBD8CB580688CBD8CB583608CBD089579
S1132E9090930302809302026093D8034093D70374
S1132EA02093010208959091D703992319F0882360
S1132EB0A9F002C0811112C0E0910202F091030254
S1132EC0208181E090E00090D80302C0880F991F10
S1132ED00A94E2F78095822380830895E0910202A8
S1132EE0F0910302208181E090E00090D80302C0B9
S1132EF0880F991F0A94E2F7822B80830895813406
S1132F0008F080E4A8EAB4E020E015C0E091DE0314
S1132F10F0E0E25AF94F90819D932F5F9091DE0388
S1132F209F5F9093DE039091DE03903411F410922E
S1132F30DE031092DC033091DE039091DD0339133C
S1132F4004C09091DC03992319F02813DFCF08956E
S1132F50822F08958091DC03811106C08091DD03E6
S1132F609091DE03891B089580E408958091D9032C
S1132F709091DA03891B08958CB58F778CBD2EB59B
S1132F801092DE031092DD038EB51092DC039CB523
S1132F9090689CBD820F08951F920F920FB60F92F6
S1132FA011240BB60F922F933F934F935F936F931C
S1132FB07F938F939F93AF93BF93EF93FF938091EE
S1132FC0DC03811124C0E091DD03F0E08EB5E25A08
S1132FD0F94F80838091DD038F5F8093DD038091BF
S1132FE0DD03803411F41092DD039091DD038091B0
S1132FF0DE03981303C081E08093DC039091D60331
S113300080910102981304C01092DB0301C0B4DF65
S113301089EC93E00E94D00BFF91EF91BF91AF91A7
S11330209F918F917F916F915F914F913F912F91DC
S11330300F900BBE0F900FBE0F901F9018951F920C
S11330400F920FB60F9211240BB60F922F933F934A
S11330504F935F936F937F938F939F93AF93BF939C
S1133060EF93FF938091DB03882349F18091DC0384
S1133070811124C0E091DD03F0E08EB5E25AF94FEE
S113308080838091DD038F5F8093DD038091DD0376
S1133090803411F41092DD039091DD038091DE03FE
S11330A0981303C081E08093DC039091D603809150
S11330B0010298130EC01092DB0307C05DDF9091EC
S11330C0D60380910102981304C080E0ECDE1092D4
S11330D0D60380910402811123C08091DA038F5FAB
S11330E08093DA038091DA03803411F41092DA03C6
S11330F09091D9038091DA03981304C081E08093FE
S113310004020EC081E0CFDEE091DA03F0E0E25E7B
S1133110F94F80818EBD8091D6038F5F8093D60353
S1133120FF91EF91BF91AF919F918F917F916F919B
S11331305F914F913F912F910F900BBE0F900FBE57
S11331400F901F901895382F2091D9039091DA038E
S1133150291304C080910402882361F1E091D9030A
S1133160F0E0E25EF94F30838CB58F778CBD8091AF
S1133170D9038F5F8093D9038091D903803411F4EC
S11331801092D90380910402882381F081E08BDEC0
S1133190E091DA03F0E0E25EF94F80818EBD809128
S11331A0D6038F5F8093D603109204028CB5806897
S11331B08CBD81E008951F93CF93DF93EC01162F0C
S11331C0662339F08881BFDF8823E1F3219611500B
S11331D0C9F7DF91CF911F91089521E02093DB037C
S11331E0EACF0895AA1BBB1B51E107C0AA1FBB1F4E
S11331F0A617B70710F0A61BB70B881F991F5A957F
S1133200A9F780959095BC01CD010895A1E21A2EED
S1133210AA1BBB1BFD010DC0AA1FBB1FEE1FFF1F76
S1133220A217B307E407F50720F0A21BB30BE40BC6
S1133230F50B661F771F881F991F1A9469F760950D
S11332407095809590959B01AC01BD01CF010895C7
S1133250EE0FFF1F881F8BBF0790F691E02D199486
S1133260A29FB001B39FC001A39F700D811D1124C3
S1133270911DB29F700D811D1124911D0895F0DFE1
S1133280B7FF0895821B930B0895EADFA59F900D65
S1133290B49F900DA49F800D911D11240895FB01EE
S11332A0DC010D900020E9F7119701900D920020A8
S11332B0E1F70895FB01DC0101900D920020E1F794
S11332C00895BB274A3031F4992322F4BDE2909546
S11332D081959F4F30C0BB272A3051F4992342F483
S11332E0BDE290958095709561957F4F8F4F9F4F6C
S11332F001C0BB27FA01A62F62177105810591054C
S1133300330B30FB66F0AA27660F771F881F991FBF
S1133310AA1FA21710F0A21B63953850A9F7A05D4D
S1133320AA3308F0A95DA19336F7B111B1931082C5
S1133330CA0119C0BB27FB015527AA27880F991F6B
S1133340AA1FA41710F0A41B83955051B9F7A05DD0
S1133350AA3308F0A95DA193009779F7B111B1934D
S11333601192CB0100C0DC01FC01672F719177231E
S1133370E1F7329704C07C916D9370836291AE172C
S1133380BF07C8F30895DC01CB01FC01F999FECF16
S113339006C0F2BDE1BDF89A319600B40D924150D9
S11333A05040B8F70895F999FECF92BD81BDF89ABF
S11333B0992780B50895A6E1B0E044E050E0E5CF58
S11333C0A8E1B0E042E050E0E0CFDC01CB0102C074
S11333D02D9105D041505040D8F70895262FF999E2
S11333E0FECF1FBA92BD81BD20BD0FB6F894FA9AE4
S11333F0F99A0FBE01960895242FF1DF252FEFDFF0
S10F340000C0ECDF272FEBCFF894FFCFC7
S113340C01012500013030303030303030003030A4
S113341C303030303030007265626F6F740066612A
S113342C63746F72792072657365740053454E3DF5
S113343C310053454E3D3000464F524D41542045CA
S113344C5252005350533D31005350533D300053AE
S113345C53533D31005353533D30005344533D318A
S113346C005344533D3000534D533D3100534D53A1
S113347C3D30004E554D4245522045525200534862
S113348C503D00206D7300534D503D00534E443D50
S113349C002070756C736573005354443D00535095
S11334AC523D005343543D00434F4D4D414E442037
S11334BC4552520053494E00534843004C3D0020A2
S11334CC6D4100534D4300534843204D4F534645E3
S11334DC543D00534D43204D4F534645543D0053EA
S11334EC4D56204D4F534645543D002056004675CD
S11334FC6E6374696F6E206E6F74207265616C6993
S113350C7A656420796574210053574700413D0066
S113351C20572F4F2D556E69740053574F0053533A
S113352C5420536C6F742D546573743A20005352A9
S113353C4200423D3100423D300053524C00535244
S113354C43005352440047454E3D004748503D000C
S113355C474D503D00474E443D004754443D0047C1
S113356C50523D004743543D004748563D00206DA2
S113357C5600474D563D0046573D0052746854451D
S113358C435F6D435F556E69742056302E302E3573
S113359C0049443D00527468544543205454412D11
S11335AC45717569706D656E742056315F300050CD
S11335BC4152414D533D002C0047484300474D4375
S10F35CC004757470047574F006A610052
S9030000FC
