S01800004D435F5274685445435F56305F305F352E737265630B
S11300008FC00000AEC00000ACC00000AAC0000059
S1130010A8C00000A6C00000A4C00000A2C0000048
S1130020A0C000009EC000009CC000009AC0000058
S113003098C000000C94240B94C0000092C00000EF
S113004090C000008EC000008CC000008AC0000078
S113005088C0000086C0000084C0000082C0000088
S11300600C94281B0C94AA187CC000000C94FE1855
S113007078C0000076C0000074C0000072C00000A8
S113008070C000006EC000006CC000006AC00000B8
S113009068C0000066C0000064C0000062C00000C8
S11300A060C000005EC000005CC000005AC00000D8
S11300B058C0000056C0000054C000000C94DC0C72
S11300C00C94E80C0C94290D0C94780C0C94D51A0F
S11300D048C0000046C0000044C0000042C0000008
S11300E040C000002B06170619061B061D061F0636
S11300F02106230625062706D714BA15B816B816FE
S1130100B816B416B816D314B816B816B8164513DC
S11301100C14B816B816B816B816B816B81698153A
S113012011241FBECFEFD1E2DEBFCDBF00E00CBF74
S113013013E0A0E0B2E0EEE1FAE300E00BBF02C09E
S113014007900D92A83DB107D9F726E0A8EDB3E0DA
S113015001C01D92AA3CB207E1F70E949D0A0C94CB
S11301600D1D4ECF0F931F93CF93DF93D82F8B0189
S1130170C42F8091D803841307C08091D903909130
S1130180DA038617970799F00E94BF1A8111FCCFF2
S11301901093DA030093D903C093D80323E041E01A
S11301A06C2FC8010E94511A8CB584608CBD8D2FB0
S11301B00E94AC1BDF91CF911F910F9108951F9363
S11301C0CF93DF93C62F9C01AFEFBFEF0E94391C82
S11301D028E833E140E050E00E940F1CD22F132F97
S11301E04C2F62E270E080E0BDDF4C2F62E270E0F1
S11301F0812FB8DF4C2F62E270E08D2FB3DFDF91E7
S1130200CF911F9108951F93CF93DF93C62F9C0125
S1130210AFEFBFEF0E94391C2AEF30E040E050E01E
S11302200E940F1CD22F132F4C2F62E270E082E049
S113023099DF4C2F62E270E0812F94DF4C2F62E251
S113024070E08D2F8FDFDF91CF911F9108951F9361
S1130250CF93DF93C62F9C01ABEABAEA0E94391C04
S1130260DC01B695A79526EF3FEF49E050E00E94E8
S11302704E1C665B794F8944964028E833E140E0A0
S113028050E00E940F1CD22F132F4C2F65E071E019
S113029080E068DF4C2F65E071E0812F63DF4C2F35
S11302A065E071E08D2F5EDFDF91CF911F9108959E
S11302B0CF93DF930197EC01CC0FDD1FCE01805E5D
S11302C09F4F0E94E91CFE01EC53FB4F91838083F6
S11302D0CE01805F9F4F0E94E91CC75EDA4F99836D
S11302E08883DF91CF9108950895CF93CFEFC60F00
S11302F09C01AFEFBFEF0E94391C20E137E240E0E0
S113030050E00E940F1CDA01C90120E04C2F62E288
S113031070E0D3D5CF9108950F931F93CF93DF93BC
S11303208C01E2E0F1E02081EC01219781E090E092
S11303300C2E02C0880F991F0A94E2F7982F90950B
S113034029232083E8E0F1E020819223908392B175
S1130350982B92B9E5E0F1E09081982B90839BB1C2
S1130360982B9BB998B1982B98B9E1E0F1E0908172
S1130370982B9083E7E0F1E09081982B908391B1E2
S1130380982B91B9E4E0F1E09081982B90839AB195
S1130390982B9AB997B1892B87B92FEF200F42E296
S11303A050E061E080E05ED5CC0FDD1FC75EDA4F20
S11303B0B8018881998199DFDF91CF911F910F91C5
S11303C00895CF93DF930197EC01CC0FDD1FCE018D
S11303D0805E9F4F0E94E91CFE01E055FB4F918314
S11303E08083CE01805F9F4F0E94E91CC151DC4F86
S11303F099838883DF91CF9108958233910569F0C1
S11304008436910591F04997B9F42FEF260F45E012
S113041051E060E08AE0C2C508952FEF260F45E061
S113042051E061E08AE0BAC508952FEF260F45E058
S113043051E062E08AE0B2C50895CF93CFEFC60FD2
S11304409C01AFEFBFEF0E94391C20E137E240E08E
S113045050E00E940F1CDA01C90120E04C2F62E237
S113046070E02BD5CF9108950F931F93CF93DF9313
S1130470E2E0F1E020818C010150110941E050E0FB
S1130480002E02C0440F551F0A94E2F7942F909552
S113049029232083E8E0F1E020819223908392B124
S11304A0942B92B9E5E0F1E09081942B90839BB179
S11304B0942B9BB998B1942B98B9E1E0F1E0908129
S11304C0942B9083E7E0F1E09081942B908391B199
S11304D0942B91B9E4E0F1E09081942B90839AB14C
S11304E0942B9AB997B1492B47B9CFEFC80F2C2F4A
S11304F042E250E061E081E0B5D42C2F45E051E0C8
S113050068EF80E04BD52C2F45E051E064E08AE0B1
S113051045D5E801CC0FDD1FFE01E055FB4FB801C6
S1130520808191816ADFC151DC4FB8018881998152
S113053084DFDF91CF911F910F9108956FEF680FC2
S11305408BE290E0DFD49C01A0E1B7E20C94391C6B
S1130550EF92FF920F931F93CF93DF931F921F92FB
S1130560CDB7DEB7FC01228130E0322F2227818112
S1130570282B038100531A82198229348EE4380708
S113058051F027358FE4380709F476C0273537440E
S113059009F0C1C01AC085818A3029F08EE092E04A
S11305A00E948E0EBCC0002E000C110BC8015CDF33
S11305B089E192E00E948B0E61E0C8010E94910ED5
S11305C08AE592E00E948E0EAAC0AE014F5F5F4F93
S11305D064E0CF0106960E94580D811105C08EE09B
S11305E092E00E948E0E9BC089819A818436910587
S11305F051F08233910539F0499729F08DE192E069
S11306000E948E0E8CC088E292E00E948B0E002E17
S1130610000C110B61E0C8010E94910E8CE292E083
S11306200E948B0E61E089819A810E94910E8FE273
S113063092E00E948E0EC801019769817A81FC01C3
S1130640EE0FFF1FE055FB4F20813181261737073E
S113065009F465C0880F991FFC01E055FB4F7F0129
S113066071836083805E9F4F0E940A1DB801F70169
S113067080819181C2DE53C0AE014F5F5F4F64E061
S1130680CF0106960E94580D811105C08EE092E0BC
S11306900E948E0E44C089819A818131974228F04C
S11306A08DE192E00E948E0E3AC089E392E00E94AE
S11306B08B0E002E000C110B61E0C8010E94910EFC
S11306C08CE292E00E948B0E43E061E089819A8182
S11306D00E94610F8DE392E00E948E0EC801019783
S11306E069817A81FC01EE0FFF1FE151FC4F2081EB
S11306F031812617370799F0880F991F7F0171837D
S11307006083805F9F4F0E940A1DB801F7018081BA
S1130710918193DE04C080E492E00E948E0E0F90DB
S11307200F90DF91CF911F910F91FF90EF9008955B
S1130730CF93DF93FC01D381C0EDCD0F228130E054
S1130740322F22278181282B273587E4380779F037
S113075028F42635364409F461C079C0233589E488
S1130760380709F43FC027353F44F1F070C08CE4EA
S113077092E00E948B0E0C2E000CDD0B61E0CE018A
S11307800E94910E8CE292E00E948B0ECC0FDD1F32
S1130790C255DB4F61E0888199810E94910E8FE2FE
S11307A092E00E948E0E57C080E592E00E948B0E6C
S11307B00C2E000CDD0B61E0CE010E94910E8CE248
S11307C092E00E948B0ECC0FDD1FC351DC4F43E03F
S11307D061E0888199810E94610F8DE392E00E941B
S11307E08E0E39C084E592E00E948B0E61E08C2F5E
S11307F0CC0F990B0E94910E8CE292E00E948B0E1A
S11308004FEC4D0F65E071E089E0EAD390E00E947F
S11308102D1084E493E00E948E0E1DC088E592E0C2
S11308200E948B0E0C2E000CDD0B61E0CE010E94A9
S1130830910E8CE292E00E948B0ECE017FDE61E08D
S11308400E94910E8CE592E00E948E0E04C080E41A
S113085092E00E948E0EDF91CF910895CF93DF93A3
S11308600197EC01CC0FDD1FCE01805E9F4F0E94EB
S1130870E91CFE01E256FB4F91838083CE01805F29
S11308809F4F0E94E91CCF5FDB4F99838883DF91E0
S1130890CF910895CF93CFEFC60F9C01AFEFBFEF79
S11308A00E94391C2CED35E040E050E00E940F1C02
S11308B0DA01C90120E04C2F62E270E0FED2CF9150
S11308C00895CF93CFEFC60F9C01AFEFBFEF0E9407
S11308D0391C2AEF30E040E050E00E940F1CDA019E
S11308E0C90122E04C2F62E270E0E7D2CF91089573
S11308F00F931F93CF93DF938C01E2E0F1E020810B
S1130900EC01219781E090E00C2E02C0880F991F22
S11309100A94E2F7982F909529232083E8E0F1E0E8
S113092020819223908392B1982B92B9E5E0F1E073
S11309309081982B90839BB1982B9BB998B1982B5D
S113094098B9E1E0F1E09081982B9083E7E0F1E041
S11309509081982B908391B1982B91B9E4E0F1E0C8
S11309609081982B90839AB1982B9AB997B1892B3F
S113097087B92FEF200F42E250E065E080E072D2A9
S1130980CC0FDD1FFE01E256FB4FB801808191813F
S113099081DFCF5FDB4FB8018881998192DFDF91DE
S11309A0CF911F910F910895CF93E2E0F1E0208160
S11309B0BC016150710941E050E002C0440F551F71
S11309C06A95E2F7942F909529232083E8E0F1E0DB
S11309D020819223908392B1942B92B9E5E0F1E0C7
S11309E09081942B90839BB1942B9BB998B1942BB9
S11309F098B9E1E0F1E09081942B9083E7E0F1E095
S1130A009081942B908391B1942B91B9E4E0F1E01F
S1130A109081942B90839AB1942B9AB997B1492BD6
S1130A2047B9CFEFC80F2C2F48E250E060E080E0D8
S1130A30B5D22C2F48E250E060E08AE0AFD2CF91EB
S1130A400895CF93CFEFC80F2C2F48E250E060E019
S1130A508AE0A4D22FEF81EE94E0215080409040B0
S1130A60E1F700C000002C2F48E250E064E28AE085
S1130A7095D2CF910895CF93CFEFC80F2C2F48E292
S1130A8050E060E08AE08AD22FEF81EE94E02150BA
S1130A9080409040E1F700C000002C2F48E250E075
S1130AA06AE08AE07BD2CF910895CF93CFEFC80F4D
S1130AB02C2F48E250E060E08AE070D22FEF81EE04
S1130AC094E0215080409040E1F700C000002C2FBA
S1130AD048E250E061E18AE061D2CF910895CF937A
S1130AE0CFEFC80F2C2F48E250E060E08AE056D2E6
S1130AF02FEF81EE94E0215080409040E1F700C058
S1130B0000002C2F48E250E064E18AE047D2CF9104
S1130B1008952FEF280F48E250E060E08AE03ED2CB
S1130B202FEF81EE94E0215080409040E1F700C027
S1130B3000000895CF93DF93E2E0F1E02081BC014F
S1130B406150710941E050E002C0440F551F6A959D
S1130B50E2F7C42FC095922F9C239083E8E0F1E044
S1130B6090819C23908392B19C2392B9E5E0F1E0BB
S1130B7090819C2390839BB19C239BB998B19C2327
S1130B8098B9E1E0F1E09081942B9083E7E0F1E003
S1130B909081942B908391B1942B91B9E4E0F1E08E
S1130BA09081942B90839AB1942B9AB997B1942BFA
S1130BB097B998B1492B48B9EFE9FFE03197F1F7BC
S1130BC000C00000DFEFD80F2D2F48E250E060E0B6
S1130BD080E0E4D12D2F48E250E06FEF8AE0DED1CF
S1130BE088B1C823C8B9DF91CF9108950F931F939B
S1130BF0CF939C0188B1A9014150510901E010E053
S1130C0002C0000F111F4A95E2F7802B88B98FE9C3
S1130C109FE00197F1F700C000002A303105C8F4C5
S1130C20F9018827EE58FF4F8F4F0C94311C6FEC5D
S1130C3013C065E211C065E80FC069EC0DC061E93D
S1130C400BC061E109C067EC07C061E005C061E861
S1130C5003C06FEF01C063E0CFEFC20F2C2F48E257
S1130C6050E08AE09BD18FE99FE00197F1F700C043
S1130C7000002C2F48E250E060E080E08FD18FE943
S1130C809FE00197F1F700C0000088B100950823A8
S1130C9008B9CF911F910F910895CF93DF9328B195
S1130CA0AC0141505109C1E0D0E002C0CC0FDD1FBE
S1130CB04A95E2F79C2F922B98B9EFE9FFE0319720
S1130CC0F1F700C000004FEF480F68E270E08AE0DF
S1130CD087D1813881F158F4833099F118F4813047
S1130CE039F12CC08131F1F0853281F027C0873C85
S1130CF0E1F028F4853869F0813989F01FC0893C16
S1130D0059F08F3CD9F421E030E01DC022E030E0FE
S1130D101AC023E030E017C024E030E014C025E01E
S1130D2030E011C026E030E00EC027E030E00BC018
S1130D3028E030E008C029E030E005C02FEF3FEFA5
S1130D4002C020E030E08FE99FE00197F1F700C096
S1130D50000098B1C095C923C8B9C901DF91CF91EA
S1130D600895E2E0F1E02081AC014150510981E0B5
S1130D7090E002C0880F991F4A95E2F7282B208340
S1130D802FEF39E648E1215030404040E1F700C000
S1130D900000A8952081982F909529232083E8E0CE
S1130DA0F1E02081282B20832FEF39E648E1215000
S1130DB030404040E1F700C00000A89522B1282B44
S1130DC022B92081292320832FEF39E648E12150DD
S1130DD030404040E1F700C00000A895E5E0F1E0B4
S1130DE02081282B208322B1292322B92FEF39E631
S1130DF048E1215030404040E1F700C00000A89590
S1130E002BB1282B2BB92081292320832FEF39E6FE
S1130E1048E1215030404040E1F700C00000A8956F
S1130E2028B1822B88B98BB189238BB98FEF29E63E
S1130E3038E1815020403040E1F700C00000A8951F
S1130E4088B1982398B90895CF93DF93EC01CEDE4F
S1130E50CE0123DFC817D90711F4CE0182DFDF9159
S1130E60CF910895FF920F931F93CF93DF93D82FC1
S1130E70C62F8A01F22E0E94BF1A8111FCCF23E0F3
S1130E8041E06F2DC8010E94511A8CE00E94AC1BF6
S1130E9080E00E94AC1B8D2F0E94AC1B80E10E945D
S1130EA0AC1B80E00E94AC1B8C2F0E94AC1BDF911A
S1130EB0CF911F910F91FF900895EF92FF920F939E
S1130EC01F93CF93DF93C82FD92F7B01042F122FA9
S1130ED00E94BF1A8111FCCF23E041E0602FC701BB
S1130EE00E94511A812F0E94AC1B8D2F0E94AC1BB3
S1130EF08C2F0E94AC1BDF91CF911F910F91FF901B
S1130F00EF900895FF920F931F93CF93DF931F9257
S1130F101F92CDB7DEB78C01F62E0E94BF1A811145
S1130F20FCCF22E041E06F2DC8010E94511AF80164
S1130F30208181E090E002C0880F991FFA94E2F7C3
S1130F40982F909592239083FAE0FA95F1F700C0D8
S1130F50F8019081892B8083FAE1FA95F1F700C0BA
S1130F6019821A8262E0CE0101960E94F61B0E9449
S1130F70B31A8230E0F382E00E94881AE4EDF4E0D0
S1130F80808190E0982F88272181822B0F900F90E9
S1130F90DF91CF911F910F91FF900895FF920F93CE
S1130FA01F93CF93DF93D82FC62F8A01F22E0E946E
S1130FB0BF1A8111FCCF23E041E06F2DC8010E94CC
S1130FC0511A80E40E94AC1B8D2F0E94AC1B8C2F05
S1130FD00E94AC1BDF91CF911F910F91FF90089558
S1130FE0EF92FF920F931F93CF93DF9300D0CDB76F
S1130FF0DEB7182F7B01042F0E94BF1A8111FCCF8A
S113100023E041E0602FC7010E94511A81E48983E3
S11310101A831B8263E0CE0101960E94F61B0E9494
S1131020B31A8330E0F383E00E94881A8091D604D7
S11310300F900F900F90DF91CF911F910F91FF9020
S1131040EF900895CF93DF931F921F92CDB7DEB731
S113105022E041E066E08BE290E00E94511A5A9847
S11310608AE18A95F1F700C05A9A8AE18A95F1F7E4
S113107000C019821A8262E0CE0101960E94F61B1A
S11310800E94B31A8230E0F382E00E94881AE4EDF1
S1131090F4E0A081B0E0BA2FAA278181A82B2CE626
S11310A03BE60E94481CBC01882799270F900F90AB
S11310B0DF91CF910895CF93DF931F921F92CDB705
S11310C0DEB722E041E066E08BE290E00E94511A34
S11310D05A988AE18A95F1F700C05A9A8AE18A956A
S11310E0F1F700C019821A8262E0CE0101960E94D3
S11310F0F61B0F900F90DF91CF91089582E00E942C
S1131100881AE4EDF4E0A081B0E0BA2FAA27818127
S1131110A82B2CE63BE60E94481CBC018827992793
S11311200895AF92BF92DF92EF92FF920F931F93B5
S1131130CF93DF93A398A298A098A1989B9A9A9A88
S1131140999A989A20E030E002E011E0EE24E394CA
S1131150F12C68E071E045E051E0C1E0D1E0A7E0A6
S1131160B1E06894AA24A2F8BB24B394F801D08017
S1131170C701022E02C0880F991F0A94E2F7982F24
S11311809095D922D082FB01D0809D21908392B189
S1131190982B92B9FA019081982B90839881982B7F
S11311A098839C91982B9C9391B1982B91B9F501BC
S11311B09081892B80832F5F3F4F27303105B1F613
S11311C0749A719A6C9A699A72986A9A2E98269A65
S11311D02798DF91CF911F910F91FF90EF90DF90AF
S11311E0BF90AF90089586E080932A0539C080911E
S11311F013048A3090F010921304809132058F5FAB
S11312008A3019F08093320508C01092320580911B
S11312102A05815080932A05A89580912A05863055
S113122009F4A39A80912A05853011F4A398A29A0F
S113123080912A05843011F4A39AA29A80912A05F8
S1131240833019F4A398A298A09A80912A05823039
S113125011F4A098A19A80912A05813009F4A198EB
S113126080912A058111C3CF0895CF93DF93CDB721
S1131270DEB728970FB6F894DEBF0FBECDBF65E08A
S113128070E08FE490E00E940A1D62E370E08DE458
S113129090E00E940A1D62E370E087E490E00E94FF
S11312A00A1D60EE7EE28DE390E00E940A1D68EB69
S11312B07BE08FE390E00E940A1D49E150E060E08A
S11312C070E089E490E00E94051D49E150E060E08F
S11312D070E083E490E00E94051D6AE070E08BE317
S11312E090E00E940A1D64E670E089E390E00E94A9
S11312F00A1D60E088E390E00E94F71C88E0E5E0C6
S1131300F2E0DE01119601900D928A95E1F748E032
S113131050E0BE016F5F7F4F80E390E00E94EE1CBF
S113132028960FB6F894DEBF0FBECDBFDF91CF91E4
S113133008950F931F93CF93DF9389E490E00E9465
S1131340E41C609314047093150480931604909322
S1131350170483E490E00E94E41C609314057093E6
S1131360150580931605909317058BE390E00E9472
S1131370E91C909312048093110489E390E00E9485
S1131380E91C909319048093180488E390E00E9468
S1131390DC1C8093350548E050E060E370E087E3AF
S11313A095E00E94CC1C07E315E0C1E0D0E0F80111
S11313B081918F01863459F08C3431F0813451F4A9
S11313C0CE010E94580106C0CE0148DA03C0CE0106
S11313D00E94E1012196C930D10549F78DE490E0DE
S11313E00E94E91C9093C2048093C10487E490E0B6
S11313F00E94E91C90939D0480939C048DE390E0EB
S11314000E94E91C90933105809330058FE390E0AE
S11314100E94E91C9093AF048093AE04DF91CF91B6
S11314201F910F910895EF92FF920F931F93CF9303
S1131430DF937C01062F172FC1E0D0E0F7018191E3
S11314407F01F80191918F018917E9F08634C1F089
S113145028F4813441F0823469F015C08C3439F0B9
S1131460843559F010C0CE010E948C010CC0CE010D
S11314703FDA09C0CE0198DA06C0CE015BDB03C0B7
S1131480CE010E9434022196C930D105B9F6DF910C
S1131490CF911F910F91FF90EF9008950AD1109270
S11314A0080110920201A1980895CF93DF93CDB75C
S11314B0DEB728970FB6F894DEBF0FBECDBF9EE00F
S11314C088E10FB6F894A895809360000FBE9093BE
S11314D06000A895ACD0C9D0F8D0E0DF22DE8FE45C
S11314E090E00E94E91C059731F0A39AA29AA09A71
S11314F0A19ABBDEA8957894D6D21BDF1092290559
S11315008DE790E00E943D1A88E0E5E0F2E0DE011C
S1131510119601900D928A95E1F7BE016F5F7F4F9E
S113152087E395E080DF5FDE28960FB6F894DEBF90
S11315300FBECDBFDF91CF910895B7DF0E947D1913
S1131540A8950E949C18809113048A3040F0109250
S11315501304809132058F5F80933205F1CF80911F
S113156032058A30D8F01092320580911A048F5FC8
S113157080931A0480913305882329F08150809345
S11315803305A09A01C0A09880912905882319F0F9
S1131590A39AA29AD5CFA39AA298D2CF80911A04E3
S11315A08A3070F210921A04CBCF83D081E08093FA
S11315B02F0510923405A7D0A19A8091140490911C
S11315C01504A0911604B0911704892B8A2B8B2B38
S11315D021F0809135058093020180913505809337
S11315E0080161C00895A19A80913505809308018E
S11315F008955FD081E08093340510922F0545D182
S1131600A19A10920201109208014DC0089546DF7C
S113161080913505809308012FEF89EF90E02150E8
S113162080409040E1F700C0000038CF089583E087
S11316308093B0008CE08093B10089EF8093B30075
S113164082E08093700008951F920F920FB60F925C
S113165011248F93809113048F5F809313048F91CF
S11316600F900FBE0F901F90189588E18093810012
S113167082E8809380008FE396E0909387008093C4
S1131680860080E190E090938900809388008FEF3A
S11316909FEF90938B0080938A0090938D008093AA
S11316A08C00259A0895E1E8F0E0808181608083D0
S11316B00895E1E8F0E080818E7F80838FEF9FEFD3
S11316C0909385008093840008958FE18093210195
S11316D080E69AEE909327018093260182E080931E
S11316E020018FE08093730081E090E090932901C2
S11316F08093280190932B0180932A0190932D01CC
S113170080932C0108958FE59AEE909325018093A0
S1131710240180E69AEE909327018093260180911C
S1131720140490911504A0911604B0911704803705
S113173027E19207A105B10550F59C01220F331F43
S1131740880F991F880F991F880F991F820F931F65
S11317509093290180932801209114043091150459
S1131760C901880F991F220F331F220F331F220F25
S1131770331F820F931F9093430580934205109269
S11317804105C29790932D0180932C0125C08FEFC2
S11317909FEF909329018093280160911404709124
S11317A01504809116049091170420E737E140E076
S11317B050E00E940F1CAB01440F551F660F771FAA
S11317C0660F771F660F771F640F751F70934305AD
S11317D0609342052093410580911405909115056D
S11317E0A0911605B0911705803727E19207A1054E
S11317F0B10528F59C01220F331F880F991F880F0C
S1131800991F880F991F820F931F90932B01809328
S11318102A0180911405909115059C01220F331F14
S1131820880F991F880F991F880F991F820F931F84
S113183090934605809345051092440508958FEFD3
S11318409FEF90932B0180932A016091140570916E
S11318501505809116059091170520E737E140E0C2
S113186050E00E940F1CAB01440F551F660F771FF9
S1131870660F771F660F771F640F751F70934605F9
S11318806093450520934405089580911104909137
S11318901204880F991F01979093270180932601C2
S11318A0809111049091120481509048880F991FDF
S11318B09093250180932401809111049091120446
S11318C0019790932901809328018FEF9FEF9093C4
S11318D02B0180932A0190932D0180932C018091F8
S11318E01804909119049093400580933F0508953E
S11318F01F920F920FB60F9211240BB60F922F93D3
S11319003F934F935F936F937F938F939F93AF9383
S1131910BF93EF93FF93809134058823C1F08091A6
S113192035058093020180913505809308018091EB
S11319303F05909140059C012150310930934005A9
S113194020933F05892B29F5B4DE2FDE22C0809138
S11319502F058823F1F08091410581508093410542
S1131960811108C08091420590914305909329010B
S1131970809328018091440581508093440581110E
S113198008C0809145059091460590932B01809362
S11319902A01FF91EF91BF91AF919F918F917F9118
S11319A06F915F914F913F912F910F900BBE0F90CC
S11319B00FBE0F901F9018951F920F920FB60F92A3
S11319C01124109202010F900FBE0F901F901895D2
S11319D01F920F920FB60F9211240BB60F922F93F2
S11319E03F934F935F936F937F938F939F93AF93A3
S11319F0BF93EF93FF938FB780688FBF5ADE7EDB70
S1131A006093EB037093EC038093ED039093EE03E8
S1131A1019DB709300046093FF03109208018FEFA9
S1131A209FEF90932B0180932A01A198FF91EF914E
S1131A30BF91AF919F918F917F916F915F914F91E2
S1131A403F912F910F900BBE0F900FBE0F901F90E0
S1131A5018951F920F920FB60F9211240BB60F9286
S1131A602F933F934F935F936F937F938F939F93A2
S1131A70AF93BF93EF93FF938FB780688FBF1BDB48
S1131A80FF91EF91BF91AF919F918F917F916F9152
S1131A905F914F913F912F910F900BBE0F900FBE0E
S1131AA00F901F9018950E94791910924905089576
S1131AB0FF920F931F93CF93DF9300D000D0CDB745
S1131AC0DEB78A01DA011D921C92FC0120812D32BD
S1131AD021F40196FF24F39401C0F12CFC0131960A
S1131AE0DC019C9180ED890F89838A3008F046C01F
S1131AF080E08F5F282F30E0519190ED950FA1E0A9
S1131B00B0E0AC0FBD1FA20FB31F9C939A3088F3B3
S1131B105A3081F5681780F1882309F1982F60E025
S1131B2070E0F901E91BF10941E050E04C0F5D1F41
S1131B30E40FF51F4081FB01EE0FFF1F660F771FB7
S1131B40660F771F660F771F6E0F7F1F640F711D5F
S1131B50915039F7D8016D937C9301C080E0FF2048
S1131B6081F0F8012081318131952195310931834A
S1131B70208307C080E005C080E003C09A3071F381
S1131B8080E026960FB6F894DEBF0FBECDBFDF917E
S1131B90CF911F910F91FF9008958F929F92AF92D2
S1131BA0BF92CF92DF92EF92FF920F931F93CF9346
S1131BB0DF93CDB7DEB72B970FB6F894DEBF0FBE19
S1131BC0CDBF8A01DA011D921D921D921C921397BA
S1131BD0FC0120812D3219F4019641E001C040E05E
S1131BE0FC013196DC019C9180ED890F89838A3058
S1131BF008F05DC080E08F5F282F30E0519190EDB8
S1131C00950FA1E0B0E0AC0FBD1FA20FB31F9C93D2
S1131C109A3088F35A3009F046C0681708F445C072
S1131C20882371F1982FC12CD12C7601F901E91B7D
S1131C30F10961E070E06C0F7D1FE60FF71F508122
S1131C40CC0CDD1CEE1CFF1C46015701880C991CB2
S1131C50AA1CBB1C880C991CAA1CBB1CC80CD91C34
S1131C60EA1CFB1CC50ED11CE11CF11C9150F1F6C1
S1131C70D801CD92DD92ED92FC92139701C080E0E1
S1131C804423C1F0F80140815181628173817095D0
S1131C906095509541955F4F6F4F7F4F40835183BF
S1131CA06283738307C080E005C080E003C09A307C
S1131CB031F380E02B960FB6F894DEBF0FBECDBF94
S1131CC0DF91CF911F910F91FF90EF90DF90CF9014
S1131CD0BF90AF909F908F900895FC0120E030E07A
S1131CE080E0A1E0B0E09191903351F0913389F418
S1131CF0AD01022E02C0440F551F0A94E2F7840F6F
S1131D002F5F3F4F2830310571F7FB01808381E05D
S1131D10089580E008950C94171A08950C94281AD5
S1131D200895CF92DF92EF92FF920F931F93CF9378
S1131D30DF93CDB7DEB72C970FB6F894DEBF0FBE96
S1131D40CDBFE62E992344F42DE230E038872F836B
S1131D5091958195910901C01F824AE0BE016F5F90
S1131D607F4F0E946A1CBE016F5F7F4FCE010796B2
S1131D700E94581CBE01695F7F4FCE0101960E94EC
S1131D80631CE1100FC020C0D886CF82B801CE01F9
S1131D9007960E94581CBE01695F7F4FC8010E94CC
S1131DA0631C08C08E010F5F1F4FF12C6894CC2474
S1131DB0C5F8D12CF80101900020E9F73197E01B18
S1131DC0F10BEE15FF0500F3CE0101960E94171AE0
S1131DD02C960FB6F894DEBF0FBECDBFDF91CF9126
S1131DE01F910F91FF90EF90DF90CF900895CF92C5
S1131DF0DF92EF92FF920F931F93CF93DF93CDB7B0
S1131E00DEB766970FB6F894DEBF0FBECDBFE42EE3
S1131E10992364F42DE230E03D872C8790958095DA
S1131E20709561957F4F8F4F9F4F01C01C862AE0AC
S1131E30AE014F5F5F4F0E94741CBE016F5F7F4F06
S1131E40CE010C960E94581CBE01645F7F4FCE01E8
S1131E5001960E94631CE1100FC020C0DD86CC8671
S1131E60B801CE010C960E94581CBE01645F7F4FDE
S1131E70C8010E94631C08C08E010F5F1F4FF12C24
S1131E806894CC24C5F8D12CF80101900020E9F71E
S1131E903197E01BF10BEE15FF0500F3CE0101961F
S1131EA00E94171A66960FB6F894DEBF0FBECDBF18
S1131EB0DF91CF911F910F91FF90EF90DF90CF9022
S1131EC008955F926F927F928F929F92AF92BF928A
S1131ED0CF92DF92EF92FF920F931F93CF93DF93F2
S1131EE0CDB7DEB764970FB6F894DEBF0FBECDBF93
S1131EF04C01762EC42E442389F0842F01E010E097
S1131F009801220F331F000F111F000F111F000F24
S1131F10111F020F131F815099F702C001E010E056
S1131F20C401992024F48827992788199909582EDF
S1131F30692EB8010E94FB1B4AE0BE016F5F7F4F10
S1131F400E946A1CCE0101967C01D12C0F2EF0E375
S1131F50AF2EB12CF02D0DC0BC86AB86B701CE01DF
S1131F600B960E94581CBE01655F7F4FC7010E94FB
S1131F70631CF70101900020E9F73197EE19FF097E
S1131F80EC15FD0548F37E019BE0E90EF11C852D5F
S1131F90962DB8010E94FB1BCB014AE0B7010E94B9
S1131FA06A1CF70101900020E9F731978EE290E076
S1131FB091838083BE016F5F7F4FC7010E94581CCD
S1131FC099202CF48DE290E09A83898301C01982D0
S1131FD0BE01655F7F4FCE0101960E94581C7110AF
S1131FE00FC021C0DC86CB86B801CE010B960E94BF
S1131FF0581CBE01655F7F4FC8010E94631C09C065
S11320008E010F5F1F4FE72CF12C6894CC24C5F888
S1132010D12CF80101900020E9F73197E01BF10B76
S1132020EE15FF05F8F2CE0101960E94171A649688
S11320300FB6F894DEBF0FBECDBFDF91CF911F91D5
S11320400F91FF90EF90DF90CF90BF90AF909F9053
S11320508F907F906F905F900895CF93DF93CDB76B
S1132060DEB729970FB6F894DEBF0FBECDBF99E057
S1132070E0E6F2E0DE01119601900D929A95E1F707
S1132080FE01319627E030E090E070E361E3AC01BB
S1132090022E02C0559547950A94E2F740FF02C00C
S11320A0608301C070832150310931962F3F4FEF77
S11320B0340769F7CE0101960E94171A29960FB6C4
S11320C0F894DEBF0FBECDBFDF91CF910895CF93BB
S11320D0DF93CDB7DEB729970FB6F894DEBF0FBEF6
S11320E0CDBF99E0E0E6F2E0DE01119601900D9299
S11320F09A95E1F7FE01319620E030E090E070E33C
S113210061E3AC01022E02C0559547950A94E2F7AB
S113211040FF02C0608301C070832F5F3F4F319640
S11321202830310571F7CE0101960E94171A2996BD
S11321300FB6F894DEBF0FBECDBFDF91CF910895E7
S1132140DF92EF92FF920F931F93CF93DF93CDB75C
S1132150DEB72F970FB6F894DEBF0FBECDBF8C014C
S1132160DC0112962C91129711968C911197198279
S11321701B821A821C821D821E821F829C919235B0
S113218009F03EC0833509F0C9C7243509F0C6C734
S113219013968C918A3089F41092290589E692E08D
S11321A00E94281A98E088E10FB6F894A8958093C5
S11321B060000FBE90936000FFCF803209F0AEC77D
S11321C0F8018481813309F0A9C785818A3009F037
S11321D0A5C7109229056FEF7FEF8FE490E00E946E
S11321E00A1D80E792E00E94281A98E088E10FB661
S11321F0F894A895809360000FBE90936000FFCF81
S1132200E82EF12CF22A933509F0BAC5D8011396B9
S11322108C91803209F01EC2B0E5EB16B2E5FB06E4
S113222009F4B6C100F5F5E4EF16FEE4FF06D1F1BA
S113223068F43EE4E31634E4F30609F450C184E59B
S1132240E81684E4F80609F476C100C2A8E4EA16A4
S1132250A0E5FA0609F4BDC0BDE4EB16B0E5FB0643
S113226009F4FCC0F3C1E0E5EE16E3E5FE06E9F18E
S113227068F424E4E21623E5F20609F470C03DE4B0
S1132280E31633E5F30609F487C0E0C183E5E816F5
S1132290F80609F447C0A3E4EA16A4E5FA0609F42B
S11322A0A0C1D4C1F8018481813361F485818A306D
S11322B0B9F481E080932905729A8EE792E00E9436
S11322C0281A2CC7803361F485818A3049F410922E
S11322D02905E4D8729884E892E00E94281A1EC75F
S11322E08EE092E00E94281A19C7F8018481813394
S11322F049F485818A3089F458D98AE892E00E94A9
S1132300281A0CC7803349F485818A3031F4C6D841
S113231080E992E00E94281A01C78EE092E00E94B0
S1132320281AFCC6F8018481813349F485818A30F6
S113233089F459D986E992E00E94281AEFC68033BD
S113234049F485818A3031F4A9D88CE992E00E945D
S1132350281AE4C68EE092E00E94281ADFC6F8012B
S11323608481813349F485818A3089F482EA92E058
S11323700E94281A3ED9D2C6803349F485818A3016
S113238031F48CD888EA92E00E94281AC7C68EE0FD
S113239092E00E94281AC2C6F8018481813349F46C
S11323A085818A3089F48EEA92E00E94281A2FD916
S11323B0B5C6803349F485818A3031F46FD884EB13
S11323C092E00E94281AAAC68EE092E00E94281A7F
S11323D0A5C6AE014C5F5F4F66E0C8010496DDDB25
S11323E0811105C08EE092E00E94281A97C68C8164
S11323F09D81AE81BF81AC01BD0149515109610983
S11324007109483A544D6140710548F0892B8A2B73
S11324108B2B29F08DE192E00E94281A7FC68AEB6B
S113242092E00E94171A6C817D818E819F8141E028
S1132430DEDC8FEB92E00E94281A4C815D816E8174
S11324407F81409314045093150460931604709391
S1132450170489E490E00E94051D60C6AE014C5F3C
S11324605F4F66E0C801049698DB811104C08EE0DA
S113247092E0EED753C68C819D81AE81BF81AC01C1
S1132480BD014951510961097109483A544D6140EE
S1132490710540F0892B8A2B8B2B21F08DE192E082
S11324A0D7D73CC683EC92E0C2D76C817D818E8104
S11324B09F8141E09CDC8FEB92E0CAD74C815D8127
S11324C06E817F8140931405509315056093160522
S11324D07093170583E490E00E94051D1FC6AE01AA
S11324E04E5F5F4F66E0C8010496E2DA811104C0D2
S11324F08EE092E0ADD712C68A819B810197883E17
S1132500934020F08DE192E0A3D708C688EC92E0D6
S11325108ED761E08A819B8104DC8DEC92E098D7B0
S11325206A817B81709319046093180489E390E0B5
S11325300E940A1DF3C5AE014E5F5F4F66E0C801FD
S11325400496B6DA811104C08EE092E081D7E6C524
S11325508A819B810197883E934020F08DE192E02F
S113256077D7DCC585ED92E062D741E061E08A81EE
S11325709B81A7DC8FEB92E06BD76A817B817093A0
S11325801204609311048BE390E00E940A1DC6C5F7
S1132590F80101900020E9F7CF010E978017910709
S11325A021F08EE092E054D7B9C5BE016F5F7F4F32
S11325B0C801049692DB811104C08EE092E048D7F2
S11325C0ADC58AED92E033D7898181DD84E493E05F
S11325D03FD769816093350588E390E00E94F71C3A
S11325E09DC5F80101900020E9F7CF010E978017EF
S11325F0910721F08EE092E02BD790C567E375E058
S1132600CE0108960E94631C88E0F8013496A7E383
S1132610B5E001900D928A95E1F748E050E060E35F
S113262070E087E395E00E94EE1CBE01685F7F4F77
S113263087E395E00E94130A8FED92E0F8D687E3D2
S113264095E0F5D684E493E003D768C580E492E08E
S1132650FFD664C50F2EF0EDDF2EF02DD80E87E0E7
S11326608D1508F489C3D8011496EC918E2F90E04F
S1132670FC01E154F109E431F10508F079C388273C
S1132680E458FF4F8F4F0C94311CBDE4EB16B3E4B8
S1132690FB0609F470C0E9E4EE16EEE4FE0639F038
S11326A0F8E4EF16F3E4FF0609F0B2C019C0D8014C
S11326B015968C918A3021F08EE092E0C9D62EC511
S11326C00D2DDD0C110BC8010E94780489E192E004
S11326D0AED661E0C80125DB83E593E0B9D61EC51B
S11326E0AE014E5F5F4F64E0C8010696E1D98111E7
S11326F004C08EE092E0ACD611C58A819B818D3DE9
S1132700954020F08DE192E0A3D608C584EE92E0D6
S11327108ED60D2DDD0C110B61E0C80102DB88EEB5
S113272092E085D661E08A819B81FBDA8BEE92E0B0
S11327308FD6C80101976A817B81FC01EE0FFF1FD0
S1132740E256FB4F208131812617370709F4E6C48E
S1132750880F991FFC01E256FB4F7F017183608350
S1132760805E9F4F0E940A1DB801D7018D919C91F4
S11327700E944A04D3C4AE014E5F5F4F63E0C801B8
S1132780069696D9811104C08EE092E061D6C6C443
S11327908A819B81C297893C910520F08DE192E06A
S11327A057D6BCC48FEE92E042D60D2DDD0C110B32
S11327B061E0C801B6DA88EE92E039D641E061E022
S11327C08A819B817EDB8BEE92E042D6C801019721
S11327D06A817B81FC01EE0FFF1FEF5FFB4F2081BD
S11327E031812617370709F499C4880F991FFC0112
S11327F0EF5FFB4F7F0171836083805F9F4F0E9477
S11328000A1DB801D7018D919C910E94610486C470
S113281080E492E01DD682C4BDE4EB16B3E4FB066B
S113282009F446C0EDE4EE16E6E5FE0609F47CC0C4
S1132830F8E4EF16F3E4FF0609F0B1C0AE014E5F11
S11328405F4F64E0C801069633D9811104C08EE05D
S113285092E0FED563C48A819B818938934120F03C
S11328608DE192E0F5D55AC483EF92E0E0D561E0C2
S11328708A819B8156DA8BEE92E0EAD56A817B816C
S11328808091C1049091C2048617970709F446C445
S11328907093C2046093C1048DE490E00E940A1D09
S11328A06D2D8091C1049091C2040E94DF0036C452
S11328B0AE014E5F5F4F63E0C8010696F9D88111FF
S11328C004C08EE092E0C4D529C48A819B81C2975A
S11328D0893C910520F08DE192E0BAD51FC48FEFB9
S11328E092E0A5D541E061E08A819B81EADA8BEE32
S11328F092E0AED56A817B8180919C0490919D0485
S11329008617970709F40AC470939D0460939C0486
S113291087E490E00E940A1D6D2D80919C049091A3
S11329209D040E940301FAC3AE014E5F5F4F64E051
S1132930C8010696BDD8811104C08EE092E088D506
S1132940EDC38A819B81845691098D36974020F08E
S11329508DE192E07DD5E2C38BE093E068D542E05F
S113296061E08A819B81ADDA8DE392E071D56A8161
S11329707B818091FF03909100048617970709F4E7
S1132980CDC3709300046093FF0381E490E00E9440
S11329900A1D6D2D8A819B810E942701BFC380E49B
S11329A092E056D5BBC387E193E052D5B7C389E41F
S11329B0E8168EE4F80669F0A7E5EA16AFE4FA062D
S11329C009F46BC0B7E5EB16B7E4FB0609F0ADC03C
S11329D018C0F80185818A3021F08EE092E038D564
S11329E09DC30D2DDD0C110BC8010E948C0189E1E2
S11329F092E01DD561E0C80194D98DEE92E028D50E
S1132A008DC3AE014E5F5F4F64E0C801069650D897
S1132A10811104C08EE092E01BD580C38A819B8122
S1132A2001978436910520F08DE192E011D576C3AB
S1132A3088E292E0FCD40D2DDD0C110B61E0C8019D
S1132A4070D982E393E0F3D461E082E090E069D945
S1132A508FE292E0FDD4C8010197FC01EE0FFF1F45
S1132A60EC53FB4F408151812A813B81421753072C
S1132A7009F454C3880F991F7F0122E030E03183A9
S1132A80208362E070E0805E9F4FC4D7B801F701F5
S1132A90808191810E94740141C3AE014E5F5F4FFA
S1132AA064E0C801069604D8811104C08EE092E067
S1132AB0CFD434C38A819B818131974220F08DE148
S1132AC092E0C6D42BC389E392E0B1D40D2DDD0C82
S1132AD0110B61E0C80125D982E393E0A8D443E057
S1132AE061E08A819B81EDD98DE392E0B1D4C80184
S1132AF001976A817B81FC01EE0FFF1FE75EFA4FAD
S1132B00208131812617370709F408C3880F991FDC
S1132B107F0171836083805F9F4F7CD7B801F70189
S1132B20808191810E947501F9C280E492E090D481
S1132B30F3E5EF16F4E5FF0609F0F0C2D8011596A7
S1132B408C918A3021F08EE092E082D4E7C285E352
S1132B5093E06DD40D2DDD0C110B61E0C801E1D8BB
S1132B6084E493E075D4C8010E949A05C8010E94C8
S1132B702407D4C2B2E5EB16B4E4FB0609F4C2C0E0
S1132B8060F4F2E5EF16F2E4FF0661F122E5E216E5
S1132B9023E4F20609F486C0C1C232E5E3163CE43C
S1132BA0F30609F44FC089E4E8168EE4F80609F048
S1132BB0B5C2D80115968C918A3021F08EE092E04E
S1132BC047D4ACC20D2DDD0C110BC8010E94D404F6
S1132BD089E192E02CD461E0C801A3D887E493E0B2
S1132BE037D49CC2F8018681813399F487818A3075
S1132BF029F50D2DDD0C110BC8010E94210585E47A
S1132C0093E015D461E0C8018CD889E493E020D422
S1132C1085C2803399F487818A3081F40D2DDD0CCF
S1132C20110BC8010E94890585E493E000D461E09A
S1132C30C80177D88DE493E00BD470C28EE092E0A3
S1132C4007D46CC2F8018681813399F487818A3074
S1132C5029F50D2DDD0C110BC8010E943B0581E502
S1132C6093E0E5D361E0C8015CD889E493E0F0D354
S1132C7055C2803399F487818A3081F40D2DDD0C9F
S1132C80110BC8010E94890581E593E0D0D361E06E
S1132C90C80147D88DE493E0DBD340C28EE092E0D4
S1132CA0D7D33CC2F8018681813399F487818A3075
S1132CB029F50D2DDD0C110BC8010E94550585E584
S1132CC093E0B5D361E0C8012CD889E493E0C0D384
S1132CD025C2803399F487818A3081F40D2DDD0C6F
S1132CE0110BC8010E94890585E593E0A0D361E03A
S1132CF0C80117D88DE493E0ABD310C28EE092E004
S1132D00A7D30CC2F80186818133A1F487818A306C
S1132D1039F50D2DDD0C110BC8010E946F0589E5F5
S1132D2093E085D361E0C8010E94910E89E493E0A9
S1132D308FD3F4C18033A1F487818A3089F40D2DB7
S1132D40DD0C110BC8010E94890589E593E06FD35E
S1132D5061E0C8010E94910E8DE493E079D3DEC155
S1132D608EE092E075D3DAC1C8010E94A802D6C1F0
S1132D7080E492E06DD3D2C180E492E069D3CEC105
S1132D80973409F0C8C1F80183818A3009F018C169
S1132D90F8E4EF16F0E5FF0609F454C000F53EE44C
S1132DA0E31634E4F30609F46DC068F4A0E5EA160A
S1132DB0A1E4FA0609F4C6C0B9E4EB16B4E4FB06D0
S1132DC009F4B9C0F9C0E4E5EE16E4E4FE0609F43A
S1132DD067C0F5E4EF16FEE4FF0639F1EDC023E425
S1132DE0E21624E5F20609F473C060F48DE4E816F3
S1132DF080E5F806C9F1A0E5EA16A2E5FA0609F4A9
S1132E005DC0DAC0BDE4EB16B6E5FB0609F47CC090
S1132E10E6E4EE16E7E5FE0609F486C0F8E4EF16EC
S1132E20F6E5FF0609F0C8C05DC08DE593E0FFD26A
S1132E308091290561E090E00E94910E84E493E082
S1132E4007D36CC182E693E0F2D2609114047091CE
S1132E501504809116049091170441E00E94F70E26
S1132E608FEB92E0F5D25AC187E693E0E0D261E0BD
S1132E7080911405909115050E94910E8FEB92E0BC
S1132E80E7D24CC18CE693E0D2D261E08091180481
S1132E90909119040E94910E8DEC92E0D9D23EC11A
S1132EA081E793E0C4D241E061E080911104909104
S1132EB0120407D88FEB92E0CBD230C186E793E0BF
S1132EC0B6D28091350503D984E493E0C1D226C1FA
S1132ED08BE793E0ACD287E395E0A9D284E493E056
S1132EE0B7D21CC180E893E0A2D26091EB03709149
S1132EF0EC038091ED039091EE0341E00E94F70E04
S1132F008CE592E0A5D20AC185E893E090D2609165
S1132F10FF037091000480E090E041E00E94F70E0E
S1132F208CE592E095D2FAC08AE893E080D28EE8EC
S1132F3093E08ED2F3C084EA93E079D288EA93E0F6
S1132F4087D2ECC082EC93E072D28091290561E0D3
S1132F5090E00E94910E8AEC93E069D261E0809146
S1132F60C1049091C2040E94910E8AEC93E05FD256
S1132F7041E061E080919C0490919D040E94610F66
S1132F808AEC93E054D260911404709115048091FA
S1132F9016049091170441E00E94F70E8AEC93E026
S1132FA046D261E080911405909115050E94910E1E
S1132FB084E493E04DD2B2C080E492E049D2AEC042
S1132FC00F2EF0EDDF2EF02DD80E27E02D1508F48E
S1132FD09EC08481863409F492C08C3421F08134FB
S1132FE009F091C046C0B8E4EB16B3E4FB0631F037
S1132FF0EDE4EE16E3E4FE06E1F037C08CEC93E07A
S113300016D20D2DDD0C110B61E0C8010E94910E4A
S113301088EE92E00CD2F801EE0FFF1FE456FB4F4E
S113302061E0808191810E94910E8BEE92E010D23A
S113303075C080ED93E0FBD10D2DDD0C110B61E02B
S1133040C8010E94910E88EE92E0F1D1F801EE0FD2
S1133050FF1FE150FC4F41E061E0808191810E94BB
S1133060610F8BEE92E0F4D159C080E492E0F0D18C
S113307055C0F7E5EF16F7E4FF0631F027E5E21651
S11330802FE4F206E1F037C08CE492E0D0D10D2DAC
S1133090DD0C110B61E0C8010E94910E82E393E004
S11330A0C6D1F801EE0FFF1FEE53FB4F61E08081A4
S11330B091810E94910E8FE292E0CAD12FC080E5E7
S11330C092E0B5D10D2DDD0C110B61E0C8010E9419
S11330D0910E82E393E0ABD1F801EE0FFF1FE95E9E
S11330E0FA4F43E061E0808191810E94610F8DE39A
S11330F092E0AED113C080E492E0AAD10FC0C8011F
S11331000E9498030BC080E492E0A2D107C080E43F
S113311092E09ED103C080E492E09AD12F960FB63C
S1133120F894DEBF0FBECDBFDF91CF911F910F91F9
S1133130FF90EF90DF900895F6D08093490588239F
S113314041F08BE194E090934805809347050C94FB
S1133150A01008951F920F920FB60F9211240BB670
S11331600F928F939F93EF93FF938091DD038823B6
S113317029F08091C6008093330535C08091DF0328
S113318081112DC0E091E003F0E08091C600E65388
S1133190FA4F8083E091E003F0E0E653FA4F808138
S11331A08A3029F48091DE038F5F8093DE0380915F
S11331B0E0038F5F8093E0038091E003803811F493
S11331C01092E0039091E0038091E103981303C00F
S11331D081E08093DF0385E08093330504C0809110
S11331E0C60080933305FF91EF919F918F910F90CB
S11331F00BBE0F900FBE0F901F9018951F920F9249
S11332000FB60F9211240BB60F928F939F93EF93E7
S1133210FF938091000281111DC08091DC038F5FB8
S11332208093DC038091DC03803811F41092DC037A
S11332309091DC038091DB03981304C081E08093B8
S1133240000208C0E091DC03F0E0E65BFA4F808105
S11332508093C60085E080933305FF91EF919F91A1
S11332608F910F900BBE0F900FBE0F901F9018956B
S11332708F929F92AF92BF92CF92DF92EF92FF9282
S1133280699AE1ECF0E020812861208320812068A4
S11332902083208120642083E2ECF0E020812660FA
S11332A020836C01E12CF12CA0E2B3E0A70196018C
S11332B0F5D24B015C0124E2920E24EFA21EB11C54
S11332C0A0E4B6E0A7019601E9D29B01AC01C501D7
S11332D0B401A5D2215031093093C5002093C40014
S11332E0FF90EF90DF90CF90BF90AF909F908F9022
S11332F0089580E492E0BCCF0895E1ECF0E0808191
S11333008F778083A6ECB0E02C911092E1031092A9
S1133310E0038C911092DF031092DE039081906899
S11333209083820F0895CF93C091DE03CC2309F4D8
S113333040C080E0A1ECB0E0282F30E0E091E10350
S1133340F0E0E653FA4F9081F901E55EFB4F90837C
S11333509C919F779C939091E1039F5F9093E103ED
S11333609091E103903811F41092E1031092DF037D
S11333709C9190689C93F901E55EFB4F90819A3093
S113338091F4E1ECF0E090819F7790839091DE03DB
S113339091509093DE03908190689083F901E55EEB
S11333A0FB4F11820CC091118F5F88232CF680E0B3
S11333B006C08091DF03882311F09FDF8C2FCF910B
S11333C00895382F2091DB039091DC03291304C066
S11333D080910002882351F1E091DB03F0E0E65B89
S11333E0FA4F3083E1ECF0E080818F7B8083809121
S11333F0DB038F5F8093DB038091DB03803811F460
S11334001092DB0380910002882351F0E091DC03E9
S1133410F0E0E65BFA4F80818093C60010920002D0
S1133420E1ECF0E080818064808381E00895CF93B3
S1133430DF93EC018881882341F08881C2DF8823EF
S1133440E1F3219688818111F8CFDF91CF9108951E
S1133450CF93DF93EC018881882341F08881B1DF29
S11334608823E1F3219688818111F8CF8AE0A9DFCE
S11334708823E1F3DF91CF9108951092D500109243
S1133480D400289A2398229A219A84E58CBD8CB57D
S113349080688CBD8CB580688CBD8CB583608CBD18
S11334A0089590930302809302026093E40340938F
S11334B0E3032093010208959091E303992319F003
S11334C08823A9F002C0811112C0E0910202F09198
S11334D00302208181E090E00090E40302C0880FA1
S11334E0991F0A94E2F78095822380830895E091DE
S11334F00202F0910302208181E090E00090E40355
S113350002C0880F991F0A94E2F7822B80830895E2
S1133510813408F080E4A4EDB4E020E015C0E0912B
S1133520EA03F0E0E657F94F90819D932F5F909165
S1133530EA039F5F9093EA039091EA03903411F4B5
S11335401092EA031092E8033091EA039091E903A0
S1133550391304C09091E803992319F02813DFCF9D
S11335600895822F08958091E803811106C0809107
S1133570E9039091EA03891B089580E408958091FA
S1133580E5039091E603891B08958CB58F778CBD74
S11335902EB51092EA031092E9038EB51092E80357
S11335A09CB590689CBD820F08951F920F920FB630
S11335B00F9211240BB60F922F933F934F935F9367
S11335C06F937F938F939F93AF93BF93EF93FF93E7
S11335D08091E803811124C0E091E903F0E08EB505
S11335E0E657F94F80838091E9038F5F8093E90365
S11335F08091E903803411F41092E9039091E90376
S11336008091EA03981303C081E08093E8039091CA
S1133610E20380910102981304C01092E70301C0F1
S1133620B4DF84ED93E00E948E0EFF91EF91BF9181
S1133630AF919F918F917F916F915F914F913F9146
S11336402F910F900BBE0F900FBE0F901F901895E7
S11336501F920F920FB60F9211240BB60F922F9355
S11336603F934F935F936F937F938F939F93AF9306
S1133670BF93EF93FF938091E703882349F18091EF
S1133680E803811124C0E091E903F0E08EB5E65728
S1133690F94F80838091E9038F5F8093E9038091E0
S11336A0E903803411F41092E9039091E9038091C5
S11336B0EA03981303C081E08093E8039091E20346
S11336C08091010298130EC01092E70307C05DDFDA
S11336D09091E20380910102981304C080E0ECDE33
S11336E01092E20380910402811123C08091E603C9
S11336F08F5F8093E6038091E603803411F4109287
S1133700E6039091E5038091E603981304C081E0F9
S1133710809304020EC081E0CFDEE091E603F0E086
S1133720E65BF94F80818EBD8091E2038F5F8093C9
S1133730E203FF91EF91BF91AF919F918F917F91A0
S11337406F915F914F913F912F910F900BBE0F900E
S11337500FBE0F901F901895382F2091E50390917C
S1133760E603291304C080910402882361F1E091E7
S1133770E503F0E0E65BF94F30838CB58F778CBDC1
S11337808091E5038F5F8093E5038091E5038034A6
S113379011F41092E50380910402882381F081E002
S11337A08BDEE091E603F0E0E65BF94F80818EBDAD
S11337B08091E2038F5F8093E203109204028CB540
S11337C080688CBD81E008951F93CF93DF93EC0153
S11337D0162F662339F08881BFDF8823E1F3219611
S11337E01150C9F7DF91CF911F91089521E02093E3
S11337F0E703EACF0895AA1BBB1B51E107C0AA1F28
S1133800BB1FA617B70710F0A61BB70B881F991F7D
S11338105A95A9F780959095BC01CD010895A1E230
S11338201A2EAA1BBB1BFD010DC0AA1FBB1FEE1F36
S1133830FF1FA217B307E407F50720F0A21BB30B81
S1133840E40BF50B661F771F881F991F1A9469F7FD
S113385060957095809590959B01AC01BD01CF0159
S11338600895EE0FFF1F881F8BBF0790F691E02D80
S11338701994A29FB001B39FC001A39F700D811D35
S11338801124911DB29F700D811D1124911D089565
S1133890F0DFB7FF0895821B930B0895EADFA59F1D
S11338A0900DB49F900DA49F800D911D1124089537
S11338B0FB01DC010D900020E9F7119701900D92B6
S11338C00020E1F70895FB01DC0101900D92002036
S11338D0E1F70895BB274A3031F4992322F4BDE27D
S11338E0909581959F4F30C0BB272A3051F499237E
S11338F042F4BDE290958095709561957F4F8F4F0E
S11339009F4F01C0BB27FA01A62F621771058105DD
S11339109105330B30FB66F0AA27660F771F881FCB
S1133920991FAA1FA21710F0A21B63953850A9F77C
S1133930A05DAA3308F0A95DA19336F7B111B19344
S11339401082CA0119C0BB27FB015527AA27880F7B
S1133950991FAA1FA41710F0A41B83955051B9F7FF
S1133960A05DAA3308F0A95DA193009779F7B1117E
S1133970B1931192CB0100C0DC01FC01672F71915E
S11339807723E1F7329704C07C916D937083629141
S1133990AE17BF07C8F30895DC01CB01FC01F99908
S11339A0FECF06C0F2BDE1BDF89A319600B40D9287
S11339B041505040B8F70895F999FECF92BD81BDAA
S11339C0F89A992780B50895A6E1B0E044E050E064
S11339D0E5CFA8E1B0E042E050E0E0CFDC01CB016C
S11339E002C02D9105D041505040D8F70895262F9C
S11339F0F999FECF1FBA92BD81BD20BD0FB6F894D0
S1133A00FA9AF99A0FBE01960895242FF1DF252F13
S1113A10EFDF00C0ECDF272FEBCFF894FFCFE1
S1133A1E0101250001303030303030303000464F57
S1133A2E524D4154204552520053494E004E554D6D
S1133A3E424552204552520053574700463D0020FE
S1133A4E572F4F2D556E69740053574F0020560053
S1133A5E434F4D4D414E4420455252004757470067
S1133A6E47574F004753490047564600206D5600AE
S1133A7E3030303030303030007265626F6F740029
S1133A8E666163746F727920726573657400534551
S1133A9E4E3D310053454E3D30005350533D3100A1
S1133AAE5350533D30005353533D31005353533D04
S1133ABE30005344533D31005344533D3000534D75
S1133ACE533D3100534D533D30005348503D00207B
S1133ADE6D7300534D503D00534E443D00207075A0
S1133AEE6C736573005354443D005350523D005360
S1133AFE43543D00534843004C3D00206D41005358
S1133B0E4D4300534843204D4F534645543D0053B7
S1133B1E4D43204D4F534645543D00534D56204D75
S1133B2E4F534645543D0046756E6374696F6E205F
S1133B3E6E6F74207265616C697A65642079657440
S1133B4E2100413D0053535420536C6F742D546522
S1133B5E73743A200053524200423D3100423D30CC
S1133B6E0053524C00535243005352440047454EA7
S1133B7E3D004748503D00474D503D00474E443DA3
S1133B8E004754443D004750523D004743543D00C6
S1133B9E4748563D00474D563D0046573D0052742A
S1133BAE685445435F6D435F556E69742056302EDD
S1133BBE302E350049443D00527468544543205418
S1133BCE54412D45717569706D656E742056315F63
S1133BDE3000504152414D533D002C0047484300A4
S10B3BEE474D43006A61000029
S9030000FC
