S01800004D435F5274685445435F56305F305F352E737265630B
S11300007BC0000099C0000097C0000095C00000AC
S113001093C0000091C000008FC000008DC000009C
S11300208BC0000089C0000087C0000085C00000AC
S113003083C00000DDC700007FC000007DC0000059
S11300407BC0000079C0000077C0000075C00000CC
S113005073C0000071C000006FC000006DC00000DC
S11300600C94C4160C94461467C000000C949A14A3
S113007063C0000061C000005FC000005DC00000FC
S11300805BC0000059C0000057C0000055C000000C
S113009053C0000051C000004FC000004DC000001C
S11300A04BC0000049C0000047C0000045C000002C
S11300B043C0000041C000003FC000000C94B009E0
S11300C00C94BC090C94FD090C944C090C94711605
S11300D033C0000031C000002FC000002DC000005C
S11300E02BC0000064035003520354035603580307
S11300F05A035C035E03600311241FBECFEFD1E2F9
S1130100DEBFCDBF00E00CBF13E0A0E0B2E0E6E547
S1130110F1E300E00BBF02C007900D92A03BB107D2
S1130120D9F726E0A0EBB3E001C01D92A236B207D6
S1130130E1F7D7D60C94A91863CF0F931F93CF93ED
S1130140DF93D82F8B01C42F8091B003841307C091
S11301508091B1039091B2038617970799F00E949A
S11301605B168111FCCF1093B2030093B103C093CB
S1130170B00323E041E06C2FC8010E94ED158CB55B
S113018084608CBD8D2F0E944817DF91CF911F9101
S11301900F9108951F93CF93DF93C62F9C01AFEF68
S11301A0BFEF0E94D51728E833E140E050E00E94F9
S11301B0AB17D22F132F4C2F62E270E080E0BDDF2B
S11301C04C2F62E270E0812FB8DF4C2F62E270E0C6
S11301D08D2FB3DFDF91CF911F9108951F93CF939C
S11301E0DF93C62F9C01AFEFBFEF0E94D5172AEF14
S11301F030E040E050E00E94AB17D22F132F4C2F79
S113020062E270E082E099DF4C2F62E270E0812FBD
S113021094DF4C2F62E270E08D2F8FDFDF91CF915E
S11302201F9108951F93CF93DF93C62F9C01ABEAD0
S1130230BAEA0E94D517DC01B695A79526EF3FEFE1
S113024049E050E00E94EA17665B794F8944964082
S113025028E833E140E050E00E94AB17D22F132F7F
S11302604C2F65E071E080E068DF4C2F65E071E0C1
S1130270812F63DF4C2F65E071E08D2F5EDFDF910E
S1130280CF911F9108951F93CF93DF93C62F9C01A5
S1130290AFEFBFEF0E94D51720E137E240E050E016
S11302A00E94AB17D22F132F4C2F62E270E080E034
S11302B044DF4C2F62E270E0812F3FDF4C2F62E27B
S11302C070E08D2F3ADFDF91CF911F910895CF9386
S11302D0DF930197EC01CC0FDD1FCE01805E9F4FB1
S11302E00E948518FE01EA59FB4F91838083CE0159
S11302F0805F9F4F0E948518C753DC4F9983888382
S1130300DF91CF910895CF93CFEFC60F9C01AFEF4C
S1130310BFEF0E94D5172CED35E040E050E00E947D
S1130320AB17DA01C90120E04C2F62E270E0FED283
S1130330CF910895CF93CFEFC60F9C01AFEFBFEFDE
S11303400E94D5172AEF30E040E050E00E94AB173E
S1130350DA01C90122E04C2F62E270E0E7D2CF91CA
S113036008950F931F93CF93DF938C01E2E0F1E0A4
S11303702081EC01219781E090E00C2E02C0880FCF
S1130380991F0A94E2F7982F909529232083E8E097
S1130390F1E020819223908392B1982B92B9E5E009
S11303A0F1E09081982B90839BB1982B9BB998B1E5
S11303B0982B98B9E1E0F1E09081982B9083E7E0E5
S11303C0F1E09081982B908391B1982B91B9E4E05E
S11303D0F1E09081982B90839AB1982B9AB997B1B8
S11303E0892B87B92FEF200F42E250E065E080E0CF
S11303F072D2CC0FDD1FFE01EA59FB4FB801808198
S1130400918181DFC753DC4FB8018881998192DFE4
S1130410DF91CF911F910F910895CF93E2E0F1E026
S11304202081BC016150710941E050E002C0440FD9
S1130430551F6A95E2F7942F909529232083E8E0CD
S1130440F1E020819223908392B1942B92B9E5E05C
S1130450F1E09081942B90839BB1942B9BB998B13C
S1130460942B98B9E1E0F1E09081942B9083E7E03C
S1130470F1E09081942B908391B1942B91B9E4E0B5
S1130480F1E09081942B90839AB1942B9AB997B10F
S1130490492B47B9CFEFC80F2C2F48E250E060E05A
S11304A080E069D22C2F48E250E060E08AE063D219
S11304B0CF910895CF93CFEFC80F2C2F48E250E08F
S11304C060E08AE058D22FEF81EE94E02150804022
S11304D09040E1F700C000002C2F48E250E064E2B5
S11304E08AE049D2CF910895CF93CFEFC80F2C2F34
S11304F048E250E060E08AE03ED22FEF81EE94E0E3
S1130500215080409040E1F700C000002C2F48E2C9
S113051050E06AE08AE02FD2CF910895CF93CFEFD5
S1130520C80F2C2F48E250E060E08AE024D22FEF7D
S113053081EE94E0215080409040E1F700C000003B
S11305402C2F48E250E061E18AE015D2CF91089562
S1130550CF93CFEFC80F2C2F48E250E060E08AE041
S11305600AD22FEF81EE94E0215080409040E1F7D1
S113057000C000002C2F48E250E064E18AE0FBD187
S1130580CF9108952FEF280F48E250E060E08AE011
S1130590F2D12FEF81EE94E0215080409040E1F7BA
S11305A000C000000895CF93DF93E2E0F1E02081E2
S11305B0BC016150710941E050E002C0440F551F75
S11305C06A95E2F7C42FC095922F9C239083E8E0AC
S11305D0F1E090819C23908392B19C2392B9E5E051
S11305E0F1E090819C2390839BB19C239BB998B1AB
S11305F09C2398B9E1E0F1E09081942B9083E7E0AB
S1130600F1E09081942B908391B1942B91B9E4E023
S1130610F1E09081942B90839AB1942B9AB997B17D
S1130620942B97B998B1492B48B9EFE9FFE031977A
S1130630F1F700C00000DFEFD80F2D2F48E250E0A3
S113064060E080E098D12D2F48E250E06FEF8AE01F
S113065092D188B1C823C8B9DF91CF9108950F937F
S11306601F93CF939C0188B1A9014150510901E026
S113067010E002C0000F111F4A95E2F7802B88B9E1
S11306808FE99FE00197F1F700C000002A3031059F
S1130690C8F4F9018827EE58FF4F8F4F0C94CD17FB
S11306A06FEC13C065E211C065E80FC069EC0DC0C2
S11306B061E90BC061E109C067EC07C061E005C0F6
S11306C061E803C06FEF01C063E0CFEFC20F2C2FCE
S11306D048E250E08AE04FD18FE99FE00197F1F7BB
S11306E000C000002C2F48E250E060E080E043D1DD
S11306F08FE99FE00197F1F700C0000088B10095F1
S1130700082308B9CF911F910F910895CF93DF93D8
S113071028B1AC0141505109C1E0D0E002C0CC0F76
S1130720DD1F4A95E2F79C2F922B98B9EFE9FFE081
S11307303197F1F700C000004FEF480F68E270E016
S11307408AE03BD1813881F158F4833099F118F46F
S1130750813039F12CC08131F1F0853281F027C02C
S1130760873CE1F028F4853869F0813989F01FC0AD
S1130770893C59F08F3CD9F421E030E01DC022E0DF
S113078030E01AC023E030E017C024E030E014C0A9
S113079025E030E011C026E030E00EC027E030E074
S11307A00BC028E030E008C029E030E005C02FEF9E
S11307B03FEF02C020E030E08FE99FE00197F1F7BE
S11307C000C0000098B1C095C923C8B9C901DF9120
S11307D0CF910895E2E0F1E02081AC01415051094C
S11307E081E090E002C0880F991F4A95E2F7282B18
S11307F020832FEF39E648E1215030404040E1F7B3
S113080000C00000A8952081982F9095292320836B
S1130810E8E0F1E02081282B20832FEF39E648E13E
S1130820215030404040E1F700C00000A89522B1BB
S1130830282B22B92081292320832FEF39E648E190
S1130840215030404040E1F700C00000A895E5E0A9
S1130850F1E02081282B208322B1292322B92FEF14
S113086039E648E1215030404040E1F700C0000043
S1130870A8952BB1282B2BB92081292320832FEF76
S113088039E648E1215030404040E1F700C0000023
S1130890A89528B1822B88B98BB189238BB98FEFA6
S11308A029E638E1815020403040E1F700C00000E3
S11308B0A89588B1982398B90895CF93DF93EC0154
S11308C0CEDECE0123DFC817D90711F4CE0182DFB3
S11308D0DF91CF910895FF920F931F93CF93DF93EE
S11308E0D82FC62F8A01F22E0E945B168111FCCFED
S11308F023E041E06F2DC8010E94ED158CE00E94B9
S1130900481780E00E9448178D2F0E94481780E105
S11309100E94481780E00E9448178C2F0E944817B5
S1130920DF91CF911F910F91FF900895EF92FF9265
S11309300F931F93CF93DF93C82FD92F7B01042FDD
S1130940122F0E945B168111FCCF23E041E0602F3F
S1130950C7010E94ED15812F0E9448178D2F0E9418
S113096048178C2F0E944817DF91CF911F910F9148
S1130970FF90EF900895FF920F931F93CF93DF930F
S1130980D82FC62F8A01F22E0E945B168111FCCF4C
S113099023E041E06F2DC8010E94ED1580E40E9420
S11309A048178D2F0E9448178C2F0E944817DF91FB
S11309B0CF911F910F91FF900895EF92FF920F93A3
S11309C01F93CF93DF9300D0CDB7DEB7182F7B01F1
S11309D0042F0E945B168111FCCF23E041E0602FBD
S11309E0C7010E94ED1581E489831A831B8263E0A9
S11309F0CE0101960E9492170E944F168330E0F3B5
S1130A0083E00E94241680917E040F900F900F9033
S1130A10DF91CF911F910F91FF90EF900895CF93A5
S1130A20DF931F921F92CDB7DEB722E041E066E06C
S1130A308BE290E00E94ED155A988AE18A95F1F7CD
S1130A4000C05A9A8AE18A95F1F700C019821A8285
S1130A5062E0CE0101960E9492170E944F168230E6
S1130A60E0F382E00E942416ECE7F4E0A081B0E019
S1130A70BA2FAA278181A82B2CE63BE60E94E41713
S1130A80BC01882799270F900F90DF91CF9108958B
S1130A90CF93DF931F921F92CDB7DEB722E041E0E0
S1130AA066E08BE290E00E94ED155A988AE18A95FF
S1130AB0F1F700C05A9A8AE18A95F1F700C01982C9
S1130AC01A8262E0CE0101960E9492170F900F9055
S1130AD0DF91CF91089582E00E942416ECE7F4E0C0
S1130AE0A081B0E0BA2FAA278181A82B2CE63BE68F
S1130AF00E94E417BC01882799270895AF92BF92FA
S1130B00DF92EF92FF920F931F93CF93DF93A398FB
S1130B10A298A098A1989B9A9A9A999A989A20E058
S1130B2030E002E011E0EE24E394F12C68E071E09F
S1130B3045E051E0C1E0D1E0A7E0B1E06894AA2427
S1130B40A2F8BB24B394F801D080C701022E02C0DE
S1130B50880F991F0A94E2F7982F9095D922D08292
S1130B60FB01D0809D21908392B1982B92B9FA0118
S1130B709081982B90839881982B98839C91982BA3
S1130B809C9391B1982B91B9F5019081892B808325
S1130B902F5F3F4F27303105B1F6749A719A6C9AE2
S1130BA0699A72986A9A2E98269A2798DF91CF911B
S1130BB01F910F91FF90EF90DF90BF90AF90089539
S1130BC086E08093C20439C08091DB038A3090F0C0
S1130BD01092DB038091CA048F5F8A3019F08093EE
S1130BE0CA0408C01092CA048091C2048150809340
S1130BF0C204A8958091C204863009F4A39A809116
S1130C00C204853011F4A398A29A8091C20484305E
S1130C1011F4A39AA29A8091C204833019F4A39880
S1130C20A298A09A8091C204823011F4A098A19A4B
S1130C308091C204813009F4A1988091C204811189
S1130C40C3CF0895CF93DF93CDB7DEB728970FB600
S1130C50F894DEBF0FBECDBF65E070E08FE490E096
S1130C600E94A61862E370E08DE490E00E94A6184A
S1130C7062E370E087E490E00E94A61860EE7EE2F2
S1130C808DE390E00E94A61868EB7BE08FE390E090
S1130C900E94A61849E150E060E070E089E490E029
S1130CA00E94A11849E150E060E070E083E490E024
S1130CB00E94A1186AE070E08BE390E00E94A618FD
S1130CC064E670E089E390E00E94A61860E088E39F
S1130CD090E00E94931888E0E5E0F2E0DE011196CE
S1130CE001900D928A95E1F748E050E0BE016F5FF4
S1130CF07F4F80E390E00E948A1828960FB6F894FC
S1130D00DEBF0FBECDBFDF91CF9108950F931F9328
S1130D10CF93DF9389E490E00E9480186093DC0312
S1130D207093DD038093DE039093DF0383E490E00C
S1130D300E9480186093BC047093BD048093BE0429
S1130D409093BF048BE390E00E9485189093DA039C
S1130D508093D90389E390E00E9485189093E1037E
S1130D608093E00388E390E00E9478188093CD0498
S1130D7048E050E060E370E08FEC94E00E94681873
S1130D800FEC14E0C1E0D0E0F80181918F018C34C4
S1130D9011F4CE019CDA2196C930D105A9F78DE46E
S1130DA090E00E94851890937A048093790487E4F4
S1130DB090E00E94851890936504809364048DE309
S1130DC090E00E9485189093C9048093C8048FE32F
S1130DD090E00E9485189093770480937604DF91C5
S1130DE0CF911F910F910895EF92FF920F931F934C
S1130DF0CF93DF937C01062F172FC1E0D0E0F701DA
S1130E0081917F01F80191918F01891779F08C34D8
S1130E1029F0843549F0823449F403C0CE01A1DAC3
S1130E2005C0CE01FADA02C0CE01BDDB2196C9307D
S1130E30D10529F7DF91CF911F910F91FF90EF908A
S1130E4008950BD11092080110920201A1980895FF
S1130E50CF93DF93CDB7DEB728970FB6F894DEBFF4
S1130E600FBECDBF9EE088E10FB6F894A89580939D
S1130E7060000FBE90936000A895ADD0CAD0F9D0A1
S1130E80E0DF3CDE8FE490E00E948518059731F0A6
S1130E90A39AA29AA09AA19AD5DEA8957894D7D2BB
S1130EA035DF1092C1048DE790E00E94D915749A41
S1130EB088E0E5E0F2E0DE01119601900D928A955A
S1130EC0E1F7BE016F5F7F4F8FEC94E08DDF78DE3A
S1130ED028960FB6F894DEBF0FBECDBFDF91CF9139
S1130EE00895B6DF0E941915A8950E9439148091BF
S1130EF0DB038A3040F01092DB038091CA048F5FD9
S1130F008093CA04F1CF8091CA048A30D8F0109239
S1130F10CA048091E2038F5F8093E2038091CB0443
S1130F20882329F081508093CB04A09A01C0A09813
S1130F308091C104882319F0A39AA29AD5CFA39AC9
S1130F40A298D2CF8091E2038A3070F21092E20329
S1130F50CBCF83D081E08093C7041092CC04A7D078
S1130F60A19A8091DC039091DD03A091DE03B091FE
S1130F70DF03892B8A2B8B2B21F08091CD04809366
S1130F8002018091CD048093080161C00895A19A63
S1130F908091CD048093080108955FD081E080930F
S1130FA0CC041092C70445D1A19A10920201109268
S1130FB008014DC0089545DF8091CD048093080158
S1130FC02FEF89EF90E0215080409040E1F700C07E
S1130FD0000037CF089583E08093B0008CE08093C5
S1130FE0B10089EF8093B30082E08093700008958C
S1130FF01F920F920FB60F9211248F938091DB03EF
S11310008F5F8093DB038F910F900FBE0F901F9023
S1131010189588E18093810082E8809380008FE3B3
S113102096E0909387008093860080E190E090930F
S11310308900809388008FEF9FEF90938B008093BB
S11310408A0090938D0080938C00259A0895E1E89E
S1131050F0E08081816080830895E1E8F0E08081A0
S11310608E7F80838FEF9FEF909385008093840021
S113107008958FE18093210180E69AEE90932701F1
S11310808093260182E0809320018FE08093730097
S113109081E090E0909329018093280190932B01A3
S11310A080932A0190932D0180932C0108958FE55C
S11310B09AEE909325018093240180E69AEE909312
S11310C02701809326018091DC039091DD03A09198
S11310D0DE03B091DF03803727E19207A105B10554
S11310E050F59C01220F331F880F991F880F991FF9
S11310F0880F991F820F931F9093290180932801D1
S11311002091DC033091DD03C901880F991F220F60
S1131110331F220F331F220F331F820F931F90930D
S1131120DB048093DA041092D904C29790932D01C2
S113113080932C0125C08FEF9FEF9093290180931A
S113114028016091DC037091DD038091DE039091AE
S1131150DF0320E737E140E050E00E94AB17AB012A
S1131160440F551F660F771F660F771F660F771F93
S1131170640F751F7093DB046093DA042093D90421
S11311808091BC049091BD04A091BE04B091BF04B1
S1131190803727E19207A105B10528F59C01220FAC
S11311A0331F880F991F880F991F880F991F820F6B
S11311B0931F90932B0180932A018091BC049091FA
S11311C0BD049C01220F331F880F991F880F991F9C
S11311D0880F991F820F931F9093DE048093DD0480
S11311E01092DC0408958FEF9FEF90932B0180936E
S11311F02A016091BC047091BD048091BE04909159
S1131200BF0420E737E140E050E00E94AB17AB0198
S1131210440F551F660F771F660F771F660F771FE2
S1131220640F751F7093DE046093DD042093DC0467
S113123008958091D9039091DA03880F991F01973B
S113124090932701809326018091D9039091DA032A
S113125081509048880F991F909325018093240111
S11312608091D9039091DA03019790932901809397
S113127028018FEF9FEF90932B0180932A01909385
S11312802D0180932C018091E0039091E1039093D0
S1131290D8048093D70408951F920F920FB60F922B
S11312A011240BB60F922F933F934F935F936F9339
S11312B07F938F939F93AF93BF93EF93FF9380910B
S11312C0CC048823C1F08091CD04809302018091E5
S11312D0CD04809308018091D7049091D8049C0197
S11312E0215031093093D8042093D704892B29F550
S11312F0B4DE2FDE22C08091C7048823F1F08091F0
S1131300D90481508093D904811108C08091DA04F2
S11313109091DB0490932901809328018091DC044F
S113132081508093DC04811108C08091DD04909188
S1131330DE0490932B0180932A01FF91EF91BF91DA
S1131340AF919F918F917F916F915F914F913F9159
S11313502F910F900BBE0F900FBE0F901F901895FA
S11313601F920F920FB60F921124109202010F9048
S11313700FBE0F901F9018951F920F920FB60F92E9
S113138011240BB60F922F933F934F935F936F9358
S11313907F938F939F93AF93BF93EF93FF938FB7F5
S11313A080688FBF5ADE97DB6093C3037093C403D6
S11313B08093C5039093C60332DB7093C803609394
S11313C0C703109208018FEF9FEF90932B01809336
S11313D02A01A198FF91EF91BF91AF919F918F91B5
S11313E07F916F915F914F913F912F910F900BBE21
S11313F00F900FBE0F901F9018951F920F920FB66B
S11314000F9211240BB60F922F933F934F935F9338
S11314106F937F938F939F93AF93BF93EF93FF93B8
S11314208FB780688FBF34DBFF91EF91BF91AF918D
S11314309F918F917F916F915F914F913F912F91E8
S11314400F900BBE0F900FBE0F901F9018950E9427
S113145015151092E1040895FF920F931F93CF93F3
S1131460DF9300D000D0CDB7DEB78A01DA011D9238
S11314701C92FC0120812D3221F40196FF24F39467
S113148001C0F12CFC013196DC019C9180ED890FA7
S113149089838A3008F046C080E08F5F282F30E0CF
S11314A0519190ED950FA1E0B0E0AC0FBD1FA20FDC
S11314B0B31F9C939A3088F35A3081F5681780F1F2
S11314C0882309F1982F60E070E0F901E91BF10924
S11314D041E050E04C0F5D1FE40FF51F4081FB011C
S11314E0EE0FFF1F660F771F660F771F660F771FBC
S11314F06E0F7F1F640F711D915039F7D8016D93E2
S11315007C9301C080E0FF2081F0F80120813181CB
S11315103195219531093183208307C080E005C0CE
S113152080E003C09A3071F380E026960FB6F894F9
S1131530DEBF0FBECDBFDF91CF911F910F91FF9002
S113154008958F929F92AF92BF92CF92DF92EF92C3
S1131550FF920F931F93CF93DF93CDB7DEB72B97F3
S11315600FB6F894DEBF0FBECDBF8A01DA011D921B
S11315701D921D921C921397FC0120812D3219F4A7
S1131580019641E001C040E0FC013196DC019C91F0
S113159080ED890F89838A3008F05DC080E08F5F19
S11315A0282F30E0519190ED950FA1E0B0E0AC0F01
S11315B0BD1FA20FB31F9C939A3088F35A3009F0D1
S11315C046C0681708F445C0882371F1982FC12CD0
S11315D0D12C7601F901E91BF10961E070E06C0F8F
S11315E07D1FE60FF71F5081CC0CDD1CEE1CFF1C89
S11315F046015701880C991CAA1CBB1C880C991C19
S1131600AA1CBB1CC80CD91CEA1CFB1CC50ED11C93
S1131610E11CF11C9150F1F6D801CD92DD92ED92CE
S1131620FC92139701C080E04423C1F0F80140818B
S113163051816281738170956095509541955F4F9A
S11316406F4F7F4F408351836283738307C080E071
S113165005C080E003C09A3031F380E02B960FB6CA
S1131660F894DEBF0FBECDBFDF91CF911F910F91D4
S1131670FF90EF90DF90CF90BF90AF909F908F90AE
S11316800895CF93DF93CDB7DEB72A970FB6F894BA
S1131690DEBF0FBECDBF9C012F5F3F4FDC018C919D
S11316A0805389838A3058F5F9019E012E5F3F4F9C
S11316B040E001C0492F91E0940F81918053D901FA
S11316C08D939D018A3008F59930A1F71EC0819150
S11316D0882321F08130A9F4852F01C0842F90E064
S11316E0022E02C0880F991F0A94E2F7DB019C9135
S11316F0890F8C932150310950F781E00FC080E0AD
S11317000DC080E00BC080E009C04730E1F7FE0166
S1131710319627E030E040E051E0D9CF2A960FB669
S1131720F894DEBF0FBECDBFDF91CF9108950C9426
S1131730C4150895CF92DF92EF92FF920F931F93F7
S1131740CF93DF93CDB7DEB72C970FB6F894DEBFF7
S11317500FBECDBFE62E992344F42DE230E0388746
S11317602F8391958195910901C01F824AE0BE01A2
S11317706F5F7F4F0E940618BE016F5F7F4FCE01DF
S113178007960E94F417BE01695F7F4FCE01019650
S11317900E94FF17E1100FC020C0D886CF82B80185
S11317A0CE0107960E94F417BE01695F7F4FC801FE
S11317B00E94FF1708C08E010F5F1F4FF12C689421
S11317C0CC24C5F8D12CF80101900020E9F7319719
S11317D0E01BF10BEE15FF0500F3CE0101960E940C
S11317E0B3152C960FB6F894DEBF0FBECDBFDF91B4
S11317F0CF911F910F91FF90EF90DF90CF900895BC
S1131800CF92DF92EF92FF920F931F93CF93DF93C8
S1131810CDB7DEB766970FB6F894DEBF0FBECDBF67
S1131820E42E992364F42DE230E03D872C879095D3
S11318308095709561957F4F8F4F9F4F01C01C8697
S11318402AE0AE014F5F5F4F0E941018BE016F5F28
S11318507F4FCE010C960E94F417BE01645F7F4F48
S1131860CE0101960E94FF17E1100FC020C0DD8653
S1131870CC86B801CE010C960E94F417BE01645FB9
S11318807F4FC8010E94FF1708C08E010F5F1F4FD2
S1131890F12C6894CC24C5F8D12CF80101900020D7
S11318A0E9F73197E01BF10BEE15FF0500F3CE01CC
S11318B001960E94B31566960FB6F894DEBF0FBE6C
S11318C0CDBFDF91CF911F910F91FF90EF90DF90EB
S11318D0CF9008955F926F927F928F929F92AF9272
S11318E0BF92CF92DF92EF92FF920F931F93CF9309
S11318F0DF93CDB7DEB764970FB6F894DEBF0FBEA3
S1131900CDBF4C01762EC42E442389F0842F01E0F0
S113191010E09801220F331F000F111F000F111F39
S1131920000F111F020F131F815099F702C001E02D
S113193010E0C401992024F488279927881999096B
S1131940582E692EB8010E9497174AE0BE016F5FB6
S11319507F4F0E940618CE0101967C01D12C0F2ED8
S1131960F0E3AF2EB12CF02D0DC0BC86AB86B701D1
S1131970CE010B960E94F417BE01655F7F4FC7012D
S11319800E94FF17F70101900020E9F73197EE1943
S1131990FF09EC15FD0548F37E019BE0E90EF11CFF
S11319A0852D962DB8010E949717CB014AE0B70107
S11319B00E940618F70101900020E9F731978EE2A2
S11319C090E091838083BE016F5F7F4FC7010E94C7
S11319D0F41799202CF48DE290E09A83898301C056
S11319E01982BE01655F7F4FCE0101960E94F417F4
S11319F071100FC021C0DC86CB86B801CE010B96D6
S1131A000E94F417BE01655F7F4FC8010E94FF1753
S1131A1009C08E010F5F1F4FE72CF12C6894CC2472
S1131A20C5F8D12CF80101900020E9F73197E01BAB
S1131A30F10BEE15FF05F8F2CE0101960E94B315E5
S1131A4064960FB6F894DEBF0FBECDBFDF91CF9181
S1131A501F910F91FF90EF90DF90CF90BF90AF90C8
S1131A609F908F907F906F905F900895CF93DF93B6
S1131A70CDB7DEB729970FB6F894DEBF0FBECDBF42
S1131A8099E0EEE0F2E0DE01119601900D929A9554
S1131A90E1F7FE01319627E030E090E070E361E386
S1131AA0AC01022E02C0559547950A94E2F740FF17
S1131AB002C0608301C070832150310931962F3FE9
S1131AC04FEF340769F7CE0101960E94B3152996AA
S1131AD00FB6F894DEBF0FBECDBFDF91CF9108954E
S1131AE0EF92FF920F931F93CF93DF93CDB7DEB79F
S1131AF02F970FB6F894DEBF0FBECDBF8C01FC014B
S1131B003281818119821B821A821C821D821E826B
S1131B101F822081223509F03DC0833509F09CC61F
S1131B20343509F099C683818A3089F41092C1044E
S1131B3087E192E00E94C41598E088E10FB6F8941A
S1131B40A895809360000FBE90936000FFCF803211
S1131B5009F082C6F8018481813309F07DC685814C
S1131B608A3009F079C61092C1046FEF7FEF8FE4D9
S1131B7090E00E94A6188EE192E00E94C41598E0BD
S1131B8088E10FB6F894A895809360000FBE9093F7
S1131B906000FFCF90E0932B233509F0FAC4F801DD
S1131BA02381203209F0F5C18035F2E59F0709F45D
S1131BB09BC1C8F485343EE4930771F150F48E342C
S1131BC0F4E49F0709F437C18435944409F45FC1F0
S1131BD0DCC1883430E5930709F4ABC08D349045FB
S1131BE009F4E8C0D2C18035F3E59F07B1F150F4A0
S1131BF0843433E5930709F466C08D34934509F4BE
S1131C007DC0C3C18335F3E59F0709F441C0833424
S1131C10944509F485C1B9C1F8018481813359F42B
S1131C2085818A30B1F481E08093C104729A8CE298
S1131C3092E0AAD711C6803361F4F80185818A3015
S1131C4041F41092C104FDD8729882E392E09CD7CB
S1131C5003C688E392E098D7FFC5F80184818133F5
S1131C6041F485818A3081F474D983E492E08CD77D
S1131C70F3C5803349F4F80185818A3029F4E1D829
S1131C8089E492E081D7E8C588E392E07DD7E4C592
S1131C90F8018481813341F485818A3081F477D9D4
S1131CA08FE492E071D7D8C5803349F4F801858177
S1131CB08A3029F4C6D885E592E066D7CDC588E395
S1131CC092E062D7C9C5F8018481813341F48581EA
S1131CD08A3081F48BE592E057D75FD9BDC5803354
S1131CE049F4F80185818A3029F4ABD881E692E081
S1131CF04BD7B2C588E392E047D7AEC5F8018481DB
S1131D00813341F485818A3081F487E692E03CD7BF
S1131D1052D9A2C5803349F4F80185818A3029F467
S1131D2090D88DE692E030D797C588E392E02CD71F
S1131D3093C5AE014C5F5F4F66E0C801049601DCB9
S1131D40811104C088E392E01FD786C58C819D81F0
S1131D50AE81BF81AC01BD014951510961097109CD
S1131D60483A544D6140710540F0892B8A2B8B2BE6
S1131D7021F083E792E008D76FC58EE792E0F3D6AF
S1131D806C817D818E819F8141E03ADD83E892E020
S1131D90FBD64C815D816E817F814093DC0350933F
S1131DA0DD036093DE037093DF0389E490E00E9417
S1131DB0A11852C5AE014C5F5F4F66E0C80104969E
S1131DC0C0DB811104C088E392E0DED645C58C8176
S1131DD09D81AE81BF81AC01BD01495151096109A9
S1131DE07109483A544D6140710540F0892B8A2BA2
S1131DF08B2B21F083E792E0C7D62EC587E892E0CB
S1131E00B2D66C817D818E819F8141E0F9DC83E8CB
S1131E1092E0BAD64C815D816E817F814093BC048F
S1131E205093BD046093BE047093BF0483E490E0B8
S1131E300E94A11811C5AE014E5F5F4F66E0C80154
S1131E4004960ADB811104C088E392E09DD604C5A0
S1131E508A819B810197883E934020F083E792E03A
S1131E6093D6FAC48CE892E07ED661E08A819B81A5
S1131E7061DC8CE193E088D66A817B817093E10315
S1131E806093E00389E390E00E94A618E5C4AE01E4
S1131E904E5F5F4F66E0C8010496DEDA811104C02C
S1131EA088E392E071D6D8C48A819B810197883EE9
S1131EB0934020F083E792E067D6CEC481E992E0B4
S1131EC052D641E061E08A819B8104DD83E892E09F
S1131ED05BD66A817B817093DA036093D9038BE3C9
S1131EE090E00E94A618B8C4BE016F5F7F4FC8017E
S1131EF00496C7DB811104C088E392E045D6ACC4E4
S1131F0086E992E030D68981B1DD8DE193E03CD65B
S1131F1069816093CD0488E390E00E9493189CC487
S1131F20F80101900020E9F7CF010E97801791077F
S1131F3021F088E392E028D68FC46FEC74E0CE01E0
S1131F4008960E94FF1788E0F8013496AFECB4E0DD
S1131F5001900D928A95E1F748E050E060E370E06B
S1131F608FEC94E00E948A18BE01685F7F4F8FEC6B
S1131F7094E00E94F4068BE992E0F5D58FEC94E0AE
S1131F80F2D58DE193E000D667C480EA92E0FCD5F7
S1131F9063C40F2EF0EDFF2EF02DF20EF7E0FF15C7
S1131FA008F4F3C2F8012481283409F48DC138F40B
S1131FB0213409F48DC1223409F4EFC1E2C22D3475
S1131FC009F4C2C0243509F4C9C12C3409F0D9C2BA
S1131FD08D34F3E49F0709F469C089342EE4920731
S1131FE029F08834934409F0ABC018C0F801858106
S1131FF08A3021F088E392E0C7D52EC40F2DFF0C60
S1132000110BC8010E94B1018CEA92E0ACD561E0E9
S1132010C80190DB8CE293E0B7D51EC4AE014E5FDD
S11320205F4F64E0C801069617DA811104C088E3A3
S113203092E0AAD511C48A819B818D3D954020F000
S113204083E792E0A1D508C480EB92E08CD50F2DF4
S1132050FF0C110B61E0C8016DDB84EB92E083D5CA
S113206061E08A819B8166DB87EB92E08DD5C801B4
S113207001976A817B81FC01EE0FFF1FEA59FB4F38
S1132080208131812617370709F4E6C3880F991F89
S11320907F0171836083805E9F4F0E94A618B80100
S11320A0F701808191810E948301D6C3AE014E5F06
S11320B05F4F63E0C8010696CFD9811104C088E35D
S11320C092E062D5C9C38A819B81C297893C9105FC
S11320D020F083E792E058D5BFC38BEB92E043D561
S11320E00F2DFF0C110B61E0C80124DB84EB92E09F
S11320F03AD541E061E08A819B81ECDB87EB92E099
S113210043D5C80101976A817B81FC01EE0FFF1F53
S1132110E753FC4F208131812617370709F49CC30C
S1132120880F991F7F0171836083805F9F4F0E9496
S1132130A618B801F701808191810E949A018CC38D
S113214080EA92E021D588C38D34F3E49F0709F433
S113215042C08D3426E5920709F478C0883493444C
S113216009F0AEC0AE014E5F5F4F64E0C801069651
S113217073D9811104C088E392E006D56DC38A81C6
S11321809B818938934120F083E792E0FDD464C3B6
S11321908FEB92E0E8D461E08A819B81CBDA87EB14
S11321A092E0F2D46A817B818091790490917A04DF
S11321B08617970709F450C370937A0460937904DF
S11321C08DE490E0C3D76F2D8091790490917A04C7
S11321D00E94CA0041C3AE014E5F5F4F63E0C80175
S11321E006963AD9811104C088E392E0CDD434C371
S11321F08A819B81C297893C910520F083E792E014
S1132200C3D42AC38BEC92E0AED441E061E08A816E
S11322109B8160DB87EB92E0B7D46A817B818091FC
S11322206404909165048617970709F415C37093A5
S113223065046093640487E490E088D76F2D8091EF
S11322406404909165040E94EE0006C3AE014E5FE3
S11322505F4F64E0C8010696FFD8811104C088E38B
S113226092E092D4F9C28A819B81845691098D3679
S1132270974020F083E792E087D4EEC287ED92E0A6
S113228072D442E061E08A819B8124DB83EE92E098
S11322907BD46A817B818091C7039091C8038617A0
S11322A0970709F4D9C27093C8036093C70381E404
S11322B090E04CD76F2D8A819B810E941201CCC281
S11322C080EA92E061D4C8C286EE92E05DD4C4C2D2
S11322D087359F4409F0C0C2AE014E5F5F4F64E092
S11322E0C8010696B9D8811104C088E392E04CD4A1
S11322F0B3C28A819B818131974220F083E792E0C7
S113230043D4AAC281E093E02ED461E08A819B8108
S113231011DA8AE093E038D46A817B817093770480
S1132320609376048FE390E011D76A817B8180917A
S11323307604909177048617970709F48DC27093F9
S11323407704609376048FE390E000D76F2D80913B
S11323507604909177040E9443017EC283359445AC
S113236009F07AC2F80185818A3021F088E392E08D
S11323700BD472C28EE093E0F6D30F2DFF0C110B39
S113238061E0C801D7D98DE193E0FED3C8010E9472
S1132390D302C8010E945D045FC28235F4E49F0742
S11323A009F4BEC048F4823532E4930731F1823532
S11323B0934409F484C050C28235FCE49F0709F4B5
S11323C04DC089349E4409F047C2F80185818A30A2
S11323D021F088E392E0D8D33FC20F2DFF0C110BFC
S11323E0C8010E940D028CEA92E0BDD361E0C801ED
S11323F0A1D980E293E0C8D32FC2F801868181334A
S113240099F487818A3031F50F2DFF0C110BC80127
S11324100E945A028EE193E0A6D361E0C8018AD9F2
S113242082E293E0B1D318C28033A1F4F80187812A
S11324308A3081F40F2DFF0C110BC8010E94C202D7
S11324408EE193E090D361E0C80174D986E293E011
S11324509BD302C288E392E097D3FEC1F801868140
S1132460813399F487818A3031F50F2DFF0C110BDC
S1132470C8010E9474028AE293E075D361E0C80146
S113248059D982E293E080D3E7C18033A1F4F80103
S113249087818A3081F40F2DFF0C110BC8010E9433
S11324A0C2028AE293E05FD361E0C80143D986E2C5
S11324B093E06AD3D1C188E392E066D3CDC1F80139
S11324C08681813399F487818A3031F50F2DFF0C91
S11324D0110BC8010E948E028EE293E044D361E0A6
S11324E0C80128D982E293E04FD3B6C18033A1F466
S11324F0F80187818A3081F40F2DFF0C110BC8017C
S11325000E94C2028EE293E02ED361E0C80112D988
S113251086E293E039D3A0C188E392E035D39CC12D
S1132520F8018681813399F487818A3031F50F2D42
S1132530FF0C110BC8010E94A80282E393E013D39D
S113254061E0C801F7D882E293E01ED385C18033ED
S1132550A1F4F80187818A3081F40F2DFF0C110B4F
S1132560C8010E94C20282E393E0FDD261E0C80187
S1132570E1D886E293E008D36FC188E392E004D304
S11325806BC180EA92E000D367C180EA92E0FCD29A
S113259063C1273409F05DC1F80123812A3009F0B1
S11325A000C18834F0E59F0709F444C0C8F48E34B0
S11325B034E4930709F45CC050F48035F1E49F07D8
S11325C009F4B3C08934944409F4A8C0E6C084353E
S11325D034E4930709F459C085349E44F9F0DDC00E
S11325E08334F4E59F0709F468C048F48D3430E57A
S11325F0930789F18035924509F455C0CEC08D34D6
S1132600F6E59F0709F474C0863427E5920709F4B8
S11326107EC08834964509F0C0C059C086E393E073
S1132620A2D28091C10461E090E084D88DE193E06E
S1132630ABD212C18BE393E096D26091DC0370912C
S1132640DD038091DE039091DF0341E0D9D883E874
S113265092E09AD201C180E493E085D261E0809156
S1132660BC049091BD0466D883E892E08DD2F4C096
S113267085E493E078D261E08091E0039091E103F6
S113268059D88DE193E080D2E7C08AE493E06BD21D
S113269041E061E08091D9039091DA031BD983E88A
S11326A092E072D2D9C08FE493E05DD28091CD04E0
S11326B0DDD98DE193E068D2CFC084E593E053D2B5
S11326C08FEC94E050D28DE193E05ED2C5C089E5F1
S11326D093E049D26091C3037091C4038091C50310
S11326E09091C60341E08CD88AE093E04DD2B4C007
S11326F08EE593E038D26091C7037091C80380E0FF
S113270090E041E07DD88AE093E03ED2A5C083E624
S113271093E029D287E693E037D29EC08DE793E019
S113272022D281E893E030D297C08BE993E01BD2A8
S11327308091C10461E090E00E949A0B83EA93E0E7
S113274012D261E08091790490917A040E949A0BEC
S113275083EA93E008D241E061E0809164049091BF
S11327606504B8D883EA93E0FED16091DC037091EC
S1132770DD038091DE039091DF0341E041D883EAD9
S113278093E0F1D161E08091BC049091BD040E947A
S11327909A0B8DE193E0F8D15FC080EA92E0F4D126
S11327A05BC00F2EF0EDFF2EF02DF20EE7E0EF15DB
S11327B008F44BC0F80124812C3409F042C0883459
S11327C0F3E49F0721F08D349344E1F036C085EAA9
S11327D093E0C9D10F2DFF0C110B61E0C8010E94D9
S11327E09A0B84EB92E0BFD1F801EE0FFF1FEC5976
S11327F0FB4F61E0808191810E949A0B87EB92E00C
S1132800C3D12AC089EA93E0AED10F2DFF0C110B7E
S113281061E0C8010E949A0B84EB92E0A4D1F80114
S1132820EE0FFF1FE953FC4F41E061E0808191818D
S113283051D887EB92E0A8D10FC080EA92E0A4D1EE
S11328400BC080EA92E0A0D107C080EA92E09CD15C
S113285003C080EA92E098D12F960FB6F894DEBFB9
S11328600FBECDBFDF91CF911F910F91FF90EF90DD
S11328700895F5D08093E104882339F083EE93E042
S11328809093E0048093DF042BC908951F920F9264
S11328900FB60F9211240BB60F928F939F93EF9361
S11328A0FF938091B503882329F08091C60080931B
S11328B0CB0435C08091B70381112DC0E091B803DA
S11328C0F0E08091C600EE59FA4F8083E091B8039E
S11328D0F0E0EE59FA4F80818A3029F48091B603F2
S11328E08F5F8093B6038091B8038F5F8093B803A2
S11328F08091B803803811F41092B8039091B80312
S11329008091B903981303C081E08093B70385E0F5
S11329108093CB0404C08091C6008093CB04FF91C4
S1132920EF919F918F910F900BBE0F900FBE0F9060
S11329301F9018951F920F920FB60F9211240BB689
S11329400F928F939F93EF93FF93809100028111D5
S11329501DC08091B4038F5F8093B4038091B4034E
S1132960803811F41092B4039091B4038091B303AE
S1132970981304C081E08093000208C0E091B4037E
S1132980F0E0EE51FB4F80818093C60085E0809398
S1132990CB04FF91EF919F918F910F900BBE0F90FD
S11329A00FBE0F901F9018958F929F92AF92BF9277
S11329B0CF92DF92EF92FF92699AE1ECF0E02081EE
S11329C02861208320812068208320812064208343
S11329D0E2ECF0E02081266020836C01E12CF12CF4
S11329E0A0E2B3E0A7019601F5D24B015C0124E219
S11329F0920E24EFA21EB11CA0E4B6E0A70196013A
S1132A00E9D29B01AC01C501B401A5D22150310921
S1132A103093C5002093C400FF90EF90DF90CF90D7
S1132A20BF90AF909F908F90089580E492E0BCCFC8
S1132A300895E1ECF0E080818F778083A6ECB0E02C
S1132A402C911092B9031092B8038C911092B70391
S1132A501092B603908190689083820F0895CF936B
S1132A60C091B603CC2309F440C080E0A1ECB0E0EF
S1132A70282F30E0E091B903F0E0EE59FA4F90814D
S1132A80F901ED51FC4F90839C919F779C93909119
S1132A90B9039F5F9093B9039091B903903811F4EF
S1132AA01092B9031092B7039C9190689C93F9011A
S1132AB0ED51FC4F90819A3091F4E1ECF0E090817B
S1132AC09F7790839091B60391509093B603908131
S1132AD090689083F901ED51FC4F11820CC0911163
S1132AE08F5F88232CF680E006C08091B70388238B
S1132AF011F09FDF8C2FCF910895382F2091B303CD
S1132B009091B403291304C080910002882351F1E9
S1132B10E091B303F0E0EE51FB4F3083E1ECF0E0E1
S1132B2080818F7B80838091B3038F5F8093B30315
S1132B308091B303803811F41092B30380910002A2
S1132B40882351F0E091B403F0E0EE51FB4F808113
S1132B508093C60010920002E1ECF0E08081806472
S1132B60808381E00895CF93DF93EC0188818823EB
S1132B7041F08881C2DF8823E1F3219688818111A5
S1132B80F8CFDF91CF910895CF93DF93EC01888143
S1132B90882341F08881B1DF8823E1F3219688817D
S1132BA08111F8CF8AE0A9DF8823E1F3DF91CF9187
S1132BB008951092D5001092D400289A2398229A4E
S1132BC0219A84E58CBD8CB580688CBD8CB58068F9
S1132BD08CBD8CB583608CBD089590930302809363
S1132BE002026093BC034093BB0320930102089547
S1132BF09091BB03992319F08823A9F002C0811195
S1132C0012C0E0910202F0910302208181E090E081
S1132C100090BC0302C0880F991F0A94E2F78095C4
S1132C20822380830895E0910202F09103022081BF
S1132C3081E090E00090BC0302C0880F991F0A94C1
S1132C40E2F7822B80830895813408F080E4ACE7B6
S1132C50B4E020E015C0E091C203F0E0EE5DF94F6E
S1132C6090819D932F5F9091C2039F5F9093C203C5
S1132C709091C203903411F41092C2031092C003D5
S1132C803091C2039091C103391304C09091C003E1
S1132C90992319F02813DFCF0895822F0895809186
S1132CA0C003811106C08091C1039091C203891BA6
S1132CB0089580E408958091BD039091BE03891B1B
S1132CC008958CB58F778CBD2EB51092C2031092E7
S1132CD0C1038EB51092C0039CB590689CBD820F51
S1132CE008951F920F920FB60F9211240BB60F92F4
S1132CF02F933F934F935F936F937F938F939F9300
S1132D00AF93BF93EF93FF938091C003811124C0CD
S1132D10E091C103F0E08EB5EE5DF94F80838091C0
S1132D20C1038F5F8093C1038091C103803411F488
S1132D301092C1039091C1038091C203981303C000
S1132D4081E08093C0039091BA03809101029813AB
S1132D5004C01092BF0301C0B4DF8DEA93E00E9467
S1132D60970BFF91EF91BF91AF919F918F917F91BD
S1132D706F915F914F913F912F910F900BBE0F90E8
S1132D800FBE0F901F9018951F920F920FB60F92BF
S1132D9011240BB60F922F933F934F935F936F932E
S1132DA07F938F939F93AF93BF93EF93FF93809100
S1132DB0BF03882349F18091C003811124C0E091AD
S1132DC0C103F0E08EB5EE5DF94F80838091C103BD
S1132DD08F5F8093C1038091C103803411F41092FA
S1132DE0C1039091C1038091C203981303C081E091
S1132DF08093C0039091BA038091010298130EC08E
S1132E001092BF0307C05DDF9091BA038091010265
S1132E10981304C080E0ECDE1092BA03809104029F
S1132E20811123C08091BE038F5F8093BE03809184
S1132E30BE03803411F41092BE039091BD038091BF
S1132E40BE03981304C081E0809304020EC081E0A5
S1132E50CFDEE091BE03F0E0EE51FA4F80818EBDEB
S1132E608091BA038F5F8093BA03FF91EF91BF9172
S1132E70AF919F918F917F916F915F914F913F910E
S1132E802F910F900BBE0F900FBE0F901F901895AF
S1132E90382F2091BD039091BE03291304C0809163
S1132EA00402882361F1E091BD03F0E0EE51FA4F92
S1132EB030838CB58F778CBD8091BD038F5F8093F9
S1132EC0BD038091BD03803411F41092BD03809141
S1132ED00402882381F081E08BDEE091BE03F0E000
S1132EE0EE51FA4F80818EBD8091BA038F5F80933B
S1132EF0BA03109204028CB580688CBD81E00895F9
S1132F001F93CF93DF93EC01162F662339F088814A
S1132F10BFDF8823E1F321961150C9F7DF91CF91E8
S1132F201F91089521E02093BF03EACF0895AA1BBF
S1132F30BB1B51E107C0AA1FBB1FA617B70710F0A0
S1132F40A61BB70B881F991F5A95A9F780959095D2
S1132F50BC01CD010895A1E21A2EAA1BBB1BFD01E1
S1132F600DC0AA1FBB1FEE1FFF1FA217B307E40764
S1132F70F50720F0A21BB30BE40BF50B661F771FBC
S1132F80881F991F1A9469F760957095809590959C
S1132F909B01AC01BD01CF010895EE0FFF1F881FF7
S1132FA08BBF0790F691E02D1994A29FB001B39FB7
S1132FB0C001A39F700D811D1124911DB29F700D3E
S1132FC0811D1124911D0895F0DFB7FF0895821B20
S1132FD0930B0895EADFA59F900DB49F900DA49FD5
S1132FE0800D911D11240895FB01DC010D9000203A
S1132FF0E9F7119701900D920020E1F70895FB0184
S1133000DC0101900D920020E1F70895BB274A30BE
S113301031F4992322F4BDE2909581959F4F30C0FD
S1133020BB272A3051F4992342F4BDE29095809550
S1133030709561957F4F8F4F9F4F01C0BB27FA0159
S1133040A62F6217710581059105330B30FB66F0DD
S1133050AA27660F771F881F991FAA1FA21710F0AF
S1133060A21B63953850A9F7A05DAA3308F0A95DA7
S1133070A19336F7B111B1931082CA0119C0BB27CD
S1133080FB015527AA27880F991FAA1FA41710F020
S1133090A41B83955051B9F7A05DAA3308F0A95D2C
S11330A0A193009779F7B111B1931192CB0100C0AC
S11330B0DC01FC01672F71917723E1F7329704C09B
S11330C07C916D9370836291AE17BF07C8F3089526
S11330D0DC01CB01FC01F999FECF06C0F2BDE1BDD4
S11330E0F89A319600B40D9241505040B8F70895C3
S11330F0F999FECF92BD81BDF89A992780B50895BC
S1133100A6E1B0E044E050E0E5CFA8E1B0E042E061
S113311050E0E0CFDC01CB0102C02D9105D041503D
S11331205040D8F70895262FF999FECF1FBA92BDC3
S113313081BD20BD0FB6F894FA9AF99A0FBE019694
S11331400895242FF1DF252FEFDF00C0ECDF272FB8
S1093150EBCFF894FFCF61
S1133156010125000130303030303030300030305D
S1133166303030303030007265626F6F74006661E3
S113317663746F72792072657365740053454E3DAE
S1133186310053454E3D3000464F524D4154204583
S11331965252005350533D31005350533D30005367
S11331A653533D31005353533D30005344533D3143
S11331B6005344533D3000534D533D3100534D535A
S11331C63D30004E554D424552204552520053481B
S11331D6503D00206D7300534D503D00534E443D09
S11331E6005354443D005350523D005343543D0054
S11331F6434F4D4D414E44204552520053494E00D3
S1133206534843004C3D00206D4100534D43005349
S11332164843204D4F534645543D00534D43204D9E
S11332264F534645543D00534D56204D4F53464546
S1133236543D0020560046756E6374696F6E206EA9
S11332466F74207265616C697A656420796574218E
S11332560053574F20416D703D00206D5600535367
S11332665420536C6F742D546573743A2000535272
S11332764200423D3100423D300053524C0053520D
S113328643005352440047454E3D004748503D00D5
S1133296474D503D00474E443D004754443D00478A
S11332A650523D004743543D004748563D00474D64
S11332B6563D0046573D005274685445435F6D437E
S11332C65F556E69742056302E302E350049443DC4
S11332D600527468544543205454412D4571756910
S11332E6706D656E742056315F3000504152414D09
S11332F6533D002C0047484300474D43006A610094
S9030000FC
