:100000008FC00000AEC00000ACC00000AAC000005D
:10001000A8C00000A6C00000A4C00000A2C000004C
:10002000A0C000009EC000009CC000009AC000005C
:1000300098C000000C94B80D94C0000092C000005D
:1000400090C000008EC000008CC000008AC000007C
:1000500088C0000086C0000084C0000082C000008C
:100060000C94531D0C94D51A7CC000000C94291BD1
:1000700078C0000076C0000074C0000072C00000AC
:1000800070C000006EC000006CC000006AC00000BC
:1000900068C0000066C0000064C0000062C00000CC
:1000A00060C000005EC000005CC000005AC00000DC
:1000B00058C0000056C0000054C000000C94EF0F60
:1000C0000C941D100C945E100C94770F0C94001D72
:1000D00048C0000046C0000044C0000042C000000C
:1000E00040C00000A2088E08900892089408960864
:1000F00098089A089C089E08F917DC18E418E41878
:10010000E418E018E418F517E418E418E4186A167F
:100110003117E418E418E418E418E418E418BA18DD
:1001200011241FBECFEFD1E2DEBFCDBF00E00CBF78
:1001300013E0A0E0B2E0ECEAFEE300E00BBF02C097
:1001400007900D92AE3EB107D9F726E0AEEEB3E0D0
:1001500001C01D92A13FB207E1F70E941D0D0C9452
:10016000541F4ECF0F931F93CF93DF93D82F8B0144
:10017000C42F8091EE03841307C08091EF03909108
:10018000F0038617970799F00E94EA1C8111FCCFB3
:100190001093F0030093EF03C093EE0323E041E0DC
:1001A0006C2FC8010E947C1C8CB584608CBD8D2F87
:1001B0000E94D71DDF91CF911F910F9108951F933A
:1001C000CF93DF93C62F9C01AFEFBFEF0E94801E3D
:1001D00028E833E140E050E00E943A1ED22F132F6E
:1001E0004C2F62E270E080E0BDDF4C2F62E270E0F5
:1001F000812FB8DF4C2F62E270E08D2FB3DFDF91EB
:10020000CF911F9108951F93CF93DF93C62F9C0129
:10021000AFEFBFEF0E94801E2AEF30E040E050E0D9
:100220000E943A1ED22F132F4C2F62E270E082E020
:1002300099DF4C2F62E270E0812F94DF4C2F62E255
:1002400070E08D2F8FDFDF91CF911F9108951F9365
:10025000CF93DF93C62F9C01ABEABAEA0E94801EBF
:10026000DC01B695A79526EF3FEF49E050E00E94EC
:10027000951E665B794F8944964028E833E140E05B
:1002800050E00E943A1ED22F132F4C2F65E071E0F0
:1002900080E068DF4C2F65E071E0812F63DF4C2F39
:1002A00065E071E08D2F5EDFDF91CF911F910895A2
:1002B000CF93DF930197EC01CC0FDD1FCE01805E61
:1002C0009F4F0E94301FFE01E452FB4F91838083B9
:1002D000CE01805F9F4F0E94301FCF5CDA4F998321
:1002E0008883DF91CF9108950895CF93CFEFC60F04
:1002F0009C01AFEFBFEF0E94801E20E137E240E09B
:1003000050E00E943A1EDA01C90120E04C2F62E25F
:1003100070E00E94D409CF9108950F931F93CF935B
:10032000DF938C01E2E0F1E02081EC01219781E094
:1003300090E00C2E02C0880F991F0A94E2F7982FC4
:10034000909529232083E8E0F1E020819223908397
:1003500092B1982B92B9E5E0F1E09081982B9083CF
:100360009BB1982B9BB998B1982B98B9E1E0F1E03B
:100370009081982B9083E7E0F1E09081982B908317
:1003800091B1982B91B9E4E0F1E09081982B9083A2
:100390009AB1982B9AB997B1892B87B92FEF200F73
:1003A00042E250E061E080E0D4D7CC0FDD1FCF5CAB
:1003B000DA4FB8018881998198DFDF91CF911F9141
:1003C0000F910895CF93DF930197EC01CC0FDD1FC0
:1003D000CE01805E9F4F0E94301FFE01E953FB4F0C
:1003E00091838083CE01805F9F4F0E94301FCB5F3F
:1003F000DB4F99838883DF91CF91089582339105F4
:1004000071F084369105A1F04997D1F42FEF260FB2
:1004100045E051E064E08AE00C94450A08952FEF2E
:10042000260F45E051E065E08AE00C94450A089506
:100430002FEF260F45E051E066E08AE00C94450A74
:100440000895CF93CFEFC60F9C01AFEFBFEF0E948F
:10045000801E20E137E240E050E00E943A1EDA01BF
:10046000C90120E04C2F62E270E09ED7CF91089541
:100470000F931F93CF93DF93E2E0F1E020818C0193
:100480000150110941E050E0002E02C0440F551FF9
:100490000A94E2F7942F909529232083E8E0F1E075
:1004A00020819223908392B1942B92B9E5E0F1E000
:1004B0009081942B90839BB1942B9BB998B1942BF2
:1004C00098B9E1E0F1E09081942B9083E7E0F1E0CE
:1004D0009081942B908391B1942B91B9E4E0F1E059
:1004E0009081942B90839AB1942B9AB997B1492B10
:1004F00047B9CFEFC80F2C2F42E250E061E081E016
:1005000028D72C2F45E051E068EF80E0BED72C2F94
:1005100045E051E064E08AE0B8D7E801CC0FDD1F88
:10052000FE01E953FB4FB8018081918167DFCB5F0A
:10053000DB4FB8018881998184DFDF91CF911F91D2
:100540000F9108956FEF680F8BE290E052D79C01F6
:10055000A0E1B7E20C94801ECF93DF93DFEFD80FBA
:100560004D2F65E071E089E0B2D7C82FC3702D2F01
:1005700045E051E06C2F8AE088D76C2F64602D2F06
:1005800045E051E08AE081D7DF91CF910895EF9265
:10059000FF920F931F93CF93DF931F921F92CDB7BC
:1005A000DEB7FC01228130E0322F22278181282B07
:1005B000038100531A821982273587E4380749F1ED
:1005C00028F42235364409F4CAC0E3C029348EE445
:1005D000380729F027353F4409F472C0DAC0858115
:1005E0008A3029F08EE092E00E94C311D6C0002E1E
:1005F000000C110BC8013CDF89E192E00E94C011A0
:1006000061E0C8010E94C61182E492E00E94C31119
:10061000C4C0AE014F5F5F4F64E0CF0106960E94F9
:100620008D10811105C08EE092E00E94C311B5C00B
:1006300089819A818436910551F08233910539F090
:10064000499729F08DE192E00E94C311A6C088E28B
:1006500092E00E94C011002E000C110B61E0C80155
:100660000E94C6118CE292E00E94C01161E0898173
:100670009A810E94C6118FE292E00E94C311C801C4
:10068000019769817A81FC01EE0FFF1FE953FB4F4F
:10069000208131812617370709F47FC0880F991F01
:1006A000FC01E953FB4F7F0171836083805E9F4FA4
:1006B0000E94511FB801F701808191819FDE6DC0BA
:1006C000AE014F5F5F4F64E0CF0106960E948D1030
:1006D000811105C08EE092E00E94C3115EC0898145
:1006E0009A818131974228F08DE192E00E94C311F6
:1006F00054C089E392E00E94C011002E000C110B3F
:1007000061E0C8010E94C6118CE292E00E94C01113
:1007100043E061E089819A810E9496128DE392E024
:100720000E94C311C801019769817A81FC01EE0F13
:10073000FF1FEB5FFB4F208131812617370769F1DF
:10074000880F991F7F0171836083805F9F4F0E9494
:10075000511FB801F7018081918173DE1EC0858130
:100760008A3029F08EE092E00E94C31116C0002E5C
:10077000000C110BC801F0DE80E492E00E94C01171
:1007800061E0C8010E94C61182E492E00E94C31198
:1007900004C084E492E00E94C3110F900F90DF9197
:1007A000CF911F910F91FF90EF900895CF93DF931A
:1007B000FC01D381C0EDCD0F228130E0322F222702
:1007C0008181282B273587E4380779F028F42635EE
:1007D000364409F461C079C0233589E4380709F447
:1007E0003FC027353F44F1F070C080E592E00E94A1
:1007F000C0110C2E000CDD0B61E0CE010E94C61171
:100800008CE292E00E94C011CC0FDD1FCB53DB4F76
:1008100061E0888199810E94C6118FE292E00E9476
:10082000C31157C084E592E00E94C0110C2E000C49
:10083000DD0B61E0CE010E94C6118CE292E00E94C5
:10084000C011CC0FDD1FCD5FDB4F43E061E088813D
:1008500099810E9496128DE392E00E94C31139C0E3
:1008600088E592E00E94C01161E08C2FCC0F990BBB
:100870000E94C6118CE292E00E94C0114FEC4D0F15
:1008800065E071E089E023D690E00E94621383E77F
:1008900093E00E94C3111DC08CE592E00E94C0113C
:1008A0000C2E000CDD0B61E0CE010E94C6118CE223
:1008B00092E00E94C011CE0145DE61E00E94C611A7
:1008C00080E692E00E94C31104C084E492E00E949A
:1008D000C311DF91CF910895CF93DF930197EC017E
:1008E000CC0FDD1FCE01805E9F4F0E94301FFE01A6
:1008F000EB54FB4F91838083CE01805F9F4F0E941A
:10090000301FC95EDB4F99838883DF91CF910895B3
:10091000CF93CFEFC60F9C01AFEFBFEF0E94801EB9
:100920002CED35E040E050E00E943A1EDA01C901AA
:1009300020E04C2F62E270E037D5CF910895CF933D
:10094000CFEFC60F9C01AFEFBFEF0E94801E2AEFD2
:1009500030E040E050E00E943A1EDA01C90122E096
:100960004C2F62E270E020D5CF9108950F931F9332
:10097000CF93DF938C01E2E0F1E02081EC0121973D
:1009800081E090E00C2E02C0880F991F0A94E2F7D4
:10099000982F909529232083E8E0F1E0208192238D
:1009A000908392B1982B92B9E5E0F1E09081982B79
:1009B00090839BB1982B9BB998B1982B98B9E1E0A3
:1009C000F1E09081982B9083E7E0F1E09081982B03
:1009D000908391B1982B91B9E4E0F1E09081982B4C
:1009E00090839AB1982B9AB997B1892B87B92FEF39
:1009F000200F42E250E065E080E0ABD4CC0FDD1F79
:100A0000FE01EB54FB4FB8018081918181DFC95E0B
:100A1000DB4FB8018881998192DFDF91CF911F91DF
:100A20000F910895CF93DF930197EC01CC0FDD1F59
:100A3000CE01805E9F4F0E94301FCA5ADA4F9983C1
:100A40008883DF91CF910895CF93CFEFC80F2C2FDC
:100A500048E250E060E08AE018D52FEF81EE94E0A4
:100A6000215080409040E1F700C000002C2F48E268
:100A700050E064E28AE009D5CF910895CF93CFEF9B
:100A8000C80F2C2F48E250E060E08AE0FED42FEF40
:100A900081EE94E0215080409040E1F700C00000DA
:100AA0002C2F48E250E06AE08AE0EFD4CF9108951D
:100AB000CF93CFEFC80F2C2F48E250E060E08AE0E0
:100AC000E4D42FEF81EE94E0215080409040E1F794
:100AD00000C000002C2F48E250E061E18AE0D5D44C
:100AE000CF910895CF93CFEFC80F2C2F48E250E05D
:100AF00060E08AE0CAD42FEF81EE94E0215080407C
:100B00009040E1F700C000002C2F48E250E064E183
:100B10008AE0BBD4CF9108952FEF280F48E250E030
:100B200060E08AE0B2D42FEF81EE94E02150804063
:100B30009040E1F700C000000895CF93CFEFC60FBB
:100B40002FEF3FEFDC010E948F1E20E43CE940E0E4
:100B500050E00E945C1EDA01C90120E04C2F62E2E5
:100B600070E022D4CF9108950F931F93CF93E2E0CA
:100B7000F1E020818C010150110941E050E0002E8C
:100B800002C0440F551F0A94E2F7942F9095292331
:100B90002083E8E0F1E020819223908392B1942BAE
:100BA00092B9E5E0F1E09081942B90839BB1942B76
:100BB0009BB998B1942B98B9E1E0F1E09081942B26
:100BC0009083E7E0F1E09081942B908391B1942B96
:100BD00091B9E4E0F1E09081942B90839AB1942B49
:100BE0009AB997B1492B47B9CFEFC80F2C2F42E2E2
:100BF00050E061E083E0ADD32C2F48E250E060E0AC
:100C000080E043D42C2F48E250E060E08AE03DD4FD
:100C1000F801EE0FFF1FEA5AFA4FB8018081918167
:100C20008CDFCF911F910F9108956FEF680F85E0D2
:100C300091E0DFD39C01A0E4BCE90C94801E6FEF2F
:100C4000680F8BE290E0D5D39C01A0EDB7E00C9447
:100C5000801EEF92FF920F931F93CF93DF931F920B
:100C60001F92CDB7DEB7FC01228130E0322F222760
:100C70008181282B038100531A821982223584E452
:100C8000380709F4CEC048F4223582E4380769F108
:100C90002235334409F491C049C122358CE4380728
:100CA00009F457C029348EE4380729F02635374433
:100CB00009F03CC1EAC085818A3029F08EE092E0DB
:100CC0000E94C31137C1002E000C110BC8014CDF6C
:100CD00089E192E00E94C01161E0C8010E94C61142
:100CE00086E692E00E94C31125C186818133A9F472
:100CF00087818A3049F5002E000C110BC801A4DE53
:100D000084E692E00E94C01161E0C8010E94C61111
:100D100088E692E00E94C3110DC18033A9F4878157
:100D20008A3091F4002E000C110BC801F5DE84E628
:100D300092E00E94C01161E0C8010E94C6118CE6D9
:100D400092E00E94C311F6C08EE092E00E94C311AF
:100D5000F1C086818133A9F487818A3049F5002E5C
:100D6000000C110BC8018ADE80E792E00E94C011DE
:100D700061E0C8010E94C61188E692E00E94C3119A
:100D8000D9C08033A9F487818A3091F4002E000CF9
:100D9000110BC801C1DE80E792E00E94C01161E042
:100DA000C8010E94C6118CE692E00E94C311C2C025
:100DB0008EE092E00E94C311BDC086818133A9F408
:100DC00087818A3049F5002E000C110BC80170DEB6
:100DD00084E792E00E94C01161E0C8010E94C61140
:100DE00088E692E00E94C311A5C08033A9F48781F0
:100DF0008A3091F4002E000C110BC8018DDE84E7BF
:100E000092E00E94C01161E0C8010E94C6118CE608
:100E100092E00E94C3118EC08EE092E00E94C31146
:100E200089C086818133A9F487818A3049F5002EF3
:100E3000000C110BC80156DE88E792E00E94C01139
:100E400061E0C8010E94C61188E692E00E94C311C9
:100E500071C08033A9F487818A3091F4002E000C90
:100E6000110BC80159DE88E792E00E94C01161E0D1
:100E7000C8010E94C6118CE692E00E94C3115AC0BC
:100E80008EE092E00E94C31155C0AE014F5F5F4FEC
:100E900065E0CF0106960E948D10811105C08EE09D
:100EA00092E00E94C31146C089819A81805E914B75
:100EB00081349C4928F08DE192E00E94C3113AC030
:100EC0008CE792E00E94C011002E000C110B61E033
:100ED000C8010E94C61180E892E00E94C01143E060
:100EE00061E089819A810E9496128DE392E00E94CE
:100EF000C311C801019769817A81FC01EE0FFF1FC0
:100F0000EA5AFA4F208131812617370799F0880F66
:100F1000991F7F0171836083805E9F4F0E94511FE4
:100F2000B801F7018081918108DE04C084E492E079
:100F30000E94C3110F900F90DF91CF911F910F91DD
:100F4000FF90EF900895CF93DF93FC01C381C053CE
:100F5000228130E0322F22278181282B263584E41C
:100F6000380731F1263587E4380729F02334344433
:100F700009F050C036C083E892E00E94C0110C2EE8
:100F8000000CDD0B61E0CE010E94C61180E892E00A
:100F90000E94C011CC0FDD1FCC5ADA4F61E088816E
:100FA00099810E94C6118DE392E00E94C31136C060
:100FB00087E892E00E94C0110C2E000CDD0B61E06E
:100FC000CE010E94C61180E892E00E94C011CE01BD
:100FD0002CDE61E00E94C61180E692E00E94C311FF
:100FE0001DC08BE892E00E94C0110C2E000CDD0B9E
:100FF00061E0CE010E94C61180E892E00E94C0111B
:10100000CE011DDE61E00E94C6118FE892E00E94D1
:10101000C31104C084E492E00E94C311DF91CF9118
:101020000895CF93DF93E2E0F1E02081BC016150AD
:10103000710941E050E002C0440F551F6A95E2F784
:10104000C42FC095922F9C239083E8E0F1E090811B
:101050009C23908392B19C2392B9E5E0F1E09081CA
:101060009C2390839BB19C239BB998B19C2398B9F6
:10107000E1E0F1E09081942B9083E7E0F1E0908152
:10108000942B908391B1942B91B9E4E0F1E090819D
:10109000942B90839AB1942B9AB997B1942B97B9CA
:1010A00098B1492B48B9EFE9FFE03197F1F700C05B
:1010B0000000DFEFD80F2D2F48E250E060E080E025
:1010C000E4D12D2F48E250E06FEF8AE0DED188B105
:1010D000C823C8B9DF91CF9108950F931F93CF9381
:1010E0009C0188B1A9014150510901E010E002C002
:1010F000000F111F4A95E2F7802B88B98FE99FE016
:101100000197F1F700C000002A303105C8F4F90159
:101110008827EE58FF4F8F4F0C94781E6FEC13C04A
:1011200065E211C065E80FC069EC0DC061E90BC054
:1011300061E109C067EC07C061E005C061E803C078
:101140006FEF01C063E0CFEFC20F2C2F48E250E0F9
:101150008AE09BD18FE99FE00197F1F700C0000082
:101160002C2F48E250E060E080E08FD18FE99FE0D3
:101170000197F1F700C0000088B10095082308B975
:10118000CF911F910F910895CF93DF9328B1AC01B8
:1011900041505109C1E0D0E002C0CC0FDD1F4A959B
:1011A000E2F79C2F922B98B9EFE9FFE03197F1F726
:1011B00000C000004FEF480F68E270E08AE087D17E
:1011C000813881F158F4833099F118F4813039F184
:1011D0002CC08131F1F0853281F027C0873CE1F0ED
:1011E00028F4853869F0813989F01FC0893C59F0AD
:1011F0008F3CD9F421E030E01DC022E030E01AC07D
:1012000023E030E017C024E030E014C025E030E0F7
:1012100011C026E030E00EC027E030E00BC028E02F
:1012200030E008C029E030E005C02FEF3FEF02C0FA
:1012300020E030E08FE99FE00197F1F700C0000067
:1012400098B1C095C923C8B9C901DF91CF9108955C
:10125000E2E0F1E02081AC014150510981E090E0F1
:1012600002C0880F991F4A95E2F7282B20832FEFA1
:1012700039E648E1215030404040E1F700C000002D
:10128000A8952081982F909529232083E8E0F1E00C
:101290002081282B20832FEF39E648E12150304070
:1012A0004040E1F700C00000A89522B1282B22B9E8
:1012B0002081292320832FEF39E648E12150304057
:1012C0004040E1F700C00000A895E5E0F1E0208192
:1012D000282B208322B1292322B92FEF39E648E1B8
:1012E000215030404040E1F700C00000A8952BB1EC
:1012F000282B2BB92081292320832FEF39E648E1C1
:10130000215030404040E1F700C00000A89528B1CE
:10131000822B88B98BB189238BB98FEF29E638E10D
:10132000815020403040E1F700C00000A89588B10E
:10133000982398B90895CF93DF93EC01CEDECE01C8
:1013400023DFC817D90711F4CE0182DFDF91CF91D7
:101350000895FF920F931F93CF93DF93D82FC62F3B
:101360008A01F22E0E94EA1C8111FCCF23E041E0A9
:101370006F2DC8010E947C1C8CE00E94D71D80E06C
:101380000E94D71D8D2F0E94D71D80E10E94D71D7E
:1013900080E00E94D71D8C2F0E94D71DDF91CF9136
:1013A0001F910F91FF900895EF92FF920F931F935B
:1013B000CF93DF93C82FD92F7B01042F122F0E94C8
:1013C000EA1C8111FCCF23E041E0602FC7010E949D
:1013D0007C1C812F0E94D71D8D2F0E94D71D8C2F22
:1013E0000E94D71DDF91CF911F910F91FF90EF9039
:1013F0000895FF920F931F93CF93DF931F921F9235
:10140000CDB7DEB78C01F62E0E94EA1C8111FCCF0D
:1014100022E041E06F2DC8010E947C1CF801208170
:1014200081E090E002C0880F991FFA94E2F7982FAC
:10143000909592239083FAE0FA95F1F700C0F801B5
:101440009081892B8083FAE1FA95F1F700C0198227
:101450001A8262E0CE0101960E94211E0E94DE1CCB
:101460008230E0F382E00E94B31CECEEF4E0808175
:1014700090E0982F88272181822B0F900F90DF9189
:10148000CF911F910F91FF900895FF920F931F939B
:10149000CF93DF93D82FC62F8A01F22E0E94EA1C29
:1014A0008111FCCF23E041E06F2DC8010E947C1C1C
:1014B00080E40E94D71D8D2F0E94D71D8C2F0E9483
:1014C000D71DDF91CF911F910F91FF900895EF925B
:1014D000FF920F931F93CF93DF9300D0CDB7DEB76A
:1014E000182F7B01042F0E94EA1C8111FCCF23E0FE
:1014F00041E0602FC7010E947C1C81E489831A832C
:101500001B8263E0CE0101960E94211E0E94DE1C18
:101510008330E0F383E00E94B31C8091EE040F90CF
:101520000F900F90DF91CF911F910F91FF90EF904F
:101530000895CF93DF931F921F92CDB7DEB722E0BD
:1015400041E066E08BE290E00E947C1C5A988AE1C0
:101550008A95F1F700C05A9A8AE18A95F1F700C09E
:1015600019821A8262E0CE0101960E94211E0E9419
:10157000DE1C8230E0F382E00E94B31CECEEF4E06B
:10158000A081B0E0BA2FAA278181A82B2CE63BE6E8
:101590000E948F1EBC01882799270F900F90DF9122
:1015A000CF910895CF93DF931F921F92CDB7DEB7EF
:1015B00022E041E066E08BE290E00E947C1C5A98B9
:1015C0008AE18A95F1F700C05A9A8AE18A95F1F783
:1015D00000C019821A8262E0CE0101960E94211E8B
:1015E0000F900F90DF91CF91089582E00E94B31C7D
:1015F000ECEEF4E0A081B0E0BA2FAA278181A82BFD
:101600002CE63BE60E948F1EBC018827992708958F
:10161000AF92BF92DF92EF92FF920F931F93CF93FF
:10162000DF93A398A298A098A1989B9A9A9A999AC6
:10163000989A20E030E002E011E0EE24E394F12CEF
:1016400068E071E045E051E0C1E0D1E0A7E0B1E041
:101650006894AA24A2F8BB24B394F801D080C701EF
:10166000022E02C0880F991F0A94E2F7982F9095D6
:10167000D922D082FB01D0809D21908392B1982BFA
:1016800092B9FA019081982B90839881982B988336
:101690009C91982B9C9391B1982B91B9F5019081D5
:1016A000892B80832F5F3F4F27303105B1F6749A25
:1016B000719A6C9A699A72986A9A2E98269A2798C3
:1016C000DF91CF911F910F91FF90EF90DF90BF902E
:1016D000AF90089586E08093420539C080912A0436
:1016E0008A3090F010922A04809149058F5F8A30E9
:1016F00019F08093490508C0109249058091420570
:10170000815080934205A89580914205863009F466
:10171000A39A80914205853011F4A398A29A8091F2
:101720004205843011F4A39AA29A80914205833035
:1017300019F4A398A298A09A80914205823011F4DE
:10174000A098A19A80914205813009F4A1988091D6
:1017500042058111C3CF0895CF93DF93CDB7DEB794
:1017600028970FB6F894DEBF0FBECDBF65E070E0DE
:101770008FE490E00E94511F62E370E08DE490E0FE
:101780000E94511F62E370E087E490E00E94511FC5
:1017900060EE7EE28DE390E00E94511F68EB7BE0FB
:1017A0008FE390E00E94511F49E150E060E070E05B
:1017B00089E490E00E944C1F49E150E060E070E055
:1017C00083E490E00E944C1F6AE070E08BE390E0BD
:1017D0000E94511F64E670E089E390E00E94511F6F
:1017E00060E088E390E00E943E1F88E0E5E0F2E0E0
:1017F000DE01119601900D928A95E1F748E050E0E4
:10180000BE016F5F7F4F80E390E00E94351F2896F6
:101810000FB6F894DEBF0FBECDBFDF91CF91089514
:101820000F931F93CF93DF9389E490E00E942B1FC7
:1018300060932B0470932C0480932D0490932E04BA
:1018400083E490E00E942B1F60932C0570932D057C
:1018500080932E0590932F058BE390E00E94301F1C
:10186000909328048093270489E390E00E94301F1E
:101870009093300480932F0488E390E00E94231F0C
:1018800080934B0548E050E060E370E08EE495E023
:101890000E94131F0EE415E0C1E0D0E0F801819131
:1018A0008F018234A1F018F4813431F012C08634F3
:1018B00051F08C3429F00DC0CE010E94580109C0AE
:1018C000CE010AD806C0CE010E94E20102C0CE01BC
:1018D000A9D82196C930D10509F78DE490E00E947E
:1018E000301F9093D9048093D80487E490E00E943D
:1018F000301F9093B4048093B3048DE390E00E9472
:10190000301F90934805809347058FE390E00E9435
:10191000301F9093C6048093C504DF91CF911F912F
:101920000F910895EF92FF920F931F93CF93DF9340
:101930007C01062F172FC1E0D0E0F70181917F01D4
:10194000F80191918F018917F1F08634C9F028F4DC
:10195000813441F0823471F016C08C3439F0843512
:1019600061F011C0CE010E948D010DC0CE010E9418
:10197000B60409C0CE01F8D806C0CE0152DB03C0C0
:10198000CE010E9438022196C930D105B1F6DF910F
:10199000CF911F910F91FF90EF9008951ED110925B
:1019A000080110920201A1980895CF93DF93CDB75B
:1019B000DEB728970FB6F894DEBF0FBECDBF9EE00E
:1019C00088E10FB6F894A895809360000FBE9093BD
:1019D0006000A895C0D0DDD00CD1E0DF19DE8FE427
:1019E00090E00E94301F059731F0A39AA29AA09A26
:1019F000A19AB2DEA89578948BD312DF109241059C
:101A00008DE790E00E94681C88E0E5E0F2E0DE01EE
:101A1000119601900D928A95E1F7BE016F5F7F4F9D
:101A20008EE495E07FDF56DE28960FB6F894DEBF91
:101A30000FBECDBFDF91CF910895B7DF0E94A81BE5
:101A4000A8950E94C81A80912A048A3040F010920A
:101A50002A04809149058F5F80934905F1CF8091D9
:101A600049058A30D8F010924905809131048F5F82
:101A70008093310480914A05882329F08150809316
:101A80004A05A09A01C0A09880914105882319F0C9
:101A9000A39AA29AD5CFA39AA298D2CF80913104CB
:101AA0008A3070F210923104CBCF97D081E08093CE
:101AB000DA041092290410924C05B9D0A19A8091B1
:101AC0002B0490912C04A0912D04B0912E04892B0D
:101AD0008A2B8B2B21F080914B0580930201809102
:101AE0004B058093080173C00895A19A80914B051E
:101AF00080930801089571D0109229041092DA049D
:101B000081E080934C0588D1A19A80914B05809308
:101B1000020180914B058093080159C008955DD062
:101B200081E0809329041092DA0410924C0541D18F
:101B3000A19A4DC0089532DF80914B058093080132
:101B40002FEF89EF90E0215080409040E1F700C0F6
:101B5000000024CF089583E08093B0008CE0809350
:101B6000B10089EF8093B30082E080937000089504
:101B70001F920F920FB60F9211248F9380912A0417
:101B80008F5F80932A048F910F900FBE0F901F904C
:101B9000189588E18093810082E8809380008FE32C
:101BA00096E0909387008093860080E190E0909388
:101BB0008900809388008FEF9FEF90938B00809334
:101BC0008A0090938D0080938C00259A0895E1E817
:101BD000F0E08081816080830895E1E8F0E0808119
:101BE0008E7F80838FEF9FEF90938500809384009A
:101BF00008958FE18093210180E69AEE909327016A
:101C00008093260182E0809320018FE0809373000F
:101C100081E090E0909329018093280190932B011B
:101C200080932A0190932D0180932C0108958FE5D4
:101C30009AEE909325018093240180E69AEE90938A
:101C400027018093260180912B0490912C04A09170
:101C50002D04B0912E04803727E19207A105B1052C
:101C600050F59C01220F331F880F991F880F991F71
:101C7000880F991F820F931F909329018093280149
:101C800020912B0430912C04C901880F991F220F39
:101C9000331F220F331F220F331F820F931F909386
:101CA0006A058093690510926805C29790932D018B
:101CB00080932C0125C08FEF9FEF90932901809393
:101CC000280160912B0470912C0480912D04909137
:101CD0002E0420E737E140E050E00E943A1EAB01BD
:101CE000440F551F660F771F660F771F660F771F0C
:101CF000640F751F70936A056093690520936805EA
:101D000080912C0590912D05A0912E05B0912F0565
:101D1000803727E19207A105B10528F59C01220F24
:101D2000331F880F991F880F991F880F991F820FE3
:101D3000931F90932B0180932A0180912C05909101
:101D40002D059C01220F331F880F991F880F991FA3
:101D5000880F991F820F931F90936D0580936C05D8
:101D600010926B0508958FEF9FEF90932B01809356
:101D70002A0160912C0570912D0580912E0590917E
:101D80002F0520E737E140E050E00E943A1EAB010A
:101D9000440F551F660F771F660F771F660F771F5B
:101DA000640F751F70936D0560936C0520936B0530
:101DB00008958091270490912804880F991F019716
:101DC0009093270180932601809127049091280405
:101DD00081509048880F991F90932501809324018A
:101DE0008091270490912804019790932901809372
:101DF00028018FEF9FEF90932B0180932A019093FE
:101E00002D0180932C0180912F04909130049093A8
:101E100067058093660508958FE59AEE90932501F6
:101E20008093240180E69AEE909327018093260107
:101E300080912B0490912C04A0912D04B0912E043C
:101E4000803727E19207A105B10528F59C01220FF3
:101E5000331F880F991F880F991F880F991F820FB2
:101E6000931F909329018093280180912B049091D6
:101E70002C049C01220F331F880F991F880F991F74
:101E8000880F991F820F931F90936A0580936905AD
:101E90001092680525C08FEF9FEF909329018093E2
:101EA000280160912B0470912C0480912D04909155
:101EB0002E0420E737E140E050E00E943A1EAB01DB
:101EC000440F551F660F771F660F771F660F771F2A
:101ED000640F751F70936A05609369052093680508
:101EE0008FEF9FEF90932B0180932A0108951F920B
:101EF0000F920FB60F9211240BB60F922F933F93B0
:101F00004F935F936F937F938F939F93AF93BF9301
:101F1000EF93FF93809129048823C1F080914B05B2
:101F20008093020180914B058093080180916605A2
:101F3000909167059C0121503109309367052093EA
:101F40006605892BC9F549DEB0DD36C08091DA041B
:101F50008823F9F08091680581508093680581118C
:101F600008C08091690590916A059093290180933A
:101F7000280180916B05815080936B0581111CC0F5
:101F800080916C0590916D0590932B0180932A01AF
:101F900013C080914C05882379F0809168058150A9
:101FA00080936805811108C08091690590916A0548
:101FB0009093290180932801FF91EF91BF91AF91F8
:101FC0009F918F917F916F915F914F913F912F9151
:101FD0000F900BBE0F900FBE0F901F9018951F9281
:101FE0000F920FB60F9211240BB60F922F933F93BF
:101FF0004F935F936F937F938F939F93AF93BF9311
:10200000EF93FF9380914C05882311F088DD02C087
:1020100010920201FF91EF91BF91AF919F918F912B
:102020007F916F915F914F913F912F910F900BBED8
:102030000F900FBE0F901F9018951F920F920FB622
:102040000F9211240BB60F922F933F934F935F93F0
:102050006F937F938F939F93AF93BF93EF93FF9370
:102060008FB780688FBFB9DDC0DA609301047093C9
:10207000020480930304909304045BDA70931604C3
:1020800060931504109208018FEF9FEF90932B013E
:1020900080932A01A198FF91EF91BF91AF919F91F9
:1020A0008F917F916F915F914F913F912F910F9001
:1020B0000BBE0F900FBE0F901F9018951F920F929E
:1020C0000FB60F9211240BB60F922F933F934F939D
:1020D0005F936F937F938F939F93AF93BF93EF9390
:1020E000FF938FB780688FBF5DDAFF91EF91BF914B
:1020F000AF919F918F917F916F915F914F913F91A0
:102100002F910F900BBE0F900FBE0F901F90189540
:102110000E94A41B109270050895FF920F931F93C5
:10212000CF93DF9300D000D0CDB7DEB78A01DA01BC
:102130001D921C92FC0120812D3221F40196FF2476
:10214000F39401C0F12CFC013196DC019C9180EDEF
:10215000890F89838A3008F046C080E08F5F282F7E
:1021600030E0519190ED950FA1E0B0E0AC0FBD1FB4
:10217000A20FB31F9C939A3088F35A3081F56817E9
:1021800080F1882309F1982F60E070E0F901E91BE4
:10219000F10941E050E04C0F5D1FE40FF51F408155
:1021A000FB01EE0FFF1F660F771F660F771F660F8D
:1021B000771F6E0F7F1F640F711D915039F7D80183
:1021C0006D937C9301C080E0FF2081F0F8012081B5
:1021D00031813195219531093183208307C080E019
:1021E00005C080E003C09A3071F380E026960FB6F8
:1021F000F894DEBF0FBECDBFDF91CF911F910F913D
:10220000FF9008958F929F92AF92BF92CF92DF92EC
:10221000EF92FF920F931F93CF93DF93CDB7DEB76B
:102220002B970FB6F894DEBF0FBECDBF8A01DA013F
:102230001D921D921D921C921397FC0120812D323C
:1022400019F4019641E001C040E0FC013196DC0147
:102250009C9180ED890F89838A3008F05DC080E011
:102260008F5F282F30E0519190ED950FA1E0B0E005
:10227000AC0FBD1FA20FB31F9C939A3088F35A3046
:1022800009F046C0681708F445C0882371F1982FFB
:10229000C12CD12C7601F901E91BF10961E070E054
:1022A0006C0F7D1FE60FF71F5081CC0CDD1CEE1C60
:1022B000FF1C46015701880C991CAA1CBB1C880CEA
:1022C000991CAA1CBB1CC80CD91CEA1CFB1CC50E03
:1022D000D11CE11CF11C9150F1F6D801CD92DD9298
:1022E000ED92FC92139701C080E04423C1F0F80105
:1022F00040815181628173817095609550954195BF
:102300005F4F6F4F7F4F408351836283738307C05A
:1023100080E005C080E003C09A3031F380E02B9666
:102320000FB6F894DEBF0FBECDBFDF91CF911F91E6
:102330000F91FF90EF90DF90CF90BF90AF909F9064
:102340008F900895FC0120E030E080E0A1E0B0E053
:102350009191903351F0913389F4AD01022E02C076
:10236000440F551F0A94E2F7840F2F5F3F4F283028
:10237000310571F7FB01808381E0089580E00895C5
:102380000C94421C08950C94531C0895CF92DF9234
:10239000EF92FF920F931F93CF93DF93CDB7DEB7EA
:1023A0002C970FB6F894DEBF0FBECDBFE62E992353
:1023B00044F42DE230E038872F839195819591097F
:1023C00001C01F824AE0BE016F5F7F4F0E94B11EB5
:1023D000BE016F5F7F4FCE0107960E949F1EBE0118
:1023E000695F7F4FCE0101960E94AA1EE1100FC0C7
:1023F00020C0D886CF82B801CE0107960E949F1ECA
:10240000BE01695F7F4FC8010E94AA1E08C08E01ED
:102410000F5F1F4FF12C6894CC24C5F8D12CF80124
:1024200001900020E9F73197E01BF10BEE15FF0555
:1024300000F3CE0101960E94421C2C960FB6F89430
:10244000DEBF0FBECDBFDF91CF911F910F91FF90E7
:10245000EF90DF90CF900895CF92DF92EF92FF92AE
:102460000F931F93CF93DF93CDB7DEB766970FB669
:10247000F894DEBF0FBECDBFE42E992364F42DE2A5
:1024800030E03D872C8790958095709561957F4FC2
:102490008F4F9F4F01C01C862AE0AE014F5F5F4FF8
:1024A0000E94BB1EBE016F5F7F4FCE010C960E9443
:1024B0009F1EBE01645F7F4FCE0101960E94AA1E3F
:1024C000E1100FC020C0DD86CC86B801CE010C968D
:1024D0000E949F1EBE01645F7F4FC8010E94AA1E1A
:1024E00008C08E010F5F1F4FF12C6894CC24C5F8F3
:1024F000D12CF80101900020E9F73197E01BF10B96
:10250000EE15FF0500F3CE0101960E94421C66966F
:102510000FB6F894DEBF0FBECDBFDF91CF911F91F4
:102520000F91FF90EF90DF90CF9008955F926F92A0
:102530007F928F929F92AF92BF92CF92DF92EF9253
:10254000FF920F931F93CF93DF93CDB7DEB76497BE
:102550000FB6F894DEBF0FBECDBF4C01762EC42E51
:10256000442389F0842F01E010E09801220F331FEB
:10257000000F111F000F111F000F111F020F131F5B
:10258000815099F702C001E010E0C401992024F4C1
:102590008827992788199909582E692EB8010E9411
:1025A000261E4AE0BE016F5F7F4F0E94B11ECE0122
:1025B00001967C01D12C0F2EF0E3AF2EB12CF02D23
:1025C0000DC0BC86AB86B701CE010B960E949F1E44
:1025D000BE01655F7F4FC7010E94AA1EF7010190EF
:1025E0000020E9F73197EE19FF09EC15FD0548F3D6
:1025F0007E019BE0E90EF11C852D962DB8010E940D
:10260000261ECB014AE0B7010E94B11EF7010190DE
:102610000020E9F731978EE290E091838083BE013C
:102620006F5F7F4FC7010E949F1E99202CF48DE29F
:1026300090E09A83898301C01982BE01655F7F4F54
:10264000CE0101960E949F1E71100FC021C0DC8632
:10265000CB86B801CE010B960E949F1EBE01655F1E
:102660007F4FC8010E94AA1E09C08E010F5F1F4F35
:10267000E72CF12C6894CC24C5F8D12CF8010190FA
:102680000020E9F73197E01BF10BEE15FF05F8F29A
:10269000CE0101960E94421C64960FB6F894DEBFEC
:1026A0000FBECDBFDF91CF911F910F91FF90EF90A3
:1026B000DF90CF90BF90AF909F908F907F906F9062
:1026C0005F900895CF93DF93CDB7DEB729970FB60C
:1026D000F894DEBF0FBECDBF99E0E3E9F2E0DE0182
:1026E000119601900D929A95E1F7FE01319627E03F
:1026F00030E090E070E361E3AC01022E02C055953A
:1027000047950A94E2F740FF02C0608301C07083DE
:102710002150310931962F3F4FEF340769F7CE0131
:1027200001960E94421C29960FB6F894DEBF0FBE98
:10273000CDBFDF91CF910895CF93DF93CDB7DEB7B3
:1027400029970FB6F894DEBF0FBECDBF99E0E3E93D
:10275000F2E0DE01119601900D929A95E1F7FE01EB
:10276000319620E030E090E070E361E3AC01022EAE
:1027700002C0559547950A94E2F740FF02C0608376
:1027800001C070832F5F3F4F31962830310571F7BC
:10279000CE0101960E94421C29960FB6F894DEBF26
:1027A0000FBECDBFDF91CF910895DF92EF92FF92E0
:1027B0000F931F93CF93DF93CDB7DEB72F970FB64D
:1027C000F894DEBF0FBECDBF8C01DC0112962C91B8
:1027D000129711968C91119719821B821A821C8272
:1027E0001D821E821F829C91923509F03EC0833566
:1027F00009F0C0C6243509F0BDC613968C918A3005
:1028000089F4109241058CE992E00E94531C98E0F3
:1028100088E10FB6F894A895809360000FBE90935E
:102820006000FFCF803209F0A5C6F80184818133B2
:1028300009F0A0C685818A3009F09CC61092410536
:102840006FEF7FEF8FE490E00E94511F83EA92E0E8
:102850000E94531C98E088E10FB6F894A8958093E5
:1028600060000FBE90936000FFCFE82EF12CF22A9B
:10287000933509F0B1C4D80113968C91803209F0D8
:102880000EC2B0E5EB16B2E5FB0609F4A6C100F5F1
:10289000F5E4EF16FEE4FF06D1F168F43EE4E3163A
:1028A00034E4F30609F440C184E5E81684E4F8064C
:1028B00009F466C1F0C1A8E4EA16A0E5FA0609F435
:1028C000B1C0BDE4EB16B0E5FB0609F4ECC0E3C112
:1028D000E0E5EE16E3E5FE06D1F168F424E4E21645
:1028E00023E5F20609F468C03DE4E31633E5F30698
:1028F00009F47DC0D0C183E5E816F80609F441C0AB
:10290000A3E4EA16A4E5FA0609F490C1C4C1F801EB
:102910008481813359F485818A30A9F481E08093E0
:102920004105729A81EB92E0BED724C6803359F4F8
:1029300085818A3041F41092410530D8729887EB36
:1029400092E0B1D717C68EE092E0ADD713C6F8017A
:102950008481813341F485818A3079F4A6D88DEB66
:1029600092E0A1D707C6803341F485818A3029F4EB
:1029700015D883EC92E097D7FDC58EE092E093D70F
:10298000F9C5F8018481813341F485818A3081F46D
:10299000ACD889EC92E087D7EDC5803349F48581C6
:1029A0008A3031F40E94CE0C8FEC92E07CD7E2C5E5
:1029B0008EE092E078D7DEC5F8018481813341F45E
:1029C00085818A3081F485ED92E06DD794D8D2C5A7
:1029D000803349F485818A3031F40E94CE0C8BED2E
:1029E00092E061D7C7C58EE092E05DD7C3C5F8011C
:1029F0008481813341F485818A3081F481EE92E0D3
:102A000052D799D8B7C5803349F485818A3031F4DB
:102A10000E94CE0C87EE92E046D7ACC58EE092E0E5
:102A200042D7A8C5AE014C5F5F4F66E0C80104966F
:102A3000E9DB811104C08EE092E035D79BC58C8123
:102A40009D81AE81BF81AC01BD0149515109610930
:102A50007109483A544D6140710540F0892B8A2B29
:102A60008B2B21F08DE192E01ED784C58DEE92E094
:102A700009D76C817D818E819F8141E0EDDC82EF01
:102A800092E011D74C815D816E817F8140932B0450
:102A900050932C0460932D0470932E0489E490E0ED
:102AA0000E944C1F67C5AE014C5F5F4F66E0C801D6
:102AB0000496A8DB811104C08EE092E0F4D65AC5DA
:102AC0008C819D81AE81BF81AC01BD01495151090D
:102AD00061097109483A544D6140710540F0892BF4
:102AE0008A2B8B2B21F08DE192E0DDD643C586EF5A
:102AF00092E0C8D66C817D818E819F8141E0ACDC03
:102B000082EF92E0D0D64C815D816E817F814093CF
:102B10002C0550932D0560932E0570932F0583E4AB
:102B200090E00E944C1F26C5AE014E5F5F4F66E0ED
:102B3000C8010496F2DA811104C08EE092E0B3D6A7
:102B400019C58A819B810197883E934020F08DE1D1
:102B500092E0A9D60FC58BEF92E094D661E08A810E
:102B60009B8114DC80E093E09ED66A817B81709328
:102B7000300460932F0489E390E00E94511FFAC44F
:102B8000AE014E5F5F4F66E0C8010496C6DA811160
:102B900004C08EE092E087D6EDC48A819B810197C4
:102BA000883E934020F08DE192E07DD6E3C488E03A
:102BB00093E068D641E061E08A819B81B7DC82EFD7
:102BC00092E071D66A817B81709328046093270418
:102BD0008BE390E00E94511FCDC4F80101900020CA
:102BE000E9F7CF010E978017910721F08EE092E070
:102BF0005AD6C0C4BE016F5F7F4FC8010496A2DBE6
:102C0000811104C08EE092E04ED6B4C48DE093E012
:102C100039D6898191DD83E793E045D66981609358
:102C20004B0588E390E00E943E1FA4C4F801019088
:102C30000020E9F7CF010E978017910721F08EE071
:102C400092E031D697C46EE475E0CE0108960E94FA
:102C5000AA1E88E0F8013496AEE4B5E001900D922A
:102C60008A95E1F748E050E060E370E08EE495E09B
:102C70000E94351FBE01685F7F4F8EE495E00E9481
:102C8000920C82E193E0FED58EE495E0FBD583E7DC
:102C900093E009D66FC484E492E005D66BC40F2E8E
:102CA000F0EDDF2EF02DD80E87E08D1508F490C2E0
:102CB000D8011496EC918E2F90E0FC01E154F109BB
:102CC000E431F10508F080C28827E458FF4F8F4FA8
:102CD0000C94781EBDE4EB16B3E4FB0609F470C057
:102CE000E9E4EE16EEE4FE0639F0F8E4EF16F3E45C
:102CF000FF0609F0B2C019C0D80115968C918A3030
:102D000021F08EE092E0CFD535C40D2DDD0C110BF6
:102D1000C8010E94B60489E192E0B4D561E0C8011F
:102D200035DB82E792E0BFD525C4AE014E5F5F4F31
:102D300064E0C8010696F1D9811104C08EE092E0EA
:102D4000B2D518C48A819B818D3D954020F08DE1DC
:102D500092E0A9D50FC487E193E094D50D2DDD0C49
:102D6000110B61E0C80112DB8BE193E08BD561E0D0
:102D70008A819B810BDB8FE892E095D5C801019792
:102D80006A817B81FC01EE0FFF1FEB54FB4F20811A
:102D900031812617370709F4EDC3880F991FFC010D
:102DA000EB54FB4F7F0171836083805E9F4F0E94D5
:102DB000511FB801D7018D919C910E948804DAC3FC
:102DC000AE014E5F5F4F63E0C8010696A6D9811140
:102DD00004C08EE092E067D5CDC38A819B81C29703
:102DE000893C910520F08DE192E05DD5C3C38EE171
:102DF00093E048D50D2DDD0C110B61E0C801C6DA5A
:102E00008BE193E03FD541E061E08A819B818EDBDD
:102E10008FE892E048D5C80101976A817B81FC0167
:102E2000EE0FFF1FE95EFB4F208131812617370728
:102E300009F4A0C3880F991FFC01E95EFB4F7F01D5
:102E400071836083805F9F4F0E94511FB801D7013B
:102E50008D919C910E949F048DC384E492E023D5C0
:102E600089C3BDE4EB16B3E4FB0609F445C0EDE409
:102E7000EE16E6E5FE0609F47AC0F8E4EF16F3E490
:102E8000FF0609F0AEC0AE014E5F5F4F64E0C801BF
:102E9000069643D9811104C08EE092E004D56AC33E
:102EA0008A819B818938934120F08DE192E0FBD4A7
:102EB00061C382E293E0E6D461E08A819B8166DAB5
:102EC0008FE892E0F0D46A817B818091D804909160
:102ED000D9048617970709F44DC37093D9046093FA
:102EE000D8048DE490E0DDD76D2D8091D8049091C9
:102EF000D9040E94DF003EC3AE014E5F5F4F63E026
:102F0000C80106960AD9811104C08EE092E0CBD4A4
:102F100031C38A819B81C297893C910520F08DE164
:102F200092E0C1D427C38EE293E0ACD441E061E0EB
:102F30008A819B81FBDA8FE892E0B5D46A817B813C
:102F40008091B3049091B4048617970709F412C3D3
:102F50007093B4046093B30487E490E0A2D76D2D1E
:102F60008091B3049091B4040E94030103C3AE01A5
:102F70004E5F5F4F64E0C8010696CFD8811104C050
:102F80008EE092E090D4F6C28A819B8184569109AA
:102F90008D36974020F08DE192E085D4EBC28AE334
:102FA00093E070D442E061E08A819B81BFDA8DE3D7
:102FB00092E079D46A817B81809115049091160406
:102FC0008617970709F4D6C2709316046093150408
:102FD00081E490E066D76D2D8A819B810E94270154
:102FE000C9C284E492E05FD4C5C286E493E05BD4B6
:102FF000C1C289E4E8168EE4F80669F0A7E5EA168E
:10300000AFE4FA0609F46BC0B7E5EB16B7E4FB06CC
:1030100009F0ADC018C0F80185818A3021F08EE03A
:1030200092E041D4A7C20D2DDD0C110BC8010E9406
:103030008D0189E192E026D461E0C801A7D981E938
:1030400092E031D497C2AE014E5F5F4F64E0C80199
:10305000069663D8811104C08EE092E024D48AC21F
:103060008A819B8101978436910520F08DE192E061
:103070001AD480C288E292E005D40D2DDD0C110B2C
:1030800061E0C80183D981E693E0FCD361E082E08E
:1030900090E07CD98FE292E006D4C8010197FC0150
:1030A000EE0FFF1FE452FB4F408151812A813B818B
:1030B0004217530709F45EC2880F991F7F0122E06F
:1030C00030E03183208362E070E0805E9F4FE9D67C
:1030D000B801F701808191810E9474014BC2AE0159
:1030E0004E5F5F4F64E0C801069617D8811104C097
:1030F0008EE092E0D8D33EC28A819B818131974293
:1031000020F08DE192E0CFD335C289E392E0BAD3CB
:103110000D2DDD0C110B61E0C80138D981E693E07B
:10312000B1D343E061E08A819B8100DA8DE392E0D4
:10313000BAD3C80101976A817B81FC01EE0FFF1FA2
:10314000EF5CFA4F208131812617370709F412C24C
:10315000880F991F7F0171836083805F9F4FA1D685
:10316000B801F701808191810E94750103C284E456
:1031700092E099D3F3E5EF16F4E5FF0609F0FAC102
:10318000D80115968C918A3021F08EE092E08BD395
:10319000F1C184E693E076D30D2DDD0C110B61E0D7
:1031A000C801F4D883E793E07ED3C8010E941108D8
:1031B000C8010E949B09DEC1C8010E942906DAC12C
:1031C000C8010E94C702D6C184E492E06CD3D2C188
:1031D00084E492E068D3CEC1973409F0C8C1F80105
:1031E00083818A3009F010C1F8E4EF16F0E5FF069C
:1031F00009F453C000F53EE4E31634E4F30609F4A1
:103200006AC068F4A0E5EA16A1E4FA0609F4C0C0B1
:10321000B9E4EB16B4E4FB0609F4B3C0F1C0E4E58D
:10322000EE16E4E4FE0609F463C0F5E4EF16FEE4EE
:10323000FF0639F1E5C023E4E21624E5F20609F4BD
:103240006FC060F48DE4E81680E5F806B9F1A0E5FA
:10325000EA16A2E5FA0609F459C0D2C0BDE4EB169D
:10326000B6E5FB0609F477C0E6E4EE16E7E5FE06F0
:1032700009F480C0F8E4EF16F6E5FF0609F0C0C0D7
:1032800059C084E793E0FED28091410561E090E06F
:103290007DD883E793E007D36DC189E793E0F2D24D
:1032A00060912B0470912C0480912D0490912E0438
:1032B00041E0D2D882EF92E0F6D25CC18EE793E093
:1032C000E1D261E080912C0590912D055FD882EFCD
:1032D00092E0E9D24FC183E893E0D4D261E08091DB
:1032E0002F049091300452D880E093E0DCD242C1A8
:1032F00088E893E0C7D241E061E080912704909193
:10330000280414D982EF92E0CED234C18DE893E044
:10331000B9D280914B0510DA83E793E0C4D22AC179
:1033200082E993E0AFD28EE495E0ACD283E793E0FC
:10333000BAD220C187E993E0A5D2609101047091CF
:103340000204809103049091040441E085D880E652
:1033500092E0A9D20FC18CE993E094D26091150458
:103360007091160480E090E041E076D880E692E02B
:103370009AD200C181EA93E085D285EA93E093D2A4
:10338000F9C08BEB93E07ED28FEB93E08CD2F2C04E
:1033900089ED93E077D28091410561E090E00E9451
:1033A000C61181EE93E06ED261E08091D8049091D5
:1033B000D9040E94C61181EE93E064D241E061E03D
:1033C0008091B3049091B404B1D881EE93E05AD2C5
:1033D00060912B0470912C0480912D0490912E0407
:1033E00041E03AD881EE93E04DD261E080912C0526
:1033F00090912D050E94C61183E793E054D2BAC084
:1034000084E492E050D2B6C00F2EF0EDDF2EF02D06
:10341000D80E27E02D1508F4A6C08481823409F463
:1034200096C020F4813409F44CC099C0863409F464
:1034300092C08C3409F093C0B8E4EB16B3E4FB06F9
:1034400031F0EDE4EE16E3E4FE06E1F036C083EE83
:1034500093E018D20D2DDD0C110B61E0C8010E9424
:10346000C6118BE193E00ED2F801EE0FFF1FED5471
:10347000FB4F61E0808191810E94C6118FE892E04C
:1034800012D278C087EE93E0FDD10D2DDD0C110B2B
:1034900061E0C8010E94C6118BE193E0F3D1F8010D
:1034A000EE0FFF1FEB5EFB4F41E061E080819181F9
:1034B0003DD88FE892E0F7D15DC084E492E0F3D18B
:1034C00059C0F7E5EF16F7E4FF0631F027E5E216FD
:1034D0002FE4F206E1F037C080E592E0D3D10D2D64
:1034E000DD0C110B61E0C8010E94C61181E693E07A
:1034F000C9D1F801EE0FFF1FE652FB4F61E080815A
:1035000091810E94C6118FE292E0CDD133C084E553
:1035100092E0B8D10D2DDD0C110B61E0C8010E94C5
:10352000C61181E693E0AED1F801EE0FFF1FE15D19
:10353000FA4F43E061E0808191810E9496128DE311
:1035400092E0B1D117C084E492E0ADD113C0C801BC
:103550000E94A3070FC0C8010E94D6030BC084E4D9
:1035600092E0A1D107C084E492E09DD103C084E43D
:1035700092E099D12F960FB6F894DEBF0FBECDBF63
:10358000DF91CF911F910F91FF90EF90DF90089501
:10359000F5D080937005882339F082E394E090930E
:1035A0006F0580936E0501C908951F920F920FB6A3
:1035B0000F9211240BB60F928F939F93EF93FF936B
:1035C0008091F303882329F08091C60080934A05F7
:1035D00035C08091F50381112DC0E091F603F0E034
:1035E0008091C600EF50FA4F8083E091F603F0E03F
:1035F000EF50FA4F80818A3029F48091F4038F5F75
:103600008093F4038091F6038F5F8093F60380919B
:10361000F603803811F41092F6039091F60380912E
:10362000F703981303C081E08093F50385E080934E
:103630004A0504C08091C60080934A05FF91EF912E
:103640009F918F910F900BBE0F900FBE0F901F9008
:1036500018951F920F920FB60F9211240BB60F926E
:103660008F939F93EF93FF938091000281111DC070
:103670008091F2038F5F8093F2038091F203803890
:1036800011F41092F2039091F2038091F1039813D8
:1036900004C081E08093000208C0E091F203F0E0F2
:1036A000EF58FA4F80818093C60085E080934A05E9
:1036B000FF91EF919F918F910F900BBE0F900FBED6
:1036C0000F901F9018958F929F92AF92BF92CF92BA
:1036D000DF92EF92FF92699AE1ECF0E0208128619D
:1036E0002083208120682083208120642083E2ECD5
:1036F000F0E02081266020836C01E12CF12CA0E217
:10370000B3E0A701960111D34B015C0124E2920EB4
:1037100024EFA21EB11CA0E4B6E0A701960105D3D8
:103720009B01AC01C501B401A5D2215031093093F0
:10373000C5002093C400FF90EF90DF90CF90BF9022
:10374000AF909F908F90089580E492E0BCCF089551
:10375000E1ECF0E080818F778083A6ECB0E02C91E3
:103760001092F7031092F6038C911092F5031092C9
:10377000F403908190689083820F0895CF93C09155
:10378000F403CC2309F440C080E0A1ECB0E0282F82
:1037900030E0E091F703F0E0EF50FA4F9081F9014B
:1037A000EE5CFB4F90839C919F779C939091F703E5
:1037B0009F5F9093F7039091F703903811F4109264
:1037C000F7031092F5039C9190689C93F901EE5CCD
:1037D000FB4F90819A3091F4E1ECF0E090819F777B
:1037E00090839091F40391509093F40390819068AA
:1037F0009083F901EE5CFB4F11820CC091118F5F39
:1038000088232CF680E006C08091F503882311F010
:103810009FDF8C2FCF910895382F2091F103909145
:10382000F203291304C080910002882351F1E09132
:10383000F103F0E0EF58FA4F3083E1ECF0E08081E3
:103840008F7B80838091F1038F5F8093F103809160
:10385000F103803811F41092F10380910002882363
:1038600051F0E091F203F0E0EF58FA4F808180933D
:10387000C60010920002E1ECF0E080818064808359
:1038800081E00895CF93DF93EC018881882341F094
:103890008881C2DF8823E1F3219688818111F8CFE6
:1038A000DF91CF910895CF93DF93EC018881882336
:1038B00041F08881B1DF8823E1F32196888181116D
:1038C000F8CF8AE0A9DF8823E1F3DF91CF91089553
:1038D0001092D5001092D400289A2398229A219A07
:1038E00084E58CBD8CB580688CBD8CB580688CBD42
:1038F0008CB583608CBD089590930302809302027F
:103900006093FA034093F903209301020895909184
:10391000F903992319F08823A9F002C0811112C07C
:10392000E0910202F0910302208181E090E000909A
:10393000FA0302C0880F991F0A94E2F78095822348
:1039400080830895E0910202F0910302208181E0DA
:1039500090E00090FA0302C0880F991F0A94E2F7E2
:10396000822B80830895813408F080E4ACEEB4E0CB
:1039700020E015C0E0910004F0E0EF54F94F908191
:103980009D932F5F909100049F5F9093000490910E
:103990000004903411F4109200041092FE03309150
:1039A00000049091FF03391304C09091FE03992302
:1039B00019F02813DFCF0895822F08958091FE0318
:1039C000811106C08091FF0390910004891B089526
:1039D00080E408958091FB039091FC03891B089576
:1039E0008CB58F778CBD2EB5109200041092FF031A
:1039F0008EB51092FE039CB590689CBD820F089511
:103A00001F920F920FB60F9211240BB60F922F93A5
:103A10003F934F935F936F937F938F939F93AF9356
:103A2000BF93EF93FF938091FE03811124C0E09137
:103A3000FF03F0E08EB5EF54F94F80838091FF03D0
:103A40008F5F8093FF038091FF03803411F4109205
:103A5000FF039091FF0380910004981303C081E05D
:103A60008093FE039091F80380910102981304C0A3
:103A70001092FD0301C0B4DF8BEE93E00E94C311EE
:103A8000FF91EF91BF91AF919F918F917F916F9136
:103A90005F914F913F912F910F900BBE0F900FBEF2
:103AA0000F901F9018951F920F920FB60F9211242E
:103AB0000BB60F922F933F934F935F936F937F9328
:103AC0008F939F93AF93BF93EF93FF938091FD03E9
:103AD000882349F18091FE03811124C0E091FF0306
:103AE000F0E08EB5EF54F94F80838091FF038F5F34
:103AF0008093FF038091FF03803411F41092FF0341
:103B00009091FF0380910004981303C081E080939B
:103B1000FE039091F8038091010298130EC0109259
:103B2000FD0307C05DDF9091F803809101029813B7
:103B300004C080E0ECDE1092F80380910402811151
:103B400023C08091FC038F5F8093FC038091FC0372
:103B5000803411F41092FC039091FB038091FC03DC
:103B6000981304C081E0809304020EC081E0CFDE90
:103B7000E091FC03F0E0EF58F94F80818EBD809119
:103B8000F8038F5F8093F803FF91EF91BF91AF919E
:103B90009F918F917F916F915F914F913F912F9165
:103BA0000F900BBE0F900FBE0F901F901895382FDF
:103BB0002091FB039091FC03291304C0809104021F
:103BC000882361F1E091FB03F0E0EF58F94F308377
:103BD0008CB58F778CBD8091FB038F5F8093FB0347
:103BE0008091FB03803411F41092FB038091040256
:103BF000882381F081E08BDEE091FC03F0E0EF5858
:103C0000F94F80818EBD8091F8038F5F8093F80318
:103C1000109204028CB580688CBD81E008951F93DA
:103C2000CF93DF93EC01162F662339F08881BFDF35
:103C30008823E1F321961150C9F7DF91CF911F91AD
:103C4000089521E02093FD03EACF0895AA1BBB1B32
:103C500051E107C0AA1FBB1FA617B70710F0A61B8C
:103C6000B70B881F991F5A95A9F780959095BC01AD
:103C7000CD010895A1E21A2EAA1BBB1BFD010DC0A8
:103C8000AA1FBB1FEE1FFF1FA217B307E407F5070C
:103C900020F0A21BB30BE40BF50B661F771F881FE8
:103CA000991F1A9469F760957095809590959B017E
:103CB000AC01BD01CF010895052E97FB16F40094C9
:103CC0000FD057FD05D0D6DF07FC02D046F408C060
:103CD00050954095309521953F4F4F4F5F4F089538
:103CE00090958095709561957F4F8F4F9F4F089568
:103CF000EE0FFF1F881F8BBF0790F691E02D1994E0
:103D0000A29FB001B39FC001A39F700D811D11241C
:103D1000911DB29F700D811D1124911D0895F0DF3A
:103D2000B7FF0895821B930B0895EADFA59F900DBE
:103D3000B49F900DA49F800D911D11240895FB0147
:103D4000DC010D900020E9F7119701900D92002001
:103D5000E1F70895FB01DC0101900D920020E1F7ED
:103D60000895BB274A3031F4992322F4BDE290959F
:103D700081959F4F30C0BB272A3051F4992342F4DC
:103D8000BDE290958095709561957F4F8F4F9F4FC5
:103D900001C0BB27FA01A62F6217710581059105A5
:103DA000330B30FB66F0AA27660F771F881F991F19
:103DB000AA1FA21710F0A21B63953850A9F7A05DA7
:103DC000AA3308F0A95DA19336F7B111B19310821F
:103DD000CA0119C0BB27FB015527AA27880F991FC5
:103DE000AA1FA41710F0A41B83955051B9F7A05D2A
:103DF000AA3308F0A95DA193009779F7B111B193A7
:103E00001192CB0100C0DC01FC01672F7191772377
:103E1000E1F7329704C07C916D9370836291AE1785
:103E2000BF07C8F30895DC01CB01FC01F999FECF6F
:103E300006C0F2BDE1BDF89A319600B40D92415032
:103E40005040B8F70895F999FECF92BD81BDF89A18
:103E5000992780B50895A6E1B0E044E050E0E5CFB1
:103E6000A8E1B0E042E050E0E0CFDC01CB0102C0CD
:103E70002D9105D041505040D8F70895262FF9993B
:103E8000FECF1FBA92BD81BD20BD0FB6F894FA9A3D
:103E9000F99A0FBE01960895242FF1DF252FEFDF49
:0C3EA00000C0ECDF272FEBCFF894FFCF21
:103EAC000101250001303030303030303000464FC9
:103EBC00524D4154204552520053494E004E554DDF
:103ECC00424552204552520053574700463D002070
:103EDC00572F4F2D556E69740053574F00205600C5
:103EEC0053524600434F4D4D414E442045525200D3
:103EFC004757470047574F0047534900475646001E
:103F0C00206D560053524200423D3100423D30007C
:103F1C0053524C00535243005352440053564700E3
:103F2C00423D004756470047564400474344002053
:103F3C006D41003030303030303030007265626F9F
:103F4C006F7400666163746F727920726573657447
:103F5C000053454E3D310053454E3D3000535053B8
:103F6C003D31005350533D30005353533D310053BA
:103F7C0053533D30005344533D31005344533D3073
:103F8C0000534D533D3100534D533D300053485079
:103F9C003D00206D7300534D503D00534E443D0089
:103FAC002070756C736573005354443D005350522C
:103FBC003D005343543D00534843004C3D00534D8A
:103FCC004300534843204D4F534645543D00534DF9
:103FDC0043204D4F534645543D00534D56204D4FB5
:103FEC00534645543D0046756E6374696F6E206E82
:103FFC006F74207265616C697A65642079657421CF
:10400C0000413D0053535420536C6F742D54657311
:10401C00743A200047454E3D004748503D00474DFF
:10402C00503D00474E443D004754443D00475052DC
:10403C003D004743543D004748563D00474D563DD3
:10404C000046573D005274685445435F6D435F55BD
:10405C006E69742056302E302E350049443D005286
:10406C007468544543205454412D45717569706DE5
:10407C00656E742056315F3000504152414D533DB6
:0E408C00002C0047484300474D43006A610086
:00000001FF
