S01800004D435F5274685445435F56305F305F352E737265630B
S11300008FC00000AEC00000ACC00000AAC0000059
S1130010A8C00000A6C00000A4C00000A2C0000048
S1130020A0C000009EC000009CC000009AC0000058
S113003098C000000C94831194C0000092C000008A
S113004090C000008EC000008CC000008AC0000078
S113005088C0000086C0000084C0000082C0000088
S11300600C945F1F0C94E11C7CC000000C94351DA3
S113007078C0000076C0000074C0000072C00000A8
S113008070C000006EC000006CC000006AC00000B8
S113009068C0000066C0000064C0000062C00000C8
S11300A060C000005EC000005CC000005AC00000D8
S11300B058C0000056C0000054C000000C944F13F8
S11300C00C947D130C94FF130C94D7120C940C1FF6
S11300D048C0000046C0000044C0000042C0000008
S11300E040C00000970C830C850C870C890C8B0C8A
S11300F08D0C8F0C910C930C3F1A281B301B301B5A
S1130100301B2C1B301B3B1A301B301B301B331A8B
S1130110371A301B301B301B301B301B301B071BA6
S113012011241FBECFEFD1E2DEBFCDBF00E00CBF74
S113013014E0A0E0B2E0EEE5F3E400E00BBF02C09F
S113014007900D92A030B107D9F727E0A0E0B4E002
S113015001C01D92A035B207E1F70E94EC100C9487
S1130160AD214ECFCF93DF930197EC01CC0FDD1F70
S1130170CE01805E9F4F0E948921FE01E55EFA4F09
S113018091838083CE01805F9F4F0E948921C05854
S1130190DA4F99838883DF91CF9108950895CF939F
S11301A0CFEFC60F9C01AFEFBFEF0E948C2020E180
S11301B037E240E050E00E944620DA01C90120E025
S11301C04C2F62E270E00E94C90DCF9108950F9305
S11301D01F93CF93DF938C01E2E0F1E02081EC01E7
S11301E0219781E090E00C2E02C0880F991F0A9499
S11301F0E2F7982F909529232083E8E0F1E020810D
S11302009223908392B1982B92B9E5E0F1E090812A
S1130210982B90839BB1982B9BB998B1982B98B944
S1130220E1E0F1E09081982B9083E7E0F1E09081A8
S1130230982B908391B1982B91B9E4E0F1E09081EF
S1130240982B90839AB1982B9AB997B1892B87B937
S11302502FEF200F42E250E061E080E00E949E0D0B
S1130260CC0FDD1FC058DA4FB8018881998197DF20
S1130270DF91CF911F910F910895CF93DF93019751
S1130280EC01CC0FDD1FCE01805E9F4F0E948921BF
S1130290FE01EA50FB4F91838083CE01805F9F4F24
S11302A00E948921CC5EDB4F99838883DF91CF91B3
S11302B008958233910571F084369105A1F0499730
S11302C0D1F42FEF260F45E051E064E08AE00C946E
S11302D06D0E08952FEF260F45E051E065E08AE0AA
S11302E00C946D0E08952FEF260F45E051E066E063
S11302F08AE00C946D0E0895CF93CFEFC60F9C0146
S1130300AFEFBFEF0E948C2020E137E240E050E0E5
S11303100E944620DA01C90120E04C2F62E270E01D
S11303200E94C90DCF9108950F931F93CF93DF932C
S1130330E2E0F1E020818C010150110941E050E03C
S1130340002E02C0440F551F0A94E2F7942F909593
S113035029232083E8E0F1E020819223908392B165
S1130360942B92B9E5E0F1E09081942B90839BB1BA
S1130370942B9BB998B1942B98B9E1E0F1E090816A
S1130380942B9083E7E0F1E09081942B908391B1DA
S1130390942B91B9E4E0F1E09081942B90839AB18D
S11303A0942B9AB997B1492B47B9CFEFC80F2C2F8B
S11303B042E250E061E081E00E949E0D2C2F45E076
S11303C051E068EF80E00E946D0E2C2F45E051E073
S11303D064E08AE00E946D0EE801CC0FDD1FFE018F
S11303E0EA50FB4FB8018081918163DFCC5EDB4F23
S11303F0B8018881998180DFDF91CF911F910F919E
S113040008956FEF680F8BE290E00E94EE0D9C015F
S1130410A0E1B7E20C948C200895CF93DF93DFEF33
S1130420D80F4D2F65E071E089E00E948F0EC82F30
S1130430C3702D2F45E051E06C2F8AE00E946D0EB1
S11304406C2F64602D2F45E051E08AE00E946D0E10
S1130450DF91CF910895EF92FF920F931F93CF9363
S1130460DF931F921F92CDB7DEB7FC01228130E0EB
S1130470322F22278181282B038100531A8219826B
S1130480273587E4380749F128F42235364409F43E
S1130490CAC0E3C029348EE4380729F027353F4425
S11304A009F472C0DAC085818A3029F08EE092E0C6
S11304B00E949715D6C0002E000C110BC80134DF22
S11304C089E192E00E94941561E0C8010E949A15A6
S11304D082E492E00E949715C4C0AE014F5F5F4F63
S11304E064E0CF0106960E946114811105C08EE07C
S11304F092E00E949715B5C089819A81843691054E
S113050051F08233910539F0499729F08DE192E059
S11305100E949715A6C088E292E00E949415002ECE
S1130520000C110B61E0C8010E949A158CE292E064
S11305300E94941561E089819A810E949A158FE244
S113054092E00E949715C801019769817A81FC01A4
S1130550EE0FFF1FEA50FB4F20813181261737072A
S113056009F47FC0880F991FFC01EA50FB4F7F01FB
S113057071836083805E9F4F0E94AA21B801F701B6
S11305808081918196DE6DC0AE014F5F5F4F64E064
S1130590CF0106960E946114811105C08EE092E09D
S11305A00E9497155EC089819A818131974228F013
S11305B08DE192E00E94971554C089E392E00E9475
S11305C09415002E000C110B61E0C8010E949A15CD
S11305D08CE292E00E94941543E061E089819A8163
S11305E00E9469168DE392E00E949715C801019755
S11305F069817A81FC01EE0FFF1FEC5EFB4F2081C5
S113060031812617370769F1880F991F7F0171839C
S11306106083805F9F4F0E94AA21B801F701808107
S113062091816ADE1EC085818A3029F08EE092E0D5
S11306300E94971516C0002E000C110BC801EDDEA8
S113064080E492E00E94941561E0C8010E949A152A
S113065082E492E00E94971504C084E492E00E9430
S113066097150F900F90DF91CF911F910F91FF90ED
S1130670EF900895CF93DF93FC01D381C0EDCD0FAC
S1130680228130E0322F22278181282B273587E4ED
S1130690380779F028F42635364409F462C07AC064
S11306A0233589E4380709F43FC027353F44F1F086
S11306B071C080E592E00E9494150C2E000CDD0BB5
S11306C061E0CE010E949A158CE292E00E9494159A
S11306D0CC0FDD1FCC50DB4F61E0888199810E94F3
S11306E09A158FE292E00E94971558C084E592E033
S11306F00E9494150C2E000CDD0B61E0CE010E94CB
S11307009A158CE292E00E949415CC0FDD1FCE5E08
S1130710DB4F43E061E0888199810E9469168DE393
S113072092E00E9497153AC088E592E00E949415E1
S113073061E08C2FCC0F990B0E949A158CE292E009
S11307400E9494154FEC4D0F65E071E089E00E9422
S11307508F0E90E00E9434178AE893E00E94971568
S11307601DC08CE592E00E9494150C2E000CDD0B4C
S113077061E0CE010E949A158CE292E00E949415E9
S1130780CE013FDE61E00E949A1580E692E00E946D
S1130790971504C084E492E00E949715DF91CF91ED
S11307A00895CF93DF930197EC01CC0FDD1FCE01A9
S11307B0805E9F4F0E948921FE01EC51FB4F918383
S11307C08083CE01805F9F4F0E948921CA5DDB4FE9
S11307D099838883DF91CF9108951F93CF93DF93FB
S11307E01F921F92CDB7DEB7162F9C01AFEFBFEF5C
S11307F00E948C202CED35E040E050E00E94462021
S11308003A83298389819A814FEF410F20E062E284
S113081070E00E94C90D0F900F90DF91CF911F914E
S11308200895CF93CFEFC60F9C01AFEFBFEF0E94A7
S11308308C202AEF30E040E050E00E944620DA01AC
S1130840C90122E04C2F62E270E00E94C90DCF91F1
S113085008950F931F93CF93DF938C01E2E0F1E0AF
S11308602081EC01219781E090E00C2E02C0880FDA
S1130870991F0A94E2F7982F909529232083E8E0A2
S1130880F1E020819223908392B1982B92B9E5E014
S1130890F1E09081982B90839BB1982B9BB998B1F0
S11308A0982B98B9E1E0F1E09081982B9083E7E0F0
S11308B0F1E09081982B908391B1982B91B9E4E069
S11308C0F1E09081982B90839AB1982B9AB997B1C3
S11308D0892B87B92FEF200F42E250E065E080E0DA
S11308E00E949E0DCC0FDD1FFE01EC51FB4FB801A1
S11308F08081918172DFCA5DDB4FB8018881998163
S113090090DFDF91CF911F910F910895EF92FF92A5
S11309100F931F93CF93DF931F921F92CDB7DEB730
S1130920FC01228130E0322F22278181282B038190
S113093000531A8219822D3483E4380709F472C0F3
S113094029348EE4380729F02834334409F0BAC036
S11309501AC085818A3029F08EE092E00E949715B2
S1130960B5C0002E000C110BC80173DF89E192E0C1
S11309700E94941561E0C8010E949A1589E892E0EA
S11309800E949715A3C0AE014F5F5F4F64E0CF0193
S113099006960E946114811105C08EE092E00E94C7
S11309A0971594C089819A818D3D954028F08DE1F9
S11309B092E00E9497158AC084E692E00E94941502
S11309C0002E000C110B61E0C8010E949A1588E604
S11309D092E00E94941561E089819A810E949A159F
S11309E08BE692E00E949715C801019769817A818C
S11309F0FC01EE0FFF1FEC51FB4F208131812617C4
S1130A00370709F463C0880F991F7F0171836083DE
S1130A10805E9F4F0E94AA21B801F70180819181D5
S1130A20DCDE54C0AE014F5F5F4F63E0CF0106963A
S1130A300E946114811105C08EE092E00E94971516
S1130A4045C089819A81C297893C910528F08DE13E
S1130A5092E00E9497153AC08FE692E00E949415A6
S1130A60002E000C110B61E0C8010E949A1588E663
S1130A7092E00E94941541E061E089819A810E948C
S1130A8069168BE692E00E949715C8010197698167
S1130A907A81FC01EE0FFF1FEA5DFB4F208131815B
S1130AA02617370799F0880F991F7F017183608398
S1130AB0805F9F4F0E94AA21B801F7018081918134
S1130AC0B0DE04C084E492E00E9497150F900F906A
S1130AD0DF91CF911F910F91FF90EF900895CF93E5
S1130AE0DF93FC01C381C053228130E0322F2227DF
S1130AF08181282B283483E4380721F02D343344B2
S1130B00F1F03BC083E792E00E9494150C2E000C98
S1130B10DD0B61E0CE010E949A1588E692E00E9406
S1130B209415CC0FDD1FCE51DB4F61E08881998194
S1130B300E949A158BE692E00E94971522C087E7DF
S1130B4092E00E9494150C2E000CDD0B61E0CE01A6
S1130B500E949A1588E692E00E949415CC0FDD1F3E
S1130B60CC5DDB4F41E061E0888199810E94691688
S1130B708BE692E00E94971504C084E492E00E9400
S1130B809715DF91CF910895CF93DF930197EC01EF
S1130B90CC0FDD1FCE01805E9F4F0E948921CB5474
S1130BA0DA4F99838883DF91CF910895CF93CFEF64
S1130BB0C80F2C2F48E250E060E08AE00E946D0EDE
S1130BC02FEF81EE94E0215080409040E1F700C087
S1130BD000002C2F48E250E064E28AE00E946D0E8F
S1130BE0CF910895CF93CFEFC80F2C2F48E250E058
S1130BF060E08AE00E946D0E2FEF81EE94E02150B8
S1130C0080409040E1F700C000002C2F48E250E003
S1130C106AE08AE00E946D0ECF910895CF93CFEFE2
S1130C20C80F2C2F48E250E060E08AE00E946D0E6D
S1130C302FEF81EE94E0215080409040E1F700C016
S1130C4000002C2F48E250E061E18AE00E946D0E22
S1130C50CF910895CF93CFEFC80F2C2F48E250E0E7
S1130C6060E08AE00E946D0E2FEF81EE94E0215047
S1130C7080409040E1F700C000002C2F48E250E093
S1130C8064E18AE00E946D0ECF9108952FEF280F42
S1130C9048E250E060E08AE00E946D0E2FEF81EEA2
S1130CA094E0215080409040E1F700C00000089596
S1130CB0CF93CFEFC60F2FEF3FEFDC010E949B20B5
S1130CC020E43CE940E050E00E946820DA01C901D8
S1130CD020E04C2F62E270E05CD7CF9108950F932F
S1130CE01F93CF93E2E0F1E020818C0101501109C0
S1130CF041E050E0002E02C0440F551F0A94E2F771
S1130D00942F909529232083E8E0F1E02081922319
S1130D10908392B1942B92B9E5E0F1E09081942B09
S1130D2090839BB1942B9BB998B1942B98B9E1E033
S1130D30F1E09081942B9083E7E0F1E09081942B93
S1130D40908391B1942B91B9E4E0F1E09081942BDC
S1130D5090839AB1942B9AB997B1492B47B9CFEFA5
S1130D60C80F2C2F42E250E061E083E0E7D62C2F3D
S1130D7048E250E060E080E0B0D72C2F48E250E039
S1130D8060E08AE0AAD7F801EE0FFF1FEB54FA4F98
S1130D90B801808191818CDFCF911F910F910895CB
S1130DA06FEF680F85E091E019D79C01A0E4BCE9DE
S1130DB00C948C206FEF680F8BE290E00FD79C01AE
S1130DC0A0EDB7E00C948C20EF92FF920F931F9349
S1130DD0CF93DF931F921F92CDB7DEB7FC01228120
S1130DE030E0322F22278181282B038100531A827D
S1130DF01982223584E4380709F4CEC048F4223538
S1130E0082E4380769F12235334409F491C049C1B9
S1130E1022358CE4380709F457C029348EE43807A6
S1130E2029F02635374409F03CC1EAC085818A306F
S1130E3029F08EE092E00E94971537C1002E000C35
S1130E40110BC8014CDF89E192E00E94941561E026
S1130E50C8010E949A158DE792E00E94971525C15A
S1130E6086818133A9F487818A3049F5002E000CEC
S1130E70110BC8019BDE8BE792E00E94941561E0A0
S1130E80C8010E949A158FE792E00E9497150DC140
S1130E908033A9F487818A3091F4002E000C110B61
S1130EA0C801F4DE8BE792E00E94941561E0C8016A
S1130EB00E949A1583E892E00E949715F6C08EE08E
S1130EC092E00E949715F1C086818133A9F487814D
S1130ED08A3049F5002E000C110BC80183DE87E827
S1130EE092E00E94941561E0C8010E949A158FE770
S1130EF092E00E949715D9C08033A9F487818A3083
S1130F0091F4002E000C110BC801C0DE87E892E0BA
S1130F100E94941561E0C8010E949A1583E892E04A
S1130F200E949715C2C08EE092E00E949715BDC042
S1130F3086818133A9F487818A3049F5002E000C1B
S1130F40110BC8016BDE8BE892E00E94941561E0FE
S1130F50C8010E949A158FE792E00E949715A5C0D8
S1130F608033A9F487818A3091F4002E000C110B90
S1130F70C8018CDE8BE892E00E94941561E0C80100
S1130F800E949A1583E892E00E9497158EC08EE025
S1130F9092E00E94971589C086818133A9F48781E4
S1130FA08A3049F5002E000C110BC80153DE8FE87E
S1130FB092E00E94941561E0C8010E949A158FE79F
S1130FC092E00E94971571C08033A9F487818A301A
S1130FD091F4002E000C110BC80158DE8FE892E04A
S1130FE00E94941561E0C8010E949A1583E892E07A
S1130FF00E9497155AC08EE092E00E94971555C042
S1131000AE014F5F5F4F65E0CF0106960E94611409
S1131010811105C08EE092E00E94971546C0898137
S11310209A81805E914B81349C4928F08DE192E055
S11310300E9497153AC083E992E00E949415002E0D
S1131040000C110B61E0C8010E949A1587E992E037
S11310500E94941543E061E089819A810E94691697
S11310608DE392E00E949715C801019769817A8106
S1131070FC01EE0FFF1FEB54FA4F2081318126173C
S1131080370799F0880F991F7F0171836083805E11
S11310909F4F0E94AA21B801F7018081918108DE47
S11310A004C084E492E00E9497150F900F90DF91A2
S11310B0CF911F910F91FF90EF900895CF93DF93FD
S11310C0FC01C381C053228130E0322F2227818169
S11310D0282B263584E4380731F1263587E4380790
S11310E029F02334344409F050C036C08AE992E030
S11310F00E9494150C2E000CDD0B61E0CE010E94C1
S11311009A1587E992E00E949415CC0FDD1FCD5407
S1131110DA4F61E0888199810E949A158DE392E00B
S11311200E94971536C08EE992E00E9494150C2E09
S1131130000CDD0B61E0CE010E949A1587E992E074
S11311400E949415CE012CDE61E00E949A1580E67F
S113115092E00E9497151DC082EA92E00E949415C5
S11311600C2E000CDD0B61E0CE010E949A1587E97C
S113117092E00E949415CE011DDE61E00E949A1552
S11311808BE692E00E94971504C084E492E00E94EA
S11311909715DF91CF910895CF93DF930197EC01D9
S11311A0CC0FDD1FCE01805E9F4F0E948921FE017E
S11311B0EA5FFA4F91838083CE01805F9F4F0E9444
S11311C08921FE01E85CFB4F91838083CE0180502E
S11311D090400E948921C55DDA4F99838883DF910D
S11311E0CF910895CF93CFEFC60F9C01AFEFBFEF20
S11311F00E948C2028E833E140E050E00E94462021
S1131200DA01C90120E04C2F62E270E0C2D4CF9130
S11312100895CF93CFEFC60F9C01AFEFBFEF0E94AD
S11312208C202AEF30E040E050E00E944620DA01B2
S1131230C90122E04C2F62E270E0ABD4CF91089553
S11312408F929F92AF92BF92CF92DF92EF92FF92D2
S11312500F931F93CF93DF931F921F92CDB7DEB7E7
S1131260162FA0E0B0E0880F991FAA1FBB1FAC0186
S1131270BD01440F551F661F771F440F551F661F7E
S1131280771F6C017D01C40ED51EE61EF71EC70133
S1131290B6012BEA3AEA4AEA5AEA0E94AB2000E293
S11312A00E94D420822E932EA42EB52EA501940143
S11312B05695479537952795AFEFBFEF0E94A1202C
S11312C0665B794F8944964028E833E140E050E07A
S11312D00E9446203A83298389819A814FEF410FE6
S11312E020E065E071E055D40F900F90DF91CF912D
S11312F01F910F91FF90EF90DF90CF90BF90AF9030
S11313009F908F900895FF920F931F93CF93DF9335
S11313108C01E2E0F1E02081EC01219781E090E092
S11313200C2E02C0880F991F0A94E2F7982F90950B
S113133029232083E8E0F1E020819223908392B175
S1131340982B92B9E5E0F1E09081982B90839BB1C2
S1131350982B9BB998B1982B98B9E1E0F1E0908172
S1131360982B9083E7E0F1E09081982B908391B1E2
S1131370982B91B9E4E0F1E09081982B90839AB195
S1131380982B9AB997B1892B87B9FF24FA94F00E58
S11313902F2D42E250E065E080E0D0D32F2D45E0D0
S11313A051E065E080E0CAD3CC0FDD1FFE01EA5FA7
S11313B0FA4FB8018081918115DFFE01E85CFB4F93
S11313C0B8018081918125DFC55DDA4FB80188813C
S11313D0998136DFDF91CF911F910F91FF9008958E
S11313E0880F991FFC01E656FA4F20813181ACE643
S11313F0BBE60E948C202FEF3FEF40E050E00E94BC
S11314004620C9010895880F991FFC01EE52FB4F35
S113141020813181ACE6BBE60E948C202FEF3FEFA8
S113142040E050E00E944620C90108956FEF680F24
S11314308BE290E01FC408956FEF680F8BE290E099
S113144019C408956FEF680F8BE290E013C40895F8
S1131450EF92FF920F931F93CF93DF931F921F92EC
S1131460CDB7DEB7FC01228130E0322F2227818103
S1131470282B038100531A8219822D3483E4380700
S113148009F46FC020F42834334421F1FCC029341A
S11314908EE4380729F02D34364509F4ABC0F3C087
S11314A085818A3029F08EE092E00E949715EFC082
S11314B0002E000C110BC80126DF89E192E00E9486
S11314C0941561E0C8010E949A1583ED92E00E9490
S11314D09715DDC0AE014F5F5F4F64E0CF01069604
S11314E00E946114811105C08EE092E00E9497155C
S11314F0CEC089819A818938934128F08DE192E0A8
S11315000E949715C4C086EA92E00E94941561E097
S113151089819A810E949A158BE692E00E94971520
S1131520002E000C110BC801019769817A81FC011E
S1131530EE0FFF1FEA5FFA4F20813181261737072C
S113154009F4A5C0880F991F7F0171836083805EB1
S11315509F4F0E94AA21B801F7018081918142DE48
S113156096C0AE014F5F5F4F63E0CF0106960E94C5
S11315706114811105C08EE092E00E94971587C026
S113158089819A81C297893C910528F08DE192E086
S11315900E9497157CC082EB92E00E94941541E072
S11315A061E089819A810E9469168BE692E00E942B
S11315B09715002E000C110BC801019769817A81DF
S11315C0FC01EE0FFF1FE85CFB4F208131812617E1
S11315D0370709F45CC0880F991F7F01718360830A
S11315E0805F9F4F0E94AA21B801F70180819181F9
S11315F010DE4DC0AE014F5F5F4F64E0CF01069631
S11316000E946114811105C08EE092E00E9497153A
S11316103EC089819A81845691098D36974028F07D
S11316208DE192E00E94971532C08EEB92E00E9409
S1131630941542E061E089819A810E9469168DE3E4
S113164092E00E949715002E000C110BC80101971F
S113165069817A81FC01EE0FFF1FE55DFA4F20815D
S113166031812617370799F0880F991F7F017183FD
S11316706083805090400E94AA21B801F7018081C4
S11316809181DEDD04C084E492E00E9497150F90FE
S11316900F90DF91CF911F910F91FF90EF900895DC
S11316A0CF93DF93FC01C381C053228130E0322FFA
S11316B022278181282B28348DE4380709F46BC054
S11316C040F4283483E4380769F02D34334439F185
S11316D096C02D348DE4380709F477C02D3436458F
S11316E0E1F18DC083E792E00E9494150C2E000C6A
S11316F0DD0B61E0CE010E949A158AEC92E00E9413
S11317009415CC0FDD1FCC5FDA4F61E0888199819D
S11317100E949A158BE692E00E94971574C087E7A1
S113172092E00E9494150C2E000CDD0B61E0CE01BA
S11317300E949A158AEC92E00E949415CC0FDD1F4A
S1131740CA5CDB4F41E061E0888199810E9469169F
S11317508BE692E00E94971556C08DEC92E00E94B1
S113176094150C2E000CDD0B61E0CE010E949A153D
S11317708AEC92E00E949415CC0FDD1FC75DDA4F0E
S113178042E062E0888199810E9469168DE392E0CB
S11317900E94971538C081ED92E00E9494150C2E9A
S11317A0000CDD0B61E0CE010E949A158AEC92E0F8
S11317B00E949415CE0114DE43E063E00E94691692
S11317C08DE392E00E9497151EC085ED92E00E9481
S11317D094150C2E000CDD0B61E0CE010E949A15CD
S11317E08AEC92E00E949415CE010DDE43E063E0A2
S11317F00E9469168DE392E00E94971504C084E468
S113180092E00E949715DF91CF910895CF93DF93D3
S1131810E2E0F1E02081BC016150710941E050E057
S113182002C0440F551F6A95E2F7C42FC095922F4A
S11318309C239083E8E0F1E090819C23908392B113
S11318409C2392B9E5E0F1E090819C2390839BB1C5
S11318509C239BB998B19C2398B9E1E0F1E0908175
S1131860942B9083E7E0F1E09081942B908391B1E5
S1131870942B91B9E4E0F1E09081942B90839AB198
S1131880942B9AB997B1942B97B998B1492B48B92D
S1131890EFE9FFE03197F1F700C00000DFEFD80F68
S11318A02D2F48E250E060E080E017D22D2F48E26F
S11318B050E06FEF8AE011D288B1C823C8B9DF9134
S11318C0CF9108950F931F93CF939C0188B1A901E1
S11318D04150510901E010E002C0000F111F4A9568
S11318E0E2F7802B88B98FE99FE00197F1F700C0F8
S11318F000002A303105C8F4F9018827EE58FF4F5B
S11319008F4F0C9484206FEC13C065E211C065E81E
S11319100FC069EC0DC061E90BC061E109C067EC5F
S113192007C061E005C061E803C06FEF01C063E078
S1131930CFEFC20F2C2F48E250E08AE0CED18FE9DE
S11319409FE00197F1F700C000002C2F48E250E01F
S113195060E080E0C2D18FE99FE00197F1F700C019
S1131960000088B10095082308B9CF911F910F9109
S11319700895CF93DF9328B1AC0141505109C1E0E0
S1131980D0E002C0CC0FDD1F4A95E2F79C2F922BCA
S113199098B9EFE9FFE03197F1F700C000004FEF8D
S11319A0480F68E270E08AE0BAD1813881F158F4D6
S11319B0833099F118F4813039F12CC08131F1F080
S11319C0853281F027C0873CE1F028F4853869F03E
S11319D0813989F01FC0893C59F08F3CD9F421E04A
S11319E030E01DC022E030E01AC023E030E017C030
S11319F024E030E014C025E030E011C026E030E0FF
S1131A000EC027E030E00BC028E030E008C029E039
S1131A1030E005C02FEF3FEF02C020E030E08FE957
S1131A209FE00197F1F700C0000098B1C095C92369
S1131A30C8B9C901DF91CF910895E2E0F1E02081B6
S1131A40AC014150510981E090E002C0880F991F18
S1131A504A95E2F7282B20832FEF39E648E12150FD
S1131A6030404040E1F700C00000A8952081982F45
S1131A70909529232083E8E0F1E02081282B20831E
S1131A802FEF39E648E1215030404040E1F700C0F3
S1131A900000A89522B1282B22B920812923208374
S1131AA02FEF39E648E1215030404040E1F700C0D3
S1131AB00000A895E5E0F1E02081282B208322B1E5
S1131AC0292322B92FEF39E648E121503040404024
S1131AD0E1F700C00000A8952BB1282B2BB9208179
S1131AE0292320832FEF39E648E12150304040403C
S1131AF0E1F700C00000A89528B1822B88B98BB10A
S1131B0089238BB98FEF29E638E18150204030409A
S1131B10E1F700C00000A89588B1982398B908950A
S1131B20CF93DF93EC01CEDECE0123DFC817D907B4
S1131B3011F4CE0182DFDF91CF910895FF920F93CC
S1131B401F93CF93DF93D82FC62F8A01F22E0E94C2
S1131B50F61E8111FCCF23E041E06F2DC8010E94E5
S1131B60881E8CE00E94E31F80E00E94E31F8D2FFB
S1131B700E94E31F80E10E94E31F80E00E94E31FB4
S1131B808C2F0E94E31FDF91CF911F910F91FF9043
S1131B900895EF92FF920F931F93CF93DF93C82F73
S1131BA0D92F7B01042F122F0E94F61E8111FCCF26
S1131BB023E041E0602FC7010E94881E812F0E940C
S1131BC0E31F8D2F0E94E31F8C2F0E94E31FDF91E0
S1131BD0CF911F910F91FF90EF900895FF920F9373
S1131BE01F93CF93DF931F921F92CDB7DEB78C0163
S1131BF0F62E0E94F61E8111FCCF22E041E06F2DEB
S1131C00C8010E94881EF801208181E090E002C092
S1131C10880F991FFA94E2F7982F90959223908356
S1131C20FAE0FA95F1F700C0F8019081892B8083DE
S1131C30FAE1FA95F1F700C019821A8262E0CE0146
S1131C4001960E942D200E94EA1E8230E0F382E079
S1131C500E94BF1EEBE3F5E0808190E0982F882777
S1131C602181822B0F900F90DF91CF911F910F91C3
S1131C70FF900895FF920F931F93CF93DF931F92CA
S1131C801F92CDB7DEB78C01F62E0E94F61E81118D
S1131C90FCCF22E041E06F2DC8010E94881E19820A
S1131CA01A8262E0CE0101960E942D200E94EA1E53
S1131CB08230E0F382E00E94BF1EEBE3F5E0808116
S1131CC090E0982F88272181822B0F900F90DF912D
S1131CD0CF911F910F91FF900895FF920F931F933F
S1131CE0CF93DF93D82FC62F8A01F22E0E94F61EBF
S1131CF08111FCCF23E041E06F2DC8010E94881EB2
S1131D0080E40E94E31F8D2F0E94E31F8C2F0E940A
S1131D10E31FDF91CF911F910F91FF900895EF92F0
S1131D20FF920F931F93CF93DF9300D0CDB7DEB70D
S1131D30182F7B01042F0E94F61E8111FCCF23E093
S1131D4041E0602FC7010E94881E81E489831A83C1
S1131D501B8263E0CE0101960E942D200E94EA1EA0
S1131D608330E0F383E00E94BF1E80913D050F9015
S1131D700F900F90DF91CF911F910F91FF90EF90F3
S1131D800895AF92BF92DF92EF92FF920F931F9349
S1131D90CF93DF93A398A298A098A1989B9A9A9A1C
S1131DA0999A989A20E030E002E011E0EE24E3945E
S1131DB0F12C68E071E045E051E0C1E0D1E0A7E03A
S1131DC0B1E06894AA24A2F8BB24B394F801D080AB
S1131DD0C701022E02C0880F991F0A94E2F7982FB8
S1131DE09095D922D082FB01D0809D21908392B11D
S1131DF0982B92B9FA019081982B90839881982B13
S1131E0098839C91982B9C9391B1982B91B9F5014F
S1131E109081892B80832F5F3F4F27303105B1F6A6
S1131E20749A719A6C9A699A72986A9A2E98269AF8
S1131E302798DF91CF911F910F91FF90EF90DF9042
S1131E40BF90AF90089586E08093910539C080914A
S1131E5049048A3090F010924904809198058F5F6C
S1131E608A3019F08093980508C0109298058091E3
S1131E709105815080939105A895809191058630B4
S1131E8009F4A39A80919105853011F4A398A29A3C
S1131E9080919105843011F4A39AA29A80919105BE
S1131EA0833019F4A398A298A09A80919105823066
S1131EB011F4A098A19A80919105813009F4A19818
S1131EC0809191058111C3CF0895CF93DF93CDB74E
S1131ED0DEB728970FB6F894DEBF0FBECDBF66E01D
S1131EE070E08FE490E00E94AA2162E370E08DE448
S1131EF090E00E94AA2162E370E087E490E00E94EF
S1131F00AA2160EE7EE28DE390E00E94AA2168EBB4
S1131F107BE08FE390E00E94AA2149E150E060E079
S1131F2070E089E490E00E94A52149E150E060E07E
S1131F3070E083E490E00E94A5216AE070E08BE306
S1131F4090E00E94AA2164E670E089E390E00E9498
S1131F50AA2160E088E390E00E94972188E0E5E010
S1131F60F2E0DE01119601900D928A95E1F748E0C6
S1131F7050E0BE016F5F7F4F80E390E00E948E21AE
S1131F8028960FB6F894DEBF0FBECDBFDF91CF9178
S1131F9008950F931F93CF93DF9389E490E00E94F9
S1131FA0842160934A0470934B0480934C0490936F
S1131FB04D0483E490E00E94842160937B05709338
S1131FC07C0580937D0590937E058BE390E00E94D1
S1131FD08921909337048093360489E390E00E942A
S1131FE0892190934F0480934E0488E390E00E94EB
S1131FF07C2180939A0548E050E060E370E08DEA2C
S113200095E00E946C210DEA15E0C1E0D0E0F801F2
S113201081918F018634B1F028F4813441F0823407
S1132020A9F017C08C3439F08D3449F012C0CE01B8
S11320300E94B2000EC0CE010E94D1030AC0CE019C
S1132040ABD807C0CE010E943D0103C0CE010E945F
S1132050C4052196C930D105D1F68DE490E00E94E3
S11320608921909318058093170587E490E00E94D6
S113207089219093D3048093D2048DE390E00E944D
S1132080892190939705809396058FE390E00E94B1
S113209089219093F5048093F404DF91CF911F91EB
S11320A00F910895EF92FF920F931F93CF93DF93B5
S11320B07C01062F172FC1E0D0E0F70181917F0149
S11320C0F80191918F01891721F18634F9F028F4F0
S11320D0813451F0823499F01CC08D3469F0843518
S11320E091F08C34B1F404C0CE010E94E70011C019
S11320F0CE010E9429040DC0CE0105D90AC0CE012B
S11321000E946F0606C0CE0181DB03C0CE010E948F
S113211094012196C930D10581F6DF91CF911F91A9
S11321200F91FF90EF90089523D11092080110921F
S11321300201A1980895CF93DF93CDB7DEB7289716
S11321400FB6F894DEBF0FBECDBF90E080E80FB6A7
S1132150F89480936100909361000FBE9EE088E143
S11321600FB6F894A895809360000FBE909360001A
S1132170A895BCD0D9D008D1D7DF03DE8FE490E096
S11321800E948921069731F0A39AA29AA09AA19A53
S11321909CDEA895789490D3FCDE109290058DE790
S11321A090E00E94741E88E0E5E0F2E0DE01119602
S11321B001900D928A95E1F7BE016F5F7F4F8DEA22
S11321C095E070DF40DE28960FB6F894DEBF0FBEB0
S11321D0CDBFDF91CF910895AEDF0E94B41DA895C5
S11321E00E94D41C809149048A3040F01092490422
S11321F0809198058F5F80939805F1CF8091980521
S11322008A30D8F010929805809150048F5F8093A3
S1132210500480919905882329F081508093990571
S1132220A09A01C0A09880919005882319F0A39AE0
S1132230A29AD5CFA39AA298D2CF809150048A3083
S113224070F210925004CBCF93D081E080931905A3
S11322501092480410929B05B5D0A19A80914A042B
S113226090914B04A0914C04B0914D04892B8A2B7E
S11322708B2B21F080919A058093020180919A051D
S1132280809308016FC00895A19A80919A05809364
S1132290080108956DD081E08093480410921905D7
S11322A010929B0551D1A19A10920201109208013B
S11322B059C008955DD081E08093480410921905B7
S11322C010929B0541D1A19A4DC008952DDF8091B4
S11322D09A05809308012FEF89EF90E02150804008
S11322E09040E1F700C000001FCF089583E0809381
S11322F0B0008CE08093B10089EF8093B30082E05A
S11323008093700008951F920F920FB60F921124BC
S11323108F93809149048F5F809349048F910F902C
S11323200FBE0F901F90189588E18093810082E87A
S1132330809380008FE396E09093870080938600DB
S113234080E190E090938900809388008FEF9FEF65
S113235090938B0080938A0090938D0080938C00DF
S1132360259A0895E1E8F0E08081816080830895F2
S1132370E1E8F0E080818E7F80838FEF9FEF909380
S113238085008093840008958FE18093210180E685
S11323909AEE909327018093260182E08093200196
S11323A08FE08093730081E090E090932901809303
S11323B0280190932B0180932A0190932D018093FF
S11323C02C0108958FE59AEE9093250180932401C2
S11323D080E69AEE909327018093260180914A0427
S11323E090914B04A0914C04B0914D04803727E1A7
S11323F09207A105B10550F59C01220F331F880FE8
S1132400991F880F991F880F991F820F931F90930C
S113241029018093280120914A0430914B04C90179
S1132420880F991F220F331F220F331F220F331FD0
S1132430820F931F9093C9058093C8051092C70516
S1132440C29790932D0180932C0125C08FEF9FEFAD
S1132450909329018093280160914A0470914B0460
S113246080914C0490914D0420E737E140E050E026
S11324700E944620AB01440F551F660F771F660F5D
S1132480771F660F771F640F751F7093C9056093DC
S1132490C8052093C70580917B0590917C05A09188
S11324A07D05B0917E05803727E19207A105B1052E
S11324B028F59C01220F331F880F991F880F991F3D
S11324C0880F991F820F931F90932B0180932A01E9
S11324D080917B0590917C059C01220F331F880F0E
S11324E0991F880F991F880F991F820F931F90932C
S11324F0CC058093CB051092CA0508958FEF9FEF0A
S113250090932B0180932A0160917B0570917C0547
S113251080917D0590917E0520E737E140E050E011
S11325200E944620AB01440F551F660F771F660FAC
S1132530771F660F771F640F751F7093CC05609328
S1132540CB052093CA0508958091360490913704F1
S1132550880F991F019790932701809326018091FA
S113256036049091370481509048880F991F9093B6
S113257025018093240180913604909137040197BA
S113258090932901809328018FEF9FEF90932B0163
S113259080932A0190932D0180932C0180914E0405
S11325A090914F049093C6058093C50508951F929A
S11325B00F920FB60F9211240BB60F922F933F93E5
S11325C04F935F936F937F938F939F93AF93BF9337
S11325D0EF93FF93809148048823C1F080919A057A
S11325E08093020180919A05809308018091C5052A
S11325F09091C6059C01215031093093C605209362
S1132600C505892BC9F5B4DE1FDE36C080911905D6
S11326108823F9F08091C70581508093C705811103
S113262008C08091C8059091C905909329018093B1
S113263028018091CA0581508093CA0581111CC06C
S11326408091CB059091CC0590932B0180932A0126
S113265013C080919B05882379F08091C705815030
S11326608093C705811108C08091C8059091C90560
S11326709093290180932801FF91EF91BF91AF912D
S11326809F918F917F916F915F914F913F912F9186
S11326900F900BBE0F900FBE0F901F9018951F92B6
S11326A00F920FB60F9211240BB60F922F933F93F4
S11326B04F935F936F937F938F939F93AF93BF9346
S11326C0EF93FF9380919B05882311F0F3DD02C003
S11326D010920201FF91EF91BF91AF919F918F9161
S11326E07F916F915F914F913F912F910F900BBE0E
S11326F00F900FBE0F901F9018951F920F920FB658
S11327000F9211240BB60F92AF92BF92CF92DF9229
S1132710EF92FF920F931F932F933F934F935F93E7
S11327206F937F938F939F93AF93BF93CF93DF93D5
S1132730EF93FF938FB780688FBF1ADE0F2EFCE9EB
S1132740CF2EF5E0DF2EF02D0F2EF4EDEF2EF4E07A
S1132750FF2EF02D0DEA15E0C0E0D0E080919A053F
S113276090E00C2E02C0959587950A94E2F780FFBD
S113277014C0F80180818D3481F45E01FFEFAF1A3B
S1132780BF0AC5010E941C0AF60191838083C5011A
S11327900E94220AF701918380832196F2E0CF0EF2
S11327A0D11C22E0E20EF11C0F5F1F4FC830D1058F
S11327B0A9F6109208018FEF9FEF90932B0180935D
S11327C02A01A198FF91EF91DF91CF91BF91AF9131
S11327D09F918F917F916F915F914F913F912F9135
S11327E01F910F91FF90EF90DF90CF90BF90AF902B
S11327F00F900BBE0F900FBE0F901F9018951F9255
S11328000F920FB60F9211240BB60F922F933F9392
S11328104F935F936F937F938F939F93AF93BF93E4
S1132820EF93FF93CF93DF931F921F92CDB7DEB741
S11328308FB780688FBF1A82198289819A8108971D
S113284024F529813A8180919A0590E002C09595FA
S113285087952A95E2F780FF0FC0E981FA81E35555
S1132860FA4F80818D3431F489819A8101960E94D6
S1132870160A02C089819A8189819A8101969A8374
S1132880898389819A810897E4F20F900F90DF91F0
S1132890CF91FF91EF91BF91AF919F918F917F91D4
S11328A06F915F914F913F912F910F900BBE0F90BD
S11328B00FBE0F901F9018950E94B01D1092CF0567
S11328C00895FF920F931F93CF93DF9300D000D00E
S11328D0CDB7DEB78A01DA011D921C92FC0120817A
S11328E02D3221F40196FF24F39401C0F12CFC0154
S11328F03196DC019C9180ED890F89838A3008F040
S113290046C080E08F5F282F30E0519190ED950F05
S1132910A1E0B0E0AC0FBD1FA20FB31F9C939A308F
S113292088F35A3081F5681780F1882309F1982FCC
S113293060E070E0F901E91BF10941E050E04C0F5F
S11329405D1FE40FF51F4081FB01EE0FFF1F660FB3
S1132950771F660F771F660F771F6E0F7F1F640F39
S1132960711D915039F7D8016D937C9301C080E0BB
S1132970FF2081F0F80120813181319521953109C1
S11329803183208307C080E005C080E003C09A3013
S113299071F380E026960FB6F894DEBF0FBECDBF6C
S11329A0DF91CF911F910F91FF9008958F929F9285
S11329B0AF92BF92CF92DF92EF92FF920F931F9349
S11329C0CF93DF93CDB7DEB72B970FB6F894DEBF66
S11329D00FBECDBF8A01DA011D921D921D921C9279
S11329E01397FC0120812D3219F4019641E001C0B6
S11329F040E0FC013196DC019C9180ED890F8983D4
S1132A008A3008F05DC080E08F5F282F30E051915C
S1132A1090ED950FA1E0B0E0AC0FBD1FA20FB31F66
S1132A209C939A3088F35A3009F046C0681708F42A
S1132A3045C0882371F1982FC12CD12C7601F9015E
S1132A40E91BF10961E070E06C0F7D1FE60FF71FD1
S1132A505081CC0CDD1CEE1CFF1C46015701880C78
S1132A60991CAA1CBB1C880C991CAA1CBB1CC80C56
S1132A70D91CEA1CFB1CC50ED11CE11CF11C915095
S1132A80F1F6D801CD92DD92ED92FC92139701C03C
S1132A9080E04423C1F0F801408151816281738157
S1132AA070956095509541955F4F6F4F7F4F408370
S1132AB051836283738307C080E005C080E003C054
S1132AC09A3031F380E02B960FB6F894DEBF0FBE38
S1132AD0CDBFDF91CF911F910F91FF90EF90DF90C9
S1132AE0CF90BF90AF909F908F900895FC0120E00D
S1132AF030E080E0A1E0B0E09191903351F0913367
S1132B0089F4AD01022E02C0440F551F0A94E2F766
S1132B10840F2F5F3F4F2830310571F7FB0180830D
S1132B2081E0089580E008950C944E1E08950C945D
S1132B305F1E0895CF92DF92EF92FF920F931F933F
S1132B40CF93DF93CDB7DEB72C970FB6F894DEBFE3
S1132B500FBECDBFE62E992344F42DE230E0388732
S1132B602F8391958195910901C01F824AE0BE018E
S1132B706F5F7F4F0E940A21BE016F5F7F4FCE01BE
S1132B8007960E94F820BE01695F7F4FCE0101962F
S1132B900E940321E1100FC020C0D886CF82B80163
S1132BA0CE0107960E94F820BE01695F7F4FC801DD
S1132BB00E94032108C08E010F5F1F4FF12C6894FF
S1132BC0CC24C5F8D12CF80101900020E9F7319705
S1132BD0E01BF10BEE15FF0500F3CE0101960E94F8
S1132BE04E1E2C960FB6F894DEBF0FBECDBFDF91FC
S1132BF0CF911F910F91FF90EF90DF90CF900895A8
S1132C00CF92DF92EF92FF920F931F93CF93DF93B4
S1132C10CDB7DEB766970FB6F894DEBF0FBECDBF53
S1132C20E42E992364F42DE230E03D872C879095BF
S1132C308095709561957F4F8F4F9F4F01C01C8683
S1132C402AE0AE014F5F5F4F0E941421BE016F5F07
S1132C507F4FCE010C960E94F820BE01645F7F4F27
S1132C60CE0101960E940321E1100FC020C0DD8631
S1132C70CC86B801CE010C960E94F820BE01645F98
S1132C807F4FC8010E94032108C08E010F5F1F4FB0
S1132C90F12C6894CC24C5F8D12CF80101900020C3
S1132CA0E9F73197E01BF10BEE15FF0500F3CE01B8
S1132CB00196F4D766960FB6F894DEBF0FBECDBF6B
S1132CC0DF91CF911F910F91FF90EF90DF90CF9004
S1132CD008955F926F927F928F929F92AF92BF926C
S1132CE0CF92DF92EF92FF920F931F93CF93DF93D4
S1132CF0CDB7DEB764970FB6F894DEBF0FBECDBF75
S1132D004C01762EC42E442389F0842F01E010E078
S1132D109801220F331F000F111F000F111F000F06
S1132D20111F020F131F815099F702C001E010E038
S1132D30C401992024F48827992788199909582EC1
S1132D40692EB8010E9432204AE0BE016F5F7F4FB6
S1132D500E940A21CE0101967C01D12C0F2EF0E3B2
S1132D60AF2EB12CF02D0DC0BC86AB86B701CE01C1
S1132D700B960E94F820BE01655F7F4FC7010E9439
S1132D800321F70101900020E9F73197EE19FF09BB
S1132D90EC15FD0548F37E019BE0E90EF11C852D41
S1132DA0962DB8010E943220CB014AE0B7010E945F
S1132DB00A21F70101900020E9F731978EE290E0B3
S1132DC091838083BE016F5F7F4FC7010E94F8200B
S1132DD099202CF48DE290E09A83898301C01982B2
S1132DE0BE01655F7F4FCE0101960E94F8207110ED
S1132DF00FC021C0DC86CB86B801CE010B960E94A1
S1132E00F820BE01655F7F4FC8010E94032109C0FD
S1132E108E010F5F1F4FE72CF12C6894CC24C5F86A
S1132E20D12CF80101900020E9F73197E01BF10B58
S1132E30EE15FF05F8F2CE01019630D764960FB671
S1132E40F894DEBF0FBECDBFDF91CF911F910F91DC
S1132E50FF90EF90DF90CF90BF90AF909F908F90B6
S1132E607F906F905F900895CF93DF93CDB7DEB7D7
S1132E7029970FB6F894DEBF0FBECDBF99E0E9EDF8
S1132E80F2E0DE01119601900D929A95E1F7FE01B0
S1132E90319627E030E090E070E361E3AC01022E6C
S1132EA002C0559547950A94E2F740FF02C060833B
S1132EB001C070832150310931962F3F4FEF340701
S1132EC069F7CE010196EAD629960FB6F894DEBFCB
S1132ED00FBECDBFDF91CF910895CF93DF93CDB7D0
S1132EE0DEB729970FB6F894DEBF0FBECDBF99E0C9
S1132EF0E9EDF2E0DE01119601900D929A95E1F769
S1132F00FE01319620E030E090E070E361E3AC0133
S1132F10022E02C0559547950A94E2F740FF02C07D
S1132F20608301C070832F5F3F4F31962830310595
S1132F3071F7CE010196B2D629960FB6F894DEBF8A
S1132F400FBECDBFDF91CF910895DF92EF92FF9234
S1132F500F931F93CF93DF93CDB7DEB72F970FB6A1
S1132F60F894DEBF0FBECDBF8C01DC0112962C910C
S1132F70129711968C91119719821B821A821C82C6
S1132F801D821E821F829C91923509F03CC08335BC
S1132F9009F0FCC4243509F0F9C413968C918A30E5
S1132FA081F41092900582EE92E089D698E088E14F
S1132FB00FB6F894A895809360000FBE90936000BC
S1132FC0FFCF803209F0E2C4F8018481813309F033
S1132FD0DDC485818A3009F0D9C4109290056FEF61
S1132FE07FEF8FE490E00E94AA2189EE92E067D6F9
S1132FF098E088E10FB6F894A895809360000FBE1E
S113300090936000FFCFE82EF12CF22A933509F05B
S11330102FC3D80113968C91803209F00AC2B0E50F
S1133020EB16B2E5FB0609F4A5C100F5F5E4EF16CD
S1133030FEE4FF06D1F168F43EE4E31634E4F3065B
S113304009F440C184E5E81684E4F80609F466C18D
S1133050ECC1A8E4EA16A0E5FA0609F4B1C0BDE49F
S1133060EB16B0E5FB0609F4ECC0DFC1E0E5EE16B3
S1133070E3E5FE06D1F168F424E4E21623E5F20662
S113308009F468C03DE4E31633E5F30609F47DC0B2
S1133090CCC183E5E816F80609F441C0A3E4EA16B6
S11330A0A4E5FA0609F48EC1C0C1F8018481813314
S11330B059F485818A30A9F481E080939005729A4D
S11330C087EF92E0FCD562C4803359F485818A305D
S11330D041F41092900528D872988DEF92E0EFD5C4
S11330E055C48EE092E0EBD551C4F801848181335C
S11330F041F485818A3079F4A7D883E093E0DFD561
S113310045C4803341F485818A3029F40DD889E09F
S113311093E0D5D53BC48EE092E0D1D537C4F80115
S11331208481813341F485818A3081F4ADD88FE084
S113313093E0C5D52BC4803349F485818A3031F4BA
S11331400E94941085E193E0BAD520C48EE092E009
S1133150B6D51CC4F8018481813341F485818A3059
S113316081F48BE193E0ABD595D810C4803349F456
S113317085818A3031F40E94941081E293E09FD5D6
S113318005C48EE092E09BD501C4F80184818133AB
S113319041F485818A3081F487E293E090D596D812
S11331A0F5C3803349F485818A3031F40E94941048
S11331B08DE293E084D5EAC38EE092E080D5E6C345
S11331C0AE014C5F5F4F66E0C8010496EFDB8111EE
S11331D004C08EE092E073D5D9C38C819D81AE8109
S11331E0BF81AC01BD014951510961097109483AD6
S11331F0544D6140710540F0892B8A2B8B2B21F0B3
S11332008DE192E05CD5C2C383E393E047D56C8142
S11332107D818E819F8141E0F3DC88E393E04FD58B
S11332204C815D816E817F8140934A0450934B04AD
S113323060934C0470934D0489E490E00E94A521AE
S1133240A5C3AE014C5F5F4F66E0C8010496AEDBD8
S1133250811104C08EE092E032D598C38C819D81A7
S1133260AE81BF81AC01BD014951510961097109A8
S1133270483A544D6140710540F0892B8A2B8B2BC1
S113328021F08DE192E01BD581C38CE393E006D558
S11332906C817D818E819F8141E0B2DC88E393E083
S11332A00ED54C815D816E817F8140937B05509367
S11332B07C0560937D0570937E0583E490E00E9415
S11332C0A52164C3AE014E5F5F4F66E0C80104965A
S11332D0F8DA811104C08EE092E0F1D457C38A81F8
S11332E09B810197883E934020F08DE192E0E7D4E2
S11332F04DC381E493E0D2D461E08A819B811ADCDE
S113330086E493E0DCD46A817B8170934F046093FC
S11333104E0489E390E00E94AA2138C3AE014E5FB7
S11333205F4F66E0C8010496CCDA811104C08EE0D8
S113333092E0C5D42BC38A819B810197883E934038
S113334020F08DE192E0BBD421C38EE493E0A6D4B7
S113335041E061E08A819B81BCDC88E393E0AFD4E7
S11333606A817B8170933704609336048BE390E029
S1133370F1D70CC3F80101900020E9F7CF010E97B3
S11333808017910721F08EE092E099D4FFC2BE012C
S11333906F5F7F4FC8010496A9DB811104C08EE0E2
S11333A092E08DD4F3C283E593E078D4898195DDEE
S11333B08AE893E084D4698160939A0588E390E075
S11333C0B6D7E4C2F80101900020E9F7CF010E97C7
S11333D08017910721F08EE092E071D4D7C26DEA94
S11333E075E0CE0108960FD788E0F8013496ADEA6F
S11333F0B5E001900D928A95E1F748E050E060E372
S113340070E08DEA95E08AD7BE01685F7F4F8DEA50
S113341095E00E94521088E593E040D48DEA95E04F
S11334203DD48AE893E04BD4B1C284E492E047D41B
S1133430ADC20F2EF0EDDF2EF02DD80E87E08D15E6
S113344008F412C1D8011496EC918E2F90E0FC017F
S1133450E154F109E431F10508F002C18827E45888
S1133460FF4F8F4F51C6C8010E9486048FC2C80106
S11334700E94280A8BC28DE593E021D487C2B9E467
S1133480EB16BEE4FB0669F0E7E5EE16EFE4FE0694
S113349009F46FC0F7E5EF16F7E4FF0609F0B4C0CE
S11334A019C0D80115968C918A3021F08EE092E0F3
S11334B006D46CC20D2DDD0C110BC8010E94E7006F
S11334C089E192E0EBD361E0C80134DB8DE692E060
S11334D0F6D35CC2AE014E5F5F4F64E0C80106964E
S11334E0F0D9811104C08EE092E0E9D34FC28A8101
S11334F09B8101978436910520F08DE192E0DFD322
S113350045C288E292E0CAD30D2DDD0C110B61E0B7
S1133510C80110DB88E793E0C1D361E082E090E06A
S113352009DB8FE292E0CBD3C8010197FC01EE0FD7
S1133530FF1FE55EFA4F408151812A813B8142178A
S1133540530709F423C2880F991FFC01E55EFA4F63
S11335507F0122E030E03183208362E070E0805E0E
S11335609F4FF8D6B801D7018D919C910E94CE004F
S11335700DC2AE014E5F5F4F64E0C8010696A1D94B
S1133580811104C08EE092E09AD300C28A819B81AB
S11335908131974220F08DE192E091D3F7C189E324
S11335A092E07CD30D2DDD0C110B61E0C801C2DA71
S11335B088E793E073D343E061E08A819B8189DBF0
S11335C08DE392E07CD3C80101976A817B81FC0181
S11335D0EE0FFF1FE058FA4F20813181261737077D
S11335E009F4D4C1880F991FFC01E058FA4F7F01F8
S11335F071836083805F9F4FADD6B801D7018D91F1
S11336009C910E94CF00C2C184E492E058D3B3E5F8
S1133610EB16B4E5FB0609F0B9C1F80185818A30DF
S113362021F08EE092E04BD3B1C18BE793E036D327
S11336300D2DDD0C110B61E0C8017CDA8AE893E002
S11336403ED3C8010E94060CC8010E94900D9EC181
S1133650C8010E94E4069AC1C8010E942B0296C1C7
S113366084E492E02CD392C184E492E028D38EC106
S1133670973409F088C1D80113968C918A3009F0E7
S11336800DC1B8E4EB16B0E5FB0609F453C000F530
S1133690FEE4EF16F4E4FF0609F46AC068F430E5CA
S11336A0E31631E4F30609F4C0C089E4E81684E4BF
S11336B0F80609F4B3C0EEC0A4E5EA16A4E4FA06D9
S11336C009F463C0B5E4EB16BEE4FB0639F1E2C0CD
S11336D0E3E4EE16E4E5FE0609F46FC060F42DE4BD
S11336E0E21620E5F206B9F130E5E31632E5F30619
S11336F009F459C0CFC08DE4E81686E5F80609F44C
S113370077C0A6E4EA16A7E5FA0609F480C0B8E48F
S1133710EB16B6E5FB0609F0BDC059C08BE893E093
S1133720BDD28091900561E090E004DA8AE893E0EC
S1133730C6D22CC180E993E0B1D260914A04709161
S11337404B0480914C0490914D0441E059DA88E394
S113375093E0B5D21BC185E993E0A0D261E08091EA
S11337607B0590917C05E6D988E393E0A8D20EC14D
S11337708AE993E093D261E080914E0490914F04E2
S1133780D9D986E493E09BD201C18FE993E086D234
S113379041E061E080913604909137049ADA88E33D
S11337A093E08DD2F3C084EA93E078D280919A05B5
S11337B094DB8AE893E083D2E9C089EA93E06ED28D
S11337C08DEA95E06BD28AE893E079D2DFC08EEA85
S11337D093E064D2609110047091110480911204FA
S11337E09091130441E00CDA80E692E068D2CEC0F6
S11337F083EB93E053D2609124047091250480E01C
S113380090E041E0FDD980E692E059D2BFC088EB58
S113381093E044D28CEB93E052D2B8C085ED93E0B0
S11338203DD289ED93E04BD2B1C083EF93E036D221
S11338308091900561E090E07DD98BEF93E02ED2EA
S113384061E0809117059091180574D98BEF93E08E
S113385025D241E061E08091D2049091D30439DA19
S11338608BEF93E01BD260914A0470914B048091DA
S11338704C0490914D0441E0C3D98BEF93E00ED2F8
S113388061E080917B0590917C0554D98AE893E0AE
S113389016D27CC084E492E012D278C00F2EF0EDF0
S11338A0DF2EF02DD80EE7E0ED1508F468C0D8013E
S11338B014968C91863409F45AC030F4813489F01A
S11338C0823409F450C057C08C3419F08D3429F077
S11338D052C0C8010E946F0559C0C8010E94500B14
S11338E055C0B7E5EB16B7E4FB0631F0E7E5EE1695
S11338F0EFE4FE06D1F033C080E592E0CFD10D2D88
S1133900DD0C110B61E0C80115D988E793E0C6D13D
S1133910F801EE0FFF1FE75EFA4F61E080819181AD
S113392009D98FE292E0CBD131C084E592E0B6D1DF
S11339300D2DDD0C110B61E0C801FCD888E793E084
S1133940ADD1F801EE0FFF1FE258FA4F43E061E0FA
S113395080819181BED98DE392E0B1D117C084E416
S113396092E0ADD113C0C8010E945E080FC0C80127
S11339700E943A030BC084E492E0A1D107C084E41E
S113398092E09DD103C084E492E099D12F960FB6C2
S1133990F894DEBF0FBECDBFDF91CF911F910F9181
S11339A0FF90EF90DF900895F5D08093CF058823A2
S11339B039F081E594E09093CE058093CD05C5CA96
S11339C008951F920F920FB60F9211240BB60F9207
S11339D08F939F93EF93FF9380910204882329F0A0
S11339E08091C6008093990535C0809104048111AB
S11339F02DC0E0910504F0E08091C600E05BF94F32
S1133A008083E0910504F0E0E05BF94F80818A3027
S1133A1029F4809103048F5F80930304809105044B
S1133A208F5F8093050480910504803811F410920F
S1133A3005049091050480910604981303C081E065
S1133A408093040485E08093990504C08091C600A6
S1133A5080939905FF91EF919F918F910F900BBEE9
S1133A600F900FBE0F901F9018951F920F920FB6D4
S1133A700F9211240BB60F928F939F93EF93FF93A2
S1133A808091000281111DC0809101048F5F809399
S1133A90010480910104803811F410920104909182
S1133AA0010480910004981304C081E08093000213
S1133AB008C0E0910104F0E0E053FA4F8081809364
S1133AC0C60085E080939905FF91EF919F918F91B6
S1133AD00F900BBE0F900FBE0F901F9018958F92F2
S1133AE09F92AF92BF92CF92DF92EF92FF92699A28
S1133AF0E1ECF0E02081286120832081206820838C
S1133B00208120642083E2ECF0E020812660208381
S1133B106C01E12CF12CA0E2B3E0A701960111D3D2
S1133B204B015C0124E2920E24EFA21EB11CA0E41E
S1133B30B6E0A701960105D39B01AC01C501B40110
S1133B40A5D2215031093093C5002093C400FF90C1
S1133B50EF90DF90CF90BF90AF909F908F9008959B
S1133B6080E492E0BCCF0895E1ECF0E080818F77AF
S1133B708083A6ECB0E02C91109206041092050408
S1133B808C911092040410920304908190689083A5
S1133B90820F0895CF93C0910304CC2309F440C04D
S1133BA080E0A1ECB0E0282F30E0E0910604F0E0E2
S1133BB0E05BF94F9081F901EF5AFB4F90839C91A0
S1133BC09F779C93909106049F5F90930604909135
S1133BD00604903811F410920604109204049C9187
S1133BE090689C93F901EF5AFB4F90819A3091F4BD
S1133BF0E1ECF0E090819F779083909103049150E1
S1133C0090930304908190689083F901EF5AFB4FDD
S1133C1011820CC091118F5F88232CF680E006C0BE
S1133C2080910404882311F09FDF8C2FCF91089595
S1133C30382F2091000490910104291304C080912D
S1133C400002882351F1E0910004F0E0E053FA4FC0
S1133C503083E1ECF0E080818F7B808380910004ED
S1133C608F5F8093000480910004803811F41092D7
S1133C70000480910002882351F0E0910104F0E0F7
S1133C80E053FA4F80818093C60010920002E1EC69
S1133C90F0E080818064808381E00895CF93DF9396
S1133CA0EC018881882341F08881C2DF8823E1F315
S1133CB0219688818111F8CFDF91CF910895CF9318
S1133CC0DF93EC018881882341F08881B1DF882368
S1133CD0E1F3219688818111F8CF8AE0A9DF882356
S1133CE0E1F3DF91CF9108951092D5001092D400A2
S1133CF0289A2398229A219A84E58CBD8CB58068F1
S1133D008CBD8CB580688CBD8CB583608CBD0895EA
S1133D109093030280930202609309044093080481
S1133D2020930102089590910804992319F088239F
S1133D30A9F002C0811112C0E0910202F0910302C5
S1133D40208181E090E00090090402C0880F991F4F
S1133D500A94E2F78095822380830895E091020219
S1133D60F0910302208181E090E00090090402C0F8
S1133D70880F991F0A94E2F7822B80830895813477
S1133D8008F080E4ABE3B5E020E015C0E0910F0457
S1133D90F0E0E05FF84F90819D932F5F90910F04C6
S1133DA09F5F90930F0490910F04903411F410923C
S1133DB00F0410920D0430910F0490910E043913E6
S1133DC004C090910D04992319F02813DFCF0895AE
S1133DD0822F089580910D04811106C080910E04F4
S1133DE090910F04891B089580E4089580910A043A
S1133DF090910B04891B08958CB58F778CBD2EB5DB
S1133E0010920F0410920E048EB510920D049CB5FE
S1133E1090689CBD820F08951F920F920FB60F9267
S1133E2011240BB60F922F933F934F935F936F938D
S1133E307F938F939F93AF93BF93EF93FF9380915F
S1133E400D04811124C0E0910E04F0E08EB5E05F12
S1133E50F84F808380910E048F5F80930E048091CD
S1133E600E04803411F410920E0490910E0480918B
S1133E700F04981303C081E080930D04909107040C
S1133E8080910102981304C010920C0401C0B4DFA5
S1133E908DEF93E00E949715FF91EF91BF91AF9141
S1133EA09F918F917F916F915F914F913F912F914E
S1133EB00F900BBE0F900FBE0F901F9018951F927E
S1133EC00F920FB60F9211240BB60F922F933F93BC
S1133ED04F935F936F937F938F939F93AF93BF930E
S1133EE0EF93FF9380910C04882349F180910D0492
S1133EF0811124C0E0910E04F0E08EB5E05FF84F2C
S1133F00808380910E048F5F80930E0480910E0451
S1133F10803411F410920E0490910E0480910F04D9
S1133F20981303C081E080930D049091070480915D
S1133F30010298130EC010920C0407C05DDF90912B
S1133F40070480910102981304C080E0ECDE109213
S1133F50070480910402811123C080910B048F5FB8
S1133F6080930B0480910B04803411F410920B04A1
S1133F7090910A0480910B04981304C081E080930B
S1133F8004020EC081E0CFDEE0910B04F0E0E053C8
S1133F90F94F80818EBD809107048F5F8093070461
S1133FA0FF91EF91BF91AF919F918F917F916F910D
S1133FB05F914F913F912F910F900BBE0F900FBEC9
S1133FC00F901F901895382F20910A0490910B049C
S1133FD0291304C080910402882361F1E0910A044A
S1133FE0F0E0E053F94F30838CB58F778CBD80912E
S1133FF00A048F5F80930A0480910A04803411F4C8
S113400010920A0480910402882381F081E08BDEFF
S1134010E0910B04F0E0E053F94F80818EBD809174
S113402007048F5F80930704109204028CB58068A4
S11340308CBD81E008951F93CF93DF93EC01162F7D
S1134040662339F08881BFDF8823E1F3219611507C
S1134050C9F7DF91CF911F91089521E020930C04BB
S1134060EACF0895AA1BBB1B51E107C0AA1FBB1FBF
S1134070A617B70710F0A61BB70B881F991F5A95F0
S1134080A9F780959095BC01CD010895A1E21A2E5F
S1134090AA1BBB1BFD010DC0AA1FBB1FEE1FFF1FE8
S11340A0A217B307E407F50720F0A21BB30BE40B38
S11340B0F50B661F771F881F991F1A9469F760957F
S11340C07095809590959B01AC01BD01CF01089539
S11340D0052E97FB16F400940FD057FD05D0D6DFBC
S11340E007FC02D046F408C05095409530952195C0
S11340F03F4F4F4F5F4F0895909580957095619510
S11341007F4F8F4F9F4F0895EE0FFF1F881F8BBF68
S11341100790F691E02D1994A29FB001B39FC001BE
S1134120A39F700D811D1124911DB29F700D811DDF
S11341301124911D0895F0DFB7FF0895821B930B9E
S11341400895EADFA59F900DB49F900DA49F800D64
S1134150911D11240895E894DF93CF93FC01DB01B2
S1134160DBDF7F936F93E9019A01AC01BF93AF93B7
S11341703F932F93DF01D0DF26F46C1B7D0B820B62
S1134180930B9E01EB01FC012BD0AF91BF912F91BA
S11341903F9126D0BE01CF01F9012F913F91CF91DC
S11341A0DF91089597FB10F8169400080F930830D8
S11341B098F00850232F342F452F562F672F782F30
S11341C0892F902DF4CF05949795879577956795CA
S11341D057954795379527950A95AAF70F9108950E
S11341E09BDF460F571FC81FD91F08F43196089547
S11341F0FB01DC010D900020E9F7119701900D926D
S11342000020E1F70895FB01DC0101900D920020EC
S1134210E1F70895BB274A3031F4992322F4BDE233
S1134220909581959F4F30C0BB272A3051F4992334
S113423042F4BDE290958095709561957F4F8F4FC4
S11342409F4F01C0BB27FA01A62F62177105810594
S11342509105330B30FB66F0AA27660F771F881F82
S1134260991FAA1FA21710F0A21B63953850A9F733
S1134270A05DAA3308F0A95DA19336F7B111B193FB
S11342801082CA0119C0BB27FB015527AA27880F32
S1134290991FAA1FA41710F0A41B83955051B9F7B6
S11342A0A05DAA3308F0A95DA193009779F7B11135
S11342B0B1931192CB0100C0DC01FC01672F719115
S11342C07723E1F7329704C07C916D9370836291F8
S11342D0AE17BF07C8F30895DC01CB01FC01F999BF
S11342E0FECF06C0F2BDE1BDF89A319600B40D923E
S11342F041505040B8F70895F999FECF92BD81BD61
S1134300F89A992780B50895A6E1B0E044E050E01A
S1134310E5CFA8E1B0E042E050E0E0CFDC01CB0122
S113432002C02D9105D041505040D8F70895262F52
S1134330F999FECF1FBA92BD81BD20BD0FB6F89486
S1134340FA9AF99A0FBE01960895242FF1DF252FCA
S1114350EFDF00C0ECDF272FEBCFF894FFCF98
S113435E0101250001303030303030303000464F0E
S113436E524D4154204552520053494E004E554D24
S113437E424552204552520053574700463D0020B5
S113438E572F4F2D556E69740053574F002056000A
S113439E53524600434F4D4D414E44204552520018
S11343AE4757470047574F00475349004756460063
S11343BE206D5600534843004C3D00206D41005380
S11343CE4D430047484300474D4300535242004279
S11343DE3D3100423D300053524C00535243005382
S11343EE52440053564700423D0047564700475635
S11343FE440047434400534843204D4F53464554CD
S113440E3D00534D43204D4F534645543D00534DAF
S113441E56204D4F534645543D004D3D00474D5695
S113442E0047484D00474D4D00303030303030306D
S113443E30007265626F6F7400666163746F7279B7
S113444E2072657365740053454E3D310053454EDD
S113445E3D30005350533D31005350533D300053C3
S113446E53533D31005353533D30005344533D3168
S113447E005344533D3000534D533D3100534D537F
S113448E3D30005348503D00206D7300534D503D58
S113449E00534E443D002070756C73657300535485
S11344AE443D005350523D005343543D0046756EF7
S11344BE6374696F6E206E6F74207265616C697AB5
S11344CE6564207965742100413D00535354205393
S11344DE6C6F742D546573743A200047454E3D003D
S11344EE4748503D00474D503D00474E443D004720
S11344FE54443D004750523D004743543D00474805
S113450E563D00474D563D0046573D005274685483
S113451E45435F6D435F556E69745F563220563066
S113452E2E302E360049443D0052746854454320C3
S113453E5454412D45717569706D656E74205631F4
S113454E5F3000504152414D533D002C006A6100D2
S9030000FC
