:100000007BC0000099C0000097C0000095C00000B0
:1000100093C0000091C000008FC000008DC00000A0
:100020008BC0000089C0000087C0000085C00000B0
:1000300083C00000DCC700007FC000007DC000005E
:100040007BC0000079C0000077C0000075C00000D0
:1000500073C0000071C000006FC000006DC00000E0
:100060000C9497160C94191467C000000C946D142E
:1000700063C0000061C000005FC000005DC0000000
:100080005BC0000059C0000057C0000055C0000010
:1000900053C0000051C000004FC000004DC0000020
:1000A0004BC0000049C0000047C0000045C0000030
:1000B00043C0000041C000003FC000000C94AF09E5
:1000C0000C94BB090C94FC090C944B090C94441639
:1000D00033C0000031C000002FC000002DC0000060
:1000E0002BC000006403500352035403560358030B
:1000F0005A035C035E03600311241FBECFEFD1E2FD
:10010000DEBFCDBF00E00CBF13E0A0E0B2E0ECEF3B
:10011000F0E300E00BBF02C007900D92A83BB107CF
:10012000D9F726E0A8EBB3E001C01D92AA36B207CA
:10013000E1F7D6D60C947C1863CF0F931F93CF931F
:10014000DF93D82F8B01C42F8091B803841307C08D
:100150008091B9039091BA038617970799F00E948E
:100160002E168111FCCF1093BA030093B903C093EC
:10017000B80323E041E06C2FC8010E94C0158CB584
:1001800084608CBD8D2F0E941B17DF91CF911F9132
:100190000F9108951F93CF93DF93C62F9C01AFEF6C
:1001A000BFEF0E94A81728E833E140E050E00E942A
:1001B0007E17D22F132F4C2F62E270E080E0BDDF5C
:1001C0004C2F62E270E0812FB8DF4C2F62E270E0CA
:1001D0008D2FB3DFDF91CF911F9108951F93CF93A0
:1001E000DF93C62F9C01AFEFBFEF0E94A8172AEF45
:1001F00030E040E050E00E947E17D22F132F4C2FAA
:1002000062E270E082E099DF4C2F62E270E0812FC1
:1002100094DF4C2F62E270E08D2F8FDFDF91CF9162
:100220001F9108951F93CF93DF93C62F9C01ABEAD4
:10023000BAEA0E94A817DC01B695A79526EF3FEF12
:1002400049E050E00E94BD17665B794F89449640B3
:1002500028E833E140E050E00E947E17D22F132FB0
:100260004C2F65E071E080E068DF4C2F65E071E0C5
:10027000812F63DF4C2F65E071E08D2F5EDFDF9112
:10028000CF911F9108951F93CF93DF93C62F9C01A9
:10029000AFEFBFEF0E94A81720E137E240E050E047
:1002A0000E947E17D22F132F4C2F62E270E080E065
:1002B00044DF4C2F62E270E0812F3FDF4C2F62E27F
:1002C00070E08D2F3ADFDF91CF911F910895CF938A
:1002D000DF930197EC01CC0FDD1FCE01805E9F4FB5
:1002E0000E945818FE01E259FB4F91838083CE0192
:1002F000805F9F4F0E945818CF52DC4F99838883AC
:10030000DF91CF910895CF93CFEFC60F9C01AFEF50
:10031000BFEF0E94A8172CED35E040E050E00E94AE
:100320007E17DA01C90120E04C2F62E270E0FED2B4
:10033000CF910895CF93CFEFC60F9C01AFEFBFEFE2
:100340000E94A8172AEF30E040E050E00E947E179C
:10035000DA01C90122E04C2F62E270E0E7D2CF91CE
:1003600008950F931F93CF93DF938C01E2E0F1E0A8
:100370002081EC01219781E090E00C2E02C0880FD3
:10038000991F0A94E2F7982F909529232083E8E09B
:10039000F1E020819223908392B1982B92B9E5E00D
:1003A000F1E09081982B90839BB1982B9BB998B1E9
:1003B000982B98B9E1E0F1E09081982B9083E7E0E9
:1003C000F1E09081982B908391B1982B91B9E4E062
:1003D000F1E09081982B90839AB1982B9AB997B1BC
:1003E000892B87B92FEF200F42E250E065E080E0D3
:1003F00072D2CC0FDD1FFE01E259FB4FB8018081A4
:10040000918181DFCF52DC4FB8018881998192DFE1
:10041000DF91CF911F910F910895CF93E2E0F1E02A
:100420002081BC016150710941E050E002C0440FDD
:10043000551F6A95E2F7942F909529232083E8E0D1
:10044000F1E020819223908392B1942B92B9E5E060
:10045000F1E09081942B90839BB1942B9BB998B140
:10046000942B98B9E1E0F1E09081942B9083E7E040
:10047000F1E09081942B908391B1942B91B9E4E0B9
:10048000F1E09081942B90839AB1942B9AB997B113
:10049000492B47B9CFEFC80F2C2F48E250E060E05E
:1004A00080E069D22C2F48E250E060E08AE063D21D
:1004B000CF910895CF93CFEFC80F2C2F48E250E093
:1004C00060E08AE058D22FEF81EE94E02150804026
:1004D0009040E1F700C000002C2F48E250E064E2B9
:1004E0008AE049D2CF910895CF93CFEFC80F2C2F38
:1004F00048E250E060E08AE03ED22FEF81EE94E0E7
:10050000215080409040E1F700C000002C2F48E2CD
:1005100050E06AE08AE02FD2CF910895CF93CFEFD9
:10052000C80F2C2F48E250E060E08AE024D22FEF81
:1005300081EE94E0215080409040E1F700C000003F
:100540002C2F48E250E061E18AE015D2CF91089566
:10055000CF93CFEFC80F2C2F48E250E060E08AE045
:100560000AD22FEF81EE94E0215080409040E1F7D5
:1005700000C000002C2F48E250E064E18AE0FBD18B
:10058000CF9108952FEF280F48E250E060E08AE015
:10059000F2D12FEF81EE94E0215080409040E1F7BE
:1005A00000C000000895CF93DF93E2E0F1E02081E6
:1005B000BC016150710941E050E002C0440F551F79
:1005C0006A95E2F7C42FC095922F9C239083E8E0B0
:1005D000F1E090819C23908392B19C2392B9E5E055
:1005E000F1E090819C2390839BB19C239BB998B1AF
:1005F0009C2398B9E1E0F1E09081942B9083E7E0AF
:10060000F1E09081942B908391B1942B91B9E4E027
:10061000F1E09081942B90839AB1942B9AB997B181
:10062000942B97B998B1492B48B9EFE9FFE031977E
:10063000F1F700C00000DFEFD80F2D2F48E250E0A7
:1006400060E080E098D12D2F48E250E06FEF8AE023
:1006500092D188B1C823C8B9DF91CF9108950F9383
:100660001F93CF939C0188B1A9014150510901E02A
:1006700010E002C0000F111F4A95E2F7802B88B9E5
:100680008FE99FE00197F1F700C000002A303105A3
:10069000C8F4F9018827EE58FF4F8F4F0C94A0172C
:1006A0006FEC13C065E211C065E80FC069EC0DC0C6
:1006B00061E90BC061E109C067EC07C061E005C0FA
:1006C00061E803C06FEF01C063E0CFEFC20F2C2FD2
:1006D00048E250E08AE04FD18FE99FE00197F1F7BF
:1006E00000C000002C2F48E250E060E080E043D1E1
:1006F0008FE99FE00197F1F700C0000088B10095F5
:10070000082308B9CF911F910F910895CF93DF93DC
:1007100028B1AC0141505109C1E0D0E002C0CC0F7A
:10072000DD1F4A95E2F79C2F922B98B9EFE9FFE085
:100730003197F1F700C000004FEF480F68E270E01A
:100740008AE03BD1813881F158F4833099F118F473
:10075000813039F12CC08131F1F0853281F027C030
:10076000873CE1F028F4853869F0813989F01FC0B1
:10077000893C59F08F3CD9F421E030E01DC022E0E3
:1007800030E01AC023E030E017C024E030E014C0AD
:1007900025E030E011C026E030E00EC027E030E078
:1007A0000BC028E030E008C029E030E005C02FEFA2
:1007B0003FEF02C020E030E08FE99FE00197F1F7C2
:1007C00000C0000098B1C095C923C8B9C901DF9124
:1007D000CF910895E2E0F1E02081AC014150510950
:1007E00081E090E002C0880F991F4A95E2F7282B1C
:1007F00020832FEF39E648E1215030404040E1F7B7
:1008000000C00000A8952081982F9095292320836F
:10081000E8E0F1E02081282B20832FEF39E648E142
:10082000215030404040E1F700C00000A89522B1BF
:10083000282B22B92081292320832FEF39E648E194
:10084000215030404040E1F700C00000A895E5E0AD
:10085000F1E02081282B208322B1292322B92FEF18
:1008600039E648E1215030404040E1F700C0000047
:10087000A8952BB1282B2BB92081292320832FEF7A
:1008800039E648E1215030404040E1F700C0000027
:10089000A89528B1822B88B98BB189238BB98FEFAA
:1008A00029E638E1815020403040E1F700C00000E7
:1008B000A89588B1982398B90895CF93DF93EC0158
:1008C000CEDECE0123DFC817D90711F4CE0182DFB7
:1008D000DF91CF910895FF920F931F93CF93DF93F2
:1008E000D82FC62F8A01F22E0E942E168111FCCF1E
:1008F00023E041E06F2DC8010E94C0158CE00E94EA
:100900001B1780E00E941B178D2F0E941B1780E190
:100910000E941B1780E00E941B178C2F0E941B1740
:10092000DF91CF911F910F91FF900895EF92FF9269
:100930000F931F93CF93DF93C82FD92F7B01042FE1
:10094000122F0E942E168111FCCF23E041E0602F70
:10095000C7010E94C015812F0E941B178D2F0E9476
:100960001B178C2F0E941B17DF91CF911F910F91A6
:10097000FF90EF900895FF920F931F93CF93DF9313
:10098000D82FC62F8A01F22E0E942E168111FCCF7D
:1009900023E041E06F2DC8010E94C01580E40E9451
:1009A0001B178D2F0E941B178C2F0E941B17DF9186
:1009B000CF911F910F91FF900895EF92FF920F93A7
:1009C0001F93CF93DF9300D0CDB7DEB7182F7B01F5
:1009D000042F0E942E168111FCCF23E041E0602FEE
:1009E000C7010E94C01581E489831A831B8263E0DA
:1009F000CE0101960E9465170E9422168330E0F313
:100A000083E00E94F715809186040F900F900F905D
:100A1000DF91CF911F910F91FF90EF900895CF93A9
:100A2000DF931F921F92CDB7DEB722E041E066E070
:100A30008BE290E00E94C0155A988AE18A95F1F7FE
:100A400000C05A9A8AE18A95F1F700C019821A8289
:100A500062E0CE0101960E9465170E942216823044
:100A6000E0F382E00E94F715E4E8F4E0A081B0E052
:100A7000BA2FAA278181A82B2CE63BE60E94B71744
:100A8000BC01882799270F900F90DF91CF9108958F
:100A9000CF93DF931F921F92CDB7DEB722E041E0E4
:100AA00066E08BE290E00E94C0155A988AE18A9530
:100AB000F1F700C05A9A8AE18A95F1F700C01982CD
:100AC0001A8262E0CE0101960E9465170F900F9086
:100AD000DF91CF91089582E00E94F715E4E8F4E0F9
:100AE000A081B0E0BA2FAA278181A82B2CE63BE693
:100AF0000E94B717BC01882799270895AF92BF922B
:100B0000DF92EF92FF920F931F93CF93DF93A398FF
:100B1000A298A098A1989B9A9A9A999A989A20E05C
:100B200030E002E011E0EE24E394F12C68E071E0A3
:100B300045E051E0C1E0D1E0A7E0B1E06894AA242B
:100B4000A2F8BB24B394F801D080C701022E02C0E2
:100B5000880F991F0A94E2F7982F9095D922D08296
:100B6000FB01D0809D21908392B1982B92B9FA011C
:100B70009081982B90839881982B98839C91982BA7
:100B80009C9391B1982B91B9F5019081892B808329
:100B90002F5F3F4F27303105B1F6749A719A6C9AE6
:100BA000699A72986A9A2E98269A2798DF91CF911F
:100BB0001F910F91FF90EF90DF90BF90AF9008953D
:100BC00086E08093CA0439C08091E3038A3090F0B4
:100BD0001092E3038091D2048F5F8A3019F08093E2
:100BE000D20408C01092D2048091CA04815080932C
:100BF000CA04A8958091CA04863009F4A39A80910A
:100C0000CA04853011F4A398A29A8091CA04843052
:100C100011F4A39AA29A8091CA04833019F4A3987C
:100C2000A298A09A8091CA04823011F4A098A19A47
:100C30008091CA04813009F4A1988091CA0481117D
:100C4000C3CF0895CF93DF93CDB7DEB728970FB604
:100C5000F894DEBF0FBECDBF65E070E08FE490E09A
:100C60000E94791862E370E08DE490E00E947918A8
:100C700062E370E087E490E00E94791860EE7EE223
:100C80008DE390E00E94791868EB7BE08FE390E0C1
:100C90000E94791849E150E060E070E089E490E05A
:100CA0000E94741849E150E060E070E083E490E055
:100CB0000E9474186AE070E08BE390E00E9479185B
:100CC00064E670E089E390E00E94791860E088E3D0
:100CD00090E00E94661888E0E5E0F2E0DE011196FF
:100CE00001900D928A95E1F748E050E0BE016F5FF8
:100CF0007F4F80E390E00E945D1828960FB6F8942D
:100D0000DEBF0FBECDBFDF91CF9108950F931F932C
:100D1000CF93DF9389E490E00E9453186093E4033B
:100D20007093E5038093E6039093E70383E490E0F8
:100D30000E9453186093C4047093C5048093C60442
:100D40009093C7048BE390E00E9458189093E203BD
:100D50008093E10389E390E00E9458189093E9039F
:100D60008093E80388E390E00E944B188093D504B9
:100D700048E050E060E370E087ED94E00E943B18AB
:100D800007ED14E0C1E0D0E0F80181918F018C34CF
:100D900011F4CE019CDA2196C930D105A9F78DE472
:100DA00090E00E945818909382048093810487E415
:100DB00090E00E94581890936D0480936C048DE32A
:100DC00090E00E9458189093D1048093D0048FE350
:100DD00090E00E94581890937F0480937E04DF91E6
:100DE000CF911F910F910895EF92FF920F931F9350
:100DF000CF93DF937C01062F172FC1E0D0E0F701DE
:100E000081917F01F80191918F01891779F08C34DC
:100E100029F0843549F0823449F403C0CE01A1DAC7
:100E200005C0CE01FADA02C0CE01BDDB2196C93081
:100E3000D10529F7DF91CF911F910F91FF90EF908E
:100E400008950AD11092080110920201A198089504
:100E5000CF93DF93CDB7DEB728970FB6F894DEBFF8
:100E60000FBECDBF9EE088E10FB6F894A8958093A1
:100E700060000FBE90936000A895ACD0C9D0F8D0A8
:100E8000E0DF3CDE8FE490E00E945818059731F0D7
:100E9000A39AA29AA09AA19AD5DEA8957894D6D2C0
:100EA00035DF1092C9048DE790E00E94AC1588E010
:100EB000E5E0F2E0DE01119601900D928A95E1F7EE
:100EC000BE016F5F7F4F87ED94E08EDF79DE28965D
:100ED0000FB6F894DEBF0FBECDBFDF91CF9108955E
:100EE000B7DF0E94EC14A8950E940C148091E303D4
:100EF0008A3040F01092E3038091D2048F5F809398
:100F0000D204F1CF8091D2048A30D8F01092D2046A
:100F10008091EA038F5F8093EA038091D304882352
:100F200029F081508093D304A09A01C0A0988091A9
:100F3000C904882319F0A39AA29AD5CFA39AA2989C
:100F4000D2CF8091EA038A3070F21092EA03CBCFBD
:100F500083D081E08093CF041092D404A7D0A19ACB
:100F60008091E4039091E503A091E603B091E7033B
:100F7000892B8A2B8B2B21F08091D5048093020141
:100F80008091D5048093080161C00895A19A809151
:100F9000D5048093080108955FD081E08093D40444
:100FA0001092CF0445D1A19A10920201109208012B
:100FB0004DC0089546DF8091D504809308012FEF3E
:100FC00089EF90E0215080409040E1F700C00000A0
:100FD00038CF089583E08093B0008CE08093B10017
:100FE00089EF8093B30082E08093700008951F9290
:100FF0000F920FB60F9211248F938091E3038F5FAE
:101000008093E3038F910F900FBE0F901F90189560
:1010100088E18093810082E8809380008FE396E0EE
:10102000909387008093860080E190E09093890000
:10103000809388008FEF9FEF90938B0080938A00BE
:1010400090938D0080938C00259A0895E1E8F0E05C
:101050008081816080830895E1E8F0E080818E7F67
:1010600080838FEF9FEF9093850080938400089595
:101070008FE18093210180E69AEE9093270180937F
:10108000260182E0809320018FE08093730081E04D
:1010900090E0909329018093280190932B018093F5
:1010A0002A0190932D0180932C0108958FE59AEEEB
:1010B000909325018093240180E69AEE9093270176
:1010C000809326018091E4039091E503A091E603CB
:1010D000B091E703803727E19207A105B10550F5EC
:1010E0009C01220F331F880F991F880F991F880FAB
:1010F000991F820F931F90932901809328012091BB
:10110000E4033091E503C901880F991F220F331FB3
:10111000220F331F220F331F820F931F9093E3047C
:101120008093E2041092E104C29790932D01809382
:101130002C0125C08FEF9FEF909329018093280108
:101140006091E4037091E5038091E6039091E703D9
:1011500020E737E140E050E00E947E17AB01440FEA
:10116000551F660F771F660F771F660F771F640F77
:10117000751F7093E3046093E2042093E10480916F
:10118000C4049091C504A091C604B091C7048037EF
:1011900027E19207A105B10528F59C01220F331F15
:1011A000880F991F880F991F880F991F820F931F0F
:1011B00090932B0180932A018091C4049091C504DF
:1011C0009C01220F331F880F991F880F991F880FCA
:1011D000991F820F931F9093E6048093E504109269
:1011E000E40408958FEF9FEF90932B0180932A01E1
:1011F0006091C4047091C5048091C6049091C704A5
:1012000020E737E140E050E00E947E17AB01440F39
:10121000551F660F771F660F771F660F771F640FC6
:10122000751F7093E6046093E5042093E404089529
:101230008091E1039091E203880F991F01979093A9
:101240002701809326018091E1039091E203815070
:101250009048880F991F90932501809324018091D5
:10126000E1039091E2030197909329018093280173
:101270008FEF9FEF90932B0180932A0190932D0184
:1012800080932C018091E8039091E9039093E0040E
:101290008093DF0408951F920F920FB60F921124CE
:1012A0000BB60F922F933F934F935F936F937F9360
:1012B0008F939F93AF93BF93EF93FF938091D40449
:1012C0008823C1F08091D504809302018091D504D8
:1012D000809308018091DF049091E0049C012150EB
:1012E00031093093E0042093DF04892B29F5B4DE23
:1012F0002FDE22C08091CF048823F1F08091E10499
:1013000081508093E104811108C08091E2049091A2
:10131000E30490932901809328018091E404815093
:101320008093E404811108C08091E5049091E60463
:1013300090932B0180932A01FF91EF91BF91AF9180
:101340009F918F917F916F915F914F913F912F91DD
:101350000F900BBE0F900FBE0F901F9018951F920D
:101360000F920FB60F921124109202010F900FBE30
:101370000F901F9018951F920F920FB60F92112485
:101380000BB60F922F933F934F935F936F937F937F
:101390008F939F93AF93BF93EF93FF938FB7806823
:1013A0008FBF5ADE98DB6093CB037093CC0380939E
:1013B000CD039093CE0333DB7093D0036093CF03C0
:1013C000109208018FEF9FEF90932B0180932A01D9
:1013D000A198FF91EF91BF91AF919F918F917F91D4
:1013E0006F915F914F913F912F910F900BBE0F9096
:1013F0000FBE0F901F9018951F920F920FB60F926D
:1014000011240BB60F922F933F934F935F936F93DB
:101410007F938F939F93AF93BF93EF93FF938FB778
:1014200080688FBF35DBFF91EF91BF91AF919F91A6
:101430008F917F916F915F914F913F912F910F907D
:101440000BBE0F900FBE0F901F9018950E94E814CE
:101450001092E9040895FF920F931F93CF93DF93A7
:1014600000D000D0CDB7DEB78A01DA011D921C9200
:10147000FC0120812D3221F40196FF24F39401C058
:10148000F12CFC013196DC019C9180ED890F898360
:101490008A3008F046C080E08F5F282F30E05191FD
:1014A00090ED950FA1E0B0E0AC0FBD1FA20FB31FF0
:1014B0009C939A3088F35A3081F5681780F188231D
:1014C00009F1982F60E070E0F901E91BF10941E0B2
:1014D00050E04C0F5D1FE40FF51F4081FB01EE0F44
:1014E000FF1F660F771F660F771F660F771F6E0F40
:1014F0007F1F640F711D915039F7D8016D937C9354
:1015000001C080E0FF2081F0F80120813181319518
:10151000219531093183208307C080E005C080E038
:1015200003C09A3071F380E026960FB6F894DEBFC0
:101530000FBECDBFDF91CF911F910F91FF90089506
:101540008F929F92AF92BF92CF92DF92EF92FF92D3
:101550000F931F93CF93DF93CDB7DEB72B970FB6C3
:10156000F894DEBF0FBECDBF8A01DA011D921D9235
:101570001D921C921397FC0120812D3219F40196C3
:1015800041E001C040E0FC013196DC019C9180ED1E
:10159000890F89838A3008F05DC080E08F5F282F33
:1015A00030E0519190ED950FA1E0B0E0AC0FBD1F80
:1015B000A20FB31F9C939A3088F35A3009F046C0AB
:1015C000681708F445C0882371F1982FC12CD12CDD
:1015D0007601F901E91BF10961E070E06C0F7D1FF4
:1015E000E60FF71F5081CC0CDD1CEE1CFF1C4601E2
:1015F0005701880C991CAA1CBB1C880C991CAA1C9E
:10160000BB1CC80CD91CEA1CFB1CC50ED11CE11C60
:10161000F11C9150F1F6D801CD92DD92ED92FC9241
:10162000139701C080E04423C1F0F801408151814B
:101630006281738170956095509541955F4F6F4FB2
:101640007F4F408351836283738307C080E005C06E
:1016500080E003C09A3031F380E02B960FB6F89407
:10166000DEBF0FBECDBFDF91CF911F910F91FF90D5
:10167000EF90DF90CF90BF90AF909F908F900895A4
:10168000FC0120E030E080E0A1E0B0E091919033F7
:1016900051F0913389F4AD01022E02C0440F551F61
:1016A0000A94E2F7840F2F5F3F4F2830310571F71E
:1016B000FB01808381E0089580E008950C949715E4
:1016C0000895CF92DF92EF92FF920F931F93CF93E3
:1016D000DF93CDB7DEB72C970FB6F894DEBF0FBE01
:1016E000CDBFE62E992344F42DE230E038872F83D6
:1016F00091958195910901C01F824AE0BE016F5FFB
:101700007F4F0E94D917BE016F5F7F4FCE010796B2
:101710000E94C717BE01695F7F4FCE0101960E94EC
:10172000D217E1100FC020C0D886CF82B801CE01F9
:1017300007960E94C717BE01695F7F4FC8010E94CC
:10174000D21708C08E010F5F1F4FF12C6894CC2474
:10175000C5F8D12CF80101900020E9F73197E01B82
:10176000F10BEE15FF0500F3CE0101960E948615E0
:101770002C960FB6F894DEBF0FBECDBFDF91CF9190
:101780001F910F91FF90EF90DF90CF900895CF922F
:10179000DF92EF92FF920F931F93CF93DF93CDB71A
:1017A000DEB766970FB6F894DEBF0FBECDBFE42E4E
:1017B000992364F42DE230E03D872C879095809545
:1017C000709561957F4F8F4F9F4F01C01C862AE017
:1017D000AE014F5F5F4F0E94E317BE016F5F7F4F07
:1017E000CE010C960E94C717BE01645F7F4FCE01E9
:1017F00001960E94D217E1100FC020C0DD86CC8672
:10180000B801CE010C960E94C717BE01645F7F4FDE
:10181000C8010E94D21708C08E010F5F1F4FF12C24
:101820006894CC24C5F8D12CF80101900020E9F788
:101830003197E01BF10BEE15FF0500F3CE01019689
:101840000E94861566960FB6F894DEBF0FBECDBF18
:10185000DF91CF911F910F91FF90EF90DF90CF908C
:1018600008955F926F927F928F929F92AF92BF92F4
:10187000CF92DF92EF92FF920F931F93CF93DF935C
:10188000CDB7DEB764970FB6F894DEBF0FBECDBFFD
:101890004C01762EC42E442389F0842F01E010E001
:1018A0009801220F331F000F111F000F111F000F8F
:1018B000111F020F131F815099F702C001E010E0C1
:1018C000C401992024F48827992788199909582E4A
:1018D000692EB8010E946A174AE0BE016F5F7F4F10
:1018E0000E94D917CE0101967C01D12C0F2EF0E376
:1018F000AF2EB12CF02D0DC0BC86AB86B701CE014A
:101900000B960E94C717BE01655F7F4FC7010E94FB
:10191000D217F70101900020E9F73197EE19FF097E
:10192000EC15FD0548F37E019BE0E90EF11C852DC9
:10193000962DB8010E946A17CB014AE0B7010E94B8
:10194000D917F70101900020E9F731978EE290E076
:1019500091838083BE016F5F7F4FC7010E94C717CD
:1019600099202CF48DE290E09A83898301C019823A
:10197000BE01655F7F4FCE0101960E94C7177110AF
:101980000FC021C0DC86CB86B801CE010B960E9429
:10199000C717BE01655F7F4FC8010E94D21709C0FB
:1019A0008E010F5F1F4FE72CF12C6894CC24C5F8F3
:1019B000D12CF80101900020E9F73197E01BF10BE1
:1019C000EE15FF05F8F2CE0101960E948615649689
:1019D0000FB6F894DEBF0FBECDBFDF91CF911F9140
:1019E0000F91FF90EF90DF90CF90BF90AF909F90BE
:1019F0008F907F906F905F900895CF93DF93CDB7D6
:101A0000DEB729970FB6F894DEBF0FBECDBF99E0C1
:101A1000EEE0F2E0DE01119601900D929A95E1F769
:101A2000FE01319620E030E090E070E361E3AC012C
:101A3000022E02C0559547950A94E2F740FF02C076
:101A4000608301C070832F5F3F4F3196283031058E
:101A500071F7CE0101960E94861529960FB6F8946B
:101A6000DEBF0FBECDBFDF91CF910895EF92FF9201
:101A70000F931F93CF93DF93CDB7DEB72F970FB69A
:101A8000F894DEBF0FBECDBF8C01FC013281818195
:101A900019821B821A821C821D821E821F82208153
:101AA000223509F03DC0833509F0A9C6343509F067
:101AB000A6C683818A3089F41092C90487E192E036
:101AC0000E94971598E088E10FB6F894A895809346
:101AD00060000FBE90936000FFCF803209F08FC688
:101AE000F8018481813309F08AC685818A3009F042
:101AF00086C61092C9046FEF7FEF8FE490E00E94DA
:101B000079188EE192E00E94971598E088E10FB66F
:101B1000F894A895809360000FBE90936000FFCF6B
:101B200090E0932B233509F007C5F801238120327B
:101B300009F002C28035F2E59F0709F49BC1C8F4A1
:101B400085343EE4930771F150F48E34F4E49F073A
:101B500009F437C18435944409F45FC1E9C188347C
:101B600030E5930709F4ABC08D34904509F4E8C023
:101B7000DFC18035F3E59F07B1F150F4843433E5DC
:101B8000930709F466C08D34934509F47DC0D0C134
:101B90008335F3E59F0709F441C08334944509F484
:101BA00092C1C6C1F8018481813359F485818A309C
:101BB000B1F481E08093C904729A8CE292E0B7D7C5
:101BC0001EC6803361F4F80185818A3041F4109299
:101BD000C90437D9729882E392E0A9D710C688E386
:101BE00092E0A5D70CC6F8018481813341F4858148
:101BF0008A3081F4ADD983E492E099D700C680336E
:101C000049F4F80185818A3029F41BD989E492E0EE
:101C10008ED7F5C588E392E08AD7F1C5F8018481B3
:101C2000813341F485818A3081F4B0D98FE492E028
:101C30007ED7E5C5803349F4F80185818A3029F4DF
:101C400000D985E592E073D7DAC588E392E06FD7D3
:101C5000D6C5F8018481813341F485818A3081F4CD
:101C60008BE592E064D798D9CAC5803349F4F8016E
:101C700085818A3029F4E5D881E692E058D7BFC53E
:101C800088E392E054D7BBC5F8018481813341F4E5
:101C900085818A3081F487E692E049D78BD9AFC538
:101CA000803349F4F80185818A3029F4CAD88DE659
:101CB00092E03DD7A4C588E392E039D7A0C5AE0134
:101CC0004C5F5F4F66E0C80104963ADC811104C0A6
:101CD00088E392E02CD793C58C819D81AE81BF8132
:101CE000AC01BD014951510961097109483A544D8E
:101CF0006140710540F0892B8A2B8B2B21F083E703
:101D000092E015D77CC58EE792E000D76C817D818B
:101D10008E819F8141E03BDD83E892E008D74C81D2
:101D20005D816E817F814093E4035093E50360936E
:101D3000E6037093E70389E490E00E9474185FC59E
:101D4000AE014C5F5F4F66E0C8010496F9DB81117C
:101D500004C088E392E0EBD652C58C819D81AE81B0
:101D6000BF81AC01BD014951510961097109483A6E
:101D7000544D6140710540F0892B8A2B8B2B21F04B
:101D800083E792E0D4D63BC587E892E0BFD66C816A
:101D90007D818E819F8141E0FADC83E892E0C7D6A5
:101DA0004C815D816E817F814093C4045093C50452
:101DB0006093C6047093C70483E490E00E94741893
:101DC0001EC5AE014E5F5F4F66E0C801049643DB5F
:101DD000811104C088E392E0AAD611C58A819B8153
:101DE0000197883E934020F083E792E0A0D607C594
:101DF0008CE892E08BD661E08A819B8162DC81E98C
:101E000092E095D66A817B817093E9036093E80341
:101E100089E390E00E947918F2C4AE014E5F5F4FF3
:101E200066E0C801049617DB811104C088E392E0E4
:101E30007ED6E5C48A819B810197883E934020F03D
:101E400083E792E074D6DBC489E992E05FD641E093
:101E500061E08A819B8105DD83E892E068D66A8132
:101E60007B817093E2036093E1038BE390E00E9437
:101E70007918C5C4F80101900020E9F7CF010E9749
:101E80008017910721F088E392E051D6B8C4BE01D3
:101E90006F5F7F4FC8010496F3DB811104C088E3B4
:101EA00092E045D6ACC48EE992E030D68981A5DDBA
:101EB00085E293E03CD669816093D50488E390E0A5
:101EC0000E9466189CC4F80101900020E9F7CF0138
:101ED0000E978017910721F088E392E028D68FC4EF
:101EE00067ED74E0CE0108960E94D21788E0F801F1
:101EF0003496A7EDB4E001900D928A95E1F748E0A1
:101F000050E060E370E087ED94E00E945D18BE0150
:101F1000685F7F4F87ED94E00E94F40683EA92E0C9
:101F2000F5D587ED94E0F2D585E293E000D667C45D
:101F300088EA92E0FCD563C40F2EF0EDFF2EF02D61
:101F4000F20EF7E0FF1508F4F3C2F80124812834FB
:101F500009F48DC138F4213409F48DC1223409F417
:101F6000EFC1E2C22D3409F4C2C0243509F4C9C15D
:101F70002C3409F0D9C28D34F3E49F0709F469C009
:101F800089342EE4920729F08834934409F0ABC0D9
:101F900018C0F80185818A3021F088E392E0C7D526
:101FA0002EC40F2DFF0C110BC8010E94B10184EB50
:101FB00092E0ACD561E0C80184DB84E393E0B7D55F
:101FC0001EC4AE014E5F5F4F64E0C801069643DA5F
:101FD000811104C088E392E0AAD511C48A819B8153
:101FE0008D3D954020F083E792E0A1D508C488EBB1
:101FF00092E08CD50F2DFF0C110B61E0C80161DB65
:102000008CEB92E083D561E08A819B815ADB8FEB78
:1020100092E08DD5C80101976A817B81FC01EE0FAA
:10202000FF1FE259FB4F208131812617370709F442
:10203000E6C3880F991F7F0171836083805E9F4F85
:102040000E947918B801F701808191810E94830173
:10205000D6C3AE014E5F5F4F63E0C8010696FBD961
:10206000811104C088E392E062D5C9C38A819B8153
:10207000C297893C910520F083E792E058D5BFC311
:1020800083EC92E043D50F2DFF0C110B61E0C801EA
:1020900018DB8CEB92E03AD541E061E08A819B81CC
:1020A000E0DB8FEB92E043D5C80101976A817B8129
:1020B000FC01EE0FFF1FEF52FC4F208131812617EC
:1020C000370709F49CC3880F991F7F0171836083D0
:1020D000805F9F4F0E947918B801F701808191813C
:1020E0000E949A018CC388EA92E021D588C38D347E
:1020F000F3E49F0709F442C08D3426E5920709F402
:1021000078C08834934409F0AEC0AE014E5F5F4F93
:1021100064E0C80106969FD9811104C088E392E06B
:1021200006D56DC38A819B818938934120F083E76E
:1021300092E0FDD464C387EC92E0E8D461E08A8148
:102140009B81BFDA8FEB92E0F2D46A817B81809130
:102150008104909182048617970709F450C3709305
:102160008204609381048DE490E0C3D76F2D809149
:102170008104909182040E94CA0041C3AE014E5F67
:102180005F4F63E0C801069666D9811104C088E3F9
:1021900092E0CDD434C38A819B81C297893C91055A
:1021A00020F083E792E0C3D42AC383ED92E0AED45B
:1021B00041E061E08A819B8154DB8FEB92E0B7D4F0
:1021C0006A817B8180916C0490916D0486179707DA
:1021D00009F415C370936D0460936C0487E490E078
:1021E00088D76F2D80916C0490916D040E94EE0051
:1021F00006C3AE014E5F5F4F64E0C80106962BD95F
:10220000811104C088E392E092D4F9C28A819B8153
:10221000845691098D36974020F083E792E087D469
:10222000EEC28FED92E072D442E061E08A819B8140
:1022300018DB8BEE92E07BD46A817B818091CF03A7
:102240009091D0038617970709F4D9C27093D003F1
:102250006093CF0381E490E04CD76F2D8A819B81FE
:102260000E941201CCC288EA92E061D4C8C28EEE0C
:1022700092E05DD4C4C287359F4409F0C0C2AE016C
:102280004E5F5F4F64E0C8010696E5D8811104C037
:1022900088E392E04CD4B3C28A819B81813197421A
:1022A00020F083E792E043D4AAC289E093E02ED4E1
:1022B00061E08A819B8105DA82E193E038D46A810A
:1022C0007B8170937F0460937E048FE390E011D74D
:1022D0006A817B8180917E0490917F0486179707A5
:1022E00009F48DC270937F0460937E048FE390E0C5
:1022F00000D76F2D80917E0490917F040E9443014E
:102300007EC28335944509F07AC2F80185818A300E
:1023100021F088E392E00BD472C286E193E0F6D319
:102320000F2DFF0C110B61E0C801CBD985E293E0C2
:10233000FED3C8010E94D302C8010E945D045FC29F
:102340008235F4E49F0709F4BEC048F4823532E4D4
:10235000930731F18235934409F484C050C2823529
:10236000FCE49F0709F44DC089349E4409F047C23C
:10237000F80185818A3021F088E392E0D8D33FC20A
:102380000F2DFF0C110BC8010E940D0284EB92E08F
:10239000BDD361E0C80195D988E293E0C8D32FC2CC
:1023A000F8018681813399F487818A3031F50F2DC8
:1023B000FF0C110BC8010E945A0286E293E0A6D3DB
:1023C00061E0C8017ED98AE293E0B1D318C28033BC
:1023D000A1F4F80187818A3081F40F2DFF0C110BD5
:1023E000C8010E94C20286E293E090D361E0C80176
:1023F00068D98EE293E09BD302C288E392E097D340
:10240000FEC1F8018681813399F487818A3031F5E4
:102410000F2DFF0C110BC8010E94740282E393E0A0
:1024200075D361E0C8014DD98AE293E080D3E7C15A
:102430008033A1F4F80187818A3081F40F2DFF0CDD
:10244000110BC8010E94C20282E393E05FD361E0F6
:10245000C80137D98EE293E06AD3D1C188E392E014
:1024600066D3CDC1F8018681813399F487818A30A2
:1024700031F50F2DFF0C110BC8010E948E0286E36F
:1024800093E044D361E0C8011CD98AE293E04FD3C2
:10249000B6C18033A1F4F80187818A3081F40F2D11
:1024A000FF0C110BC8010E94C20286E393E02ED3F9
:1024B00061E0C80106D98EE293E039D3A0C188E378
:1024C00092E035D39CC1F8018681813399F48781EC
:1024D0008A3031F50F2DFF0C110BC8010E94A802A4
:1024E0008AE393E013D361E0C801EBD88AE293E07A
:1024F0001ED385C18033A1F4F80187818A3081F42D
:102500000F2DFF0C110BC8010E94C2028AE393E059
:10251000FDD261E0C801D5D88EE293E008D36FC147
:1025200088E392E004D36BC188EA92E000D367C1EC
:1025300088EA92E0FCD263C1273409F05DC1F8015A
:1025400023812A3009F000C18834F0E59F0709F49F
:1025500044C0C8F48E3434E4930709F45CC050F4EA
:102560008035F1E49F0709F4B3C08934944409F439
:10257000A8C0E6C0843534E4930709F459C0853413
:102580009E44F9F0DDC08334F4E59F0709F468C088
:1025900048F48D3430E5930789F18035924509F48C
:1025A00055C0CEC08D34F6E59F0709F474C086345B
:1025B00027E5920709F47EC08834964509F0C0C02B
:1025C00059C08EE393E0A2D28091C90461E090E00B
:1025D00078D885E293E0ABD212C183E493E096D23F
:1025E0006091E4037091E5038091E6039091E70325
:1025F00041E0CDD883E892E09AD201C188E493E02B
:1026000085D261E08091C4049091C5045AD883E8D2
:1026100092E08DD2F4C08DE493E078D261E08091B5
:10262000E8039091E9034DD881E992E080D2E7C0B8
:1026300082E593E06BD241E061E08091E10390910B
:10264000E2030FD983E892E072D2D9C087E593E024
:102650005DD28091D504D1D985E293E068D2CFC014
:102660008CE593E053D287ED94E050D285E293E07D
:102670005ED2C5C081E693E049D26091CB037091F0
:10268000CC038091CD039091CE0341E080D882E1CC
:1026900093E04DD2B4C086E693E038D26091CF0388
:1026A0007091D00380E090E041E071D882E193E046
:1026B0003ED2A5C08BE693E029D28FE693E037D2D5
:1026C0009EC085E893E022D289E893E030D297C09B
:1026D00083EA93E01BD28091C90461E090E00E94FC
:1026E000610B8BEA93E012D261E0809181049091BA
:1026F00082040E94610B8BEA93E008D241E061E022
:1027000080916C0490916D04ACD88BEA93E0FED17B
:102710006091E4037091E5038091E6039091E703F3
:1027200041E035D88BEA93E0F1D161E08091C404B7
:102730009091C5040E94610B85E293E0F8D15FC0DF
:1027400088EA92E0F4D15BC00F2EF0EDFF2EF02D61
:10275000F20EE7E0EF1508F44BC0F80124812C34A9
:1027600009F042C08834F3E49F0721F08D3493448C
:10277000E1F036C08DEA93E0C9D10F2DFF0C110BAB
:1027800061E0C8010E94610B8CEB92E0BFD1F801BF
:10279000EE0FFF1FE459FB4F61E0808191810E94A1
:1027A000610B8FEB92E0C3D12AC081EB93E0AED1F5
:1027B0000F2DFF0C110B61E0C8010E94610B8CEB27
:1027C00092E0A4D1F801EE0FFF1FE153FC4F41E06E
:1027D00061E08081918145D88FEB92E0A8D10FC054
:1027E00088EA92E0A4D10BC088EA92E0A0D107C0A9
:1027F00088EA92E09CD103C088EA92E098D12F96B3
:102800000FB6F894DEBF0FBECDBFDF91CF911F9101
:102810000F91FF90EF900895F5D08093E9048823FD
:1028200039F08BEE93E09093E8048093E7041EC99F
:1028300008951F920F920FB60F9211240BB60F92AC
:102840008F939F93EF93FF938091BD03882329F08B
:102850008091C6008093D30435C08091BF0381115D
:102860002DC0E091C003F0E08091C600E659FA4F18
:102870008083E091C003F0E0E659FA4F80818A300E
:1028800029F48091BE038F5F8093BE038091C003C3
:102890008F5F8093C0038091C003803811F4109241
:1028A000C0039091C0038091C103981303C081E0DD
:1028B0008093BF0385E08093D30404C08091C60059
:1028C0008093D304FF91EF919F918F910F900BBE56
:1028D0000F900FBE0F901F9018951F920F920FB67A
:1028E0000F9211240BB60F928F939F93EF93FF9348
:1028F0008091000281111DC08091BC038F5F809385
:10290000BC038091BC03803811F41092BC039091F9
:10291000BC038091BB03981304C081E08093000244
:1029200008C0E091BC03F0E0E651FB4F808180934A
:10293000C60085E08093D304FF91EF919F918F9122
:102940000F900BBE0F900FBE0F901F9018958F9297
:102950009F92AF92BF92CF92DF92EF92FF92699ACD
:10296000E1ECF0E020812861208320812068208331
:10297000208120642083E2ECF0E020812660208327
:102980006C01E12CF12CA0E2B3E0A7019601F5D295
:102990004B015C0124E2920E24EFA21EB11CA0E4C4
:1029A000B6E0A7019601E9D29B01AC01C501B401D3
:1029B000A5D2215031093093C5002093C400FF9067
:1029C000EF90DF90CF90BF90AF909F908F90089541
:1029D00080E492E0BCCF0895E1ECF0E080818F7755
:1029E0008083A6ECB0E02C911092C1031092C0033A
:1029F0008C911092BF031092BE03908190689083D7
:102A0000820F0895CF93C091BE03CC2309F440C038
:102A100080E0A1ECB0E0282F30E0E091C103F0E0CD
:102A2000E659FA4F9081F901E551FC4F90839C9152
:102A30009F779C939091C1039F5F9093C103909166
:102A4000C103903811F41092C1031092BF039C91FE
:102A500090689C93F901E551FC4F90819A3091F474
:102A6000E1ECF0E090819F7790839091BE039150CC
:102A70009093BE03908190689083F901E551FC4FDB
:102A800011820CC091118F5F88232CF680E006C064
:102A90008091BF03882311F09FDF8C2FCF91089581
:102AA000382F2091BB039091BC03291304C080915F
:102AB0000002882351F1E091BB03F0E0E651FB4FA7
:102AC0003083E1ECF0E080818F7B80838091BB03D9
:102AD0008F5F8093BB038091BB03803811F4109209
:102AE000BB0380910002882351F0E091BC03F0E029
:102AF000E651FB4F80818093C60010920002E1EC0A
:102B0000F0E080818064808381E00895CF93DF933B
:102B1000EC018881882341F08881C2DF8823E1F3BA
:102B2000219688818111F8CFDF91CF910895CF93BD
:102B3000DF93EC018881882341F08881B1DF88230D
:102B4000E1F3219688818111F8CF8AE0A9DF8823FB
:102B5000E1F3DF91CF9108951092D5001092D40047
:102B6000289A2398229A219A84E58CBD8CB5806896
:102B70008CBD8CB580688CBD8CB583608CBD089590
:102B800090930302809302026093C4034093C303B3
:102B90002093010208959091C303992319F088238B
:102BA000A9F002C0811112C0E0910202F09103026B
:102BB000208181E090E00090C40302C0880F991F3B
:102BC0000A94E2F78095822380830895E0910202BF
:102BD000F0910302208181E090E00090C40302C0E4
:102BE000880F991F0A94E2F7822B8083089581341D
:102BF00008F080E4A4E8B4E020E015C0E091CA0346
:102C0000F0E0E65DF94F90819D932F5F9091CA03AC
:102C10009F5F9093CA039091CA03903411F410926D
:102C2000CA031092C8033091CA039091C9033913A3
:102C300004C09091C803992319F02813DFCF089599
:102C4000822F08958091C803811106C08091C90325
:102C50009091CA03891B089580E408958091C5036B
:102C60009091C603891B08958CB58F778CBD2EB5C6
:102C70001092CA031092C9038EB51092C8039CB576
:102C800090689CBD820F08951F920F920FB60F920D
:102C900011240BB60F922F933F934F935F936F9333
:102CA0007F938F939F93AF93BF93EF93FF93809105
:102CB000C803811124C0E091C903F0E08EB5E65D40
:102CC000F94F80838091C9038F5F8093C9038091FE
:102CD000C903803411F41092C9039091C903809103
:102CE000CA03981303C081E08093C8039091C20384
:102CF00080910102981304C01092C70301C0B4DF91
:102D000085EB93E00E945E0BFF91EF91BF91AF9135
:102D10009F918F917F916F915F914F913F912F91F3
:102D20000F900BBE0F900FBE0F901F9018951F9223
:102D30000F920FB60F9211240BB60F922F933F9361
:102D40004F935F936F937F938F939F93AF93BF93B3
:102D5000EF93FF938091C703882349F18091C803C3
:102D6000811124C0E091C903F0E08EB5E65DF94F12
:102D700080838091C9038F5F8093C9038091C903C9
:102D8000803411F41092C9039091C9038091CA0351
:102D9000981303C081E08093C8039091C20380918F
:102DA000010298130EC01092C70307C05DDF909117
:102DB000C20380910102981304C080E0ECDE1092FF
:102DC000C20380910402811123C08091C6038F5FEA
:102DD0008093C6038091C603803411F41092C60319
:102DE0009091C5038091C603981304C081E080933D
:102DF00004020EC081E0CFDEE091C603F0E0E651B0
:102E0000FA4F80818EBD8091C2038F5F8093C20391
:102E1000FF91EF91BF91AF919F918F917F916F91B2
:102E20005F914F913F912F910F900BBE0F900FBE6E
:102E30000F901F901895382F2091C5039091C603CD
:102E4000291304C080910402882361F1E091C50335
:102E5000F0E0E651FA4F30838CB58F778CBD8091CE
:102E6000C5038F5F8093C5038091C503803411F43F
:102E70001092C50380910402882381F081E08BDEEB
:102E8000E091C603F0E0E651FA4F80818EBD80915B
:102E9000C2038F5F8093C203109204028CB58068D6
:102EA0008CBD81E008951F93CF93DF93EC01162F23
:102EB000662339F08881BFDF8823E1F32196115022
:102EC000C9F7DF91CF911F91089521E02093C703A7
:102ED000EACF0895AA1BBB1B51E107C0AA1FBB1F65
:102EE000A617B70710F0A61BB70B881F991F5A9596
:102EF000A9F780959095BC01CD010895A1E21A2E05
:102F0000AA1BBB1BFD010DC0AA1FBB1FEE1FFF1F8D
:102F1000A217B307E407F50720F0A21BB30BE40BDD
:102F2000F50B661F771F881F991F1A9469F7609524
:102F30007095809590959B01AC01BD01CF010895DE
:102F4000EE0FFF1F881F8BBF0790F691E02D19949D
:102F5000A29FB001B39FC001A39F700D811D1124DA
:102F6000911DB29F700D811D1124911D0895F0DFF8
:102F7000B7FF0895821B930B0895EADFA59F900D7C
:102F8000B49F900DA49F800D911D11240895FB0105
:102F9000DC010D900020E9F7119701900D920020BF
:102FA000E1F70895FB01DC0101900D920020E1F7AB
:102FB0000895BB274A3031F4992322F4BDE290955D
:102FC00081959F4F30C0BB272A3051F4992342F49A
:102FD000BDE290958095709561957F4F8F4F9F4F83
:102FE00001C0BB27FA01A62F621771058105910563
:102FF000330B30FB66F0AA27660F771F881F991FD7
:10300000AA1FA21710F0A21B63953850A9F7A05D64
:10301000AA3308F0A95DA19336F7B111B1931082DC
:10302000CA0119C0BB27FB015527AA27880F991F82
:10303000AA1FA41710F0A41B83955051B9F7A05DE7
:10304000AA3308F0A95DA193009779F7B111B19364
:103050001192CB0100C0DC01FC01672F7191772335
:10306000E1F7329704C07C916D9370836291AE1743
:10307000BF07C8F30895DC01CB01FC01F999FECF2D
:1030800006C0F2BDE1BDF89A319600B40D924150F0
:103090005040B8F70895F999FECF92BD81BDF89AD6
:1030A000992780B50895A6E1B0E044E050E0E5CF6F
:1030B000A8E1B0E042E050E0E0CFDC01CB0102C08B
:1030C0002D9105D041505040D8F70895262FF999F9
:1030D000FECF1FBA92BD81BD20BD0FB6F894FA9AFB
:1030E000F99A0FBE01960895242FF1DF252FEFDF07
:0C30F00000C0ECDF272FEBCFF894FFCFDF
:1030FC0001012500013030303030303030003030BC
:10310C00303030303030007265626F6F7400666141
:10311C0063746F72792072657365740053454E3D0C
:10312C00310053454E3D3000464F524D41542045E1
:10313C005252005350533D31005350533D300053C5
:10314C0053533D31005353533D30005344533D31A1
:10315C00005344533D3000534D533D3100534D53B8
:10316C003D30004E554D4245522045525200534879
:10317C00503D00206D7300534D503D00534E443D67
:10318C00002070756C736573005354443D005350AC
:10319C00523D005343543D00434F4D4D414E44204E
:1031AC004552520053494E00534843004C3D0020B9
:1031BC006D4100534D4300534843204D4F534645FA
:1031CC00543D00534D43204D4F534645543D005301
:1031DC004D56204D4F534645543D002056004675E4
:1031EC006E6374696F6E206E6F74207265616C69AA
:1031FC007A656420796574210053574F20416D70B6
:10320C003D00206D560053535420536C6F742D5455
:10321C006573743A200053524200423D3100423DE6
:10322C00300053524C005352430053524400474514
:10323C004E3D004748503D00474D503D00474E44E1
:10324C003D004754443D004750523D004743543DD8
:10325C00004748563D00474D563D0046573D0052ED
:10326C0074685445435F6D435F556E6974205630E6
:10327C002E302E350049443D00527468544543208D
:10328C005454412D45717569706D656E74205631BD
:10329C005F3000504152414D533D002C0047484394
:0832AC0000474D43006A610078
:00000001FF
