:100000008FC00000AEC00000ACC00000AAC000005D
:10001000A8C00000A6C00000A4C00000A2C000004C
:10002000A0C000009EC000009CC000009AC000005C
:1000300098C000000C945E0B94C0000092C00000B9
:1000400090C000008EC000008CC000008AC000007C
:1000500088C0000086C0000084C0000082C000008C
:100060000C94621B0C94E4187CC000000C943819AA
:1000700078C0000076C0000074C0000072C00000AC
:1000800070C000006EC000006CC000006AC00000BC
:1000900068C0000066C0000064C0000062C00000CC
:1000A00060C000005EC000005CC000005AC00000DC
:1000B00058C0000056C0000054C000000C94160D3B
:1000C0000C94220D0C94630D0C94B20C0C940F1B29
:1000D00048C0000046C0000044C0000042C000000C
:1000E00040C00000650651065306550657065906DE
:1000F0005B065D065F0661061115F415F216F21631
:10010000F216EE16F2160D15F216F216F2167F130F
:100110004614F216F216F216F216F216F216D2156E
:1001200011241FBECFEFD1E2DEBFCDBF00E00CBF78
:1001300013E0A0E0B2E0E2E9FAE300E00BBF02C0A6
:1001400007900D92AC3DB107D9F726E0ACEDB3E0D6
:1001500001C01D92AE3CB207E1F70E94D70A0C9491
:10016000471D4ECF0F931F93CF93DF93D82F8B0153
:10017000C42F8091DC03841307C08091DD0390912C
:10018000DE038617970799F00E94F91A8111FCCFB8
:100190001093DE030093DD03C093DC0323E041E012
:1001A0006C2FC8010E948B1A8CB584608CBD8D2F7A
:1001B0000E94E61BDF91CF911F910F9108951F932D
:1001C000CF93DF93C62F9C01AFEFBFEF0E94731C4C
:1001D00028E833E140E050E00E94491CD22F132F61
:1001E0004C2F62E270E080E0BDDF4C2F62E270E0F5
:1001F000812FB8DF4C2F62E270E08D2FB3DFDF91EB
:10020000CF911F9108951F93CF93DF93C62F9C0129
:10021000AFEFBFEF0E94731C2AEF30E040E050E0E8
:100220000E94491CD22F132F4C2F62E270E082E013
:1002300099DF4C2F62E270E0812F94DF4C2F62E255
:1002400070E08D2F8FDFDF91CF911F9108951F9365
:10025000CF93DF93C62F9C01ABEABAEA0E94731CCE
:10026000DC01B695A79526EF3FEF49E050E00E94EC
:10027000881C665B794F8944964028E833E140E06A
:1002800050E00E94491CD22F132F4C2F65E071E0E3
:1002900080E068DF4C2F65E071E0812F63DF4C2F39
:1002A00065E071E08D2F5EDFDF91CF911F910895A2
:1002B000CF93DF930197EC01CC0FDD1FCE01805E61
:1002C0009F4F0E94231DFE01E853FB4F91838083C3
:1002D000CE01805F9F4F0E94231DC35EDA4F99833A
:1002E0008883DF91CF9108950895CF93CFEFC60F04
:1002F0009C01AFEFBFEF0E94731C20E137E240E0AA
:1003000050E00E94491CDA01C90120E04C2F62E252
:1003100070E00DD6CF9108950F931F93CF93DF9385
:100320008C01E2E0F1E02081EC01219781E090E096
:100330000C2E02C0880F991F0A94E2F7982F90950F
:1003400029232083E8E0F1E020819223908392B179
:10035000982B92B9E5E0F1E09081982B90839BB1C6
:10036000982B9BB998B1982B98B9E1E0F1E0908176
:10037000982B9083E7E0F1E09081982B908391B1E6
:10038000982B91B9E4E0F1E09081982B90839AB199
:10039000982B9AB997B1892B87B92FEF200F42E29A
:1003A00050E061E080E098D5CC0FDD1FC35EDA4FEE
:1003B000B8018881998199DFDF91CF911F910F91C9
:1003C0000895CF93DF930197EC01CC0FDD1FCE0191
:1003D000805E9F4F0E94231DFE01EC54FB4F9183D2
:1003E0008083CE01805F9F4F0E94231DCD50DC4F44
:1003F00099838883DF91CF9108958233910569F0C5
:100400008436910591F04997B9F42FEF260F45E016
:1004100051E064E08AE0FCC508952FEF260F45E027
:1004200051E065E08AE0F4C508952FEF260F45E01E
:1004300051E066E08AE0ECC50895CF93CFEFC60F98
:100440009C01AFEFBFEF0E94731C20E137E240E058
:1004500050E00E94491CDA01C90120E04C2F62E201
:1004600070E065D5CF9108950F931F93CF93DF93DD
:10047000E2E0F1E020818C010150110941E050E0FF
:10048000002E02C0440F551F0A94E2F7942F909556
:1004900029232083E8E0F1E020819223908392B128
:1004A000942B92B9E5E0F1E09081942B90839BB17D
:1004B000942B9BB998B1942B98B9E1E0F1E090812D
:1004C000942B9083E7E0F1E09081942B908391B19D
:1004D000942B91B9E4E0F1E09081942B90839AB150
:1004E000942B9AB997B1492B47B9CFEFC80F2C2F4E
:1004F00042E250E061E081E0EFD42C2F45E051E092
:1005000068EF80E085D52C2F45E051E064E08AE07B
:100510007FD5E801CC0FDD1FFE01EC54FB4FB80185
:10052000808191816ADFCD50DC4FB801888199814B
:1005300084DFDF91CF911F910F9108956FEF680FC6
:100540008BE290E019D59C01A0E1B7E20C94731CFA
:10055000CF93DF93DFEFD80F4D2F65E071E089E097
:1005600079D5C82FC3702D2F45E051E06C2F8AE05C
:100570004FD56C2F64602D2F45E051E08AE048D5BF
:10058000DF91CF910895EF92FF920F931F93CF9336
:10059000DF931F921F92CDB7DEB7FC01228130E0BE
:1005A000322F22278181282B038100531A8219823E
:1005B000273587E4380749F128F42235364409F411
:1005C000CAC0E3C029348EE4380729F027353F44F8
:1005D00009F472C0DAC085818A3029F08EE092E099
:1005E0000E94C80ED6C0002E000C110BC8013CDFC3
:1005F00089E192E00E94C50E61E0C8010E94CB0E25
:1006000082E492E00E94C80EC4C0AE014F5F5F4F0B
:1006100064E0CF0106960E94920D811105C08EE024
:1006200092E00E94C80EB5C089819A8184369105F6
:1006300051F08233910539F0499729F08DE192E02C
:100640000E94C80EA6C088E292E00E94C50E002E4D
:10065000000C110B61E0C8010E94CB0E8CE292E00D
:100660000E94C50E61E089819A810E94CB0E8FE2C3
:1006700092E00E94C80EC801019769817A81FC014D
:10068000EE0FFF1FEC54FB4F2081318126173707F7
:1006900009F47FC0880F991FFC01EC54FB4F7F01C8
:1006A00071836083805E9F4F0E94441DB801F701F3
:1006B00080819181A2DE6DC0AE014F5F5F4F64E02B
:1006C000CF0106960E94920D811105C08EE092E046
:1006D0000E94C80E5EC089819A818131974228F0BC
:1006E0008DE192E00E94C80E54C089E392E00E941E
:1006F000C50E002E000C110B61E0C8010E94CB0E4C
:100700008CE292E00E94C50E43E061E089819A810B
:100710000E949B0F8DE392E00E94C80EC8010197D2
:1007200069817A81FC01EE0FFF1FED50FC4F2081A3
:1007300031812617370769F1880F991F7F0171836F
:100740006083805F9F4F0E94441DB801F701808144
:10075000918173DE1EC085818A3029F08EE092E09F
:100760000E94C80E16C0002E000C110BC801F0DE4E
:1007700080E492E00E94C50E61E0C8010E94CB0EA9
:1007800082E492E00E94C80E04C084E492E00E94D9
:10079000C80E0F900F90DF91CF911F910F91FF9096
:1007A000EF900895CF93DF93FC01D381C0EDCD0F7F
:1007B000228130E0322F22278181282B273587E4C0
:1007C000380779F028F42635364409F461C079C039
:1007D000233589E4380709F43FC027353F44F1F059
:1007E00070C080E592E00E94C50E0C2E000CDD0B5F
:1007F00061E0CE010E94CB0E8CE292E00E94C50E19
:10080000CC0FDD1FCE54DB4F61E0888199810E94BF
:10081000CB0E8FE292E00E94C80E57C084E592E0B2
:100820000E94C50E0C2E000CDD0B61E0CE010E9473
:10083000CB0E8CE292E00E94C50ECC0FDD1FCF5094
:10084000DC4F43E061E0888199810E949B0F8DE33A
:1008500092E00E94C80E39C088E592E00E94C50E61
:1008600061E08C2FCC0F990B0E94CB0E8CE292E0B2
:100870000E94C50E4FEC4D0F65E071E089E0EAD3B0
:1008800090E00E94671088E493E00E94C80E1DC0AB
:100890008CE592E00E94C50E0C2E000CDD0B61E091
:1008A000CE010E94CB0E8CE292E00E94C50ECE01DA
:1008B00045DE61E00E94CB0E80E692E00E94C80E09
:1008C00004C084E492E00E94C80EDF91CF910895A5
:1008D000CF93DF930197EC01CC0FDD1FCE01805E3B
:1008E0009F4F0E94231DFE01EE55FB4F9183808395
:1008F000CE01805F9F4F0E94231DCB5FDB4F99830A
:100900008883DF91CF910895CF93CFEFC60F9C01DD
:10091000AFEFBFEF0E94731C2CED35E040E050E0DC
:100920000E94491CDA01C90120E04C2F62E270E00C
:10093000FED2CF910895CF93CFEFC60F9C01AFEFBA
:10094000BFEF0E94731C2AEF30E040E050E00E94AD
:10095000491CDA01C90122E04C2F62E270E0E7D2C3
:10096000CF9108950F931F93CF93DF938C01E2E013
:10097000F1E02081EC01219781E090E00C2E02C093
:10098000880F991F0A94E2F7982F909529232083C6
:10099000E8E0F1E020819223908392B1982B92B904
:1009A000E5E0F1E09081982B90839BB1982B9BB967
:1009B00098B1982B98B9E1E0F1E09081982B908361
:1009C000E7E0F1E09081982B908391B1982B91B959
:1009D000E4E0F1E09081982B90839AB1982B9AB93A
:1009E00097B1892B87B92FEF200F42E250E065E0E5
:1009F00080E072D2CC0FDD1FFE01EE55FB4FB80137
:100A00008081918181DFCB5FDB4FB8018881998143
:100A100092DFDF91CF911F910F910895CF93E2E084
:100A2000F1E02081BC016150710941E050E002C059
:100A3000440F551F6A95E2F7942F90952923208340
:100A4000E8E0F1E020819223908392B1942B92B957
:100A5000E5E0F1E09081942B90839BB1942B9BB9BE
:100A600098B1942B98B9E1E0F1E09081942B9083B8
:100A7000E7E0F1E09081942B908391B1942B91B9B0
:100A8000E4E0F1E09081942B90839AB1942B9AB991
:100A900097B1492B47B9CFEFC80F2C2F48E250E050
:100AA00060E080E0B5D22C2F48E250E060E08AE0C0
:100AB000AFD2CF910895CF93CFEFC80F2C2F48E23C
:100AC00050E060E08AE0A4D22FEF81EE94E0215064
:100AD00080409040E1F700C000002C2F48E250E039
:100AE00064E28AE095D2CF910895CF93CFEFC80FFB
:100AF0002C2F48E250E060E08AE08AD22FEF81EEAE
:100B000094E0215080409040E1F700C000002C2F7D
:100B100048E250E06AE08AE07BD2CF910895CF931B
:100B2000CFEFC80F2C2F48E250E060E08AE070D28F
:100B30002FEF81EE94E0215080409040E1F700C01B
:100B400000002C2F48E250E061E18AE061D2CF91B1
:100B50000895CF93CFEFC80F2C2F48E250E060E00C
:100B60008AE056D22FEF81EE94E0215080409040F1
:100B7000E1F700C000002C2F48E250E064E18AE079
:100B800047D2CF9108952FEF280F48E250E060E060
:100B90008AE03ED22FEF81EE94E0215080409040D9
:100BA000E1F700C000000895CF93DF93E2E0F1E0A9
:100BB0002081BC016150710941E050E002C0440F46
:100BC000551F6A95E2F7C42FC095922F9C239083FE
:100BD000E8E0F1E090819C23908392B19C2392B94C
:100BE000E5E0F1E090819C2390839BB19C239BB92D
:100BF00098B19C2398B9E1E0F1E09081942B908327
:100C0000E7E0F1E09081942B908391B1942B91B91E
:100C1000E4E0F1E09081942B90839AB1942B9AB9FF
:100C200097B1942B97B998B1492B48B9EFE9FFE0F8
:100C30003197F1F700C00000DFEFD80F2D2F48E209
:100C400050E060E080E0E4D12D2F48E250E06FEF0B
:100C50008AE0DED188B1C823C8B9DF91CF91089569
:100C60000F931F93CF939C0188B1A9014150510963
:100C700001E010E002C0000F111F4A95E2F7802B3F
:100C800088B98FE99FE00197F1F700C000002A3092
:100C90003105C8F4F9018827EE58FF4F8F4F0C94A7
:100CA0006B1C6FEC13C065E211C065E80FC069EC06
:100CB0000DC061E90BC061E109C067EC07C061E0EC
:100CC00005C061E803C06FEF01C063E0CFEFC20F62
:100CD0002C2F48E250E08AE09BD18FE99FE00197FA
:100CE000F1F700C000002C2F48E250E060E080E007
:100CF0008FD18FE99FE00197F1F700C0000088B124
:100D00000095082308B9CF911F910F910895CF93B3
:100D1000DF9328B1AC0141505109C1E0D0E002C0DD
:100D2000CC0FDD1F4A95E2F79C2F922B98B9EFE983
:100D3000FFE03197F1F700C000004FEF480F68E285
:100D400070E08AE087D1813881F158F4833099F1DD
:100D500018F4813039F12CC08131F1F0853281F005
:100D600027C0873CE1F028F4853869F0813989F0A3
:100D70001FC0893C59F08F3CD9F421E030E01DC000
:100D800022E030E01AC023E030E017C024E030E079
:100D900014C025E030E011C026E030E00EC027E0AE
:100DA00030E00BC028E030E008C029E030E005C0AA
:100DB0002FEF3FEF02C020E030E08FE99FE0019786
:100DC000F1F700C0000098B1C095C923C8B9C901A6
:100DD000DF91CF910895E2E0F1E02081AC01415034
:100DE000510981E090E002C0880F991F4A95E2F70F
:100DF000282B20832FEF39E648E121503040404036
:100E0000E1F700C00000A8952081982F9095292334
:100E10002083E8E0F1E02081282B20832FEF39E6C2
:100E200048E1215030404040E1F700C00000A89563
:100E300022B1282B22B92081292320832FEF39E6E4
:100E400048E1215030404040E1F700C00000A89543
:100E5000E5E0F1E02081282B208322B1292322B96B
:100E60002FEF39E648E1215030404040E1F700C023
:100E70000000A8952BB1282B2BB920812923208392
:100E80002FEF39E648E1215030404040E1F700C003
:100E90000000A89528B1822B88B98BB189238BB922
:100EA0008FEF29E638E1815020403040E1F700C063
:100EB0000000A89588B1982398B90895CF93DF933F
:100EC000EC01CEDECE0123DFC817D90711F4CE0125
:100ED00082DFDF91CF910895FF920F931F93CF93FD
:100EE000DF93D82FC62F8A01F22E0E94F91A8111A2
:100EF000FCCF23E041E06F2DC8010E948B1A8CE0EB
:100F00000E94E61B80E00E94E61B8D2F0E94E61BDC
:100F100080E10E94E61B80E00E94E61B8C2F0E946D
:100F2000E61BDF91CF911F910F91FF900895EF92F3
:100F3000FF920F931F93CF93DF93C82FD92F7B017D
:100F4000042F122F0E94F91A8111FCCF23E041E0F7
:100F5000602FC7010E948B1A812F0E94E61B8D2FE4
:100F60000E94E61B8C2F0E94E61BDF91CF911F9100
:100F70000F91FF90EF900895FF920F931F93CF93DF
:100F8000DF931F921F92CDB7DEB78C01F62E0E9421
:100F9000F91A8111FCCF22E041E06F2DC8010E94B7
:100FA0008B1AF801208181E090E002C0880F991F20
:100FB000FA94E2F7982F909592239083FAE0FA95AD
:100FC000F1F700C0F8019081892B8083FAE1FA954E
:100FD000F1F700C019821A8262E0CE0101960E94E8
:100FE000301C0E94ED1A8230E0F382E00E94C21AA7
:100FF000E8EDF4E0808190E0982F88272181822B12
:101000000F900F90DF91CF911F910F91FF90089556
:10101000FF920F931F93CF93DF93D82FC62F8A0190
:10102000F22E0E94F91A8111FCCF23E041E06F2DCE
:10103000C8010E948B1A80E40E94E61B8D2F0E943B
:10104000E61B8C2F0E94E61BDF91CF911F910F9121
:10105000FF900895EF92FF920F931F93CF93DF932A
:1010600000D0CDB7DEB7182F7B01042F0E94F91AEC
:101070008111FCCF23E041E0602FC7010E948B1A51
:1010800081E489831A831B8263E0CE0101960E946A
:10109000301C0E94ED1A8330E0F383E00E94C21AF4
:1010A0008091DA040F900F900F90DF91CF911F91F4
:1010B0000F91FF90EF900895CF93DF931F921F92AF
:1010C000CDB7DEB722E041E066E08BE290E00E941F
:1010D0008B1A5A988AE18A95F1F700C05A9A8AE1E8
:1010E0008A95F1F700C019821A8262E0CE0101965A
:1010F0000E94301C0E94ED1A8230E0F382E00E94D0
:10110000C21AE8EDF4E0A081B0E0BA2FAA278181ED
:10111000A82B2CE63BE60E94821CBC01882799275D
:101120000F900F90DF91CF910895CF93DF931F928F
:101130001F92CDB7DEB722E041E066E08BE290E09F
:101140000E948B1A5A988AE18A95F1F700C05A9A40
:101150008AE18A95F1F700C019821A8262E0CE0115
:1011600001960E94301C0F900F90DF91CF9108954F
:1011700082E00E94C21AE8EDF4E0A081B0E0BA2F4C
:10118000AA278181A82B2CE63BE60E94821CBC0189
:10119000882799270895AF92BF92DF92EF92FF922E
:1011A0000F931F93CF93DF93A398A298A098A19831
:1011B0009B9A9A9A999A989A20E030E002E011E07E
:1011C000EE24E394F12C68E071E045E051E0C1E0E9
:1011D000D1E0A7E0B1E06894AA24A2F8BB24B394BC
:1011E000F801D080C701022E02C0880F991F0A940F
:1011F000E2F7982F9095D922D082FB01D0809D21D3
:10120000908392B1982B92B9FA019081982B908398
:101210009881982B98839C91982B9C9391B1982BB3
:1012200091B9F5019081892B80832F5F3F4F273043
:101230003105B1F6749A719A6C9A699A72986A9AA1
:101240002E98269A2798DF91CF911F910F91FF90AA
:10125000EF90DF90BF90AF90089586E080932E05C9
:1012600039C0809117048A3090F010921704809151
:1012700036058F5F8A3019F08093360508C01092CA
:10128000360580912E05815080932E05A89580917A
:101290002E05863009F4A39A80912E05853011F42D
:1012A000A398A29A80912E05843011F4A39AA29A51
:1012B00080912E05833019F4A398A298A09A80916A
:1012C0002E05823011F4A098A19A80912E058130CC
:1012D00009F4A19880912E058111C3CF0895CF9371
:1012E000DF93CDB7DEB728970FB6F894DEBF0FBEF9
:1012F000CDBF65E070E08FE490E00E94441D62E3A2
:1013000070E08DE490E00E94441D62E370E087E4A9
:1013100090E00E94441D60EE7EE28DE390E00E942A
:10132000441D68EB7BE08FE390E00E94441D49E19F
:1013300050E060E070E089E490E00E943F1D49E1E8
:1013400050E060E070E083E490E00E943F1D6AE0BE
:1013500070E08BE390E00E94441D64E670E089E356
:1013600090E00E94441D60E088E390E00E94311DFF
:1013700088E0E5E0F2E0DE01119601900D928A9599
:10138000E1F748E050E0BE016F5F7F4F80E390E0FF
:101390000E94281D28960FB6F894DEBF0FBECDBF61
:1013A000DF91CF9108950F931F93CF93DF9389E43B
:1013B00090E00E941E1D609318047093190480939E
:1013C0001A0490931B0483E490E00E941E1D609316
:1013D00018057093190580931A0590931B058BE3EC
:1013E00090E00E94231D909316048093150489E3D6
:1013F00090E00E94231D90931D0480931C0488E3B9
:1014000090E00E94161D8093390548E050E060E3AB
:1014100070E08BE395E00E94061D0BE315E0C1E050
:10142000D0E0F80181918F01863459F08C3431F08D
:10143000813451F4CE010E94580106C0CE0148DA31
:1014400003C0CE010E94E1012196C930D10549F7C0
:101450008DE490E00E94231D9093C6048093C50400
:1014600087E490E00E94231D9093A1048093A00440
:101470008DE390E00E94231D909335058093340501
:101480008FE390E00E94231D9093B3048093B204F5
:10149000DF91CF911F910F910895EF92FF920F93DB
:1014A0001F93CF93DF937C01062F172FC1E0D0E06D
:1014B000F70181917F01F80191918F018917E9F07E
:1014C0008634C1F028F4813441F0823469F015C0CB
:1014D0008C3439F0843559F010C0CE010E948C0153
:1014E0000CC0CE013FDA09C0CE0198DA06C0CE01A9
:1014F0005BDB03C0CE010E9434022196C930D105C6
:10150000B9F6DF91CF911F910F91FF90EF90089561
:101510000AD11092080110920201A1980895CF9368
:10152000DF93CDB7DEB728970FB6F894DEBF0FBEB6
:10153000CDBF9EE088E10FB6F894A8958093600037
:101540000FBE90936000A895ACD0C9D0F8D0E0DF72
:1015500022DE8FE490E00E94231D059731F0A39ACC
:10156000A29AA09AA19ABBDEA8957894D6D21BDF46
:1015700010922D058DE790E00E94771A88E0E5E053
:10158000F2E0DE01119601900D928A95E1F7BE011D
:101590006F5F7F4F8BE395E080DF5FDE28960FB6AD
:1015A000F894DEBF0FBECDBFDF91CF910895B7DFB6
:1015B0000E94B719A8950E94D618809117048A3006
:1015C00040F010921704809136058F5F80933605A6
:1015D000F1CF809136058A30D8F01092360580918F
:1015E0001E048F5F80931E0480913705882329F0A5
:1015F000815080933705A09A01C0A09880912D0555
:10160000882319F0A39AA29AD5CFA39AA298D2CFF1
:1016100080911E048A3070F210921E04CBCF83D0CA
:1016200081E08093330510923805A7D0A19A80916C
:10163000180490911904A0911A04B0911B04892BED
:101640008A2B8B2B21F080913905809302018091A8
:1016500039058093080161C00895A19A80913905E8
:101660008093080108955FD081E08093380510923F
:10167000330545D1A19A10920201109208014DC084
:10168000089546DF80913905809308012FEF89EF97
:1016900090E0215080409040E1F700C0000038CF3A
:1016A000089583E08093B0008CE08093B10089EFCF
:1016B0008093B30082E08093700008951F920F9290
:1016C0000FB60F9211248F93809117048F5F809330
:1016D00017048F910F900FBE0F901F90189588E1FF
:1016E0008093810082E8809380008FE396E090935E
:1016F00087008093860080E190E09093890080933A
:1017000088008FEF9FEF90938B0080938A009093D7
:101710008D0080938C00259A0895E1E8F0E08081A7
:10172000816080830895E1E8F0E080818E7F80838E
:101730008FEF9FEF909385008093840008958FE151
:101740008093210180E69AEE9093270180932601F1
:1017500082E0809320018FE08093730081E090E02D
:10176000909329018093280190932B0180932A0163
:1017700090932D0180932C0108958FE59AEE90931C
:1017800025018093240180E69AEE909327018093AF
:1017900026018091180490911904A0911A04B09127
:1017A0001B04803727E19207A105B10550F59C0184
:1017B000220F331F880F991F880F991F880F991FB9
:1017C000820F931F90932901809328012091180480
:1017D00030911904C901880F991F220F331F220F5E
:1017E000331F220F331F820F931F9093470580935F
:1017F000460510924505C29790932D0180932C01C8
:1018000025C08FEF9FEF909329018093280160916D
:1018100018047091190480911A0490911B0420E718
:1018200037E140E050E00E94491CAB01440F551FD6
:10183000660F771F660F771F660F771F640F751F80
:1018400070934705609346052093450580911805E0
:1018500090911905A0911A05B0911B05803727E1D9
:101860009207A105B10528F59C01220F331F880FAF
:10187000991F880F991F880F991F820F931F9093AC
:101880002B0180932A0180911805909119059C01E4
:10189000220F331F880F991F880F991F880F991FD8
:1018A000820F931F90934A05809349051092480533
:1018B00008958FEF9FEF90932B0180932A01609101
:1018C00018057091190580911A0590911B0520E764
:1018D00037E140E050E00E94491CAB01440F551F26
:1018E000660F771F660F771F660F771F640F751FD0
:1018F00070934A05609349052093480508958091A7
:10190000150490911604880F991F01979093270151
:10191000809326018091150490911604815090487F
:10192000880F991F909325018093240180911504BD
:1019300090911604019790932901809328018FEFCD
:101940009FEF90932B0180932A0190932D01809318
:101950002C0180911C0490911D0490934405809368
:10196000430508951F920F920FB60F9211240BB6E4
:101970000F922F933F934F935F936F937F938F9328
:101980009F93AF93BF93EF93FF9380913805882384
:10199000C1F08091390580930201809139058093CF
:1019A000080180914305909144059C012150310923
:1019B0003093440520934305892B29F5B4DE2FDEAF
:1019C00022C0809133058823F1F080914505815034
:1019D00080934505811108C0809146059091470587
:1019E000909329018093280180914805815080932C
:1019F0004805811108C08091490590914A0590934E
:101A00002B0180932A01FF91EF91BF91AF919F919C
:101A10008F917F916F915F914F913F912F910F9097
:101A20000BBE0F900FBE0F901F9018951F920F9234
:101A30000FB60F921124109202010F900FBE0F905B
:101A40001F9018951F920F920FB60F9211240BB68C
:101A50000F922F933F934F935F936F937F938F9347
:101A60009F93AF93BF93EF93FF938FB780688FBF20
:101A70005ADE7EDB6093EF037093F0038093F103F3
:101A80009093F20319DB70930404609303041092A3
:101A900008018FEF9FEF90932B0180932A01A1986B
:101AA000FF91EF91BF91AF919F918F917F916F9136
:101AB0005F914F913F912F910F900BBE0F900FBEF2
:101AC0000F901F9018951F920F920FB60F9211242E
:101AD0000BB60F922F933F934F935F936F937F9328
:101AE0008F939F93AF93BF93EF93FF938FB78068CC
:101AF0008FBF1BDBFF91EF91BF91AF919F918F91B2
:101B00007F916F915F914F913F912F910F900BBEFD
:101B10000F900FBE0F901F9018950E94B31910924E
:101B20004D050895FF920F931F93CF93DF9300D03D
:101B300000D0CDB7DEB78A01DA011D921C92FC01FC
:101B400020812D3221F40196FF24F39401C0F12C61
:101B5000FC013196DC019C9180ED890F89838A30EC
:101B600008F046C080E08F5F282F30E0519190ED63
:101B7000950FA1E0B0E0AC0FBD1FA20FB31F9C9367
:101B80009A3088F35A3081F5681780F1882309F17B
:101B9000982F60E070E0F901E91BF10941E050E0A5
:101BA0004C0F5D1FE40FF51F4081FB01EE0FFF1F7F
:101BB000660F771F660F771F660F771F6E0F7F1FE9
:101BC000640F711D915039F7D8016D937C9301C05A
:101BD00080E0FF2081F0F80120813181319521954D
:101BE00031093183208307C080E005C080E003C055
:101BF0009A3071F380E026960FB6F894DEBF0FBEE0
:101C0000CDBFDF91CF911F910F91FF9008958F92DB
:101C10009F92AF92BF92CF92DF92EF92FF920F937B
:101C20001F93CF93DF93CDB7DEB72B970FB6F89402
:101C3000DEBF0FBECDBF8A01DA011D921D921D923B
:101C40001C921397FC0120812D3219F4019641E07A
:101C500001C040E0FC013196DC019C9180ED890FD0
:101C600089838A3008F05DC080E08F5F282F30E0E4
:101C7000519190ED950FA1E0B0E0AC0FBD1FA20F08
:101C8000B31F9C939A3088F35A3009F046C0681706
:101C900008F445C0882371F1982FC12CD12C76010E
:101CA000F901E91BF10961E070E06C0F7D1FE60F9F
:101CB000F71F5081CC0CDD1CEE1CFF1C46015701A8
:101CC000880C991CAA1CBB1C880C991CAA1CBB1C48
:101CD000C80CD91CEA1CFB1CC50ED11CE11CF11C54
:101CE0009150F1F6D801CD92DD92ED92FC921397CE
:101CF00001C080E04423C1F0F8014081518162813C
:101D0000738170956095509541955F4F6F4F7F4FF0
:101D1000408351836283738307C080E005C080E005
:101D200003C09A3031F380E02B960FB6F894DEBFF3
:101D30000FBECDBFDF91CF911F910F91FF90EF901C
:101D4000DF90CF90BF90AF909F908F900895FC014F
:101D500020E030E080E0A1E0B0E09191903351F0DC
:101D6000913389F4AD01022E02C0440F551F0A942D
:101D7000E2F7840F2F5F3F4F2830310571F7FB01E9
:101D8000808381E0089580E008950C94511A0895AD
:101D90000C94621A0895CF92DF92EF92FF920F9304
:101DA0001F93CF93DF93CDB7DEB72C970FB6F89480
:101DB000DEBF0FBECDBFE62E992344F42DE230E006
:101DC00038872F8391958195910901C01F824AE040
:101DD000BE016F5F7F4F0E94A41CBE016F5F7F4FEB
:101DE000CE0107960E94921CBE01695F7F4FCE0113
:101DF00001960E949D1CE1100FC020C0D886CF82A2
:101E0000B801CE0107960E94921CBE01695F7F4F08
:101E1000C8010E949D1C08C08E010F5F1F4FF12C4E
:101E20006894CC24C5F8D12CF80101900020E9F782
:101E30003197E01BF10BEE15FF0500F3CE01019683
:101E40000E94511A2C960FB6F894DEBF0FBECDBF7C
:101E5000DF91CF911F910F91FF90EF90DF90CF9086
:101E60000895CF92DF92EF92FF920F931F93CF933B
:101E7000DF93CDB7DEB766970FB6F894DEBF0FBE1F
:101E8000CDBFE42E992364F42DE230E03D872C870A
:101E900090958095709561957F4F8F4F9F4F01C0B2
:101EA0001C862AE0AE014F5F5F4F0E94AE1CBE0150
:101EB0006F5F7F4FCE010C960E94921CBE01645F43
:101EC0007F4FCE0101960E949D1CE1100FC020C0E3
:101ED000DD86CC86B801CE010C960E94921CBE0114
:101EE000645F7F4FC8010E949D1C08C08E010F5F78
:101EF0001F4FF12C6894CC24C5F8D12CF801019027
:101F00000020E9F73197E01BF10BEE15FF0500F318
:101F1000CE0101960E94511A66960FB6F894DEBF64
:101F20000FBECDBFDF91CF911F910F91FF90EF902A
:101F3000DF90CF9008955F926F927F928F929F92E1
:101F4000AF92BF92CF92DF92EF92FF920F931F93C7
:101F5000CF93DF93CDB7DEB764970FB6F894DEBFAB
:101F60000FBECDBF4C01762EC42E442389F0842FA2
:101F700001E010E09801220F331F000F111F000F26
:101F8000111F000F111F020F131F815099F702C07C
:101F900001E010E0C401992024F4882799278819CA
:101FA0009909582E692EB8010E94351C4AE0BE01DD
:101FB0006F5F7F4F0E94A41CCE0101967C01D12C43
:101FC0000F2EF0E3AF2EB12CF02D0DC0BC86AB86EA
:101FD000B701CE010B960E94921CBE01655F7F4F38
:101FE000C7010E949D1CF70101900020E9F731977D
:101FF000EE19FF09EC15FD0548F37E019BE0E90EA3
:10200000F11C852D962DB8010E94351CCB014AE0AC
:10201000B7010E94A41CF70101900020E9F7319755
:102020008EE290E091838083BE016F5F7F4FC70196
:102030000E94921C99202CF48DE290E09A8389836F
:1020400001C01982BE01655F7F4FCE0101960E94DB
:10205000921C71100FC021C0DC86CB86B801CE0166
:102060000B960E94921CBE01655F7F4FC8010E94C3
:102070009D1C09C08E010F5F1F4FE72CF12C689447
:10208000CC24C5F8D12CF80101900020E9F7319754
:10209000E01BF10BEE15FF05F8F2CE0101960E9450
:1020A000511A64960FB6F894DEBF0FBECDBFDF9114
:1020B000CF911F910F91FF90EF90DF90CF90BF9045
:1020C000AF909F908F907F906F905F900895CF9387
:1020D000DF93CDB7DEB729970FB6F894DEBF0FBEFA
:1020E000CDBF99E0E4E6F2E0DE01119601900D9299
:1020F0009A95E1F7FE01319627E030E090E070E339
:1021000061E3AC01022E02C0559547950A94E2F7AF
:1021100040FF02C0608301C07083215031093196B5
:102120002F3F4FEF340769F7CE0101960E94511AF5
:1021300029960FB6F894DEBF0FBECDBFDF91CF91C9
:102140000895CF93DF93CDB7DEB729970FB6F894F4
:10215000DEBF0FBECDBF99E0E4E6F2E0DE011196EE
:1021600001900D929A95E1F7FE01319620E030E062
:1021700090E070E361E3AC01022E02C055954795F3
:102180000A94E2F740FF02C0608301C070832F5FB2
:102190003F4F31962830310571F7CE0101960E94EC
:1021A000511A29960FB6F894DEBF0FBECDBFDF914E
:1021B000CF910895DF92EF92FF920F931F93CF93E9
:1021C000DF93CDB7DEB72F970FB6F894DEBF0FBE03
:1021D000CDBF8C01DC0112962C91129711968C9137
:1021E000119719821B821A821C821D821E821F82F5
:1021F0009C91923509F03EC0833509F0C9C724355A
:1022000009F0C6C713968C918A3089F410922D0577
:102210008DE692E00E94621A98E088E10FB6F89489
:10222000A895809360000FBE90936000FFCF80322E
:1022300009F0AEC7F8018481813309F0A9C785810F
:102240008A3009F0A5C710922D056FEF7FEF8FE45C
:1022500090E00E94441D84E792E00E94621A98E098
:1022600088E10FB6F894A895809360000FBE909314
:102270006000FFCFE82EF12CF22A933509F0BAC5A1
:10228000D80113968C91803209F01EC2B0E5EB168E
:10229000B2E5FB0609F4B6C100F5F5E4EF16FEE47D
:1022A000FF06D1F168F43EE4E31634E4F30609F4E2
:1022B00050C184E5E81684E4F80609F476C100C24A
:1022C000A8E4EA16A0E5FA0609F4BDC0BDE4EB16E1
:1022D000B0E5FB0609F4FCC0F3C1E0E5EE16E3E56A
:1022E000FE06E9F168F424E4E21623E5F20609F4B7
:1022F00070C03DE4E31633E5F30609F487C0E0C19E
:1023000083E5E816F80609F447C0A3E4EA16A4E555
:10231000FA0609F4A0C1D4C1F8018481813361F4C3
:1023200085818A30B9F481E080932D05729A82E824
:1023300092E00E94621A2CC7803361F485818A3052
:1023400049F410922D05E4D8729888E892E00E9432
:10235000621A1EC78EE092E00E94621A19C7F80145
:102360008481813349F485818A3089F458D98EE893
:1023700092E00E94621A0CC7803349F485818A304A
:1023800031F4C6D884E992E00E94621A01C78EE057
:1023900092E00E94621AFCC6F8018481813349F4FC
:1023A00085818A3089F459D98AE992E00E94621ABB
:1023B000EFC6803349F485818A3031F4A9D880EAA8
:1023C00092E00E94621AE4C68EE092E00E94621AD5
:1023D000DFC6F8018481813349F485818A3089F42C
:1023E00086EA92E00E94621A3ED9D2C6803349F44E
:1023F00085818A3031F48CD88CEA92E00E94621A8E
:10240000C7C68EE092E00E94621AC2C6F8018481BB
:10241000813349F485818A3089F482EB92E00E940D
:10242000621A2FD9B5C6803349F485818A3031F4D8
:102430006FD888EB92E00E94621AAAC68EE092E002
:102440000E94621AA5C6AE014C5F5F4F66E0C801EC
:102450000496DDDB811105C08EE092E00E94621AD5
:1024600097C68C819D81AE81BF81AC01BD01495170
:10247000510961097109483A544D6140710548F0AC
:10248000892B8A2B8B2B29F08DE192E00E94621A16
:102490007FC68EEB92E00E94511A6C817D818E8105
:1024A0009F8141E0DEDC83EC92E00E94621A4C8165
:1024B0005D816E817F81409318045093190460936D
:1024C0001A0470931B0489E490E00E943F1D60C6CB
:1024D000AE014C5F5F4F66E0C801049698DB811146
:1024E00004C08EE092E0EED753C68C819D81AE8110
:1024F000BF81AC01BD014951510961097109483AD7
:10250000544D6140710540F0892B8A2B8B2B21F0B3
:102510008DE192E0D7D73CC687EC92E0C2D76C81C0
:102520007D818E819F8141E09CDC83EC92E0CAD763
:102530004C815D816E817F81409318055093190510
:1025400060931A0570931B0583E490E00E943F1D81
:102550001FC6AE014E5F5F4F66E0C8010496E2DA27
:10256000811104C08EE092E0ADD712C68A819B81B2
:102570000197883E934020F08DE192E0A3D708C6F2
:102580008CEC92E08ED761E08A819B8104DC81ED46
:1025900092E098D76A817B8170931D0460931C043C
:1025A00089E390E00E94441DF3C5AE014E5F5F4F8A
:1025B00066E0C8010496B6DA811104C08EE092E0AC
:1025C00081D7E6C58A819B810197883E934020F0A0
:1025D0008DE192E077D7DCC589ED92E062D741E0EA
:1025E00061E08A819B81A7DC83EC92E06BD76A81F2
:1025F0007B8170931604609315048BE390E00E9436
:10260000441DC6C5F80101900020E9F7CF010E97DF
:102610008017910721F08EE092E054D7B9C5BE0132
:102620006F5F7F4FC801049692DB811104C08EE07A
:1026300092E048D7ADC58EED92E033D7898181DD38
:1026400088E493E03FD769816093390588E390E09F
:102650000E94311D9DC5F80101900020E9F7CF01CE
:102660000E978017910721F08EE092E02BD790C54E
:102670006BE375E0CE0108960E949D1C88E0F8018E
:102680003496ABE3B5E001900D928A95E1F748E00E
:1026900050E060E370E08BE395E00E94281DBE01EE
:1026A000685F7F4F8BE395E00E944D0A83EE92E0D6
:1026B000F8D68BE395E0F5D688E493E003D768C5B8
:1026C00084E492E0FFD664C50F2EF0EDDF2EF02DEE
:1026D000D80E87E08D1508F489C3D8011496EC91C3
:1026E0008E2F90E0FC01E154F109E431F10508F08E
:1026F00079C38827E458FF4F8F4F0C946B1CBDE4BF
:10270000EB16B3E4FB0609F470C0E9E4EE16EEE460
:10271000FE0639F0F8E4EF16F3E4FF0609F0B2C064
:1027200019C0D80115968C918A3021F08EE092E084
:10273000C9D62EC50D2DDD0C110BC8010E94B204A7
:1027400089E192E0AED661E0C80125DB87E593E040
:10275000B9D61EC5AE014E5F5F4F64E0C801069654
:10276000E1D9811104C08EE092E0ACD611C58A8116
:102770009B818D3D954020F08DE192E0A3D608C568
:1027800088EE92E08ED60D2DDD0C110B61E0C801B4
:1027900002DB8CEE92E085D661E08A819B81FBDAD8
:1027A0008FEE92E08FD6C80101976A817B81FC0190
:1027B000EE0FFF1FEE55FB4F2081318126173707A3
:1027C00009F4E6C4880F991FFC01EE55FB4F7F0109
:1027D00071836083805E9F4F0E94441DB801D701C2
:1027E0008D919C910E948404D3C4AE014E5F5F4FD3
:1027F00063E0C801069696D9811104C08EE092E08C
:1028000061D6C6C48A819B81C297893C910520F01C
:102810008DE192E057D6BCC483EF92E042D60D2DF5
:10282000DD0C110B61E0C801B6DA8CEE92E039D60E
:1028300041E061E08A819B817EDB8FEE92E042D6AF
:10284000C80101976A817B81FC01EE0FFF1FEB5FDE
:10285000FB4F208131812617370709F499C4880F6F
:10286000991FFC01EB5FFB4F7F0171836083805FE9
:102870009F4F0E94441DB801D7018D919C910E94E9
:102880009B0486C484E492E01DD682C4BDE4EB16AA
:10289000B3E4FB0609F446C0EDE4EE16E6E5FE06F9
:1028A00009F47CC0F8E4EF16F3E4FF0609F0B1C0C8
:1028B000AE014E5F5F4F64E0C801069633D98111C7
:1028C00004C08EE092E0FED563C48A819B81893882
:1028D000934120F08DE192E0F5D55AC487EF92E064
:1028E000E0D561E08A819B8156DA8FEE92E0EAD5ED
:1028F0006A817B818091C5049091C60486179707F1
:1029000009F446C47093C6046093C5048DE490E056
:102910000E94441D6D2D8091C5049091C6040E94B3
:10292000DF0036C4AE014E5F5F4F63E0C80106961C
:10293000F9D8811104C08EE092E0C4D529C48A81FF
:102940009B81C297893C910520F08DE192E0BAD538
:102950001FC483E093E0A5D541E061E08A819B81BB
:10296000EADA8FEE92E0AED56A817B818091A00495
:102970009091A1048617970709F40AC47093A104E3
:102980006093A00487E490E00E94441D6D2D809127
:10299000A0049091A1040E940301FAC3AE014E5F0E
:1029A0005F4F64E0C8010696BDD8811104C08EE077
:1029B00092E088D5EDC38A819B81845691098D363A
:1029C000974020F08DE192E07DD5E2C38FE093E067
:1029D00068D542E061E08A819B81ADDA8DE392E0C7
:1029E00071D56A817B8180910304909104048617DC
:1029F000970709F4CDC3709304046093030481E442
:102A000090E00E94441D6D2D8A819B810E942701C8
:102A1000BFC384E492E056D5BBC38BE193E052D5AB
:102A2000B7C389E4E8168EE4F80669F0A7E5EA166C
:102A3000AFE4FA0609F46BC0B7E5EB16B7E4FB06A2
:102A400009F0ADC018C0F80185818A3021F08EE010
:102A500092E038D59DC30D2DDD0C110BC8010E94ED
:102A60008C0189E192E01DD561E0C80194D981EF24
:102A700092E028D58DC3AE014E5F5F4F64E0C80180
:102A8000069650D8811104C08EE092E01BD580C319
:102A90008A819B8101978436910520F08DE192E037
:102AA00011D576C388E292E0FCD40D2DDD0C110B1C
:102AB00061E0C80170D986E393E0F3D461E082E07D
:102AC00090E069D98FE292E0FDD4C8010197FC0142
:102AD000EE0FFF1FE853FB4F408151812A813B815C
:102AE0004217530709F454C3880F991F7F0122E04E
:102AF00030E03183208362E070E0805E9F4FC4D776
:102B0000B801F701808191810E94740141C3AE0137
:102B10004E5F5F4F64E0C801069604D8811104C07F
:102B20008EE092E0CFD434C38A819B818131974279
:102B300020F08DE192E0C6D42BC389E392E0B1D4BA
:102B40000D2DDD0C110B61E0C80125D986E393E062
:102B5000A8D443E061E08A819B81EDD98DE392E0C6
:102B6000B1D4C80101976A817B81FC01EE0FFF1F80
:102B7000E35EFA4F208131812617370709F408C335
:102B8000880F991F7F0171836083805F9F4F7CD77F
:102B9000B801F701808191810E947501F9C284E436
:102BA00092E090D4F3E5EF16F4E5FF0609F0F0C2E9
:102BB000D80115968C918A3021F08EE092E082D473
:102BC000E7C289E393E06DD40D2DDD0C110B61E0BC
:102BD000C801E1D888E493E075D4C8010E94D40507
:102BE000C8010E945E07D4C2B2E5EB16B4E4FB064E
:102BF00009F4C2C060F4F2E5EF16F2E4FF0661F1F9
:102C000022E5E21623E4F20609F486C0C1C232E5E9
:102C1000E3163CE4F30609F44FC089E4E8168EE4B9
:102C2000F80609F0B5C2D80115968C918A3021F0CA
:102C30008EE092E047D4ACC20D2DDD0C110BC80123
:102C40000E940E0589E192E02CD461E0C801A3D86E
:102C50008BE493E037D49CC2F8018681813399F4E8
:102C600087818A3029F50D2DDD0C110BC8010E94DA
:102C70005B0589E493E015D461E0C8018CD88DE44C
:102C800093E020D485C2803399F487818A3081F41F
:102C90000D2DDD0C110BC8010E94C30589E493E0E2
:102CA00000D461E0C80177D881E593E00BD470C20D
:102CB0008EE092E007D46CC2F8018681813399F4EA
:102CC00087818A3029F50D2DDD0C110BC8010E947A
:102CD000750585E593E0E5D361E0C8015CD88DE436
:102CE00093E0F0D355C2803399F487818A3081F420
:102CF0000D2DDD0C110BC8010E94C30585E593E085
:102D0000D0D361E0C80147D881E593E0DBD340C26E
:102D10008EE092E0D7D33CC2F8018681813399F4EA
:102D200087818A3029F50D2DDD0C110BC8010E9419
:102D30008F0589E593E0B5D361E0C8012CD88DE417
:102D400093E0C0D325C2803399F487818A3081F41F
:102D50000D2DDD0C110BC8010E94C30589E593E020
:102D6000A0D361E0C80117D881E593E0ABD310C2CE
:102D70008EE092E0A7D30CC2F80186818133A1F4E2
:102D800087818A3039F50D2DDD0C110BC8010E94A9
:102D9000A9058DE593E085D361E0C8010E94CB0EC3
:102DA0008DE493E08FD3F4C18033A1F487818A301E
:102DB00089F40D2DDD0C110BC8010E94C3058DE5B2
:102DC00093E06FD361E0C8010E94CB0E81E593E0F0
:102DD00079D3DEC18EE092E075D3DAC1C8010E94DA
:102DE000C302D6C184E492E06DD3D2C184E492E000
:102DF00069D3CEC1973409F0C8C1F80183818A3004
:102E000009F018C1F8E4EF16F0E5FF0609F454C024
:102E100000F53EE4E31634E4F30609F46DC068F40B
:102E2000A0E5EA16A1E4FA0609F4C6C0B9E4EB1677
:102E3000B4E4FB0609F4B9C0F9C0E4E5EE16E4E435
:102E4000FE0609F467C0F5E4EF16FEE4FF0639F16B
:102E5000EDC023E4E21624E5F20609F473C060F441
:102E60008DE4E81680E5F806C9F1A0E5EA16A2E5CA
:102E7000FA0609F45DC0DAC0BDE4EB16B6E5FB0660
:102E800009F47CC0E6E4EE16E7E5FE0609F486C028
:102E9000F8E4EF16F6E5FF0609F0C8C05DC081E66C
:102EA00093E0FFD280912D0561E090E00E94CB0E6F
:102EB00088E493E007D36CC186E693E0F2D2609198
:102EC00018047091190480911A0490911B0441E038
:102ED0000E94310F83EC92E0F5D25AC18BE693E069
:102EE000E0D261E080911805909119050E94CB0E07
:102EF00083EC92E0E7D24CC180E793E0D2D261E06C
:102F000080911C0490911D040E94CB0E81ED92E0F3
:102F1000D9D23EC185E793E0C4D241E061E080911F
:102F200015049091160407D883EC92E0CBD230C1FF
:102F30008AE793E0B6D28091390503D988E493E01B
:102F4000C1D226C18FE793E0ACD28BE395E0A9D242
:102F500088E493E0B7D21CC184E893E0A2D26091E8
:102F6000EF037091F0038091F1039091F20341E03F
:102F70000E94310F80E692E0A5D20AC189E893E071
:102F800090D2609103047091040480E090E041E0ED
:102F90000E94310F80E692E095D2FAC08EE893E06D
:102FA00080D282E993E08ED2F3C088EA93E079D2AE
:102FB0008CEA93E087D2ECC086EC93E072D28091E9
:102FC0002D0561E090E00E94CB0E8EEC93E069D27B
:102FD00061E08091C5049091C6040E94CB0E8EECF6
:102FE00093E05FD241E061E08091A0049091A10460
:102FF0000E949B0F8EEC93E054D260911804709164
:10300000190480911A0490911B0441E00E94310F31
:103010008EEC93E046D261E08091180590911905FD
:103020000E94CB0E88E493E04DD2B2C084E492E0DB
:1030300049D2AEC00F2EF0EDDF2EF02DD80E27E0D6
:103040002D1508F49EC08481863409F492C08C3416
:1030500021F0813409F091C046C0B8E4EB16B3E426
:10306000FB0631F0EDE4EE16E3E4FE06E1F037C0D6
:1030700080ED93E016D20D2DDD0C110B61E0C8013F
:103080000E94CB0E8CEE92E00CD2F801EE0FFF1FE7
:10309000E056FB4F61E0808191810E94CB0E8FEE64
:1030A00092E010D275C084ED93E0FBD10D2DDD0CC4
:1030B000110B61E0C8010E94CB0E8CEE92E0F1D1C1
:1030C000F801EE0FFF1FED5FFB4F41E061E08081F3
:1030D00091810E949B0F8FEE92E0F4D159C084E45D
:1030E00092E0F0D155C0F7E5EF16F7E4FF0631F0B6
:1030F00027E5E2162FE4F206E1F037C080E592E022
:10310000D0D10D2DDD0C110B61E0C8010E94CB0E5A
:1031100086E393E0C6D1F801EE0FFF1FEA53FB4FA1
:1031200061E0808191810E94CB0E8FE292E0CAD152
:103130002FC084E592E0B5D10D2DDD0C110B61E0BF
:10314000C8010E94CB0E86E393E0ABD1F801EE0FED
:10315000FF1FE55EFA4F43E061E0808191810E94AC
:103160009B0F8DE392E0AED113C084E492E0AAD12C
:103170000FC0C8010E94D2030BC084E492E0A2D128
:1031800007C084E492E09ED103C084E492E09AD127
:103190002F960FB6F894DEBF0FBECDBFDF91CF9153
:1031A0001F910F91FF90EF90DF900895F6D08093DC
:1031B0004D05882341F08FE194E090934C05809376
:1031C0004B050C94DA1008951F920F920FB60F92D0
:1031D00011240BB60F928F939F93EF93FF938091DF
:1031E000E103882329F08091C6008093370535C01C
:1031F0008091E30381112DC0E091E403F0E0809120
:10320000C600E253FA4F8083E091E403F0E0E2531A
:10321000FA4F80818A3029F48091E2038F5F809396
:10322000E2038091E4038F5F8093E4038091E403E1
:10323000803811F41092E4039091E4038091E50347
:10324000981303C081E08093E30385E08093370502
:1032500004C08091C60080933705FF91EF919F9144
:103260008F910F900BBE0F900FBE0F901F9018956F
:103270001F920F920FB60F9211240BB60F928F93DD
:103280009F93EF93FF938091000281111DC0809165
:10329000E0038F5F8093E0038091E003803811F4B6
:1032A0001092E0039091E0038091DF03981304C033
:1032B00081E08093000208C0E091E003F0E0E25B6F
:1032C000FA4F80818093C60085E080933705FF9197
:1032D000EF919F918F910F900BBE0F900FBE0F90AB
:1032E0001F9018958F929F92AF92BF92CF92DF92CC
:1032F000EF92FF92699AE1ECF0E02081286120834F
:10330000208120682083208120642083E2ECF0E08B
:103310002081266020836C01E12CF12CA0E2B3E037
:10332000A7019601F5D24B015C0124E2920E24EF35
:10333000A21EB11CA0E4B6E0A7019601E9D29B0150
:10334000AC01C501B401A5D2215031093093C500AB
:103350002093C400FF90EF90DF90CF90BF90AF908C
:103360009F908F90089580E492E0BCCF0895E1ECA7
:10337000F0E080818F778083A6ECB0E02C911092F2
:10338000E5031092E4038C911092E3031092E203A0
:10339000908190689083820F0895CF93C091E2034B
:1033A000CC2309F440C080E0A1ECB0E0282F30E04D
:1033B000E091E503F0E0E253FA4F9081F901E15E1C
:1033C000FB4F90839C919F779C939091E5039F5F27
:1033D0009093E5039091E503903811F41092E50382
:1033E0001092E3039C9190689C93F901E15EFB4F7E
:1033F00090819A3091F4E1ECF0E090819F77908396
:103400009091E20391509093E203908190689083B1
:10341000F901E15EFB4F11820CC091118F5F88238F
:103420002CF680E006C08091E303882311F09FDF33
:103430008C2FCF910895382F2091DF039091E003D6
:10344000291304C080910002882351F1E091DF0329
:10345000F0E0E25BFA4F3083E1ECF0E080818F7BBB
:1034600080838091DF038F5F8093DF038091DF0390
:10347000803811F41092DF0380910002882351F00C
:10348000E091E003F0E0E25BFA4F80818093C600B8
:1034900010920002E1ECF0E080818064808381E0A2
:1034A0000895CF93DF93EC018881882341F08881D0
:1034B000C2DF8823E1F3219688818111F8CFDF9163
:1034C000CF910895CF93DF93EC018881882341F059
:1034D0008881B1DF8823E1F3219688818111F8CFBB
:1034E0008AE0A9DF8823E1F3DF91CF91089510925C
:1034F000D5001092D400289A2398229A219A84E524
:103500008CBD8CB580688CBD8CB580688CBD8CB54D
:1035100083608CBD089590930302809302026093B0
:10352000E8034093E7032093010208959091E70395
:10353000992319F08823A9F002C0811112C0E091EB
:103540000202F0910302208181E090E00090E80304
:1035500002C0880F991F0A94E2F780958223808326
:103560000895E0910202F0910302208181E090E051
:103570000090E80302C0880F991F0A94E2F7822B9B
:1035800080830895813408F080E4A8EDB4E020E061
:1035900015C0E091EE03F0E0E257F94F90819D9362
:1035A0002F5F9091EE039F5F9093EE039091EE0357
:1035B000903411F41092EE031092EC033091EE036C
:1035C0009091ED03391304C09091EC03992319F005
:1035D0002813DFCF0895822F08958091EC03811185
:1035E00006C08091ED039091EE03891B089580E45D
:1035F00008958091E9039091EA03891B08958CB5A1
:103600008F778CBD2EB51092EE031092ED038EB520
:103610001092EC039CB590689CBD820F08951F9298
:103620000F920FB60F9211240BB60F922F933F9368
:103630004F935F936F937F938F939F93AF93BF93BA
:10364000EF93FF938091EC03811124C0E091ED038F
:10365000F0E08EB5E257F94F80838091ED038F5FE4
:103660008093ED038091ED03803411F41092ED030B
:103670009091ED038091EE03981303C081E0809355
:10368000EC039091E60380910102981304C010921C
:10369000EB0301C0B4DF88ED93E00E94C80EFF91F8
:1036A000EF91BF91AF919F918F917F916F915F91BA
:1036B0004F913F912F910F900BBE0F900FBE0F9027
:1036C0001F9018951F920F920FB60F9211240BB6F0
:1036D0000F922F933F934F935F936F937F938F93AB
:1036E0009F93AF93BF93EF93FF938091EB03882356
:1036F00049F18091EC03811124C0E091ED03F0E0E9
:103700008EB5E257F94F80838091ED038F5F8093F0
:10371000ED038091ED03803411F41092ED0390914C
:10372000ED038091EE03981303C081E08093EC03D6
:103730009091E6038091010298130EC01092EB0362
:1037400007C05DDF9091E60380910102981304C0E9
:1037500080E0ECDE1092E60380910402811123C028
:103760008091EA038F5F8093EA038091EA038034BB
:1037700011F41092EA039091E9038091EA039813FF
:1037800004C081E0809304020EC081E0CFDEE091AE
:10379000EA03F0E0E25BF94F80818EBD8091E603A1
:1037A0008F5F8093E603FF91EF91BF91AF919F915F
:1037B0008F917F916F915F914F913F912F910F90DA
:1037C0000BBE0F900FBE0F901F901895382F2091B1
:1037D000E9039091EA03291304C08091040288232D
:1037E00061F1E091E903F0E0E25BF94F30838CB5E1
:1037F0008F778CBD8091E9038F5F8093E90380917F
:10380000E903803411F41092E903809104028823C3
:1038100081F081E08BDEE091EA03F0E0E25BF94FBA
:1038200080818EBD8091E6038F5F8093E6031092C6
:1038300004028CB580688CBD81E008951F93CF93FE
:10384000DF93EC01162F662339F08881BFDF8823D0
:10385000E1F321961150C9F7DF91CF911F9108959F
:1038600021E02093EB03EACF0895AA1BBB1B51E193
:1038700007C0AA1FBB1FA617B70710F0A61BB70BE0
:10388000881F991F5A95A9F780959095BC01CD0185
:103890000895A1E21A2EAA1BBB1BFD010DC0AA1F91
:1038A000BB1FEE1FFF1FA217B307E407F50720F0A9
:1038B000A21BB30BE40BF50B661F771F881F991F24
:1038C0001A9469F760957095809590959B01AC016D
:1038D000BD01CF010895EE0FFF1F881F8BBF07901A
:1038E000F691E02D1994A29FB001B39FC001A39F50
:1038F000700D811D1124911DB29F700D811D112429
:10390000911D0895F0DFB7FF0895821B930B089572
:10391000EADFA59F900DB49F900DA49F800D911D8F
:1039200011240895FB01DC010D900020E9F71197A7
:1039300001900D920020E1F70895FB01DC01019058
:103940000D920020E1F70895BB274A3031F4992306
:1039500022F4BDE2909581959F4F30C0BB272A305D
:1039600051F4992342F4BDE290958095709561954C
:103970007F4F8F4F9F4F01C0BB27FA01A62F6217C1
:10398000710581059105330B30FB66F0AA27660FA0
:10399000771F881F991FAA1FA21710F0A21B6395FB
:1039A0003850A9F7A05DAA3308F0A95DA19336F7B6
:1039B000B111B1931082CA0119C0BB27FB01552771
:1039C000AA27880F991FAA1FA41710F0A41B83957C
:1039D0005051B9F7A05DAA3308F0A95DA1930097F3
:1039E00079F7B111B1931192CB0100C0DC01FC0158
:1039F000672F71917723E1F7329704C07C916D9323
:103A000070836291AE17BF07C8F30895DC01CB0144
:103A1000FC01F999FECF06C0F2BDE1BDF89A3196DE
:103A200000B40D9241505040B8F70895F999FECF77
:103A300092BD81BDF89A992780B50895A6E1B0E0BE
:103A400044E050E0E5CFA8E1B0E042E050E0E0CF54
:103A5000DC01CB0102C02D9105D041505040D8F778
:103A60000895262FF999FECF1FBA92BD81BD20BDC2
:103A70000FB6F894FA9AF99A0FBE01960895242F7A
:103A8000F1DF252FEFDF00C0ECDF272FEBCFF8941D
:023A9000FFCF66
:103A92000101250001303030303030303000464FE7
:103AA200524D4154204552520053494E004E554DFD
:103AB200424552204552520053574700463D00208E
:103AC200572F4F2D556E69740053574F00205600E3
:103AD20053524600434F4D4D414E442045525200F1
:103AE2004757470047574F0047534900475646003C
:103AF200206D560030303030303030300072656228
:103B02006F6F7400666163746F727920726573659A
:103B1200740053454E3D310053454E3D30005350E5
:103B2200533D31005350533D30005353533D310008
:103B32005353533D30005344533D31005344533D9E
:103B42003000534D533D3100534D533D30005348E7
:103B5200503D00206D7300534D503D00534E443D87
:103B6200002070756C736573005354443D005350CC
:103B7200523D005343543D00534843004C3D002006
:103B82006D4100534D4300534843204D4F5346452A
:103B9200543D00534D43204D4F534645543D005331
:103BA2004D56204D4F534645543D0046756E637445
:103BB200696F6E206E6F74207265616C697A6564DC
:103BC200207965742100413D0053535420536C6F9A
:103BD200742D546573743A200053524200423D31B1
:103BE20000423D300053524C005352430053524462
:103BF2000047454E3D004748503D00474D503D006F
:103C0200474E443D004754443D004750523D004713
:103C120043543D004748563D00474D563D004657E8
:103C22003D005274685445435F6D435F556E69743D
:103C32002056302E302E350049443D0052746854CF
:103C42004543205454412D45717569706D656E74FC
:103C52002056315F3000504152414D533D002C00FF
:0C3C620047484300474D43006A610000E2
:00000001FF
