S01800004D435F5274685445435F56305F305F352E737265630B
S11300007BC0000099C0000097C0000095C00000AC
S113001093C0000091C000008FC000008DC000009C
S11300208BC0000089C0000087C0000085C00000AC
S113003083C00000BFC700007FC000007DC0000077
S11300407BC0000079C0000077C0000075C00000CC
S113005073C0000071C000006FC000006DC00000DC
S11300600C9456160C94D81367C000000C942C14EE
S113007063C0000061C000005FC000005DC00000FC
S11300805BC0000059C0000057C0000055C000000C
S113009053C0000051C000004FC000004DC000001C
S11300A04BC0000049C0000047C0000045C000002C
S11300B043C0000041C000003FC000000C949209FE
S11300C00C949E090C94DF090C942E090C940316CD
S11300D033C0000031C000002FC000002DC000005C
S11300E02BC0000084037003720374037603780347
S11300F07A037C037E03800311241FBECFEFD1E279
S1130100DEBFCDBF00E00CBF13E0A0E0B2E0EAE741
S1130110F0E300E00BBF02C007900D92AA3BB107C9
S1130120D9F726E0AAEBB3E001C01D92AC34B207C4
S1130130E1F7B9D60C943B1863CF0F931F93CF9379
S1130140DF93D82F8B01C42F8091BA03841307C087
S11301508091BB039091BC038617970799F00E9486
S1130160ED158111FCCF1093BC030093BB03C09326
S1130170BA0323E041E06C2FC8010E947F158CB5BF
S113018084608CBD8D2F0E94DA16DF91CF911F9170
S11301900F9108951F93CF93DF93EC01162F462FF1
S11301A0BC018CE0CADF412FBE0180E0C6DF412FD5
S11301B0BE0180E0C2DF412FBE0180E1BEDF412FDE
S11301C0BE0180E0BADF412FBE0185E0B6DFDF91DA
S11301D0CF911F9108951F93CF93DF93C62F9C0156
S11301E0AFEFBFEF0E94671728E833E140E050E02B
S11301F00E943D17D22F132F4C2F62E270E080E053
S11302009CDF4C2F62E270E0812F97DF4C2F62E27B
S113021070E08D2F92DFDF91CF911F9108951F938E
S1130220CF93DF93C62F9C01AFEFBFEF0E946717F8
S11302302AEF30E040E050E00E943D17D22F132F08
S11302404C2F62E270E082E078DF4C2F62E270E0D3
S1130250812F73DF4C2F62E270E08D2F6EDFDF9110
S1130260CF911F9108951F93CF93DF93C62F9C01C5
S1130270ABEABAEA0E946717DC01B695A79526EFA8
S11302803FEF49E050E00E947C17665B794F894458
S1130290964028E833E140E050E00E943D17D22F19
S11302A0132F4C2F65E071E080E047DF4C2F65E0B1
S11302B071E0812F42DF4C2F65E071E08D2F3DDF2F
S11302C0DF91CF911F9108951F93CF93DF93C62F92
S11302D09C01AFEFBFEF0E94671720E137E240E0D7
S11302E050E00E943D17D22F132F4C2F62E270E092
S11302F080E023DF4C2F62E270E0812F1EDF4C2F61
S113030062E270E08D2F19DFDF91CF911F91089584
S11303107498719A6C9A699A8DE790E00E946B15B3
S1130320749A60E082E290E035DF61E082E290E07E
S113033031DF61E08091600490916104C5DF62E087
S113034082E290E027DF62E085E091E023DF62E073
S113035080916304909164043EDF62E080915E04C6
S113036090915F045CDF62E08091D1039091D203AD
S11303707ADF71980895E2E0F1E02081BC016150D8
S1130380710941E050E002C0440F551F6A95E2F73D
S1130390942F909529232083E8E0F1E02081922393
S11303A0908392B1942B92B9E5E0F1E09081942B83
S11303B090839BB1942B9BB998B1942B98B9E1E0AD
S11303C0F1E09081942B9083E7E0F1E09081942B0D
S11303D0908391B1942B91B9E4E0F1E09081942B56
S11303E090839AB1942B9AB997B1492B47B92FEFBF
S11303F0280F42E250E065E080E08DC20895CF937B
S1130400CFEFC60F9C01AFEFBFEF0E9467172CED33
S113041035E040E050E00E943D17DA01C90120E0D8
S11304204C2F62E270E0A2D2CF910895CF93CFEF28
S1130430C60F9C01AFEFBFEF0E9467172AEF30E0B1
S113044040E050E00E943D17DA01C90122E04C2F40
S113045062E270E08BD2CF910895CF93E2E0F1E0B5
S11304602081BC016150710941E050E002C0440F99
S1130470551F6A95E2F7942F909529232083E8E08D
S1130480F1E020819223908392B1942B92B9E5E01C
S1130490F1E09081942B90839BB1942B9BB998B1FC
S11304A0942B98B9E1E0F1E09081942B9083E7E0FC
S11304B0F1E09081942B908391B1942B91B9E4E075
S11304C0F1E09081942B90839AB1942B9AB997B1CF
S11304D0492B47B9CFEFC80F2C2F48E250E060E01A
S11304E080E069D22C2F48E250E060E08AE063D2D9
S11304F0CF910895CF93CFEFC80F2C2F48E250E04F
S113050060E08AE058D22FEF81EE94E021508040E1
S11305109040E1F700C000002C2F48E250E064E274
S11305208AE049D2CF910895CF93CFEFC80F2C2FF3
S113053048E250E060E08AE03ED22FEF81EE94E0A2
S1130540215080409040E1F700C000002C2F48E289
S113055050E06AE08AE02FD2CF910895CF93CFEF95
S1130560C80F2C2F48E250E060E08AE024D22FEF3D
S113057081EE94E0215080409040E1F700C00000FB
S11305802C2F48E250E061E18AE015D2CF91089522
S1130590CF93CFEFC80F2C2F48E250E060E08AE001
S11305A00AD22FEF81EE94E0215080409040E1F791
S11305B000C000002C2F48E250E064E18AE0FBD147
S11305C0CF9108952FEF280F48E250E060E08AE0D1
S11305D0F2D12FEF81EE94E0215080409040E1F77A
S11305E000C000000895CF93DF93E2E0F1E02081A2
S11305F0BC016150710941E050E002C0440F551F35
S11306006A95E2F7C42FC095922F9C239083E8E06B
S1130610F1E090819C23908392B19C2392B9E5E010
S1130620F1E090819C2390839BB19C239BB998B16A
S11306309C2398B9E1E0F1E09081942B9083E7E06A
S1130640F1E09081942B908391B1942B91B9E4E0E3
S1130650F1E09081942B90839AB1942B9AB997B13D
S1130660942B97B998B1492B48B9EFE9FFE031973A
S1130670F1F700C00000DFEFD80F2D2F48E250E063
S113068060E080E098D12D2F48E250E06FEF8AE0DF
S113069092D188B1C823C8B9DF91CF9108950F933F
S11306A01F93CF939C0188B1A9014150510901E0E6
S11306B010E002C0000F111F4A95E2F7802B88B9A1
S11306C08FE99FE00197F1F700C000002A3031055F
S11306D0C8F4F9018827EE58FF4F8F4F0C945F1729
S11306E06FEC13C065E211C065E80FC069EC0DC082
S11306F061E90BC061E109C067EC07C061E005C0B6
S113070061E803C06FEF01C063E0CFEFC20F2C2F8D
S113071048E250E08AE04FD18FE99FE00197F1F77A
S113072000C000002C2F48E250E060E080E043D19C
S11307308FE99FE00197F1F700C0000088B10095B0
S1130740082308B9CF911F910F910895CF93DF9398
S113075028B1AC0141505109C1E0D0E002C0CC0F36
S1130760DD1F4A95E2F79C2F922B98B9EFE9FFE041
S11307703197F1F700C000004FEF480F68E270E0D6
S11307808AE03BD1813881F158F4833099F118F42F
S1130790813039F12CC08131F1F0853281F027C0EC
S11307A0873CE1F028F4853869F0813989F01FC06D
S11307B0893C59F08F3CD9F421E030E01DC022E09F
S11307C030E01AC023E030E017C024E030E014C069
S11307D025E030E011C026E030E00EC027E030E034
S11307E00BC028E030E008C029E030E005C02FEF5E
S11307F03FEF02C020E030E08FE99FE00197F1F77E
S113080000C0000098B1C095C923C8B9C901DF91DF
S1130810CF910895E2E0F1E02081AC01415051090B
S113082081E090E002C0880F991F4A95E2F7282BD7
S113083020832FEF39E648E1215030404040E1F772
S113084000C00000A8952081982F9095292320832B
S1130850E8E0F1E02081282B20832FEF39E648E1FE
S1130860215030404040E1F700C00000A89522B17B
S1130870282B22B92081292320832FEF39E648E150
S1130880215030404040E1F700C00000A895E5E069
S1130890F1E02081282B208322B1292322B92FEFD4
S11308A039E648E1215030404040E1F700C0000003
S11308B0A8952BB1282B2BB92081292320832FEF36
S11308C039E648E1215030404040E1F700C00000E3
S11308D0A89528B1822B88B98BB189238BB98FEF66
S11308E029E638E1815020403040E1F700C00000A3
S11308F0A89588B1982398B90895CF93DF93EC0114
S1130900CEDECE0123DFC817D90711F4CE0182DF72
S1130910DF91CF910895FF920F931F93CF93DF93AD
S1130920D82FC62F8A01F22E0E94ED158111FCCF1B
S113093023E041E06F2DC8010E947F158CE00E94E6
S1130940DA1680E00E94DA168D2F0E94DA1680E112
S11309500E94DA1680E00E94DA168C2F0E94DA16C2
S1130960DF91CF911F910F91FF900895EF92FF9225
S11309700F931F93CF93DF93C82FD92F7B01042F9D
S1130980122F0E94ED158111FCCF23E041E0602F6E
S1130990C7010E947F15812F0E94DA168D2F0E94B5
S11309A0DA168C2F0E94DA16DF91CF911F910F91E6
S11309B0FF90EF900895FF920F931F93CF93DF93CF
S11309C0D82FC62F8A01F22E0E94ED158111FCCF7B
S11309D023E041E06F2DC8010E947F1580E40E944E
S11309E0DA168D2F0E94DA168C2F0E94DA16DF9108
S11309F0CF911F910F91FF900895EF92FF920F9363
S1130A001F93CF93DF9300D0CDB7DEB7182F7B01B0
S1130A10042F0E94ED158111FCCF23E041E0602FEB
S1130A20C7010E947F1581E489831A831B8263E0D6
S1130A30CE0101960E9424170E94E1158330E0F351
S1130A4083E00E94B615809168040F900F900F9078
S1130A50DF91CF911F910F91FF90EF900895CF9365
S1130A60DF931F921F92CDB7DEB722E041E066E02C
S1130A708BE290E00E947F155A988AE18A95F1F7FB
S1130A8000C05A9A8AE18A95F1F700C019821A8245
S1130A9062E0CE0101960E9424170E94E115823083
S1130AA0E0F382E00E94B615E6E6F4E0A081B0E04F
S1130AB0BA2FAA278181A82B2CE63BE60E94761741
S1130AC0BC01882799270F900F90DF91CF9108954B
S1130AD0CF93DF931F921F92CDB7DEB722E041E0A0
S1130AE066E08BE290E00E947F155A988AE18A952D
S1130AF0F1F700C05A9A8AE18A95F1F700C0198289
S1130B001A8262E0CE0101960E9424170F900F9082
S1130B10DF91CF91089582E00E94B615E6E6F4E0F5
S1130B20A081B0E0BA2FAA278181A82B2CE63BE64E
S1130B300E947617BC01882799270895AF92BF9227
S1130B40DF92EF92FF920F931F93CF93DF93A398BB
S1130B50A298A098A1989B9A9A9A999A989A20E018
S1130B6030E002E011E0EE24E394F12C68E071E05F
S1130B7045E051E0C1E0D1E0A7E0B1E06894AA24E7
S1130B80A2F8BB24B394F801D080C701022E02C09E
S1130B90880F991F0A94E2F7982F9095D922D08252
S1130BA0FB01D0809D21908392B1982B92B9FA01D8
S1130BB09081982B90839881982B98839C91982B63
S1130BC09C9391B1982B91B9F5019081892B8083E5
S1130BD02F5F3F4F27303105B1F6529A5A987298D9
S1130BE06A9A2E98269A2798DF91CF911F910F9198
S1130BF0FF90EF90DF90BF90AF90089586E08093D0
S1130C00AC0439C08091D5038A3090F01092D5039A
S1130C108091B4048F5F8A3019F08093B40408C0C3
S1130C201092B4048091AC0481508093AC04A895D4
S1130C308091AC04863009F4A39A8091AC04853089
S1130C4011F4A398A29A8091AC04843011F4A39A6D
S1130C50A29A8091AC04833019F4A398A298A09A24
S1130C608091AC04823011F4A098A19A8091AC04D4
S1130C70813009F4A1988091AC048111C3CF089507
S1130C80CF93DF93CDB7DEB728970FB6F894DEBFC6
S1130C900FBECDBF65E070E08FE190E00E94381890
S1130CA062E370E08DE190E00E94381862E370E046
S1130CB087E190E00E94381860EE7EE28DE090E0DB
S1130CC00E94381868EB7BE08FE090E00E943818AF
S1130CD049E150E060E070E089E190E00E9433185F
S1130CE049E150E060E070E083E190E00E94331855
S1130CF06AE070E08BE090E00E94381864E670E0EF
S1130D0089E090E00E94381860E088E090E00E945A
S1130D10251888E0E5E0F2E0DE01119601900D92DD
S1130D208A95E1F748E050E0BE016F5F7F4F80E0B5
S1130D3090E00E941C1828960FB6F894DEBF0FBEF0
S1130D40CDBFDF91CF91089589E190E00E94121800
S1130D506093D6037093D7038093D8039093D903F9
S1130D6083E190E00E9412186093A6047093A70494
S1130D708093A8049093A9048BE090E00E94171834
S1130D809093D4038093D30389E090E00E941718D2
S1130D909093DB038093DA0388E090E00E940A18C2
S1130DA08093B70448E050E060E070E089EB94E0A1
S1130DB00E94FA178DE190E00E9417189093640442
S1130DC08093630487E190E00E94171890935F0476
S1130DD080935E048DE090E00E9417189093B30412
S1130DE08093B2048FE090E00E94171890936104FE
S1130DF0809360040895EF92FF920F931F93CF9313
S1130E00DF937C01062F172FC1E0D0E0F701819119
S1130E107F01F80191918F01891779F08C3429F0C1
S1130E20843549F0823449F403C0CE01A4DA05C004
S1130E30CE0113DB02C0CE01D6DB2196C930D10529
S1130E4029F7DF91CF911F910F91FF90EF900895B3
S1130E50E6D01092080110920201A19808959EE034
S1130E6088E10FB6F894A895809360000FBE909324
S1130E706000A89592D0AFD0DED0EADF5FDE8FE1CC
S1130E8090E00E941718059731F0A39AA29AA09AAD
S1130E90A19AF6DEA8957894BCD256DF1092AB04E2
S1130EA037DAACCE0895DBDF0E94AB14A8950E941C
S1130EB0CB138091D5038A3040F01092D5038091F2
S1130EC0B4048F5F8093B404F1CF8091B4048A306A
S1130ED0D8F01092B4048091DC038F5F8093DC031C
S1130EE08091B504882329F081508093B504A09A99
S1130EF001C0A0988091AB04882319F0A39AA29A08
S1130F00D5CFA39AA298D2CF8091DC038A3070F215
S1130F101092DC03CBCF83D081E08093B104109294
S1130F20B604A7D0A19A8091D6039091D703A0913B
S1130F30D803B091D903892B8A2B8B2B21F0809174
S1130F40B704809302018091B7048093080161C0C3
S1130F500895A19A8091B7048093080108955FD001
S1130F6081E08093B6041092B10445D1A19A109205
S1130F700201109208014DC008956ADF8091B70400
S1130F80809308012FEF89EF90E02150804090403A
S1130F90E1F700C000005CCF089583E08093B000C7
S1130FA08CE08093B10089EF8093B30082E080935A
S1130FB0700008951F920F920FB60F9211248F9311
S1130FC08091D5038F5F8093D5038F910F900FBECF
S1130FD00F901F90189588E18093810082E8809398
S1130FE080008FE396E0909387008093860080E1F1
S1130FF090E090938900809388008FEF9FEF909307
S11310008B0080938A0090938D0080938C00259AA6
S11310100895E1E8F0E08081816080830895E1E84B
S1131020F0E080818E7F80838FEF9FEF9093850027
S11310308093840008958FE18093210180E69AEEE5
S1131040909327018093260182E0809320018FE012
S11310508093730081E090E09093290180932801AC
S113106090932B0180932A0190932D0180932C015E
S113107008958FE59AEE909325018093240180E6EC
S11310809AEE90932701809326018091D603909144
S1131090D703A091D803B091D903803727E19207F1
S11310A0A105B10550F59C01220F331F880F991F2C
S11310B0880F991F880F991F820F931F90932901FE
S11310C0809328012091D6033091D703C901880F5A
S11310D0991F220F331F220F331F220F331F820F3A
S11310E0931F9093C5048093C4041092C304C297C1
S11310F090932D0180932C0125C08FEF9FEF909347
S11311002901809328016091D6037091D7038091BF
S1131110D8039091D90320E737E140E050E00E94E2
S11311203D17AB01440F551F660F771F660F771FDE
S1131130660F771F640F751F7093C5046093C40412
S11311402093C3048091A6049091A704A091A804BD
S1131150B091A904803727E19207A105B10528F5CC
S11311609C01220F331F880F991F880F991F880F26
S1131170991F820F931F90932B0180932A018091D2
S1131180A6049091A7049C01220F331F880F991F76
S1131190880F991F880F991F820F931F9093C8047B
S11311A08093C7041092C60408958FEF9FEF909325
S11311B02B0180932A016091A6047091A704809169
S11311C0A8049091A90420E737E140E050E00E9490
S11311D03D17AB01440F551F660F771F660F771F2E
S11311E0660F771F640F751F7093C8046093C7045C
S11311F02093C60408958091D3039091D403880F5B
S1131200991F019790932701809326018091D3031E
S11312109091D40381509048880F991F9093250191
S1131220809324018091D3039091D40301979093E8
S11312302901809328018FEF9FEF90932B018093D6
S11312402A0190932D0180932C018091DA039091CF
S1131250DB039093C2048093C10408951F920F92FC
S11312600FB60F9211240BB60F922F933F934F9307
S11312705F936F937F938F939F93AF93BF93EF93FA
S1131280FF938091B6048823C1F08091B7048093C2
S113129002018091B704809308018091C104909168
S11312A0C2049C01215031093093C2042093C1042B
S11312B0892B29F5B4DE2FDE22C08091B104882366
S11312C0F1F08091C30481508093C304811108C05C
S11312D08091C4049091C5049093290180932801BE
S11312E08091C60481508093C604811108C0809106
S11312F0C7049091C80490932B0180932A01FF9115
S1131300EF91BF91AF919F918F917F916F915F9179
S11313104F913F912F910F900BBE0F900FBE0F90E6
S11313201F9018951F920F920FB60F9211241092CE
S113133002010F900FBE0F901F9018951F920F92ED
S11313400FB60F9211240BB60F922F933F934F9326
S11313505F936F937F938F939F93AF93BF93EF9319
S1131360FF938FB780688FBF5ADED5DB6093CD03C0
S11313707093CE038093CF039093D00370DB70936C
S1131380D2036093D103109208018FEF9FEF9093E3
S11313902B0180932A01A198FF91EF91BF91AF9106
S11313A09F918F917F916F915F914F913F912F9179
S11313B00F900BBE0F900FBE0F901F9018951F92A9
S11313C00F920FB60F9211240BB60F922F933F93E7
S11313D04F935F936F937F938F939F93AF93BF9339
S11313E0EF93FF938FB780688FBF72DBFF91EF910C
S11313F0BF91AF919F918F917F916F915F914F9129
S11314003F912F910F900BBE0F900FBE0F901F9026
S113141018950E94A7141092CB040895FF920F937D
S11314201F93CF93DF9300D000D0CDB7DEB78A01EE
S1131430DA011D921C92FC0120812D3221F40196C7
S1131440FF24F39401C0F12CFC013196DC019C9142
S113145080ED890F89838A3008F046C080E08F5F71
S1131460282F30E0519190ED950FA1E0B0E0AC0F42
S1131470BD1FA20FB31F9C939A3088F35A3081F595
S1131480681780F1882309F1982F60E070E0F90172
S1131490E91BF10941E050E04C0F5D1FE40FF51F1B
S11314A04081FB01EE0FFF1F660F771F660F771F4A
S11314B0660F771F6E0F7F1F640F711D915039F7F0
S11314C0D8016D937C9301C080E0FF2081F0F80186
S11314D0208131813195219531093183208307C0E1
S11314E080E005C080E003C09A3071F380E0269666
S11314F00FB6F894DEBF0FBECDBFDF91CF911F9121
S11315000F91FF9008958F929F92AF92BF92CF92C6
S1131510DF92EF92FF920F931F93CF93DF93CDB798
S1131520DEB72B970FB6F894DEBF0FBECDBF8A018E
S1131530DA011D921D921D921C921397FC012081C9
S11315402D3219F4019641E001C040E0FC013196CE
S1131550DC019C9180ED890F89838A3008F05DC09D
S113156080E08F5F282F30E0519190ED950FA1E03E
S1131570B0E0AC0FBD1FA20FB31F9C939A3088F349
S11315805A3009F046C0681708F445C0882371F141
S1131590982FC12CD12C7601F901E91BF10961E0E6
S11315A070E06C0F7D1FE60FF71F5081CC0CDD1C23
S11315B0EE1CFF1C46015701880C991CAA1CBB1C7D
S11315C0880C991CAA1CBB1CC80CD91CEA1CFB1C4B
S11315D0C50ED11CE11CF11C9150F1F6D801CD923D
S11315E0DD92ED92FC92139701C080E04423C1F098
S11315F0F8014081518162817381709560955095A5
S113160041955F4F6F4F7F4F408351836283738354
S113161007C080E005C080E003C09A3031F380E069
S11316202B960FB6F894DEBF0FBECDBFDF91CF91DE
S11316301F910F91FF90EF90DF90CF90BF90AF90EC
S11316409F908F900895CF93DF93CDB7DEB72A97FD
S11316500FB6F894DEBF0FBECDBF9C012F5F3F4F86
S1131660DC018C91805389838A3058F5F9019E01FD
S11316702E5F3F4F40E001C0492F91E0940F8191CC
S11316808053D9018D939D018A3008F59930A1F7D3
S11316901EC08191882321F08130A9F4852F01C0D7
S11316A0842F90E0022E02C0880F991F0A94E2F75B
S11316B0DB019C91890F8C932150310950F781E013
S11316C00FC080E00DC080E00BC080E009C047304F
S11316D0E1F7FE01319627E030E040E051E0D9CF58
S11316E02A960FB6F894DEBF0FBECDBFDF91CF911F
S11316F008950C9456150895CF92DF92EF92FF92BD
S11317000F931F93CF93DF93CDB7DEB72C970FB60C
S1131710F894DEBF0FBECDBFE62E992344F42DE22C
S113172030E038872F8391958195910901C01F82FC
S11317304AE0BE016F5F7F4F0E949817BE016F5F42
S11317407F4FCE0107960E948617BE01695F7F4FC7
S1131750CE0101960E949117E1100FC020C0D886D7
S1131760CF82B801CE0107960E948617BE01695F39
S11317707F4FC8010E94911708C08E010F5F1F4F51
S1131780F12C6894CC24C5F8D12CF80101900020E8
S1131790E9F73197E01BF10BEE15FF0500F3CE01DD
S11317A001960E9445152C960FB6F894DEBF0FBE25
S11317B0CDBFDF91CF911F910F91FF90EF90DF90FC
S11317C0CF900895CF92DF92EF92FF920F931F93E1
S11317D0CF93DF93CDB7DEB766970FB6F894DEBF2D
S11317E00FBECDBFE42E992364F42DE230E03D8793
S11317F02C8790958095709561957F4F8F4F9F4F63
S113180001C01C862AE0AE014F5F5F4F0E94A21701
S1131810BE016F5F7F4FCE010C960E948617BE01FA
S1131820645F7F4FCE0101960E949117E1100FC0B3
S113183020C0DD86CC86B801CE010C960E948617A6
S1131840BE01645F7F4FC8010E94911708C08E01DA
S11318500F5F1F4FF12C6894CC24C5F8D12CF801EC
S113186001900020E9F73197E01BF10BEE15FF051D
S113187000F3CE0101960E94451566960FB6F894C2
S1131880DEBF0FBECDBFDF91CF911F910F91FF90AF
S1131890EF90DF90CF9008955F926F927F928F9236
S11318A09F92AF92BF92CF92DF92EF92FF920F93EB
S11318B01F93CF93DF93CDB7DEB764970FB6F89439
S11318C0DEBF0FBECDBF4C01762EC42E442389F05B
S11318D0842F01E010E09801220F331F000F111F25
S11318E0000F111F000F111F020F131F815099F7D2
S11318F002C001E010E0C401992024F4882799274C
S113190088199909582E692EB8010E9429174AE0AE
S1131910BE016F5F7F4F0E949817CE0101967C0134
S1131920D12C0F2EF0E3AF2EB12CF02D0DC0BC86C0
S1131930AB86B701CE010B960E948617BE01655F88
S11319407F4FC7010E949117F70101900020E9F72A
S11319503197EE19FF09EC15FD0548F37E019BE074
S1131960E90EF11C852D962DB8010E942917CB0193
S11319704AE0B7010E949817F70101900020E9F7A7
S113198031978EE290E091838083BE016F5F7F4F39
S1131990C7010E94861799202CF48DE290E09A8367
S11319A0898301C01982BE01655F7F4FCE01019614
S11319B00E94861771100FC021C0DC86CB86B80147
S11319C0CE010B960E948617BE01655F7F4FC8014A
S11319D00E94911709C08E010F5F1F4FE72CF12C55
S11319E06894CC24C5F8D12CF80101900020E9F7C3
S11319F03197E01BF10BEE15FF05F8F2CE010196CD
S1131A000E94451564960FB6F894DEBF0FBECDBF95
S1131A10DF91CF911F910F91FF90EF90DF90CF90C6
S1131A20BF90AF909F908F907F906F905F9008953C
S1131A30CF93DF93CDB7DEB729970FB6F894DEBF07
S1131A400FBECDBF99E0EEE0F2E0DE011196019009
S1131A500D929A95E1F7FE01319627E030E090E08F
S1131A6070E361E3AC01022E02C0559547950A94D8
S1131A70E2F740FF02C0608301C070832150310946
S1131A8031962F3F4FEF340769F7CE010196FDD70A
S1131A9029960FB6F894DEBF0FBECDBFDF91CF916C
S1131AA00895FF920F931F93CF93DF93CDB7DEB7C3
S1131AB02F970FB6F894DEBF0FBECDBF8C01FC018B
S1131AC03281818119821B821A821C821D821E82AC
S1131AD01F822081223509F03BC0833509F04FC6AF
S1131AE0343509F04CC683818A3081F41092AB04FA
S1131AF087E192E0DBD798E088E10FB6F894A895E7
S1131B00809360000FBE90936000FFCF803209F095
S1131B1036C6F8018481813309F031C685818A3063
S1131B2009F02DC61092AB046FEF7FEF8FE190E0C8
S1131B300E9438188EE192E0B9D798E088E10FB698
S1131B40F894A895809360000FBE90936000FFCF37
S1131B5090E0932B233509F0E1C4F801238120326E
S1131B6009F0F5C18035F2E59F0709F49BC1C8F47B
S1131B708534EEE49E0771F150F48E3424E4920728
S1131B8009F437C18435944409F45FC1DCC1883455
S1131B90F0E59F0709F4ABC08D34904509F4E8C023
S1131BA0D2C18035E3E59E07B1F150F4843423E5D6
S1131BB0920709F466C08D34934509F47DC0C3C10E
S1131BC08335F3E59F0709F441C08334944509F450
S1131BD085C1B9C1F8018481813359F485818A3082
S1131BE0B1F481E08093AB04729A8CE292E05ED708
S1131BF0C6C5803361F4F80185818A3041F41092BE
S1131C00AB0426D9729882E392E050D7B8C588E332
S1131C1092E04CD7B4C5F8018481813341F48581C5
S1131C208A3081F478D983E492E040D7A8C5803320
S1131C3049F4F80185818A3029F40AD989E492E0CB
S1131C4035D79DC588E392E031D799C5F8018481E1
S1131C50813341F485818A3081F47BD98FE492E029
S1131C6025D78DC5803349F4F80185818A3029F45C
S1131C70EFD885E592E01AD782C588E392E016D7BB
S1131C807EC5F8018481813341F485818A3081F4F1
S1131C908BE592E00BD763D972C5803349F4F80120
S1131CA085818A3029F4D4D881E692E0FFD667C5CD
S1131CB088E392E0FBD663C5F8018481813341F463
S1131CC085818A3081F487E692E0F0D656D957C5EB
S1131CD0803349F4F80185818A3029F4B9D88DE636
S1131CE092E0E4D64CC588E392E0E0D648C5AE0164
S1131CF04C5F5F4F66E0C801049605DC811104C0A7
S1131D0088E392E0D3D63BC58C819D81AE81BF81AF
S1131D10AC01BD014951510961097109483A544D59
S1131D206140710540F0892B8A2B8B2B21F083E7CE
S1131D3092E0BCD624C58EE792E0A7D66C817D8163
S1131D408E819F8141E03EDD83E892E0AFD64C81F5
S1131D505D816E817F814093D6035093D703609356
S1131D60D8037093D90389E190E00E94331807C522
S1131D70AE014C5F5F4F66E0C8010496C4DB81117D
S1131D8004C088E392E092D6FAC48C819D81AE812E
S1131D90BF81AC01BD014951510961097109483A3A
S1131DA0544D6140710540F0892B8A2B8B2B21F017
S1131DB083E792E07BD6E3C487E892E066D66C8141
S1131DC07D818E819F8141E0FDDC83E892E06ED6C7
S1131DD04C815D816E817F814093A6045093A7045A
S1131DE06093A8047093A90483E190E00E943318DF
S1131DF0C6C4AE014E5F5F4F66E0C80104960EDBB9
S1131E00811104C088E392E051D6B9C48A819B81D0
S1131E100197883E934020F083E792E047D6AFC411
S1131E208CE892E032D661E08A819B8165DC83E2B2
S1131E3093E03CD66A817B817093DB036093DA0381
S1131E4089E090E00E9438189AC4AE014E5F5F4F5B
S1131E5066E0C8010496E2DA811104C088E392E0E6
S1131E6025D68DC48A819B810197883E934020F0BA
S1131E7083E792E01BD683C481E992E006D641E071
S1131E8061E08A819B8108DD83E892E00FD66A8154
S1131E907B817093D4036093D3038BE090E00E9422
S1131EA038186DC4BE016F5F7F4FC8010496CBDB49
S1131EB0811104C088E392E0F9D561C486E992E017
S1131EC0E4D58981B5DD84E293E0F0D5698160933E
S1131ED0B70488E090E00E94251851C4F8010190ED
S1131EE00020E9F7CF010E978017910721F088E3CE
S1131EF092E0DCD544C469EB74E0CE0108960E94FC
S1131F00911788E0F8013496A9EBB4E001900D92A2
S1131F108A95E1F748E050E060E070E089EB94E0F6
S1131F200E941C18BE01685F7F4F89EB94E00E94F9
S1131F30FB068BE992E0A9D589EB94E0A6D584E26F
S1131F4093E0B4D51CC480EA92E0B0D518C40F2E37
S1131F50F0EDFF2EF02DF20E27E02F1508F4DAC273
S1131F60F8012481283409F474C138F4213409F4C3
S1131F7074C1223409F4D6C1C9C22D3409F4A9C0EC
S1131F80243509F4B0C12C3409F0C0C28D34F3E413
S1131F909F0709F45DC089342EE4920729F0883440
S1131FA0934409F092C018C0F80185818A3021F069
S1131FB088E392E07BD5E3C30F2DFF0C110BC8011E
S1131FC00E94BB018CEA92E060D561E0C80194DB19
S1131FD083E393E06BD5D3C3AE014E5F5F4F64E000
S1131FE0C80106961BDA811104C088E392E05ED52D
S1131FF0C6C38A819B818D3D954020F083E792E0A2
S113200055D5BDC380EB92E040D561E08A819B81C8
S113201073DB89EB92E04AD56A817B81809163040A
S1132020909164048617970709F4A9C37093640414
S1132030609363048DE190E00E9438186F2DFF0CCB
S1132040770B80916304909164040E94FF0197C30D
S1132050AE014E5F5F4F63E0C8010696DFD9811180
S113206004C088E392E022D58AC38A819B81C29707
S1132070893C910520F083E792E018D580C38DEB6D
S113208092E003D541E061E08A819B8105DC89EB24
S113209092E00CD56A817B8180915E0490915F040B
S11320A08617970709F46BC370935F0460935E040B
S11320B087E190E0DDD76F2DFF0C770B80915E04F4
S11320C090915F040E9416025AC380EA92E0EED413
S11320D056C38D3423E4920709F442C08D34E6E5F7
S11320E09E0709F478C08834934409F0AEC0AE0169
S11320F04E5F5F4F64E0C801069690D9811104C019
S113210088E392E0D3D43BC38A819B81893893418D
S113211020F083E792E0CAD432C386EC92E0B5D4CF
S113212061E08A819B81E8DA89EB92E0BFD46A811D
S11321307B8180916304909164048617970709F466
S11321401EC370936404609363048DE190E090D7A0
S11321506F2D80916304909164040E94EB000FC37F
S1132160AE014E5F5F4F63E0C801069657D98111F7
S113217004C088E392E09AD402C38A819B81C29707
S1132180893C910520F083E792E090D4F8C282ED77
S113219092E07BD441E061E08A819B817DDB89EB25
S11321A092E084D46A817B8180915E0490915F0483
S11321B08617970709F4E3C270935F0460935E0483
S11321C087E190E055D76F2D80915E0490915F0474
S11321D00E940F01D4C2AE014E5F5F4F64E0C8019C
S11321E006961CD9811104C088E392E05FD4C7C26B
S11321F08A819B81845691098D36974020F083E72C
S113220092E054D4BCC28EED92E03FD442E061E04F
S11322108A819B8141DB8AEE92E048D46A817B818A
S11322208091D1039091D2038617970709F4A7C22E
S11322307093D2036093D10381E190E019D76F2D9D
S11322408A819B810E9433019AC280EA92E02ED453
S113225096C28DEE92E02AD492C287359F4409F04B
S11322608EC2AE014E5F5F4F64E0C8010696D6D8B9
S1132270811104C088E392E019D481C28A819B81D0
S11322808131974220F083E792E010D478C288E04D
S113229093E0FBD361E08A819B812EDA81E193E0B4
S11322A005D46A817B8170936104609360048FE03C
S11322B090E0DED66A817B81809160049091610414
S11322C08617970709F45BC27093610460936004F6
S11322D08FE090E0CDD66F2D8091600490916104E1
S11322E00E9464014CC28335944509F048C2F80148
S11322F085818A3021F088E392E0D8D340C285E119
S113230093E0C3D30F2DFF0C110B61E0C801F4D986
S113231084E293E0CBD3C8010E94F302C8010E9477
S11323207D042DC28235F4E49F0709F4BEC048F44D
S11323308235E2E49E0731F18235934409F484C086
S11323401EC282352CE4920709F44DC089349E44A0
S113235009F015C2F80185818A3021F088E392E002
S1132360A5D30DC20F2DFF0C110BC8010E942D0225
S11323708CEA92E08AD361E0C801BED987E293E097
S113238095D3FDC1F8018681813399F487818A3020
S113239031F50F2DFF0C110BC8010E947A0285E262
S11323A093E073D361E0C801A7D989E293E07ED3B7
S11323B0E6C18033A1F4F80187818A3081F40F2DBE
S11323C0FF0C110BC8010E94E20285E293E05DD389
S11323D061E0C80191D98DE293E068D3D0C188E36C
S11323E092E064D3CCC1F8018681813399F487816A
S11323F08A3031F50F2DFF0C110BC8010E94940295
S113240081E393E042D361E0C80176D989E293E0A5
S11324104DD3B5C18033A1F4F80187818A3081F4AA
S11324200F2DFF0C110BC8010E94E20281E393E01F
S11324302CD361E0C80160D98DE293E037D39FC10A
S113244088E392E033D39BC1F8018681813399F408
S113245087818A3031F50F2DFF0C110BC8010E94C2
S1132460AE0285E393E011D361E0C80145D989E266
S113247093E01CD384C18033A1F4F80187818A30AE
S113248081F40F2DFF0C110BC8010E94E20285E3B9
S113249093E0FBD261E0C8012FD98DE293E006D32B
S11324A06EC188E392E002D36AC1F8018681813368
S11324B099F487818A3031F50F2DFF0C110BC80177
S11324C00E94C80289E393E0E0D261E0C80114D914
S11324D089E293E0EBD253C18033A1F4F801878100
S11324E08A3081F40F2DFF0C110BC8010E94E20207
S11324F089E393E0CAD261E0C801FED88DE293E09B
S1132500D5D23DC188E392E0D1D239C180EA92E0CC
S1132510CDD235C180EA92E0C9D231C1273409F065
S11325202BC1F80123812A3009F026C18534FEE449
S11325309F0709F443C0F8F48D34E3E49E0709F4DB
S1132540C3C050F4803521E4920709F4D9C088341B
S1132550934409F4ACC00CC18E34F4E49F0709F42D
S113256057C0843524E4920709F45FC08934944445
S113257009F0FEC0BEC08334F4E59F0709F46DC0C2
S113258070F48D34E0E59E07B1F18035F2E59F07E4
S113259009F459C08834904509F0EAC01BC08D3451
S11325A0E6E59E0709F474C08634F7E59F0709F44D
S11325B099C08834964509F0DBC059C08DE393E097
S11325C064D28091AB0461E090E096D884E293E019
S11325D06DD2D5C082E493E058D26091D603709155
S11325E0D7038091D8039091D90341E0EBD883E8D5
S11325F092E05CD2C4C087E493E047D261E080916A
S1132600A6049091A70478D883E892E04FD2B7C08B
S11326108CE493E03AD261E08091DA039091DB0399
S11326206BD884E293E042D2AAC081E593E02DD234
S113263041E061E08091D3039091D4032DD983E8E4
S113264092E034D29CC086E593E01FD28091B70417
S1132650EFD984E293E02AD292C08BE593E015D2BD
S113266089EB94E012D284E293E020D288C080E621
S113267093E00BD26091CD037091CE038091CF0390
S11326809091D00341E09ED881E193E00FD277C0CE
S113269085E693E0FAD16091D1037091D20380E092
S11326A090E041E08FD881E193E000D268C08AE6EF
S11326B093E0EBD161E080916304909164041CD8B1
S11326C089EB92E0F3D15BC08FE693E0DED141E089
S11326D061E080915E0490915F04DED889EB92E022
S11326E0E5D14DC084E793E0D0D188E793E0DED113
S11326F046C08EE893E0C9D182E993E0D7D13FC0C8
S11327008CEA93E0C2D18091AB0461E090E00E9436
S11327107C0B84EB93E0B9D161E0809163049091E8
S113272064040E947C0B84EB93E0AFD141E061E050
S113273080915E0490915F04AFD884EB93E0A5D1BF
S11327406091D6037091D7038091D8039091D903F7
S113275041E038D884EB93E098D161E08091A604FD
S11327609091A7040E947C0B84E293E09FD107C060
S113277080EA92E09BD103C080EA92E097D12F9641
S11327800FB6F894DEBF0FBECDBFDF91CF911F917E
S11327900F91FF900895F5D08093CB04882339F0EE
S11327A08DED93E09093CA048093C9047AC9089587
S11327B01F920F920FB60F9211240BB60F928F93A4
S11327C09F93EF93FF938091BF03882329F0809117
S11327D0C6008093B50435C08091C10381112DC01A
S11327E0E091C203F0E08091C600E45BFA4F80837D
S11327F0E091C203F0E0E45BFA4F80818A3029F46F
S11328008091C0038F5F8093C0038091C2038F5F68
S11328108093C2038091C203803811F41092C203E2
S11328209091C2038091C303981303C081E0809305
S1132830C10385E08093B50404C08091C6008093F1
S1132840B504FF91EF919F918F910F900BBE0F9064
S11328500FBE0F901F9018951F920F920FB60F92F4
S113286011240BB60F928F939F93EF93FF93809154
S1132870000281111DC08091BE038F5F8093BE034F
S11328808091BE03803811F41092BE039091BE0370
S11328908091BD03981304C081E08093000208C0B6
S11328A0E091BE03F0E0E453FB4F80818093C600C7
S11328B085E08093B504FF91EF919F918F910F90E4
S11328C00BBE0F900FBE0F901F9018958F929F9282
S11328D0AF92BF92CF92DF92EF92FF92699AE1ECAE
S11328E0F0E02081286120832081206820832081DA
S11328F020642083E2ECF0E02081266020836C01D8
S1132900E12CF12CA0E2B3E0A7019601F5D24B0132
S11329105C0124E2920E24EFA21EB11CA0E4B6E0F6
S1132920A7019601E9D29B01AC01C501B401A5D26E
S1132930215031093093C5002093C400FF90EF90DB
S1132940DF90CF90BF90AF909F908F90089580E4D8
S113295092E0BCCF0895E1ECF0E080818F77808332
S1132960A6ECB0E02C911092C3031092C2038C9198
S11329701092C1031092C003908190689083820FDB
S11329800895CF93C091C003CC2309F440C080E0E4
S1132990A1ECB0E0282F30E0E091C303F0E0E45B69
S11329A0FA4F9081F901E352FC4F90839C919F77F9
S11329B09C939091C3039F5F9093C3039091C3032F
S11329C0903811F41092C3031092C1039C91906843
S11329D09C93F901E352FC4F90819A3091F4E1EC1D
S11329E0F0E090819F7790839091C00391509093F1
S11329F0C003908190689083F901E352FC4F1182E7
S1132A000CC091118F5F88232CF680E006C0809162
S1132A10C103882311F09FDF8C2FCF910895382FA5
S1132A202091BD039091BE03291304C0809100023C
S1132A30882351F1E091BD03F0E0E453FB4F308370
S1132A40E1ECF0E080818F7B80838091BD038F5F18
S1132A508093BD038091BD03803811F41092BD03AF
S1132A6080910002882351F0E091BE03F0E0E4532A
S1132A70FB4F80818093C60010920002E1ECF0E0ED
S1132A8080818064808381E00895CF93DF93EC019B
S1132A908881882341F08881C2DF8823E1F321966D
S1132AA088818111F8CFDF91CF910895CF93DF937F
S1132AB0EC018881882341F08881B1DF8823E1F328
S1132AC0219688818111F8CF8AE0A9DF8823E1F378
S1132AD0DF91CF9108951092D5001092D400289AD6
S1132AE02398229A219A84E58CBD8CB580688CBD8C
S1132AF08CB580688CBD8CB583608CBD0895909333
S1132B000302809302026093C6034093C50320939B
S1132B10010208959091C503992319F08823A9F01F
S1132B2002C0811112C0E0910202F09103022081DF
S1132B3081E090E00090C60302C0880F991F0A94B8
S1132B40E2F78095822380830895E0910202F09158
S1132B500302208181E090E00090C60302C0880F48
S1132B60991F0A94E2F7822B80830895813408F038
S1132B7080E4A6E6B4E020E015C0E091CC03F0E0E8
S1132B80E45FF94F90819D932F5F9091CC039F5FF9
S1132B909093CC039091CC03903411F41092CC0315
S1132BA01092CA033091CC039091CB03391304C023
S1132BB09091CA03992319F02813DFCF0895822F27
S1132BC008958091CA03811106C08091CB0390912E
S1132BD0CC03891B089580E408958091C7039091E4
S1132BE0C803891B08958CB58F778CBD2EB51092C0
S1132BF0CC031092CB038EB51092CA039CB5906897
S1132C009CBD820F08951F920F920FB60F9211244C
S1132C100BB60F922F933F934F935F936F937F93D2
S1132C208F939F93AF93BF93EF93FF938091CA03C6
S1132C30811124C0E091CB03F0E08EB5E45FF94F3D
S1132C4080838091CB038F5F8093CB038091CB03F0
S1132C50803411F41092CB039091CB038091CC0378
S1132C60981303C081E08093CA039091C4038091B8
S1132C700102981304C01092C90301C0B4DF86EBAB
S1132C8093E00E94790BFF91EF91BF91AF919F91D7
S1132C908F917F916F915F914F913F912F910F9001
S1132CA00BBE0F900FBE0F901F9018951F920F929E
S1132CB00FB60F9211240BB60F922F933F934F939D
S1132CC05F936F937F938F939F93AF93BF93EF9390
S1132CD0FF938091C903882349F18091CA0381112C
S1132CE024C0E091CB03F0E08EB5E45FF94F80831C
S1132CF08091CB038F5F8093CB038091CB0380348F
S1132D0011F41092CB039091CB038091CC039813D0
S1132D1003C081E08093CA039091C40380910102AF
S1132D2098130EC01092C90307C05DDF9091C403CD
S1132D3080910102981304C080E0ECDE1092C40379
S1132D4080910402811123C08091C8038F5F809316
S1132D50C8038091C803803411F41092C803909181
S1132D60C7038091C803981304C081E080930402D0
S1132D700EC081E0CFDEE091C803F0E0E453FA4FE7
S1132D8080818EBD8091C4038F5F8093C403FF91C3
S1132D90EF91BF91AF919F918F917F916F915F91CF
S1132DA04F913F912F910F900BBE0F900FBE0F903C
S1132DB01F901895382F2091C7039091C8032913A9
S1132DC004C080910402882361F1E091C703F0E01C
S1132DD0E453FA4F30838CB58F778CBD8091C70351
S1132DE08F5F8093C7038091C703803411F41092DE
S1132DF0C70380910402882381F081E08BDEE09197
S1132E00C803F0E0E453FA4F80818EBD8091C4037F
S1132E108F5F8093C403109204028CB580688CBDCC
S1132E2081E008951F93CF93DF93EC01162F66235F
S1132E3039F08881BFDF8823E1F321961150C9F767
S1132E40DF91CF911F91089521E02093C903EACF28
S1132E500895AA1BBB1B51E107C0AA1FBB1FA617DD
S1132E60B70710F0A61BB70B881F991F5A95A9F72F
S1132E7080959095BC01CD010895A1E21A2EAA1B5C
S1132E80BB1BFD010DC0AA1FBB1FEE1FFF1FA21716
S1132E90B307E407F50720F0A21BB30BE40BF50B13
S1132EA0661F771F881F991F1A9469F7609570959C
S1132EB0809590959B01AC01BD01CF010895EE0F63
S1132EC0FF1F881F8BBF0790F691E02D1994A29FD6
S1132ED0B001B39FC001A39F700D811D1124911DEA
S1132EE0B29F700D811D1124911D0895F0DFB7FF6D
S1132EF00895821B930B0895EADFA59F900DB49F5C
S1132F00900DA49F800D911D11240895FB01DC01F7
S1132F100D900020E9F7119701900D920020E1F740
S1132F200895FB01DC0101900D920020E1F7089562
S1132F30BB274A3031F4992322F4BDE29095819560
S1132F409F4F30C0BB272A3051F4992342F4BDE28D
S1132F5090958095709561957F4F8F4F9F4F01C0DD
S1132F60BB27FA01A62F6217710581059105330B62
S1132F7030FB66F0AA27660F771F881F991FAA1FC8
S1132F80A21710F0A21B63953850A9F7A05DAA33CD
S1132F9008F0A95DA19336F7B111B1931082CA016B
S1132FA019C0BB27FB015527AA27880F991FAA1F01
S1132FB0A41710F0A41B83955051B9F7A05DAA3350
S1132FC008F0A95DA193009779F7B111B19311921B
S1132FD0CB0100C0DC01FC01672F71917723E1F77D
S1132FE0329704C07C916D9370836291AE17BF07D2
S1132FF0C8F30895DC01CB01FC01F999FECF06C0AA
S1133000F2BDE1BDF89A319600B40D9241505040A2
S1133010B8F70895F999FECF92BD81BDF89A992722
S113302080B50895A6E1B0E044E050E0E5CFA8E122
S1133030B0E042E050E0E0CFDC01CB0102C02D91D2
S113304005D041505040D8F70895262FF999FECF66
S11330501FBA92BD81BD20BD0FB6F894FA9AF99AB1
S11330600FBE01960895242FF1DF252FEFDF00C056
S10D3070ECDF272FEBCFF894FFCF1D
S113307A010125000130303030303030300030303A
S113308A303030303030007265626F6F74006661C0
S113309A63746F72792072657365740053454E3D8B
S11330AA310053454E3D3000464F524D4154204560
S11330BA5252005350533D31005350533D30005344
S11330CA53533D31005353533D30005344533D3120
S11330DA005344533D3000534D533D3100534D5337
S11330EA3D30004E554D42455220455252005348F8
S11330FA503D00206D7300534D503D00534E443DE6
S113310A005354443D005350523D005343543D0030
S113311A434F4D4D414E44204552520053494E00AF
S113312A534843204C45443D00206D4100534D43D0
S113313A204C45443D00534843204D4F5346455483
S113314A3D00534D43204D4F534645543D00534D86
S113315A56204D4F534645543D0020560046756E41
S113316A6374696F6E206E6F74207265616C697A1C
S113317A656420796574210053574F20416D703D71
S113318A00206D560053535420536C6F742D5465AC
S113319A73743A200053524200423D3100423D309A
S11331AA0053524C00535243005352440047454E75
S11331BA3D004748503D00474D503D00474E443D71
S11331CA004754443D004750523D004743543D0094
S11331DA4748563D00474D563D004748433D004742
S11331EA4D433D0046573D005274685445435F6D54
S11331FA435F556E69742056302E302E350049448B
S113320A3D00527468544543205454412D45717508
S113321A69706D656E742056315F300050415241B9
S10D322A4D533D002C006A610000C2
S9030000FC
