S01800004D435F5274685445435F56305F305F352E737265630B
S11300007BC000009AC0000098C0000096C00000A9
S113001094C0000092C0000090C000008EC0000098
S11300208CC000008AC0000088C0000086C00000A8
S113003084C000000C94F41480C000007EC0000052
S11300407CC000007AC0000078C0000076C00000C8
S113005074C0000072C0000070C000006EC00000D8
S11300600C94CA210C94501F68C000000C94A41F67
S113007064C0000062C0000060C000005EC00000F8
S11300805CC000005AC0000058C0000056C0000008
S113009054C0000052C0000050C000004EC0000018
S11300A04CC000004AC0000048C0000046C0000028
S11300B044C0000042C0000040C000000C94C016C0
S11300C00C94EE160C9470170C9448160C947B2127
S11300D034C0000032C0000030C000002EC0000058
S11300E02CC00000A60E920E940E960E980E9A0E38
S11300F09C0E9E0EA00EA20E11241FBECFEFD1E2C5
S1130100DEBFCDBF00E00CBF14E0A0E0B2E0E4E34A
S1130110F8E400E00BBF02C007900D92A630B107CF
S1130120D9F727E0A6E0B4E001C01D92A035B207DC
S1130130E1F70E9456140C94182462CFCF93DF93F6
S11301400197EC01CC0FDD1FCE01845D9F4F0E940F
S1130150F423FE01E956FB4F91838083CE01845E34
S11301609F4F0E94F423C955DB4F99838883DF9105
S1130170CF9108950F931F93CF93DF930197EC01D1
S1130180CC0FDD1FFE01E956FB4F82E090E0918326
S113019080838E0109551B4F88EB9BE0F801918306
S11301A0808362E070E0CE01845D9F4F0E9415243D
S11301B0F80160817181CE01845E9F4F0E941524F5
S11301C0DF91CF911F910F910895CF93CFEFC60F79
S11301D09C01AFEFBFEF0E94F72220E137E240E03D
S11301E050E00E94B122DA01C90120E04C2F62E202
S11301F070E00E945C11CF9108950F931F93CF93E9
S1130200DF938C01E2E0F1E02081EC01219781E0B1
S113021090E00C2E02C0880F991F0A94E2F7982FE1
S1130220909529232083E8E0F1E0208192239083B4
S113023092B1982B92B9E5E0F1E09081982B9083EC
S11302409BB1982B9BB998B1982B98B9E1E0F1E058
S11302509081982B9083E7E0F1E09081982B908334
S113026091B1982B91B9E4E0F1E09081982B9083BF
S11302709AB1982B9AB997B1892B87B92FEF200F90
S113028042E250E061E080E00E943111CC0FDD1FBA
S1130290C955DB4FB8018881998197DFDF91CF91F0
S11302A01F910F910895EF92FF920F931F93CF9395
S11302B0DF931F921F92CDB7DEB7FC01228130E09D
S11302C0322F22278181282B038100531A8219821D
S11302D029348EE4380749F027358FE4380771F163
S11302E02735374409F0C9C079C085818A3029F09F
S11302F087E192E00E940219C4C0002E000C110B89
S1130300F801EB58FA4F81E4808348E050E06CE355
S113031070E086E795E00E94F923C8012BDFC8014D
S11303206CDF82E292E00E94001961E0C8010E9441
S1130330041989E792E00E940219A3C0AE014F5F3D
S11303405F4F64E0CF0106960E94CD17811105C06E
S113035087E192E00E94021994C089819A818131D7
S1130360974228F086E292E00E9402198AC081E353
S113037092E00E940019002E000C110B61E0C801EC
S11303800E94041985E392E00E94001943E061E0B1
S113039089819A810E94D21988E392E00E9402190D
S11303A0C801019769817A81FC01EE0FFF1FE955AD
S11303B0FB4F208131812617370709F462C0880F6B
S11303C0991F7F0171836083845E9F4F0E9415246F
S11303D0B801F70180819181F8DE53C0AE014F5F0F
S11303E05F4F64E0CF0106960E94CD17811105C0CE
S11303F087E192E00E94021944C089819A810297A0
S113040029F086E292E00E9402193BC08BE392E05D
S11304100E940019002E000C110B61E0C8010E941B
S1130420041985E392E00E94001961E082E090E003
S11304300E9404198FE392E00E94021901501109ED
S1130440F801EE0FFF1FE956FB4F208131818981AE
S11304509A8128173907A9F0000F111FF801E956EE
S1130460FB4F82E090E09183808362E070E0C801FA
S1130470845D9F4F0E94152404C089E492E00E9489
S113048002190F900F90DF91CF911F910F91FF9060
S1130490EF900895CF93DF93FC01C381C053228171
S11304A030E0322F22278181282B273587E4380733
S11304B009F127353F44D9F585E592E00E940019FA
S11304C00C2E000CDD0B61E0CE010E94041985E3C3
S11304D092E00E940019CC0FDD1FCB55DB4F43E0A7
S11304E061E0888199810E94D21988E392E00E9498
S11304F0021921C089E592E00E9400190C2E000C1B
S1130500DD0B61E0CE010E94041985E392E00E94B4
S11305100019CC0FDD1FCB56DB4F61E08881998138
S11305200E9404198FE392E00E94021904C089E436
S113053092E00E940219DF91CF910895CF93DF9347
S11305400197EC01CC0FDD1FCE01845D9F4F0E940B
S1130550F423FE01E853FB4F91838083CE01845E34
S11305609F4F0E94F423C854DB4F99838883DF9103
S1130570CF9108950F931F93CF93DF930197EC01CD
S1130580CC0FDD1FFE01E853FB4F89E190E091831E
S113059080838E0108541B4F88EB9BE0F801918304
S11305A0808369E170E0CE01845D9F4F0E94152431
S11305B0F80160817181CE01845E9F4F0E941524F1
S11305C0DF91CF911F910F9108958233910571F0BE
S11305D084369105A1F04997D1F42FEF260F45E019
S11305E051E064E08AE00C94001208952FEF260F86
S11305F045E051E065E08AE00C94001208952FEF85
S1130600260F45E051E066E08AE00C94001208955C
S1130610CF93CFEFC60F9C01AFEFBFEF0E94F7223D
S113062020E137E240E050E00E94B122DA01C90142
S113063020E04C2F62E270E00E945C11CF9108959B
S11306400F931F93CF93DF93E2E0F1E020818C01BD
S11306500150110941E050E0002E02C0440F551F23
S11306600A94E2F7942F909529232083E8E0F1E09F
S113067020819223908392B1942B92B9E5E0F1E02A
S11306809081942B90839BB1942B9BB998B1942B1C
S113069098B9E1E0F1E09081942B9083E7E0F1E0F8
S11306A09081942B908391B1942B91B9E4E0F1E083
S11306B09081942B90839AB1942B9AB997B1492B3A
S11306C047B9CFEFC80F2C2F42E250E061E081E040
S11306D00E9431112C2F45E051E068EF80E00E9428
S11306E000122C2F45E051E064E08AE00E940012E1
S11306F0E801CC0FDD1FFE01E853FB4FB8018081F8
S1130700918163DFC854DB4FB8018881998180DF10
S1130710DF91CF911F910F9108956FEF680F8BE2D6
S113072090E00E9481119C01A0E1B7E20C94F722B1
S11307300895CF93DF93DFEFD80F4D2F65E071E07D
S113074089E00E942212C82FC3702D2F45E051E08A
S11307506C2F8AE00E9400126C2F64602D2F45E0FC
S113076051E08AE00E940012DF91CF910895EF9248
S1130770FF920F931F93CF93DF931F921F92CDB7D6
S1130780DEB7FC01228130E0322F22278181282B21
S1130790038100531A821982273587E43807C1F18F
S11307A028F42235364409F4D9C0F2C029348EE441
S11307B0380729F027353F4409F481C0E9C0858111
S11307C08A3029F087E192E00E940219E5C0002EE8
S11307D0000C110BF801EB58FA4F86E4808348E0D3
S11307E050E06CE370E086E795E00E94F923C801CD
S11307F0C1DEC80125DF82E292E00E94001961E0B7
S1130800C8010E94041982E692E00E940219C4C041
S1130810AE014F5F5F4F64E0CF0106960E94CD1793
S1130820811105C087E192E00E940219B5C0898157
S11308309A818436910551F08233910539F04997B4
S113084029F086E292E00E940219A6C08BE392E0AE
S11308500E940019002E000C110B61E0C8010E94D7
S113086004198DE592E00E94001961E089819A8162
S11308700E9404198FE392E00E940219C8010197B3
S113088069817A81FC01EE0FFF1FE853FB4F208141
S113089031812617370709F47FC0880F991FFC019F
S11308A0E853FB4F7F0171836083845D9F4F0E94F7
S11308B01524B801F7018081918187DE6DC0AE01F6
S11308C04F5F5F4F64E0CF0106960E94CD17811100
S11308D005C087E192E00E9402195EC089819A8175
S11308E08131974228F086E292E00E94021954C0B6
S11308F081E392E00E940019002E000C110B61E0CC
S1130900C8010E9404198DE592E00E94001943E099
S113091061E089819A810E94D21988E392E00E9461
S11309200219C801019769817A81FC01EE0FFF1F4A
S1130930E854FB4F208131812617370769F1880F6E
S1130940991F7F0171836083845E9F4F0E941524E9
S1130950B801F701808191815BDE1EC085818A30F8
S113096029F087E192E00E94021916C0002E000CC3
S1130970110BC801DEDE80E692E00E94001961E0FE
S1130980C8010E94041982E692E00E94021904C080
S113099089E492E00E9402190F900F90DF91CF91A9
S11309A01F910F91FF90EF900895CF93DF93FC0177
S11309B0D381C0EDCD0F228130E0322F22278181F7
S11309C0282B273587E4380779F028F42635364470
S11309D009F461C079C0233589E4380709F43FC0BC
S11309E027353F44F1F070C089E592E00E94001978
S11309F00C2E000CDD0B61E0CE010E9404198DE584
S1130A0092E00E940019CC0FDD1FCA53DB4F61E056
S1130A10888199810E9404198FE392E00E9402194F
S1130A2057C085E592E00E9400190C2E000CDD0BE6
S1130A3061E0CE010E9404198DE592E00E94001944
S1130A40CC0FDD1FCA54DB4F43E061E088819981FC
S1130A500E94D21988E392E00E94021939C084E608
S1130A6092E00E94001961E08C2FCC0F990B0E9438
S1130A7004198DE592E00E9400194FEC4D0F65E0DA
S1130A8071E089E00E9422120E949D1A84E093E0A2
S1130A900E9402191DC088E692E00E9400190C2EE3
S1130AA0000CDD0B61E0CE010E9404198DE592E09B
S1130AB00E940019CE0131DE61E00E9404198CE627
S1130AC092E00E94021904C089E492E00E94021993
S1130AD0DF91CF910895CF93DF930197EC01CC0F71
S1130AE0DD1FCE01845D9F4F0E94F423FE01E85177
S1130AF0FB4F91838083CE01845E9F4F0E94F42339
S1130B00C852DB4F99838883DF91CF9108950F9367
S1130B101F93CF93DF930197EC01CC0FDD1FFE01F0
S1130B20E851FB4F84EF91E0918380838E0108525A
S1130B301B4F88EC90E0F8019183808364EF71E0AF
S1130B40CE01845D9F4F0E941524F801608171815C
S1130B50CE01845E9F4F0E941524DF91CF911F9197
S1130B600F9108951F93CF93DF931F921F92CDB7D8
S1130B70DEB7162F9C01AFEFBFEF0E94F7222CEDDA
S1130B8035E040E050E00E94B1223A832983898114
S1130B909A814FEF410F20E062E270E00E945C1105
S1130BA00F900F90DF91CF911F910895CF93CFEFC6
S1130BB0C60F9C01AFEFBFEF0E94F7222AEF30E08F
S1130BC040E050E00E94B122DA01C90122E04C2F3A
S1130BD062E270E00E945C11CF9108950F931F931D
S1130BE0CF93DF938C01E2E0F1E02081EC012197C7
S1130BF081E090E00C2E02C0880F991F0A94E2F75E
S1130C00982F909529232083E8E0F1E02081922316
S1130C10908392B1982B92B9E5E0F1E09081982B02
S1130C2090839BB1982B9BB998B1982B98B9E1E02C
S1130C30F1E09081982B9083E7E0F1E09081982B8C
S1130C40908391B1982B91B9E4E0F1E09081982BD5
S1130C5090839AB1982B9AB997B1892B87B92FEFC2
S1130C60200F42E250E065E080E00E943111CC0F99
S1130C70DD1FFE01E851FB4FB8018081918172DFD5
S1130C80C852DB4FB8018881998190DFDF91CF9101
S1130C901F910F910895EF92FF920F931F93CF939B
S1130CA0DF931F921F92CDB7DEB7FC01228130E0A3
S1130CB0322F22278181282B038100531A82198223
S1130CC02D3483E4380709F481C029348EE43807CD
S1130CD029F02834334409F0C9C029C085818A30F9
S1130CE029F087E192E00E940219C4C0002E000C92
S1130CF0110BF801EB58FA4F8CE4808348E050E084
S1130D006CE370E086E795E00E94F923C801FFDEFA
S1130D10C80164DF82E292E00E94001961E0C80128
S1130D200E94041985E992E00E940219A3C0AE0151
S1130D304F5F5F4F64E0CF0106960E94CD1781118B
S1130D4005C087E192E00E94021994C089819A81CA
S1130D508D3D954028F086E292E00E9402198AC0F7
S1130D6080E792E00E940019002E000C110B61E054
S1130D70C8010E94041984E792E00E94001961E00E
S1130D8089819A810E94041987E792E00E940219DE
S1130D90C801019769817A81FC01EE0FFF1FE851B8
S1130DA0FB4F208131812617370709F463C0880F70
S1130DB0991F7F0171836083845D9F4F0E94152476
S1130DC0B801F70180819181CDDE54C0AE014F5F3F
S1130DD05F4F63E0CF0106960E94CD17811105C0D5
S1130DE087E192E00E94021945C089819A81C297E5
S1130DF0893C910528F086E292E00E9402193AC0EB
S1130E008BE792E00E940019002E000C110B61E0A8
S1130E10C8010E94041984E792E00E94001941E08D
S1130E2061E089819A810E94D21987E792E00E9449
S1130E300219C801019769817A81FC01EE0FFF1F35
S1130E40E852FB4F208131812617370799F0880F2C
S1130E50991F7F0171836083845E9F4F0E941524D4
S1130E60B801F70180819181A1DE04C089E492E098
S1130E700E9402190F900F90DF91CF911F910F9153
S1130E80FF90EF900895CF93DF93FC01C381C0538B
S1130E90228130E0322F22278181282B283483E4D9
S1130EA0380721F02D343344F1F03BC08FE792E052
S1130EB00E9400190C2E000CDD0B61E0CE010E9493
S1130EC0041984E792E00E940019CC0FDD1FCA5177
S1130ED0DB4F61E0888199810E94041987E792E0E1
S1130EE00E94021922C083E892E00E9400190C2E8D
S1130EF0000CDD0B61E0CE010E94041984E792E04E
S1130F000E940019CC0FDD1FCA52DB4F41E061E0A3
S1130F10888199810E94D21987E792E00E94021980
S1130F2004C089E492E00E940219DF91CF910895F0
S1130F30CF93DF930197EC01CC0FDD1FCE01845DCD
S1130F409F4F0E94F423C850DB4F99838883DF911D
S1130F50CF9108950197880F991FFC01E850FB4F2A
S1130F601182108260E070E0845D9F4F0C94152420
S1130F700895CF93CFEFC80F2C2F48E250E060E0E4
S1130F808AE00E9400122FEF81EE94E0215080400D
S1130F909040E1F700C000002C2F48E250E064E2EA
S1130FA08AE00E940012CF910895CF93CFEFC80F2B
S1130FB02C2F48E250E060E08AE00E9400122FEFFC
S1130FC081EE94E0215080409040E1F700C00000A1
S1130FD02C2F48E250E06AE08AE00E940012CF9190
S1130FE00895CF93CFEFC80F2C2F48E250E060E074
S1130FF08AE00E9400122FEF81EE94E0215080409D
S11310009040E1F700C000002C2F48E250E061E17D
S11310108AE00E940012CF910895CF93CFEFC80FBA
S11310202C2F48E250E060E08AE00E9400122FEF8B
S113103081EE94E0215080409040E1F700C0000030
S11310402C2F48E250E064E18AE00E940012CF9124
S113105008952FEF280F48E250E060E08AE00E94F4
S113106000122FEF81EE94E0215080409040E1F790
S113107000C000000895CF93CFEFC60F2FEF3FEFCE
S1131080DC010E94062320E43CE940E050E00E9499
S1131090D322DA01C90120E04C2F62E270E00E9401
S11310A05C11CF9108950F931F93CF93E2E0F1E089
S11310B020818C010150110941E050E0002E02C052
S11310C0440F551F0A94E2F7942F90952923208307
S11310D0E8E0F1E020819223908392B1942B92B9BD
S11310E0E5E0F1E09081942B90839BB1942B9BB924
S11310F098B1942B98B9E1E0F1E09081942B90831E
S1131100E7E0F1E09081942B908391B1942B91B915
S1131110E4E0F1E09081942B90839AB1942B9AB9F6
S113112097B1492B47B9CFEFC80F2C2F42E250E0BB
S113113061E083E00E9431112C2F48E250E060E02E
S113114080E00E9400122C2F48E250E060E08AE028
S11311500E940012F801EE0FFF1FE850FB4FB80188
S11311608081918188DFCF911F910F9108956FEF56
S1131170680F85E091E00E9481119C01A0E4BCE924
S11311800C94F72208956FEF680F8BE290E00E94B1
S113119081119C01A0EDB7E00C94F7220895EF9221
S11311A0FF920F931F93CF93DF931F921F92CDB79C
S11311B0DEB7FC01228130E0322F22278181282BE7
S11311C0038100531A821982223584E4380709F412
S11311D0DDC048F4223582E43807E1F12235334496
S11311E009F4A0C058C122358CE4380709F466C05C
S11311F029348EE4380729F02635374409F04BC1E9
S1131200F9C095819A3029F087E192E00E94021991
S113121046C1002E000C110BF801EB58FA4F82E482
S1131220808348E050E06CE370E086E795E00E943C
S1131230F923C8018FDEC80136DF82E292E00E9402
S1131240001961E0C8010E94041989E892E00E9433
S1131250021925C196819133A9F487818A3049F511
S1131260002E000C110BC80184DE87E892E00E9476
S1131270001961E0C8010E9404198BE892E00E9401
S113128002190DC19033A9F487818A3091F4002E9C
S1131290000C110BC801DDDE87E892E00E94001902
S11312A061E0C8010E9404198FE892E00E940219CB
S11312B0F6C087E192E00E940219F1C09681913351
S11312C0A9F487818A3049F5002E000C110BC8015E
S11312D06CDE83E992E00E94001961E0C8010E947B
S11312E004198BE892E00E940219D9C09033A9F442
S11312F087818A3091F4002E000C110BC801A9DEFD
S113130083E992E00E94001961E0C8010E94041977
S11313108FE892E00E940219C2C087E192E00E9425
S11313200219BDC096819133A9F487818A3049F5A9
S1131330002E000C110BC80154DE87E992E00E94D4
S1131340001961E0C8010E9404198BE892E00E9430
S11313500219A5C09033A9F487818A3091F4002E34
S1131360000C110BC80175DE87E992E00E94001998
S113137061E0C8010E9404198FE892E00E940219FA
S11313808EC087E192E00E94021989C09681913350
S1131390A9F487818A3049F5002E000C110BC8018D
S11313A03CDE8BE992E00E94001961E0C8010E94D2
S11313B004198BE892E00E94021971C09033A9F4D9
S11313C087818A3091F4002E000C110BC80141DE94
S11313D08BE992E00E94001961E0C8010E9404199F
S11313E08FE892E00E9402195AC087E192E00E94BD
S11313F0021955C0AE014F5F5F4F65E0CF010696FD
S11314000E94CD17811105C087E192E00E94021964
S113141046C029813A81205E314B21343C4928F071
S113142086E292E00E9402193AC08FE992E00E949B
S11314300019002E000C110B61E0C8010E94041970
S113144083EA92E00E94001943E061E089819A8175
S11314500E94D21988E392E00E940219C801019700
S113146069817A81FC01EE0FFF1FE850FB4F208158
S113147031812617370799F0880F991F7F017183EF
S11314806083845D9F4F0E941524B801F701808119
S11314909181F1DD04C089E492E00E9402190F9069
S11314A00F90DF91CF911F910F91FF90EF900895CE
S11314B0CF93DF93FC01C381C053228130E0322FEC
S11314C022278181282B263584E4380731F12635FB
S11314D087E4380729F02334344409F050C036C077
S11314E086EA92E00E9400190C2E000CDD0B61E0EC
S11314F0CE010E94041983EA92E00E940019CC0FE5
S1131500DD1FCA50DB4F61E0888199810E94041974
S113151088E392E00E94021936C08AEA92E00E94AF
S113152000190C2E000CDD0B61E0CE010E940419A1
S113153083EA92E00E940019CE0119DE61E00E9464
S113154004198CE692E00E9402191DC08EEA92E012
S11315500E9400190C2E000CDD0B61E0CE010E94EC
S1131560041983EA92E00E940019CE010CDE61E0C6
S11315700E94041987E792E00E94021904C089E4DA
S113158092E00E940219DF91CF910895CF93DF93E7
S11315900197EC01CC0FDD1FCE01845D9F4F0E94AB
S11315A0F423FE01E85EFA4F91838083CE01845ECA
S11315B09F4F0E94F423FE01E85FFA4F91838083DA
S11315C0CE01845F9F4F0E94F423C85DDA4F998354
S11315D08883DF91CF910895EF92FF920F931F9329
S11315E0CF93DF930197EC01CC0FDD1FFE01E85E82
S11315F0FA4F84EF91E091838083CE01885F9A4F04
S11316007C0188EC90E0F701918380838E01085D72
S11316101A4F88EE93E0F8019183808364EF71E0C0
S1131620CE01845D9F4F0E941524F7016081718172
S1131630CE01845E9F4F0E941524F8016081718160
S1131640CE01845F9F4F0E941524DF91CF911F919B
S11316500F91FF90EF900895CF93CFEFC60F9C01A9
S1131660AFEFBFEF0E94F72228E833E140E050E0FB
S11316700E94B122DA01C90120E04C2F62E270E03D
S11316801BD6CF910895CF93CFEFC60F9C01AFEF38
S1131690BFEF0E94F7222AEF30E040E050E00E94C2
S11316A0B122DA01C90122E04C2F62E270E004D6D3
S11316B0CF9108958F929F92AF92BF92CF92DF9273
S11316C0EF92FF920F931F93CF93DF931F921F927A
S11316D0CDB7DEB7162FA0E0B0E0880F991FAA1F80
S11316E0BB1FAC01BD01440F551F661F771F440F7C
S11316F0551F661F771F6C017D01C40ED51EE61EA3
S1131700F71EC701B6012BEA3AEA4AEA5AEA0E94EE
S1131710162300E20E943F23822E932EA42EB52E80
S1131720A50194015695479537952795AFEFBFEFDF
S11317300E940C23665B794F8944964028E833E184
S113174040E050E00E94B1223A83298389819A8142
S11317504FEF410F20E065E071E0AED50F900F90A0
S1131760DF91CF911F910F91FF90EF90DF90CF9079
S1131770BF90AF909F908F900895FF920F931F9307
S1131780CF93DF938C01E2E0F1E02081EC0121971B
S113179081E090E00C2E02C0880F991F0A94E2F7B2
S11317A0982F909529232083E8E0F1E0208192236B
S11317B0908392B1982B92B9E5E0F1E09081982B57
S11317C090839BB1982B9BB998B1982B98B9E1E081
S11317D0F1E09081982B9083E7E0F1E09081982BE1
S11317E0908391B1982B91B9E4E0F1E09081982B2A
S11317F090839AB1982B9AB997B1892B87B9FF2412
S1131800FA94F00E2F2D42E250E065E080E029D5F5
S11318102F2D45E051E065E080E023D5CC0FDD1F9E
S1131820FE01E85EFA4FB8018081918115DFFE0167
S1131830E85FFA4FB8018081918125DFC85DDA4FF6
S1131840B8018881998136DFDF91CF911F910F9183
S1131850FF900895880F991FFC01EC59FA4F2081DD
S11318603181ACE6BBE60E94F7222FEF3FEF40E068
S113187050E00E94B122C9010895880F991FFC010C
S1131880E25BFA4F20813181ACE6BBE60E94F7228D
S11318902FEF3FEF40E050E00E94B122C9010895CC
S11318A06FEF680F8BE290E078C508956FEF680FD3
S11318B08BE290E072C508956FEF680F8BE290E0C1
S11318C06CC50895EF92FF920F931F93CF93DF930C
S11318D01F921F92CDB7DEB7FC01228130E0322F78
S11318E022278181282B038100531A8219822D34E7
S11318F083E4380709F47EC020F42834334499F192
S11319000BC129348EE4380729F02D34364509F407
S1131910BAC002C185818A3029F087E192E00E9431
S11319200219FEC0002E000C110BF801EB58FA4FFF
S11319308DE4808348E050E06CE370E086E795E056
S11319400E94F923C80148DEC80117DF82E292E051
S11319500E94001961E0C8010E9404198FED92E011
S11319600E940219DDC0AE014F5F5F4F64E0CF01FA
S113197006960E94CD17811105C087E192E00E946E
S11319800219CEC089819A818938934128F086E270
S113199092E00E940219C4C082EB92E00E940019F6
S11319A061E089819A810E94041987E792E00E948C
S11319B00219002E000C110BC801019769817A816C
S11319C0FC01EE0FFF1FE85EFA4F208131812617DC
S11319D0370709F4A5C0880F991F7F0171836083BD
S11319E0845D9F4F0E941524B801F7018081918185
S11319F033DE96C0AE014F5F5F4F63E0CF010696C2
S1131A000E94CD17811105C087E192E00E9402195E
S1131A1087C089819A81C297893C910528F086E222
S1131A2092E00E9402197CC08EEB92E00E940019A1
S1131A3041E061E089819A810E94D21987E792E0AE
S1131A400E940219002E000C110BC8010197698134
S1131A507A81FC01EE0FFF1FE85FFA4F208131818C
S1131A602617370709F45CC0880F991F7F0171831B
S1131A706083845E9F4F0E941524B801F701808122
S1131A80918101DE4DC0AE014F5F5F4F64E0CF0135
S1131A9006960E94CD17811105C087E192E00E944D
S1131AA002193EC089819A81845691098D369740E6
S1131AB028F086E292E00E94021932C08AEC92E099
S1131AC00E94001942E061E089819A810E94D21942
S1131AD088E392E00E940219002E000C110BC80149
S1131AE0019769817A81FC01EE0FFF1FE85DFA4FCF
S1131AF0208131812617370799F0880F991F7F01BC
S1131B0071836083845F9F4F0E941524B801F7019D
S1131B1080819181CFDD04C089E492E00E940219A2
S1131B200F900F90DF91CF911F910F91FF90EF9045
S1131B300895CF93DF93FC01C381C053228130E029
S1131B40322F22278181282B28348DE4380709F489
S1131B506BC040F4283483E4380769F02D343344EF
S1131B6039F196C02D348DE4380709F477C02D344B
S1131B703645E1F18DC08FE792E00E9400190C2EEA
S1131B80000CDD0B61E0CE010E94041986ED92E0A9
S1131B900E940019CC0FDD1FCA5EDA4F61E0888114
S1131BA099810E94041987E792E00E94021974C087
S1131BB083E892E00E9400190C2E000CDD0B61E01A
S1131BC0CE010E94041986ED92E00E940019CC0F08
S1131BD0DD1FCA5FDA4F41E061E0888199810E948C
S1131BE0D21987E792E00E94021956C089ED92E06B
S1131BF00E9400190C2E000CDD0B61E0CE010E9446
S1131C00041986ED92E00E940019CC0FDD1FCA5D15
S1131C10DA4F42E062E0888199810E94D21988E318
S1131C2092E00E94021938C08DED92E00E940019E2
S1131C300C2E000CDD0B61E0CE010E94041986ED30
S1131C4092E00E940019CE0105DE43E063E00E94A9
S1131C50D21988E392E00E9402191EC081EE92E03C
S1131C600E9400190C2E000CDD0B61E0CE010E94D5
S1131C70041986ED92E00E940019CE01FEDD43E0D6
S1131C8063E00E94D21988E392E00E94021904C022
S1131C9089E492E00E940219DF91CF910895CF93D5
S1131CA0DF930197EC01CC0FDD1FCE01845D9F4FC4
S1131CB00E94F423C85CDA4F99838883DF91CF9123
S1131CC008959C0121503109220F331FF901E85C6A
S1131CD0FA4F91838083BC01C901845D9F4F0C94AA
S1131CE015240895CF93DF939C0188B1A901415035
S1131CF05109C1E0D0E002C0CC0FDD1F4A95E2F7E4
S1131D008C2B88B98FE99FE00197F1F700C00000A0
S1131D106A307105C8F4FB018827EE58FF4F8F4FD6
S1131D200C94EF226FEC13C065E211C065E80FC09C
S1131D3069EC0DC061E90BC061E109C067EC07C043
S1131D4061E005C061E803C06FEF01C063E0DFEF4D
S1131D50D20F2D2F48E250E08AE052D38FE99FE062
S1131D600197F1F700C000002D2F48E250E060E039
S1131D7080E046D38FE99FE00197F1F700C00000AF
S1131D8088B1C095C823C8B9DF91CF910895EF9267
S1131D90FF920F931F93CF93DF937C01E2E0F1E076
S1131DA020818C010150110981E090E0002E02C0D5
S1131DB0880F991F0A94E2F7C82FC095922F9C238D
S1131DC09083E8E0F1E090819C23908392B19C237E
S1131DD092B9E5E0F1E090819C2390839BB19C2330
S1131DE09BB998B19C2398B9E1E0F1E09081982BDC
S1131DF09083E7E0F1E09081982B908391B1982B48
S1131E0091B9E4E0F1E09081982B90839AB1982BFA
S1131E109AB997B1982B97B998B1892B88B98FE95A
S1131E209FE00197F1F700C00000DFEFDE0D2D2FDA
S1131E3048E250E060E080E0E3D22D2F48E250E039
S1131E406FEF8AE0DDD288B1C823C8B98FE99FE07B
S1131E500197F1F700C00000000F111FF801E85CC2
S1131E60FA4F60817181C7013DDFDF91CF911F91EE
S1131E700F91FF90EF900895CF93DF9328B1AC01B9
S1131E8041505109C1E0D0E002C0CC0FDD1F4A959A
S1131E90E2F79C2F922B98B9EFE9FFE03197F1F725
S1131EA000C000004FEF480F68E270E08AE0CAD239
S1131EB0813881F158F4833099F118F4813039F183
S1131EC02CC08131F1F0853281F027C0873CE1F0EC
S1131ED028F4853869F0813989F01FC0893C59F0AC
S1131EE08F3CD9F421E030E01DC022E030E01AC07C
S1131EF023E030E017C024E030E014C025E030E0F7
S1131F0011C026E030E00EC027E030E00BC028E02E
S1131F1030E008C029E030E005C02FEF3FEF02C0F9
S1131F2020E030E08FE99FE00197F1F700C0000066
S1131F3098B1C095C923C8B9C901DF91CF9108955B
S1131F40CF92DF92EF92FF920F931F93CF93DF9381
S1131F508C0192DF7C016894CC24C1F8DD24D394F5
S1131F60F6018081980121503109C1E0D0E002C01E
S1131F70CC0FDD1F2A95E2F78C2BF601808361E0FC
S1131F8070E0C801AFDEFFEF29E688E1F1502040A0
S1131F908040E1F700C00000A895F6018081DC2FA5
S1131FA0D0958D2380836894CC24C3F8DD24D39406
S1131FB0F60180818C2BF601808362E070E0C80119
S1131FC091DEFFEF29E688E1F15020408040E1F7FF
S1131FD000C00000A89582B18C2B82B9F6018081E3
S1131FE08D23808363E070E0C8017CDEFFEF29E687
S1131FF088E1F15020408040E1F700C00000A8953E
S11320000F2EF5E0CF2EDD24D394F02DF601808140
S11320108C2BF601808382B18D2382B964E070E059
S1132020C80160DEFFEF29E688E1F15020408040DE
S1132030E1F700C00000A8958BB18C2B8BB9F60199
S113204080818D23808365E070E0C8014BDEFFEF63
S113205029E688E1F15020408040E1F700C000000B
S1132060A89588B1C82BC8B98BB18D238BB966E00C
S113207070E0C80137DE9FEFE9E6F8E19150E040F7
S1132080F040E1F700C00000A89588B1D823D8B982
S1132090B701C80127DEDF91CF911F910F91FF9007
S11320A0EF90DF90CF9008950F931F93CF93DF931A
S11320B01F921F92CDB7DEB7FC01228130E0322F90
S11320C022278181282B038100531A821982293403
S11320D08EE4380751F0233584E5380709F470C0DD
S11320E024343E4409F086C029C085818A3029F011
S11320F087E192E00E94021981C0002E000C110BAE
S1132100F801EB58FA4F84E5808348E050E06CE333
S113211070E086E795E00E94F923C801D2DDC8018A
S113212036DE82E292E00E94001961E0C8010E945A
S1132130041985EE92E00E94021960C0AE014F5F5F
S11321405F4F64E0CF01069628D7811105C087E16F
S113215092E00E94021952C069817A816A30710545
S113216028F086E292E00E94021948C0002E000C7A
S1132170110BC8010197880F991FFC01E85CFA4F05
S113218071836083845D9F4F0E94152469817A81E5
S1132190C801A8DD87EE92E00E94001961E0C80141
S11321A00E9404198BEE92E00E94001961E089817B
S11321B09A810E94041984E093E00E9402191EC0CF
S11321C085818A3029F087E192E00E94021916C0C5
S11321D0002E000C110BC801B3DE80EF92E00E94C8
S11321E0001961E0C8010E94041984E093E00E9490
S11321F0021904C089E492E00E9402190F900F9022
S1132200DF91CF911F910F910895CF93DF93FC013C
S1132210228130E0322F22278181282B24343E442E
S1132220D1F4C38185E093E0EBD7C0530C2E000CAE
S1132230DD0B61E0CE01E8D782E094E0E1D7CC0F7A
S1132240DD1FCA5CDA4F61E088819981DDD784E0C3
S113225093E0D8D703C089E492E0D4D7DF91CF913B
S11322600895FF920F931F93CF93DF93D82FC62F18
S11322708A01F22E0E9465218111FCCF23E041E006
S11322806F2DC8010E94F7208CE00E944E2280E04E
S11322900E944E228D2F0E944E2280E10E944E22E7
S11322A080E00E944E228C2F0E944E22DF91CF911B
S11322B01F910F91FF900895EF92FF920F931F9338
S11322C0CF93DF93C82FD92F7B01042F122F0E94A5
S11322D065218111FCCF23E041E0602FC7010E94FA
S11322E0F720812F0E944E228D2F0E944E228C2F88
S11322F00E944E22DF91CF911F910F91FF90EF909A
S11323000895FF920F931F93CF93DF931F921F9211
S1132310CDB7DEB78C01F62E0E9465218111FCCF6A
S113232022E041E06F2DC8010E94F720F8012081CE
S113233081E090E002C0880F991FFA94E2F7982F89
S1132340909592239083FAE0FA95F1F700C0F80192
S11323509081892B8083FAE1FA95F1F700C0198204
S11323601A8262E0CE0101960E9498220E945921AD
S11323708230E0F382E00E942E21EEE7F5E08081D6
S113238090E0982F88272181822B0F900F90DF9166
S1132390CF911F910F91FF900895FF920F931F9378
S11323A0CF93DF931F921F92CDB7DEB78C01F62E29
S11323B00E9465218111FCCF22E041E06F2DC8010C
S11323C00E94F72019821A8262E0CE0101960E94CF
S11323D098220E9459218230E0F382E00E942E214B
S11323E0EEE7F5E0808190E0982F88272181822B09
S11323F00F900F90DF91CF911F910F91FF9008954F
S1132400FF920F931F93CF93DF93D82FC62F8A0188
S1132410F22E0E9465218111FCCF23E041E06F2D53
S1132420C8010E94F72080E40E944E228D2F0E9452
S11324304E228C2F0E944E22DF91CF911F910F913B
S1132440FF900895EF92FF920F931F93CF93DF9322
S113245000D0CDB7DEB7182F7B01042F0E94652171
S11324608111FCCF23E041E0602FC7010E94F720D7
S113247081E489831A831B8263E0CE0101960E9462
S113248098220E9459218330E0F383E00E942E2198
S1132490809180050F900F900F90DF91CF911F9145
S11324A00F91FF90EF900895AF92BF92DF92EF9259
S11324B0FF920F931F93CF93DF93A398A298A098B2
S11324C0A1989B9A9A9A999A989A20E030E002E00F
S11324D011E0EE24E394F12C68E071E045E051E072
S11324E0C1E0D1E0A7E0B1E06894AA24A2F8BB243B
S11324F0B394F801D080C701022E02C0880F991F3F
S11325000A94E2F7982F9095D922D082FB01D080CB
S11325109D21908392B1982B92B9FA019081982BC6
S113252090839881982B98839C91982B9C9391B13C
S1132530982B91B9F5019081892B80832F5F3F4FB0
S113254027303105B1F6749A719A6C9A699A729827
S11325506A9A2E98269A2798DF91CF911F910F910E
S1132560FF90EF90DF90BF90AF90089586E0909138
S1132570BF059A3068F01092BF059091C2059F5F25
S11325809093C2059A3021F41092C2058150A89507
S1132590863011F4A39A0AC0853019F4A398A29A3C
S11325A00BC0843019F4A39AA29A0BC0833021F48F
S11325B0A398A298A09A09C0823019F4A098A19A6D
S11325C0D6CF813011F4A198D2CF8111D0CF089504
S11325D0CF93DF93CDB7DEB728970FB6F894DEBF5D
S11325E00FBECDBF68E070E082E590E00E94152444
S11325F049E150E060E070E088E090E00E9410243F
S113260049E150E060E070E084E090E00E94102432
S11326106AE070E082E090E00E94152464E670E0D5
S113262080E090E00E94152460E084E490E00E9441
S1132630022488E0E5E0F2E0DE01119601900D92BB
S11326408A95E1F748E050E0BE016F5F7F4F8CE36D
S113265090E00E94F92328960FB6F894DEBF0FBECF
S1132660CDBFDF91CF9108950F931F93CF93DF9345
S113267088E090E00E94EF2360934A0570934B0535
S113268080934C0590934D0584E090E00E94EF23E5
S11326906093600570936105809362059093630570
S11326A082E090E00E94F4239093490580934805CA
S11326B080E090E00E94F42390934F0580934E05B0
S11326C084E490E00E94E7238093650548E050E0AD
S11326D06CE370E086E795E00E94D72306E715E0F7
S11326E0C1E0D0E0F80181918F018634C9F028F46B
S11326F0813451F08234C1F01DC08D3469F08435C9
S1132700B9F08C34B9F404C0CE010E949E0012C00A
S1132710CE010E946B050EC0CE010E94C60A0AC0FB
S1132720CE010E949E0206C0CE010E94980702C0FC
S1132730CE01B5DA2196C930D105A1F6DF91CF914A
S11327401F910F910895EF92FF920F931F93CF93D0
S1132750DF937C01062F172FC1E0D0E0F7018191B0
S11327607F01F80191918F01891709F442C08634E1
S1132770C1F128F4813451F0823419F13AC08D3416
S1132780B9F0843539F18C34A1F509C0913219F0CE
S1132790CE010E94BA00CE010E94FD002AC09132EF
S11327A019F0CE010E948705CE010E94EE0521C0DA
S11327B0913219F0CE010E94EC0ACE010E94BD0BA9
S11327C018C0913219F0CE010E94AA07CE010E94CE
S11327D053080FC0913211F0CE0173DACE01D7DA6B
S11327E008C0913219F0CE010E94BA02CE010E94B3
S11327F020032196C930D10509F0B0CFDF91CF91E4
S11328001F910F91FF90EF900895CF93DF93CDB771
S1132810DEB728970FB6F894DEBF0FBECDBF90E0A9
S113282080E80FB6F89480936100909361000FBE26
S11328309EE088E10FB6F894A895809360000FBEDF
S113284090936000A895C3D0E0D00FD167D02CDE60
S113285082E590E00E94F423089731F0A39AA29AAB
S1132860A09AA19AB5DEA8957894D8D6FDDE1092E8
S113287064058DE790E00E94E32088E0EEE0F2E05A
S1132880DE01119601900D928A95E1F7BE016F5F0A
S11328907F4F86E795E057DF69DE28960FB6F894F8
S11328A0DEBF0FBECDBFDF91CF910895AEDF0E9492
S11328B02320A8950E94431F8091BF058A3040F0D1
S11328C01092BF058091C2058F5F8093C205F1CF3E
S11328D08091C2058A30D8F01092C2058091C0055B
S11328E08F5F8093C0058091B704882329F08150BD
S11328F08093B704A09A01C0A098809164058823AE
S113290019F0A39AA29AD5CFA39AA298D2CF809174
S1132910C0058A3070F21092C005CBCF9AD01092C5
S1132920080110920201A198089593D081E0809348
S1132930C1051092BE051092C305B5D0A19A80912D
S11329404A0590914B05A0914C05B0914D05892BFA
S11329508A2B8B2B21F08091650580930201809155
S11329606505809308016FC00895A19A809165055B
S11329708093080108956DD081E08093BE05109284
S1132980C1051092C30551D1A19A1092020110926F
S1132990080159C008955DD081E08093BE0510926E
S11329A0C1051092C30541D1A19A4DC00895B6DF67
S11329B080916505809308012FEF89EF90E0215005
S11329C080409040E1F700C00000A8CF089583E064
S11329D08093B0008CE08093B10089EF8093B300C2
S11329E082E08093700008951F920F920FB60F92A9
S11329F011248F938091BF058F5F8093BF058F91C2
S1132A000F900FBE0F901F90189588E1809381005E
S1132A1082E8809380008FE396E090938700809310
S1132A20860080E190E090938900809388008FEF86
S1132A309FEF90938B0080938A0090938D008093F6
S1132A408C00259A0895E1E8F0E08081816080831C
S1132A500895E1E8F0E080818E7F80838FEF9FEF1F
S1132A60909385008093840008958FE180932101E1
S1132A7080E69AEE909327018093260182E080936A
S1132A8020018FE08093730081E090E0909329010E
S1132A908093280190932B0180932A0190932D0118
S1132AA080932C0108958FE59AEE909325018093ED
S1132AB0240180E69AEE9093270180932601809169
S1132AC04A0590914B05A0914C05B0914D05803776
S1132AD027E19207A105B10550F59C01220F331F90
S1132AE0880F991F880F991F880F991F820F931FB2
S1132AF0909329018093280120914A0530914B0538
S1132B00C901880F991F220F331F220F331F220F71
S1132B10331F820F931F9093C9058093C8051092A9
S1132B20C705C29790932D0180932C0125C08FEF88
S1132B309FEF909329018093280160914A05709139
S1132B404B0580914C0590914D0520E737E140E01D
S1132B5050E00E94B122AB01440F551F660F771F4E
S1132B60660F771F660F771F640F751F7093C90573
S1132B706093C8052093C705809160059091610515
S1132B80A0916205B0916305803727E19207A10502
S1132B90B10528F59C01220F331F880F991F880F58
S1132BA0991F880F991F820F931F90932B01809375
S1132BB02A0180916005909161059C01220F331FC9
S1132BC0880F991F880F991F880F991F820F931FD1
S1132BD09093CC058093CB051092CA0508958FEF8E
S1132BE09FEF90932B0180932A016091600570916F
S1132BF06105809162059091630520E737E140E02B
S1132C0050E00E94B122AB01440F551F660F771F9D
S1132C10660F771F660F771F640F751F7093CC05BF
S1132C206093CB052093CA0508958091480590913F
S1132C304905880F991F01979093270180932601D6
S1132C40809148059091490581509048880F991FBB
S1132C509093250180932401809148059091490522
S1132C60019790932901809328018FEF9FEF909310
S1132C702B0180932A0190932D0180932C01809144
S1132C804E0590914F059093C6058093C505089510
S1132C901F920F920FB60F9211240BB60F922F931F
S1132CA03F934F935F936F937F938F939F93AF93D0
S1132CB0BF93EF93FF938091BE058823C1F0809169
S1132CC065058093020180916505809308018091D8
S1132CD0C5059091C6059C01215031093093C60564
S1132CE02093C505892BC9F5B4DE1FDE36C080915B
S1132CF0C1058823F9F08091C70581508093C705E9
S1132D00811108C08091C8059091C905909329014B
S1132D10809328018091CA0581508093CA0581114E
S1132D201CC08091CB059091CC0590932B0180938E
S1132D302A0113C08091C305882379F08091C705C7
S1132D4081508093C705811108C08091C805909176
S1132D50C9059093290180932801FF91EF91BF91B8
S1132D60AF919F918F917F916F915F914F913F911F
S1132D702F910F900BBE0F900FBE0F901F901895C0
S1132D801F920F920FB60F9211240BB60F922F932E
S1132D903F934F935F936F937F938F939F93AF93DF
S1132DA0BF93EF93FF938091C305882311F0F3DD64
S1132DB002C010920201FF91EF91BF91AF919F91D8
S1132DC08F917F916F915F914F913F912F910F90D0
S1132DD00BBE0F900FBE0F901F9018951F920F926D
S1132DE00FB60F9211240BB60F92AF92BF92CF92EF
S1132DF0DF92EF92FF920F931F932F933F934F9382
S1132E005F936F937F938F939F93AF93BF93CF936E
S1132E10DF93EF93FF938FB780688FBF1ADE0F2E77
S1132E20F6E6CF2EF5E0DF2EF02D0F2EF0E5EF2E97
S1132E30F5E0FF2EF02D06E715E0C0E0D0E080912C
S1132E40650590E00C2E02C0959587950A94E2F7EB
S1132E5080FF14C0F80180818D3481F45E01FFEF9E
S1132E60AF1ABF0AC5010E94560CF60191838083F4
S1132E70C5010E945C0CF701918380832196F2E0E6
S1132E80CF0ED11C22E0E20EF11C0F5F1F4FC830A1
S1132E90D105A9F6109208018FEF9FEF90932B01B3
S1132EA080932A01A198FF91EF91DF91CF91BF9177
S1132EB0AF919F918F917F916F915F914F913F91CE
S1132EC02F911F910F91FF90EF90DF90CF90BF90C3
S1132ED0AF900F900BBE0F900FBE0F901F901895E0
S1132EE01F920F920FB60F9211240BB60F922F93CD
S1132EF03F934F935F936F937F938F939F93AF937E
S1132F00BF93EF93FF93CF93DF931F921F92CDB79D
S1132F10DEB78FB780688FBF1A82198289819A8140
S1132F20089724F529813A818091650590E002C0D3
S1132F30959587952A95E2F780FF0FC0E981FA817C
S1132F40EA58FA4F80818D3431F489819A8101964F
S1132F500E94500C02C089819A8189819A810196CC
S1132F609A83898389819A810897E4F20F900F905C
S1132F70DF91CF91FF91EF91BF91AF919F918F918D
S1132F807F916F915F914F913F912F910F900BBE65
S1132F900F900FBE0F901F901895FF920F931F93E1
S1132FA0CF93DF9300D000D0CDB7DEB78A01DA012A
S1132FB01D921C92FC0120812D3221F40196FF24E4
S1132FC0F39401C0F12CFC013196DC019C9180ED5D
S1132FD0890F89838A3008F046C080E08F5F282FEC
S1132FE030E0519190ED950FA1E0B0E0AC0FBD1F22
S1132FF0A20FB31F9C939A3088F35A3081F5681757
S113300080F1882309F1982F60E070E0F901E91B51
S1133010F10941E050E04C0F5D1FE40FF51F4081C2
S1133020FB01EE0FFF1F660F771F660F771F660FFA
S1133030771F6E0F7F1F640F711D915039F7D801F0
S11330406D937C9301C080E0FF2081F0F801208122
S113305031813195219531093183208307C080E086
S113306005C080E003C09A3071F380E026960FB665
S1133070F894DEBF0FBECDBFDF91CF911F910F91AA
S1133080FF9008958F929F92AF92BF92CF92DF925A
S1133090EF92FF920F931F93CF93DF93CDB7DEB7D9
S11330A02B970FB6F894DEBF0FBECDBF8A01DA01AD
S11330B01D921D921D921C921397FC0120812D32AA
S11330C019F4019641E001C040E0FC013196DC01B5
S11330D09C9180ED890F89838A3008F05DC080E07F
S11330E08F5F282F30E0519190ED950FA1E0B0E073
S11330F0AC0FBD1FA20FB31F9C939A3088F35A30B4
S113310009F046C0681708F445C0882371F1982F68
S1133110C12CD12C7601F901E91BF10961E070E0C1
S11331206C0F7D1FE60FF71F5081CC0CDD1CEE1CCD
S1133130FF1C46015701880C991CAA1CBB1C880C57
S1133140991CAA1CBB1CC80CD91CEA1CFB1CC50E70
S1133150D11CE11CF11C9150F1F6D801CD92DD9205
S1133160ED92FC92139701C080E04423C1F0F80172
S1133170408151816281738170956095509541952C
S11331805F4F6F4F7F4F408351836283738307C0C8
S113319080E005C080E003C09A3031F380E02B96D4
S11331A00FB6F894DEBF0FBECDBFDF91CF911F9154
S11331B00F91FF90EF90DF90CF90BF90AF909F90D2
S11331C08F900895FC0120E030E080E0A1E0B0E0C1
S11331D09191903351F0913389F4AD01022E02C0E4
S11331E0440F551F0A94E2F7840F2F5F3F4F283096
S11331F0310571F7FB01808381E0089580E0089533
S1133200BCC70895CBC70895CF92DF92EF92FF9287
S11332100F931F93CF93DF93CDB7DEB72C970FB6E1
S1133220F894DEBF0FBECDBFE62E992344F42DE201
S113323030E038872F8391958195910901C01F82D1
S11332404AE0BE016F5F7F4F0E947523BE016F5F2E
S11332507F4FCE0107960E946323BE01695F7F4FB3
S1133260CE0101960E946E23E1100FC020C0D886C3
S1133270CF82B801CE0107960E946323BE01695F25
S11332807F4FC8010E946E2308C08E010F5F1F4F3D
S1133290F12C6894CC24C5F8D12CF80101900020BD
S11332A0E9F73197E01BF10BEE15FF0500F3CE01B2
S11332B0019663D72C960FB6F894DEBF0FBECDBF30
S11332C0DF91CF911F910F91FF90EF90DF90CF90FE
S11332D00895CF92DF92EF92FF920F931F93CF93B3
S11332E0DF93CDB7DEB766970FB6F894DEBF0FBE97
S11332F0CDBFE42E992364F42DE230E03D872C8782
S113330090958095709561957F4F8F4F9F4F01C029
S11333101C862AE0AE014F5F5F4F0E947F23BE01EF
S11333206F5F7F4FCE010C960E946323BE01645FE2
S11333307F4FCE0101960E946E23E1100FC020C082
S1133340DD86CC86B801CE010C960E946323BE01B3
S1133350645F7F4FC8010E946E2308C08E010F5F17
S11333601F4FF12C6894CC24C5F8D12CF80101909E
S11333700020E9F73197E01BF10BEE15FF0500F390
S1133380CE010196FAD666960FB6F894DEBF0FBE4C
S1133390CDBFDF91CF911F910F91FF90EF90DF9000
S11333A0CF9008955F926F927F928F929F92AF9287
S11333B0BF92CF92DF92EF92FF920F931F93CF931E
S11333C0DF93CDB7DEB764970FB6F894DEBF0FBEB8
S11333D0CDBF4C01762EC42E442389F0842F01E006
S11333E010E09801220F331F000F111F000F111F4F
S11333F0000F111F020F131F815099F702C001E043
S113340010E0C401992024F4882799278819990980
S1133410582E692EB8010E949D224AE0BE016F5FBA
S11334207F4F0E947523CE0101967C01D12C0F2E73
S1133430F0E3AF2EB12CF02D0DC0BC86AB86B701E6
S1133440CE010B960E946323BE01655F7F4FC701C7
S11334500E946E23F70101900020E9F73197EE19DD
S1133460FF09EC15FD0548F37E019BE0E90EF11C14
S1133470852D962DB8010E949D22CB014AE0B7010B
S11334800E947523F70101900020E9F731978EE23D
S113349090E091838083BE016F5F7F4FC7010E94DC
S11334A0632399202CF48DE290E09A83898301C0F0
S11334B01982BE01655F7F4FCE0101960E9463238E
S11334C071100FC021C0DC86CB86B801CE010B96EB
S11334D00E946323BE01655F7F4FC8010E946E2373
S11334E009C08E010F5F1F4FE72CF12C6894CC2488
S11334F0C5F8D12CF80101900020E9F73197E01BC1
S1133500F10BEE15FF05F8F2CE01019636D664965E
S11335100FB6F894DEBF0FBECDBFDF91CF911F91E0
S11335200F91FF90EF90DF90CF90BF90AF909F905E
S11335308F907F906F905F900895CF93DF93CDB776
S1133540DEB729970FB6F894DEBF0FBECDBF99E062
S1133550E9E0F3E0DE01119601900D929A95E1F70E
S1133560FE01319627E030E090E070E361E3AC01C6
S1133570022E02C0559547950A94E2F740FF02C017
S1133580608301C070832150310931962F3F4FEF82
S1133590340769F7CE010196F0D529960FB6F89451
S11335A0DEBF0FBECDBFDF91CF910895CF93DF93E0
S11335B0CDB7DEB729970FB6F894DEBF0FBECDBFE7
S11335C099E0E9E0F3E0DE01119601900D929A95FD
S11335D0E1F7FE01319620E030E090E070E361E332
S11335E0AC01022E02C0559547950A94E2F740FFBC
S11335F002C0608301C070832F5F3F4F3196283033
S1133600310571F7CE010196B8D529960FB6F89415
S1133610DEBF0FBECDBFDF91CF91089510D51092BC
S1133620CF0508950F931F93CF93DF93CDB7DEB7E4
S113363060970FB6F894DEBF0FBECDBF8C01FC01BE
S11336403281818119821B821A821C821D821E8210
S11336501F822081223509F03BC0833509F008C45C
S1133660343509F005C483818A3081F410926405ED
S113367082E193E0C7DD98E088E10FB6F894A8955D
S1133680809360000FBE90936000FFCF803209F0FA
S1133690EFC3F8018481813309F0EAC385818A305C
S11336A009F0E6C3109264056FEF7FEF82E590E0C6
S11336B00E94152489E193E0A5DD98E088E10FB626
S11336C0F894A895809360000FBE90936000FFCF9C
S11336D090E0932B233509F0CDC2F80123812032E9
S11336E009F095C28035F2E59F0709F431C2F8F478
S11336F08435E4E49E0709F4FFC150F48D3424E4D6
S1133700920709F475C08E34944409F4CAC17BC28B
S11337108834F0E59F0709F444C18D3420E592070D
S113372009F47FC185349E4409F06DC2AAC0803576
S1133730F3E59F0709F4C6C050F48434E3E59E071B
S113374009F4F7C08D34934509F40FC15CC2833486
S113375024E5920709F424C28834E6E59E0729F09B
S11337608335934509F04FC2C8C0F801848186357A
S113377009F03AC086818E32B9F580858A30A1F588
S11337801C8644E050E06EE470E0CE0108960E948E
S1133790D7238885863569F48A858E3251F487E289
S11337A093E02EDDCE0108962BDD8CE293E02ADD3A
S11337B05FC3F80184819581A681B7818887998741
S11337C0AA87BB8744E050E06EE470E0CE0108961F
S11337D00E94F92387E293E013DDCE01089610DD01
S11337E084E093E00FDD44C387E192E00BDD40C346
S11337F0F8018481833409F040C08581873509F05C
S11338003CC080858D3209F038C085858A30A9F5A1
S1133810198A49E050E065E470E0CE010896C7D704
S11338208885833481F48985873569F48C858D3264
S113383051F482E493E0E4DCCE010896E1DC8CE20E
S113384093E0E0DC15C389E0F8013496DE011896B4
S113385001900D928A95E1F749E050E065E470E04B
S1133860CE010896C6D782E493E0CADCCE0108965E
S1133870C7DC84E093E0C6DCFBC287E192E0C2DCF3
S1133880F7C2F8018481813359F485818A30B1F417
S113389081E080936405729A87E493E0B3DCE8C224
S11338A0803361F4F80185818A3041F41092640513
S11338B035D872988DE493E0A5DCDAC287E192E012
S11338C0A1DCD6C2F8018481813341F485818A3038
S11338D081F42BD883E593E095DCCAC2803349F4A4
S11338E0F80185818A3029F419D889E593E08ADCC6
S11338F0BFC287E192E086DCBBC2F80184818133D8
S113390041F485818A3089F430D88FE593E07ADCFC
S1133910AFC2803351F4F80185818A3031F40E94BA
S11339208E1485E693E06EDCA3C287E192E06ADC44
S11339309FC2F8018481813341F485818A3089F4FE
S11339408BE693E05FDC17D893C2803351F4F8011F
S113395085818A3031F40E948E1481E793E052DC31
S113396087C287E192E04EDC83C2F801848181330F
S113397041F485818A3089F487E793E043DC17D8E2
S113398077C2803351F4F80185818A3031F40E9482
S11339908E148DE793E036DC6BC287E192E032DC73
S11339A067C2AE014C5F5F4F66E0C80104966ADBF4
S11339B0811104C087E192E025DC5AC28C819D818B
S11339C0AE81BF81AC01BD01495151096109710941
S11339D0483A544D6140710540F0892B8A2B8B2B5A
S11339E021F086E292E00EDC43C283E893E008DC37
S11339F06C817D818E819F8141E06BDC88E893E05E
S1133A0001DC4C815D816E817F8140934A05509336
S1133A104B0560934C0570934D0588E090E000D70A
S1133A2027C2AE014C5F5F4F66E0C80104962ADBF3
S1133A30811104C087E192E0E5DB1AC28C819D818B
S1133A40AE81BF81AC01BD014951510961097109C0
S1133A50483A544D6140710540F0892B8A2B8B2BD9
S1133A6021F086E292E0CEDB03C28CE893E0C8DB6F
S1133A706C817D818E819F8141E02BDC88E893E01D
S1133A80C1DB4C815D816E817F81409360055093E1
S1133A906105609362057093630584E090E0C0D68D
S1133AA0E7C1AE014E5F5F4F66E0C801049675DA68
S1133AB0811104C087E192E0A5DBDAC18A819B8190
S1133AC00197883E934020F086E292E09BDBD0C1D0
S1133AD081E993E095DB61E08A819B8195DB86E94E
S1133AE093E090DB6A817B8170934F0560934E0570
S1133AF080E090E09AD6BCC1AE014E5F5F4F66E0B5
S1133B00C80104964ADA811104C087E192E07ADBA5
S1133B10AFC18A819B810197883E934020F086E261
S1133B2092E070DBA5C18EE993E06ADB41E061E0DD
S1133B308A819B8137DC88E893E064DB6A817B813E
S1133B40709349056093480582E090E06ED690C179
S1133B50F80101900020E9F7CF010E978017910733
S1133B6021F087E192E04EDB83C1BE016F5F7F4F9E
S1133B70C801049627DB811104C087E192E042DB8F
S1133B8077C183EA93E03CDB898110DD84E093E034
S1133B9039DB69816093650584E490E033D668C1BC
S1133BA0F80101900020E9F7CF010E9780179107E3
S1133BB021F087E192E026DB5BC166E775E0CE0188
S1133BC008968CD588E0F8013496A6E7B5E0019014
S1133BD00D928A95E1F748E050E06CE370E086E7E7
S1133BE095E007D6BE01685F7F4F86E795E00E94A7
S1133BF0A31388EA93E004DB86E795E001DB84E025
S1133C0093E000DB35C189E492E0FCDA31C1205352
S1133C10283060F5F80184818634A1F028F48134D9
S1133C20A9F08234B9F01EC08D3441F08435B1F06E
S1133C308C34C1F4C8010E944B061AC1C8010E9409
S1133C40620C16C1C8010E94B70312C1C8010E94C8
S1133C5053010EC1C8010E94CF080AC1C8010E94C5
S1133C60541006C189E492E0CDDA02C189E492E0FD
S1133C70C9DAFEC0273409F0F8C0F80123812A30DC
S1133C8009F0C0C08834F0E59F0709F46AC0C8F49D
S1133C908E34E4E49E0709F482C048F4893424E4B1
S1133CA0920739F18D34944409F440C0A7C0843597
S1133CB0F4E49F0709F480C085349E4409F445C0A8
S1133CC09DC08334E4E59E0709F48EC050F48D341E
S1133CD020E5920709F456C08035924509F47AC06C
S1133CE08DC08834F6E59F0791F08335964541F001
S1133CF085C08DEA93E084DA82EB93E083DAB8C07E
S1133D008CEC93E07DDA81ED93E07CDAB1C01C8623
S1133D1044E050E06EE470E0CE01089648D588EDAA
S1133D2093E06EDACE0108966DDAA2C0198A49E0F2
S1133D3050E065E470E0CE01089639D58DED93E04E
S1133D405FDACE0108965EDA93C082EE93E058DA29
S1133D508091640561E090E057DA84E093E052DA00
S1133D6087C087EE93E04CDA60914A0570914B0569
S1133D7080914C0590914D0541E0ABDA88E893E0E1
S1133D8041DA76C08CEE93E03BDA61E08091600525
S1133D909091610539DA88E893E034DA69C081EFFB
S1133DA093E02EDA61E080914E0590914F052CDA74
S1133DB086E993E027DA5CC086EF93E021DA41E0FC
S1133DC061E08091480590914905ECDA88E893E038
S1133DD019DA4EC08BEF93E013DA80916505E6DBC8
S1133DE084E093E00FDA44C080E094E009DA86E7E7
S1133DF095E006DA84E093E005DA3AC089E492E0DB
S1133E0001DA36C02053283060F5F8018481863405
S1133E10A1F028F48134A9F08234B9F01EC08D34A5
S1133E2041F08435B1F08C34C1F4C8010E944307D9
S1133E301FC0C8010E94990D1BC0C8010E94D5046F
S1133E4017C0C8010E944A0213C0C8010E94580A40
S1133E500FC0C8010E9405110BC089E492E0D2D9B9
S1133E6007C089E492E0CED903C089E492E0CAD9BC
S1133E7060960FB6F894DEBF0FBECDBFDF91CF9131
S1133E801F910F910895F5D08093CF05882339F0C1
S1133E9086E194E09093CE058093CD05C3CB08953D
S1133EA01F920F920FB60F9211240BB60F928F939D
S1133EB09F93EF93FF9380910804882329F08091C6
S1133EC0C6008093B70435C080910A0481112DC0C7
S1133ED0E0910B04F0E08091C600E05BF94F808331
S1133EE0E0910B04F0E0E05BF94F80818A3029F423
S1133EF0809109048F5F8093090480910B048F5F84
S1133F0080930B0480910B04803811F410920B04FD
S1133F1090910B0480910C04981303C081E080936A
S1133F200A0485E08093B70404C08091C60080939E
S1133F30B704FF91EF919F918F910F900BBE0F905B
S1133F400FBE0F901F9018951F920F920FB60F92ED
S1133F5011240BB60F928F939F93EF93FF9380914D
S1133F60000281111DC0809107048F5F80930704B4
S1133F7080910704803811F410920704909107048B
S1133F8080910604981304C081E08093000208C065
S1133F90E0910704F0E0E053FA4F80818093C6007B
S1133FA085E08093B704FF91EF919F918F910F90DB
S1133FB00BBE0F900FBE0F901F9018958F929F927B
S1133FC0AF92BF92CF92DF92EF92FF92699AE1ECA7
S1133FD0F0E02081286120832081206820832081D3
S1133FE020642083E2ECF0E02081266020836C01D1
S1133FF0E12CF12CA0E2B3E0A70196010DD34B0113
S11340005C0124E2920E24EFA21EB11CA0E4B6E0EF
S1134010A701960101D39B01AC01C501B401A1D252
S1134020215031093093C5002093C400FF90EF90D4
S1134030DF90CF90BF90AF909F908F90089580E4D1
S113404092E0BCCF0895E1ECF0E080818F7780832B
S1134050A6ECB0E02C9110920C0410920B048C91FD
S113406010920A0410920904908190689083820F40
S11340700895CF93C0910904CC2309F440C080E093
S1134080A1ECB0E0282F30E0E0910C04F0E0E05B1C
S1134090F94F9081F901EA5EFB4F90839C919F77E1
S11340A09C9390910C049F5F90930C0490910C044A
S11340B0903811F410920C0410920A049C919068A8
S11340C09C93F901EA5EFB4F90819A3091F4E1EC04
S11340D0F0E090819F7790839091090491509093A0
S11340E00904908190689083F901EA5EFB4F118284
S11340F00CC091118F5F88232CF680E006C080915C
S11341000A04882311F09FDF8C2FCF910895382F54
S11341102091060490910704291304C080910002A1
S1134120882351F1E0910604F0E0E053FA4F308324
S1134130E1ECF0E080818F7B8083809106048F5FC7
S11341408093060480910604803811F410920604CA
S113415080910002882351F0E0910704F0E0E053DD
S1134160FA4F80818093C60010920002E1ECF0E0E7
S113417080818064808381E00895CF93DF93EC0194
S11341808881882341F08881C2DF8823E1F3219666
S113419088818111F8CFDF91CF910895CF93DF9378
S11341A0EC018881882341F08881B1DF8823E1F321
S11341B0219688818111F8CF8AE0A9DF8823E1F371
S11341C0DF91CF9108951092D5001092D400289ACF
S11341D02398229A219A84E58CBD8CB580688CBD85
S11341E08CB580688CBD8CB583608CBD089590932C
S11341F003028093020260930F0440930E04209301
S11342000102089590910E04992319F08823A9F0CE
S113421002C0811112C0E0910202F09103022081D8
S113422081E090E000900F0402C0880F991F0A9467
S1134230E2F78095822380830895E0910202F09151
S11342400302208181E090E000900F0402C0880FF7
S1134250991F0A94E2F7822B80830895813408F031
S113426080E4AEE7B5E020E015C0E0911504F0E08D
S1134270E05FF84F90819D932F5F909115049F5FAD
S11342809093150490911504903411F41092150430
S1134290109213043091150490911404391304C03E
S11342A090911304992319F02813DFCF0895822FD6
S11342B0089580911304811106C080911404909193
S11342C01504891B089580E4089580911004909149
S11342D01104891B08958CB58F778CBD2EB510926F
S11342E01504109214048EB5109213049CB59068B2
S11342F09CBD820F08951F920F920FB60F92112446
S11343000BB60F922F933F934F935F936F937F93CB
S11343108F939F93AF93BF93EF93FF938091130475
S1134320811124C0E0911404F0E08EB5E05FF84FF1
S11343308083809114048F5F80931404809114040B
S1134340803411F410921404909114048091150493
S1134350981303C081E08093130490910D0480911D
S11343600102981304C01092120401C0B4DFFF913B
S1134370EF91BF91AF919F918F917F916F915F91D9
S11343804F913F912F910F900BBE0F900FBE0F9046
S11343901F9018951F920F920FB60F9211240BB60F
S11343A00F922F933F934F935F936F937F938F93CA
S11343B09F93AF93BF93EF93FF938091120488234D
S11343C049F180911304811124C0E0911404F0E0B8
S11343D08EB5E05FF84F8083809114048F5F8093E3
S11343E0140480911404803411F4109214049091F4
S11343F0140480911504981303C081E0809313047E
S113440090910D048091010298130EC01092120431
S113441007C061DF90910D0480910102981304C0DC
S113442080E0F0DE10920D0480910402811123C01B
S1134430809111048F5F8093110480911104803462
S113444011F41092110490911004809111049813A6
S113445004C081E0809304020EC081E0D3DEE091C9
S11344601104F0E0E053F94F80818EBD80910D047A
S11344708F5F80930D04FF91EF91BF91AF919F9156
S11344808F917F916F915F914F913F912F910F90F9
S11344900BBE0F900FBE0F901F901895382F2091D0
S11344A0100490911104291304C0809104028823FC
S11344B061F1E0911004F0E0E053F94F30838CB5E2
S11344C08F778CBD809110048F5F8093100480914E
S11344D01004803411F41092100480910402882393
S11344E081F081E08FDEE0911104F0E0E053F94FB8
S11344F080818EBD80910D048F5F80930D04109296
S113450004028CB580688CBD81E008951F93CF931D
S1134510DF93EC01162F662339F08881BFDF8823EF
S1134520E1F321961150C9F7DF91CF911F910895BE
S113453021E020931204EACF0895AA1BBB1B51E18A
S113454007C0AA1FBB1FA617B70710F0A61BB70BFF
S1134550881F991F5A95A9F780959095BC01CD01A4
S11345600895A1E21A2EAA1BBB1BFD010DC0AA1FB0
S1134570BB1FEE1FFF1FA217B307E407F50720F0C8
S1134580A21BB30BE40BF50B661F771F881F991F43
S11345901A9469F760957095809590959B01AC018C
S11345A0BD01CF010895052E97FB16F400940FD09A
S11345B057FD05D0D6DF07FC02D046F408C050955D
S11345C04095309521953F4F4F4F5F4F08959095FB
S11345D08095709561957F4F8F4F9F4F0895EE0F93
S11345E0FF1F881F8BBF0790F691E02D1994A29F9F
S11345F0B001B39FC001A39F700D811D1124911DB3
S1134600B29F700D811D1124911D0895F0DFB7FF35
S11346100895821B930B0895EADFA59F900DB49F24
S1134620900DA49F800D911D11240895E894DF93AB
S1134630CF93FC01DB01DBDF7F936F93E9019A01E8
S1134640AC01BF93AF933F932F93DF01D0DF26F4E8
S11346506C1B7D0B820B930B9E01EB01FC012BD099
S1134660AF91BF912F913F9126D0BE01CF01F901A7
S11346702F913F91CF91DF91089597FB10F81694F5
S113468000080F93083098F00850232F342F452F3B
S1134690562F672F782F892F902DF4CF0594979557
S11346A087957795679557954795379527950A95F3
S11346B0AAF70F9108959BDF460F571FC81FD91FF4
S11346C008F431960895FB01DC010D900020E9F710
S11346D0119701900D920020E1F70895FB01DC0190
S11346E001900D920020E1F70895BB274A3031F480
S11346F0992322F4BDE2909581959F4F30C0BB274A
S11347002A3051F4992342F4BDE290958095709536
S113471061957F4F8F4F9F4F01C0BB27FA01A62F92
S11347206217710581059105330B30FB66F0AA27EA
S1134730660F771F881F991FAA1FA21710F0A21BCC
S113474063953850A9F7A05DAA3308F0A95DA19339
S113475036F7B111B1931082CA0119C0BB27FB010E
S11347605527AA27880F991FAA1FA41710F0A41B66
S113477083955051B9F7A05DAA3308F0A95DA193C0
S1134780009779F7B111B1931192CB0100C0DC010C
S1134790FC01672F71917723E1F7329704C07C9174
S11347A06D9370836291AE17BF07C8F30895DC015F
S11347B0CB01FC01F999FECF06C0F2BDE1BDF89A28
S11347C0319600B40D9241505040B8F70895F999CC
S11347D0FECF92BD81BDF89A992780B50895A6E1D0
S11347E0B0E044E050E0E5CFA8E1B0E042E050E0C2
S11347F0E0CFDC01CB0102C02D9105D041505040E7
S1134800D8F70895262FF999FECF1FBA92BD81BD1E
S113481020BD0FB6F894FA9AF99A0FBE019608953E
S1134820242FF1DF252FEFDF00C0ECDF272FEBCFA4
S1074830F894FFCF26
S11348340101250001303030303030303000212186
S113484421212121212100464F524D41542045521A
S1134854520053494E004E554D4245522045525242
S11348640053574F00413D00205600535747002042
S1134874572F4F2D556E697400434F4D4D414E448F
S1134884204552520047574F0047574700463D00C2
S1134894535246004753490047564600206D56007C
S11348A4534843004C3D00206D4100534D430047A1
S11348B4484300474D430053524200423D310042B5
S11348C43D300053524C005352430053524400535E
S11348D4564700423D004756470047564400474365
S11348E44400534843204D4F534645543D00534DD3
S11348F443204D4F534645543D00534D56204D4F90
S1134904534645543D004D3D00474D560047484DE0
S113491400474D4D00540053444E0054203D2000A4
S1134924536C6F742D546573742066696E6973686F
S113493465643A200047444E003030303030303023
S113494430007265626F6F7400666163746F7279AC
S1134954207265736574005348563D002063616E8C
S11349642774206265206F76657277726974746542
S11349746E00534D443D0053454E3D310053454E66
S11349843D30005350533D31005350533D30005398
S113499453533D31005353533D30005344533D313D
S11349A4005344533D3000534D533D3100534D5354
S11349B43D30005348503D00206D7300534D503D2D
S11349C400534E443D002070756C7365730053545A
S11349D4443D005350523D005343543D0047494421
S11349E43D00527468544543205454412D45717517
S11349F469706D656E742056315F30004753563DBF
S1134A040056302E302E38004748563D00474D445A
S1134A143D0047454E3D004748503D00474D503DFD
S1134A2400474E443D004754443D004750523D0026
S1094A344743543D00005D
S9030000FC
