:100000007BC0000099C0000097C0000095C00000B0
:1000100093C0000091C000008FC000008DC00000A0
:100020008BC0000089C0000087C0000085C00000B0
:1000300083C0000063C700007FC000007DC00000D7
:100040007BC0000079C0000077C0000075C00000D0
:1000500073C0000071C000006FC000006DC00000E0
:100060000C9456150C94D81267C000000C942C13F5
:1000700063C0000061C000005FC000005DC0000000
:100080005BC0000059C0000057C0000055C0000010
:1000900053C0000051C000004FC000004DC0000020
:1000A0004BC0000049C0000047C0000045C0000030
:1000B00043C0000041C000003FC000000C9436095E
:1000C0000C9442090C9483090C94D2080C940315E7
:1000D00033C0000031C000002FC000002DC0000060
:1000E0002BC000008403700372037403760378034B
:1000F0007A037C037E03800311241FBECFEFD1E27D
:10010000DEBFCDBF00E00CBF13E0A0E0B2E0E8E648
:10011000FEE200E00BBF02C007900D92A839B107C4
:10012000D9F726E0A8E9B3E001C01D92A232B207D8
:10013000E1F75DD60C94321763CF0F931F93CF93E3
:10014000DF93D82F8B01C42F80919803841307C0AD
:100150008091990390919A038617970799F00E94CE
:10016000ED148111FCCF10939A0300939903C0936F
:10017000980323E041E06C2FC8010E947F148CB5E6
:1001800084608CBD8D2F0E94DA15DF91CF911F9175
:100190000F9108951F93CF93DF93EC01162F462FF5
:1001A000BC018CE0CADF412FBE0180E0C6DF412FD9
:1001B000BE0180E0C2DF412FBE0180E1BEDF412FE2
:1001C000BE0180E0BADF412FBE0185E0B6DFDF91DE
:1001D000CF911F9108951F93CF93DF93C62F9C015A
:1001E000AFEFBFEF0E94671628E833E140E050E030
:1001F0000E943D16D22F132F4C2F62E270E080E058
:100200009CDF4C2F62E270E0812F97DF4C2F62E27F
:1002100070E08D2F92DFDF91CF911F9108951F9392
:10022000CF93DF93C62F9C01AFEFBFEF0E946716FD
:100230002AEF30E040E050E00E943D16D22F132F0D
:100240004C2F62E270E082E078DF4C2F62E270E0D7
:10025000812F73DF4C2F62E270E08D2F6EDFDF9114
:10026000CF911F9108951F93CF93DF93C62F9C01C9
:10027000ABEABAEA0E946716DC01B695A79526EFAD
:100280003FEF49E050E00E947C16665B794F89445D
:10029000964028E833E140E050E00E943D16D22F1E
:1002A000132F4C2F65E071E080E047DF4C2F65E0B5
:1002B00071E0812F42DF4C2F65E071E08D2F3DDF33
:1002C000DF91CF911F9108951F93CF93DF93C62F96
:1002D0009C01AFEFBFEF0E94671620E137E240E0DC
:1002E00050E00E943D16D22F132F4C2F62E270E097
:1002F00080E023DF4C2F62E270E0812F1EDF4C2F65
:1003000062E270E08D2F19DFDF91CF911F91089588
:100310007498719A6C9A699A8DE790E00E946B14B8
:10032000749A60E082E290E035DF61E082E290E082
:1003300031DF61E080913E0490913F04C5DF62E0CF
:1003400082E290E027DF62E085E091E023DF62E077
:1003500080914104909142043EDF62E080913C0430
:1003600090913D045CDF62E08091AF039091B00317
:100370007ADF71980895E2E0F1E02081BC016150DC
:10038000710941E050E002C0440F551F6A95E2F741
:10039000942F909529232083E8E0F1E02081922397
:1003A000908392B1942B92B9E5E0F1E09081942B87
:1003B00090839BB1942B9BB998B1942B98B9E1E0B1
:1003C000F1E09081942B9083E7E0F1E09081942B11
:1003D000908391B1942B91B9E4E0F1E09081942B5A
:1003E00090839AB1942B9AB997B1492B47B92FEFC3
:1003F000280F42E250E065E080E08DC20895CF937F
:10040000CFEFC60F9C01AFEFBFEF0E9467162CED38
:1004100035E040E050E00E943D16DA01C90120E0DD
:100420004C2F62E270E0A2D2CF910895CF93CFEF2C
:10043000C60F9C01AFEFBFEF0E9467162AEF30E0B6
:1004400040E050E00E943D16DA01C90122E04C2F45
:1004500062E270E08BD2CF910895CF93E2E0F1E0B9
:100460002081BC016150710941E050E002C0440F9D
:10047000551F6A95E2F7942F909529232083E8E091
:10048000F1E020819223908392B1942B92B9E5E020
:10049000F1E09081942B90839BB1942B9BB998B100
:1004A000942B98B9E1E0F1E09081942B9083E7E000
:1004B000F1E09081942B908391B1942B91B9E4E079
:1004C000F1E09081942B90839AB1942B9AB997B1D3
:1004D000492B47B9CFEFC80F2C2F48E250E060E01E
:1004E00080E069D22C2F48E250E060E08AE063D2DD
:1004F000CF910895CF93CFEFC80F2C2F48E250E053
:1005000060E08AE058D22FEF81EE94E021508040E5
:100510009040E1F700C000002C2F48E250E064E278
:100520008AE049D2CF910895CF93CFEFC80F2C2FF7
:1005300048E250E060E08AE03ED22FEF81EE94E0A6
:10054000215080409040E1F700C000002C2F48E28D
:1005500050E06AE08AE02FD2CF910895CF93CFEF99
:10056000C80F2C2F48E250E060E08AE024D22FEF41
:1005700081EE94E0215080409040E1F700C00000FF
:100580002C2F48E250E061E18AE015D2CF91089526
:10059000CF93CFEFC80F2C2F48E250E060E08AE005
:1005A0000AD22FEF81EE94E0215080409040E1F795
:1005B00000C000002C2F48E250E064E18AE0FBD14B
:1005C000CF9108952FEF280F48E250E060E08AE0D5
:1005D000F2D12FEF81EE94E0215080409040E1F77E
:1005E00000C000000895CF93DF93E2E0F1E02081A6
:1005F000BC016150710941E050E002C0440F551F39
:100600006A95E2F7C42FC095922F9C239083E8E06F
:10061000F1E090819C23908392B19C2392B9E5E014
:10062000F1E090819C2390839BB19C239BB998B16E
:100630009C2398B9E1E0F1E09081942B9083E7E06E
:10064000F1E09081942B908391B1942B91B9E4E0E7
:10065000F1E09081942B90839AB1942B9AB997B141
:10066000942B97B998B1492B48B9EFE9FFE031973E
:10067000F1F700C00000DFEFD80F2D2F48E250E067
:1006800060E080E098D12D2F48E250E06FEF8AE0E3
:1006900092D188B1C823C8B9DF91CF9108950F9343
:1006A0001F93CF939C0188B1A9014150510901E0EA
:1006B00010E002C0000F111F4A95E2F7802B88B9A5
:1006C0008FE99FE00197F1F700C000002A30310563
:1006D000C8F4F9018827EE58FF4F8F4F0C945F162E
:1006E0006FEC13C065E211C065E80FC069EC0DC086
:1006F00061E90BC061E109C067EC07C061E005C0BA
:1007000061E803C06FEF01C063E0CFEFC20F2C2F91
:1007100048E250E08AE04FD18FE99FE00197F1F77E
:1007200000C000002C2F48E250E060E080E043D1A0
:100730008FE99FE00197F1F700C0000088B10095B4
:10074000082308B9CF911F910F910895CF93DF939C
:1007500028B1AC0141505109C1E0D0E002C0CC0F3A
:10076000DD1F4A95E2F79C2F922B98B9EFE9FFE045
:100770003197F1F700C000004FEF480F68E270E0DA
:100780008AE03BD1813881F158F4833099F118F433
:10079000813039F12CC08131F1F0853281F027C0F0
:1007A000873CE1F028F4853869F0813989F01FC071
:1007B000893C59F08F3CD9F421E030E01DC022E0A3
:1007C00030E01AC023E030E017C024E030E014C06D
:1007D00025E030E011C026E030E00EC027E030E038
:1007E0000BC028E030E008C029E030E005C02FEF62
:1007F0003FEF02C020E030E08FE99FE00197F1F782
:1008000000C0000098B1C095C923C8B9C901DF91E3
:10081000CF910895E2E0F1E02081AC01415051090F
:1008200081E090E002C0880F991F4A95E2F7282BDB
:1008300020832FEF39E648E1215030404040E1F776
:1008400000C00000A8952081982F9095292320832F
:10085000E8E0F1E02081282B20832FEF39E648E102
:10086000215030404040E1F700C00000A89522B17F
:10087000282B22B92081292320832FEF39E648E154
:10088000215030404040E1F700C00000A895E5E06D
:10089000F1E02081282B208322B1292322B92FEFD8
:1008A00039E648E1215030404040E1F700C0000007
:1008B000A8952BB1282B2BB92081292320832FEF3A
:1008C00039E648E1215030404040E1F700C00000E7
:1008D000A89528B1822B88B98BB189238BB98FEF6A
:1008E00029E638E1815020403040E1F700C00000A7
:1008F000A89588B1982398B90895CF93DF93EC0118
:10090000CEDECE0123DFC817D90711F4CE0182DF76
:10091000DF91CF910895FF920F931F93CF93DF93B1
:10092000D82FC62F8A01F22E0E94ED148111FCCF20
:1009300023E041E06F2DC8010E947F148CE00E94EB
:10094000DA1580E00E94DA158D2F0E94DA1580E119
:100950000E94DA1580E00E94DA158C2F0E94DA15C9
:10096000DF91CF911F910F91FF900895EF92FF9229
:100970000F931F93CF93DF93C82FD92F7B01042FA1
:10098000122F0E94ED148111FCCF23E041E0602F73
:10099000C7010E947F14812F0E94DA158D2F0E94BB
:1009A000DA158C2F0E94DA15DF91CF911F910F91EC
:1009B000FF90EF900895FF920F931F93CF93DF93D3
:1009C000D82FC62F8A01F22E0E94ED148111FCCF80
:1009D00023E041E06F2DC8010E947F1480E40E9453
:1009E000DA158D2F0E94DA158C2F0E94DA15DF910F
:1009F000CF911F910F91FF900895EF92FF920F9367
:100A00001F93CF93DF9300D0CDB7DEB7182F7B01B4
:100A1000042F0E94ED148111FCCF23E041E0602FF0
:100A2000C7010E947F1481E489831A831B8263E0DB
:100A3000CE0101960E9424160E94E1148330E0F357
:100A400083E00E94B614809146040F900F900F909F
:100A5000DF91CF911F910F91FF90EF900895CF9369
:100A6000DF931F921F92CDB7DEB722E041E066E030
:100A70008BE290E00E947F145A988AE18A95F1F700
:100A800000C05A9A8AE18A95F1F700C019821A8249
:100A900062E0CE0101960E9424160E94E114823089
:100AA000E0F382E00E94B614E4E4F4E0A081B0E058
:100AB000BA2FAA278181A82B2CE63BE60E94761646
:100AC000BC01882799270F900F90DF91CF9108954F
:100AD000CF93DF931F921F92CDB7DEB722E041E0A4
:100AE00066E08BE290E00E947F145A988AE18A9532
:100AF000F1F700C05A9A8AE18A95F1F700C019828D
:100B00001A8262E0CE0101960E9424160F900F9087
:100B1000DF91CF91089582E00E94B614E4E4F4E0FE
:100B2000A081B0E0BA2FAA278181A82B2CE63BE652
:100B30000E947616BC01882799270895AF92BF922C
:100B4000DF92EF92FF920F931F93CF93DF93A398BF
:100B5000A298A098A1989B9A9A9A999A989A20E01C
:100B600030E002E011E0EE24E394F12C68E071E063
:100B700045E051E0C1E0D1E0A7E0B1E06894AA24EB
:100B8000A2F8BB24B394F801D080C701022E02C0A2
:100B9000880F991F0A94E2F7982F9095D922D08256
:100BA000FB01D0809D21908392B1982B92B9FA01DC
:100BB0009081982B90839881982B98839C91982B67
:100BC0009C9391B1982B91B9F5019081892B8083E9
:100BD0002F5F3F4F27303105B1F6529A5A987298DD
:100BE0006A9A2E98269A2798DF91CF911F910F919C
:100BF000FF90EF90DF90BF90AF90089586E08093D4
:100C00008A0439C08091B3038A3090F01092B30304
:100C1000809192048F5F8A3019F08093920408C00B
:100C20001092920480918A04815080938A04A8953E
:100C300080918A04863009F4A39A80918A048530D1
:100C400011F4A398A29A80918A04843011F4A39A93
:100C5000A29A80918A04833019F4A398A298A09A4A
:100C600080918A04823011F4A098A19A80918A041C
:100C7000813009F4A19880918A048111C3CF08952D
:100C800072D11092080110920201A19808959EE07D
:100C900088E10FB6F894A895809360000FBE9093FA
:100CA0006000A8951ED13BD16AD1EADF47DF87E11A
:100CB00090E00E940717059709F444C0A39AA29AEE
:100CC000A09AA19A65E070E087E190E00E941F176A
:100CD00062E370E085E190E00E941F1762E370E03C
:100CE0008FE090E00E941F1760EE7EE285E090E0CA
:100CF0000E941F1768EB7BE087E090E00E941F17BF
:100D000049E150E060E070E081E190E00E941A1754
:100D100049E150E060E070E08BE090E00E941A173B
:100D20006AE070E083E090E00E941F1764E670E0E4
:100D300081E090E00E941F1760E080E090E00E9458
:100D40000C17A895789409D385E190E00E940717C5
:100D500090934204809341048FE090E00E94071733
:100D600090933D0480933C0481E190E00E9402173F
:100D70006093B4037093B5038093B6039093B70365
:100D80008BE090E00E9402176093840470938504C6
:100D9000809386049093870485E090E00E94071773
:100DA000909391048093900487E090E00E9407174D
:100DB00090933F0480933E0483E090E00E940717E5
:100DC0009093B2038093B10381E090E00E940717F3
:100DD0009093B9038093B80380E090E00E94FA16E4
:100DE000809395041092890493DA08CF08954FDF19
:100DF0000E94AB13A8950E94CB128091B3038A3056
:100E000040F01092B303809192048F5F809392041C
:100E1000F1CF809192048A30D8F0109292048091A0
:100E2000BA038F5F8093BA0380919304882329F0DB
:100E3000815080939304A09A01C0A0988091890466
:100E4000882319F0A39AA29AD5CFA39AA298D2CFB9
:100E50008091BA038A3070F21092BA03CBCF83D05C
:100E600081E080938F0410929404A7D0A19A80917E
:100E7000B4039091B503A091B603B091B703892B49
:100E80008A2B8B2B21F08091950480930201809115
:100E900095048093080161C00895A19A80919504FA
:100EA0008093080108955FD081E0809394041092AC
:100EB0008F0445D1A19A10920201109208014DC0F1
:100EC0000895DEDE80919504809308012FEF89EF6D
:100ED00090E0215080409040E1F700C00000D0CE6B
:100EE000089583E08093B0008CE08093B10089EF97
:100EF0008093B30082E08093700008951F920F9258
:100F00000FB60F9211248F938091B3038F5F80935C
:100F1000B3038F910F900FBE0F901F90189588E12B
:100F20008093810082E8809380008FE396E0909325
:100F300087008093860080E190E090938900809301
:100F400088008FEF9FEF90938B0080938A0090939F
:100F50008D0080938C00259A0895E1E8F0E080816F
:100F6000816080830895E1E8F0E080818E7F808356
:100F70008FEF9FEF909385008093840008958FE119
:100F80008093210180E69AEE9093270180932601B9
:100F900082E0809320018FE08093730081E090E0F5
:100FA000909329018093280190932B0180932A012B
:100FB00090932D0180932C0108958FE59AEE9093E4
:100FC00025018093240180E69AEE90932701809377
:100FD00026018091B4039091B503A091B603B0911E
:100FE000B703803727E19207A105B10550F59C01B1
:100FF000220F331F880F991F880F991F880F991F81
:10100000820F931F90932901809328012091B403AC
:101010003091B503C901880F991F220F331F220F8A
:10102000331F220F331F820F931F90939B048093D3
:101030009A0410929904C29790932D0180932C01E9
:1010400025C08FEF9FEF9093290180932801609135
:10105000B4037091B5038091B6039091B70320E774
:1010600037E140E050E00E943D16AB01440F551FB0
:10107000660F771F660F771F660F771F640F751F48
:1010800070939B0460939A04209399048091840444
:1010900090918504A0918604B0918704803727E160
:1010A0009207A105B10528F59C01220F331F880F77
:1010B000991F880F991F880F991F820F931F909374
:1010C0002B0180932A0180918404909185049C01D6
:1010D000220F331F880F991F880F991F880F991FA0
:1010E000820F931F90939E0480939D0410929C0402
:1010F00008958FEF9FEF90932B0180932A016091C9
:10110000840470918504809186049091870420E77F
:1011100037E140E050E00E943D16AB01440F551FFF
:10112000660F771F660F771F660F771F640F751F97
:1011300070939E0460939D0420939C040895809175
:10114000B1039091B203880F991F019790932701E3
:10115000809326018091B1039091B2038150904811
:10116000880F991F90932501809324018091B103EA
:101170009091B203019790932901809328018FEFFA
:101180009FEF90932B0180932A0190932D018093E0
:101190002C018091B8039091B903909398048093A7
:1011A000970408951F920F920FB60F9211240BB659
:1011B0000F922F933F934F935F936F937F938F93F0
:1011C0009F93AF93BF93EF93FF93809194048823F1
:1011D000C1F08091950480930201809195048093E1
:1011E000080180919704909198049C012150310945
:1011F0003093980420939704892B29F5B4DE2FDED1
:1012000022C080918F048823F1F08091990481504D
:1012100080939904811108C080919A0490919B0455
:10122000909329018093280180919C0481508093A0
:101230009C04811108C080919D0490919E0490931C
:101240002B0180932A01FF91EF91BF91AF919F9164
:101250008F917F916F915F914F913F912F910F905F
:101260000BBE0F900FBE0F901F9018951F920F92FC
:101270000FB60F921124109202010F900FBE0F9023
:101280001F9018951F920F920FB60F9211240BB654
:101290000F922F933F934F935F936F937F938F930F
:1012A0009F93AF93BF93EF93FF938FB780688FBFE8
:1012B0005ADE31DC6093AB037093AC038093AD03D3
:1012C0009093AE03CCDB7093B0036093AF031092A6
:1012D00008018FEF9FEF90932B0180932A01A19833
:1012E000FF91EF91BF91AF919F918F917F916F91FE
:1012F0005F914F913F912F910F900BBE0F900FBEBA
:101300000F901F9018951F920F920FB60F921124F5
:101310000BB60F922F933F934F935F936F937F93EF
:101320008F939F93AF93BF93EF93FF938FB7806893
:101330008FBFCEDBFF91EF91BF91AF919F918F91C6
:101340007F916F915F914F913F912F910F900BBEC5
:101350000F900FBE0F901F9018950E94A713109228
:10136000A1040895FF920F931F93CF93DF9300D0B2
:1013700000D0CDB7DEB78A01DA011D921C92FC01C4
:1013800020812D3221F40196FF24F39401C0F12C29
:10139000FC013196DC019C9180ED890F89838A30B4
:1013A00008F046C080E08F5F282F30E0519190ED2B
:1013B000950FA1E0B0E0AC0FBD1FA20FB31F9C932F
:1013C0009A3088F35A3081F5681780F1882309F143
:1013D000982F60E070E0F901E91BF10941E050E06D
:1013E0004C0F5D1FE40FF51F4081FB01EE0FFF1F47
:1013F000660F771F660F771F660F771F6E0F7F1FB1
:10140000640F711D915039F7D8016D937C9301C021
:1014100080E0FF2081F0F801208131813195219514
:1014200031093183208307C080E005C080E003C01C
:101430009A3071F380E026960FB6F894DEBF0FBEA7
:10144000CDBFDF91CF911F910F91FF9008958F92A3
:101450009F92AF92BF92CF92DF92EF92FF920F9343
:101460001F93CF93DF93CDB7DEB72B970FB6F894CA
:10147000DEBF0FBECDBF8A01DA011D921D921D9203
:101480001C921397FC0120812D3219F4019641E042
:1014900001C040E0FC013196DC019C9180ED890F98
:1014A00089838A3008F05DC080E08F5F282F30E0AC
:1014B000519190ED950FA1E0B0E0AC0FBD1FA20FD0
:1014C000B31F9C939A3088F35A3009F046C06817CE
:1014D00008F445C0882371F1982FC12CD12C7601D6
:1014E000F901E91BF10961E070E06C0F7D1FE60F67
:1014F000F71F5081CC0CDD1CEE1CFF1C4601570170
:10150000880C991CAA1CBB1C880C991CAA1CBB1C0F
:10151000C80CD91CEA1CFB1CC50ED11CE11CF11C1B
:101520009150F1F6D801CD92DD92ED92FC92139795
:1015300001C080E04423C1F0F80140815181628103
:10154000738170956095509541955F4F6F4F7F4FB8
:10155000408351836283738307C080E005C080E0CD
:1015600003C09A3031F380E02B960FB6F894DEBFBB
:101570000FBECDBFDF91CF911F910F91FF90EF90E4
:10158000DF90CF90BF90AF909F908F900895CF93B2
:10159000DF93CDB7DEB72A970FB6F894DEBF0FBE44
:1015A000CDBF9C012F5F3F4FDC018C91805389831D
:1015B0008A3058F5F9019E012E5F3F4F40E001C08F
:1015C000492F91E0940F81918053D9018D939D0112
:1015D0008A3008F59930A1F71EC08191882321F047
:1015E0008130A9F4852F01C0842F90E0022E02C023
:1015F000880F991F0A94E2F7DB019C91890F8C9365
:101600002150310950F781E00FC080E00DC080E02B
:101610000BC080E009C04730E1F7FE01319627E0BA
:1016200030E040E051E0D9CF2A960FB6F894DEBF03
:101630000FBECDBFDF91CF9108950C94561408953D
:10164000CF92DF92EF92FF920F931F93CF93DF938E
:10165000CDB7DEB72C970FB6F894DEBF0FBECDBF67
:10166000E62E992344F42DE230E038872F839195BC
:101670008195910901C01F824AE0BE016F5F7F4FD3
:101680000E949816BE016F5F7F4FCE0107960E94A1
:101690008616BE01695F7F4FCE0101960E949116AA
:1016A000E1100FC020C0D886CF82B801CE010796C6
:1016B0000E948616BE01695F7F4FC8010E94911685
:1016C00008C08E010F5F1F4FF12C6894CC24C5F821
:1016D000D12CF80101900020E9F73197E01BF10BC4
:1016E000EE15FF0500F3CE0101960E9445142C96DD
:1016F0000FB6F894DEBF0FBECDBFDF91CF911F9123
:101700000F91FF90EF90DF90CF900895CF92DF92EE
:10171000EF92FF920F931F93CF93DF93CDB7DEB776
:1017200066970FB6F894DEBF0FBECDBFE42E9923A7
:1017300064F42DE230E03D872C879095809570957C
:1017400061957F4F8F4F9F4F01C01C862AE0AE01ED
:101750004F5F5F4F0E94A216BE016F5F7F4FCE01A9
:101760000C960E948616BE01645F7F4FCE010196E3
:101770000E949116E1100FC020C0DD86CC86B80112
:10178000CE010C960E948616BE01645F7F4FC80191
:101790000E94911608C08E010F5F1F4FF12C6894B4
:1017A000CC24C5F8D12CF80101900020E9F731973D
:1017B000E01BF10BEE15FF0500F3CE0101960E9430
:1017C000451466960FB6F894DEBF0FBECDBFDF910D
:1017D000CF911F910F91FF90EF90DF90CF900895E0
:1017E0005F926F927F928F929F92AF92BF92CF92B1
:1017F000DF92EF92FF920F931F93CF93DF93CDB7BA
:10180000DEB764970FB6F894DEBF0FBECDBF4C01B4
:10181000762EC42E442389F0842F01E010E0980135
:10182000220F331F000F111F000F111F000F111F78
:10183000020F131F815099F702C001E010E0C401AC
:10184000992024F48827992788199909582E692EF8
:10185000B8010E9429164AE0BE016F5F7F4F0E94C7
:101860009816CE0101967C01D12C0F2EF0E3AF2EFD
:10187000B12CF02D0DC0BC86AB86B701CE010B9606
:101880000E948616BE01655F7F4FC7010E949116B8
:10189000F70101900020E9F73197EE19FF09EC15E7
:1018A000FD0548F37E019BE0E90EF11C852D962D88
:1018B000B8010E942916CB014AE0B7010E94981690
:1018C000F70101900020E9F731978EE290E09183D3
:1018D0008083BE016F5F7F4FC7010E9486169920EB
:1018E0002CF48DE290E09A83898301C01982BE01B5
:1018F000655F7F4FCE0101960E94861671100FC062
:1019000021C0DC86CB86B801CE010B960E948616DC
:10191000BE01655F7F4FC8010E94911609C08E010C
:101920000F5F1F4FE72CF12C6894CC24C5F8D12C05
:10193000F80101900020E9F73197E01BF10BEE155B
:10194000FF05F8F2CE010196A0D764960FB6F89481
:10195000DEBF0FBECDBFDF91CF911F910F91FF90E2
:10196000EF90DF90CF90BF90AF909F908F907F903F
:101970006F905F900895CF93DF93CDB7DEB729972F
:101980000FB6F894DEBF0FBECDBF99E0E5E0F2E000
:10199000DE01119601900D929A95E1F7FE013196C4
:1019A00027E030E090E070E361E3AC01022E02C07A
:1019B000559547950A94E2F740FF02C0608301C045
:1019C00070832150310931962F3F4FEF340769F76B
:1019D000CE0101965AD729960FB6F894DEBF0FBEF6
:1019E000CDBFDF91CF9108950F931F93CF93DF93D6
:1019F000CDB7DEB727970FB6F894DEBF0FBECDBFC9
:101A0000FC013281818119821B821A821C821D8213
:101A10001E821F822081223509F03AC0833509F0E9
:101A2000AFC5343509F0ACC583818A3081F410929A
:101A300089048EE092E03AD798E088E10FB6F894F6
:101A4000A895809360000FBE90936000FFCF803216
:101A500009F096C58481813309F092C585818A3069
:101A600009F08EC5109289046FEF7FEF87E190E057
:101A70000E941F1785E192E019D798E088E10FB620
:101A8000F894A895809360000FBE90936000FFCFFC
:101A900090E0932B233509F08BC42381203209F089
:101AA000B1C18D3420E5920709F4F2C0A0F4843569
:101AB00024E4920709F459C128F48E34944409F4BB
:101AC00028C19CC185342EE49207F1F088349045FA
:101AD00009F49DC093C18D3423E5920709F47EC0BB
:101AE00050F4803522E5920709F46CC184349345A3
:101AF00009F45BC083C1803523E5920721F183356A
:101B0000934509F439C07AC18481813359F48581C0
:101B10008A30A9F481E080938904729A83E292E08A
:101B2000C5D62EC5803359F485818A3041F4109290
:101B30008904A6D8729889E292E0B8D621C58FE2CE
:101B400092E0B4D61DC58481813341F485818A3009
:101B500079F485D98AE392E0A9D612C5803341F49D
:101B600085818A3029F48CD880E492E09FD608C51C
:101B70008FE292E09BD604C58481813341F4858154
:101B80008A3079F48AD986E492E090D6F9C4803319
:101B900041F485818A3029F473D88CE492E086D6AA
:101BA000EFC48FE292E082D6EBC48481813341F4AA
:101BB00085818A3079F482E592E078D674D9E0C4E0
:101BC000803341F485818A3029F45AD888E592E03F
:101BD0006DD6D6C48FE292E069D6D2C484818133B7
:101BE00041F485818A3079F48EE592E05FD669D937
:101BF000C7C4803341F485818A3029F441D884E612
:101C000092E054D6BDC48FE292E050D6B9C4AE0182
:101C10004C5F5F4F66E0CF01049619DC811104C070
:101C20008FE292E043D6ACC48C819D81AE81BF81AE
:101C3000AC01BD014951510961097109483A544D3E
:101C40006140710540F0892B8A2B8B2B21F08AE6AD
:101C500092E02CD695C485E792E017D66C817D8101
:101C60008E819F8141E052DD8AE792E01FD64C8150
:101C70005D816E817F814093B4035093B50360937F
:101C8000B6037093B70381E190E00E941A1778C4FD
:101C9000AE014C5F5F4F66E0CF010496D8DB811147
:101CA00004C08FE292E002D66BC48C819D81AE812C
:101CB000BF81AC01BD014951510961097109483A1F
:101CC000544D6140710540F0892B8A2B8B2B21F0FC
:101CD0008AE692E0EBD554C48EE792E0D6D56C81CB
:101CE0007D818E819F8141E011DD8AE792E0DED522
:101CF0004C815D816E817F81409384045093850483
:101D000060938604709387048BE090E00E941A171A
:101D100037C4AE014E5F5F4F66E0CF01049622DB11
:101D2000811104C08FE292E0C1D52AC48A819B81CF
:101D30000197883E934020F08AE692E0B7D520C410
:101D400083E892E0A2D561E08A819B8179DC85E11C
:101D500093E0ACD56A817B817093B9036093B8033B
:101D600081E090E00E941F170BC4AE014E5F5F4FF1
:101D700066E0CF010496F6DA811104C08FE292E0AA
:101D800095D5FEC38A819B810197883E934020F0C0
:101D90008AE692E08BD5F4C388E892E076D541E0FC
:101DA00061E08A819B811CDD8AE792E07FD56A81B0
:101DB0007B817093B2036093B10383E090E00E9453
:101DC0001F17DEC3BE016F5F7F4FCF010496DFDBBD
:101DD000811104C08FE292E069D5D2C38DE892E010
:101DE00054D58981C8DD86E193E060D5698160932F
:101DF000950480E090E00E940C17C2C382E992E053
:101E000055D5BEC300ED020F083008F0CDC22481C5
:101E1000283409F472C138F4213409F472C122342F
:101E200009F4D3C1BDC22D3409F4A7C0243509F487
:101E3000AEC12C3409F0B4C28D3423E4920709F406
:101E40005BC089342EE4920729F08834934409F06A
:101E500090C017C085818A3021F08FE292E026D5AC
:101E60008FC3002E000C110BC8010E94BB018EE92C
:101E700092E00BD561E0C801E3DB85E293E016D583
:101E80007FC3AE014E5F5F4F64E0CF0106966ADA12
:101E9000811104C08FE292E009D572C38A819B81CF
:101EA0008D3D954020F08AE692E000D569C382EA34
:101EB00092E0EBD461E08A819B81C2DB8BEA92E005
:101EC000F5D46A817B818091410490914204861708
:101ED000970709F455C3709342046093410485E168
:101EE00090E0ADD7602F000F770B80914104909167
:101EF00042040E94FF0144C3AE014E5F5F4F63E0A6
:101F0000CF0106962FDA811104C08FE292E0CED481
:101F100037C38A819B81C297893C910520F08AE66C
:101F200092E0C4D42DC38FEA92E0AFD441E061E0E7
:101F30008A819B8155DC8BEA92E0B8D46A817B81EF
:101F400080913C0490913D048617970709F418C3CB
:101F500070933D0460933C048FE090E070D7602F55
:101F6000000F770B80913C0490913D040E94160273
:101F700007C382E992E09AD403C38D3423E4920725
:101F800009F442C08D3426E5920709F478C08834FC
:101F9000934409F0AEC0AE014E5F5F4F64E0CF01E5
:101FA0000696E0D9811104C08FE292E07FD4E8C2A6
:101FB0008A819B818938934120F08AE692E076D429
:101FC000DFC288EB92E061D461E08A819B8138DBDB
:101FD0008BEA92E06BD46A817B818091410490917D
:101FE00042048617970709F4CBC2709342046093AA
:101FF000410485E190E023D7602F809141049091C6
:1020000042040E94EB00BCC2AE014E5F5F4F63E032
:10201000CF010696A7D9811104C08FE292E046D481
:10202000AFC28A819B81C297893C910520F08AE6E4
:1020300092E03CD4A5C284EC92E027D441E061E078
:102040008A819B81CDDB8BEA92E030D46A817B81EF
:1020500080913C0490913D048617970709F490C243
:1020600070933D0460933C048FE090E0E8D6602FCD
:1020700080913C0490913D040E940F0181C2AE0109
:102080004E5F5F4F64E0CF0106966CD9811104C0AA
:102090008FE292E00BD474C28A819B8184569109AD
:1020A0008D36974020F08AE692E000D469C280ED38
:1020B00092E0EBD342E061E08A819B8191DB8CED81
:1020C00092E0F4D36A817B818091AF039091B00359
:1020D0008617970709F454C27093B0036093AF0357
:1020E00089E090E0ACD6602F8A819B810E94330109
:1020F00047C282E992E0DAD343C28FED92E0D6D3B1
:102100003FC287359F4409F03BC2AE014E5F5F4F2F
:1021100064E0CF01069626D9811104C08FE292E0D7
:10212000C5D32EC28A819B818131974220F08AE6F5
:1021300092E0BCD325C28AEF92E0A7D361E08A8106
:102140009B817EDA83E093E0B1D36A817B817093D7
:102150003F0460933E0487E090E071D66A817B8102
:1021600080913E0490913F048617970709F408C2B6
:1021700070933F0460933E0487E090E060D6602F48
:1021800080913E0490913F040E946401F9C183351F
:10219000944509F0F5C185818A3021F08FE292E003
:1021A00085D3EEC187E093E070D3002E000C110BB5
:1021B00061E0C80145DA86E193E078D3C8010E9466
:1021C000F302C8010E947D04DBC1823524E492073A
:1021D00009F4B7C048F4823522E4920729F1823528
:1021E000934409F47FC0CCC182352CE4920709F4F2
:1021F0004AC089349E4409F0C3C185818A3021F0E8
:102200008FE292E053D3BCC1002E000C110BC80129
:102210000E942D028EE992E038D361E0C80110DA05
:1022200089E193E043D3ACC18681813399F48781FE
:102230008A3029F5002E000C110BC8010E947A0289
:1022400087E193E022D361E0C801FAD98BE193E002
:102250002DD396C1803399F487818A3081F4002E82
:10226000000C110BC8010E94E20287E193E00DD33C
:1022700061E0C801E5D98FE193E018D381C18FE215
:1022800092E014D37DC18681813399F487818A30AD
:1022900029F5002E000C110BC8010E94940283E264
:1022A00093E0F3D261E0C801CBD98BE193E0FED299
:1022B00067C1803399F487818A3081F4002E000C45
:1022C000110BC8010E94E20283E293E0DED261E0DA
:1022D000C801B6D98FE193E0E9D252C18FE292E012
:1022E000E5D24EC18681813399F487818A3029F500
:1022F000002E000C110BC8010E94AE0287E293E091
:10230000C4D261E0C8019CD98BE193E0CFD238C13F
:10231000803399F487818A3081F4002E000C110BF0
:10232000C8010E94E20287E293E0AFD261E0C801F7
:1023300087D98FE193E0BAD223C18FE292E0B6D27F
:102340001FC18681813399F487818A3029F5002E57
:10235000000C110BC8010E94C8028BE293E095D2D9
:1023600061E0C8016DD98BE193E0A0D209C180334F
:1023700099F487818A3081F4002E000C110BC8017A
:102380000E94E2028BE293E080D261E0C80158D95A
:102390008FE193E08BD2F4C08FE292E087D2F0C05D
:1023A00082E992E083D2ECC082E992E07FD2E8C079
:1023B000273409F0E2C023812A3009F0DEC08534D9
:1023C0002EE4920771F198F4883423E49207A9F17E
:1023D00028F48035914409F497C0CBC08D3423E4B0
:1023E0009207C1F18934944409F487C0C2C088348B
:1023F00026E5920709F43CC050F4883420E59207A2
:1024000009F456C08D34904509F463C0B2C08D34D0
:1024100026E5920709F43DC08634974509F466C065
:10242000A8C08FE293E031D28091890461E090E00E
:1024300007D986E193E03AD2A3C084E393E025D2A2
:1024400061E08091410490914204FAD88BEA92E0D5
:102450002DD296C089E393E018D241E061E08091EB
:102460003C0490913D04BCD98BEA92E01FD288C015
:102470008EE393E00AD26091AB037091AC0380913C
:10248000AD039091AE0341E041D983E093E00ED2D9
:1024900077C083E493E0F9D16091AF037091B0030A
:1024A00080E090E041E032D983E093E0FFD168C062
:1024B00088E493E0EAD16091B4037091B503809110
:1024C000B6039091B70341E021D98AE792E0EED1BB
:1024D00057C08DE493E0D9D161E08091840490915C
:1024E0008504AED88AE792E0E1D14AC082E593E064
:1024F000CCD186E593E0DAD143C08CE693E0C5D138
:1025000080E793E0D3D13CC08AE893E0BED18091CC
:10251000890461E090E094D882E993E0B6D161E06B
:1025200080914104909142048BD882E993E0ADD12F
:1025300041E061E080913C0490913D0451D982E9F1
:1025400093E0A3D16091B4037091B5038091B60379
:102550009091B70341E0DAD882E993E096D161E047
:1025600080918404909185046BD886E193E09ED19C
:1025700007C082E992E09AD103C082E992E096D145
:1025800027960FB6F894DEBF0FBECDBFDF91CF9177
:102590001F910F910895F5D08093A104882339F0FD
:1025A0008BEB93E09093A00480939F041DCA089541
:1025B0001F920F920FB60F9211240BB60F928F93AA
:1025C0009F93EF93FF9380919D03882329F080913F
:1025D000C6008093930435C080919F0381112DC064
:1025E000E091A003F0E08091C600EE5DFA4F808399
:1025F000E091A003F0E0EE5DFA4F80818A3029F48B
:1026000080919E038F5F80939E038091A0038F5FD4
:102610008093A0038091A003803811F41092A0034E
:102620009091A0038091A103981303C081E080934F
:102630009F0385E08093930404C08091C60080933B
:102640009304FF91EF919F918F910F900BBE0F908C
:102650000FBE0F901F9018951F920F920FB60F92FA
:1026600011240BB60F928F939F93EF93FF9380915A
:10267000000281111DC080919C038F5F80939C0399
:1026800080919C03803811F410929C0390919C03DC
:1026900080919B03981304C081E08093000208C0DE
:1026A000E0919C03F0E0EE55FB4F80818093C600E3
:1026B00085E080939304FF91EF919F918F910F900C
:1026C0000BBE0F900FBE0F901F9018958F929F9288
:1026D000AF92BF92CF92DF92EF92FF92699AE1ECB4
:1026E000F0E02081286120832081206820832081E0
:1026F00020642083E2ECF0E02081266020836C01DE
:10270000E12CF12CA0E2B3E0A7019601F5D24B0138
:102710005C0124E2920E24EFA21EB11CA0E4B6E0FC
:10272000A7019601E9D29B01AC01C501B401A5D274
:10273000215031093093C5002093C400FF90EF90E1
:10274000DF90CF90BF90AF909F908F90089580E4DE
:1027500092E0BCCF0895E1ECF0E080818F77808338
:10276000A6ECB0E02C911092A1031092A0038C91E2
:1027700010929F0310929E03908190689083820F25
:102780000895CF93C0919E03CC2309F440C080E00C
:10279000A1ECB0E0282F30E0E091A103F0E0EE5D85
:1027A000FA4F9081F901E554FC4F90839C919F77FB
:1027B0009C939091A1039F5F9093A1039091A1039B
:1027C000903811F41092A10310929F039C9190688D
:1027D0009C93F901E554FC4F90819A3091F4E1EC1F
:1027E000F0E090819F77908390919E039150909319
:1027F0009E03908190689083F901E554FC4F11820B
:102800000CC091118F5F88232CF680E006C0809168
:102810009F03882311F09FDF8C2FCF910895382FCD
:1028200020919B0390919C03291304C08091000286
:10283000882351F1E0919B03F0E0EE55FB4F30838C
:10284000E1ECF0E080818F7B808380919B038F5F40
:1028500080939B0380919B03803811F410929B031B
:1028600080910002882351F0E0919C03F0E0EE5546
:10287000FB4F80818093C60010920002E1ECF0E0F3
:1028800080818064808381E00895CF93DF93EC01A1
:102890008881882341F08881C2DF8823E1F3219673
:1028A00088818111F8CFDF91CF910895CF93DF9385
:1028B000EC018881882341F08881B1DF8823E1F32E
:1028C000219688818111F8CF8AE0A9DF8823E1F37E
:1028D000DF91CF9108951092D5001092D400289ADC
:1028E0002398229A219A84E58CBD8CB580688CBD92
:1028F0008CB580688CBD8CB583608CBD0895909339
:102900000302809302026093A4034093A3032093E5
:10291000010208959091A303992319F08823A9F047
:1029200002C0811112C0E0910202F09103022081E5
:1029300081E090E00090A40302C0880F991F0A94E0
:10294000E2F78095822380830895E0910202F0915E
:102950000302208181E090E00090A40302C0880F70
:10296000991F0A94E2F7822B80830895813408F03E
:1029700080E4A4E4B4E020E015C0E091AA03F0E014
:10298000EE51FA4F90819D932F5F9091AA039F5F24
:102990009093AA039091AA03903411F41092AA0381
:1029A0001092A8033091AA039091A903391304C08F
:1029B0009091A803992319F02813DFCF0895822F4F
:1029C00008958091A803811106C08091A903909178
:1029D000AA03891B089580E408958091A50390912E
:1029E000A603891B08958CB58F778CBD2EB51092E8
:1029F000AA031092A9038EB51092A8039CB5906803
:102A00009CBD820F08951F920F920FB60F92112452
:102A10000BB60F922F933F934F935F936F937F93D8
:102A20008F939F93AF93BF93EF93FF938091A803EE
:102A3000811124C0E091A903F0E08EB5EE51FA4F68
:102A400080838091A9038F5F8093A9038091A9035C
:102A5000803411F41092A9039091A9038091AA03E4
:102A6000981303C081E08093A8039091A203809102
:102A70000102981304C01092A70301C0B4DF84E9D7
:102A800093E00E941D0BFF91EF91BF91AF919F9139
:102A90008F917F916F915F914F913F912F910F9007
:102AA0000BBE0F900FBE0F901F9018951F920F92A4
:102AB0000FB60F9211240BB60F922F933F934F93A3
:102AC0005F936F937F938F939F93AF93BF93EF9396
:102AD000FF938091A703882349F18091A803811176
:102AE00024C0E091A903F0E08EB5EE51FA4F808347
:102AF0008091A9038F5F8093A9038091A9038034FB
:102B000011F41092A9039091A9038091AA0398133C
:102B100003C081E08093A8039091A20380910102F9
:102B200098130EC01092A70307C05DDF9091A20317
:102B300080910102981304C080E0ECDE1092A203A1
:102B400080910402811123C08091A6038F5F80933E
:102B5000A6038091A603803411F41092A6039091ED
:102B6000A5038091A603981304C081E0809304021A
:102B70000EC081E0CFDEE091A603F0E0EE55FA4F03
:102B800080818EBD8091A2038F5F8093A203FF910D
:102B9000EF91BF91AF919F918F917F916F915F91D5
:102BA0004F913F912F910F900BBE0F900FBE0F9042
:102BB0001F901895382F2091A5039091A6032913F3
:102BC00004C080910402882361F1E091A503F0E044
:102BD000EE55FA4F30838CB58F778CBD8091A5036D
:102BE0008F5F8093A5038091A503803411F4109228
:102BF000A50380910402882381F081E08BDEE091BF
:102C0000A603F0E0EE55FA4F80818EBD8091A203BD
:102C10008F5F8093A203109204028CB580688CBDF4
:102C200081E008951F93CF93DF93EC01162F662365
:102C300039F08881BFDF8823E1F321961150C9F76D
:102C4000DF91CF911F91089521E02093A703EACF50
:102C50000895AA1BBB1B51E107C0AA1FBB1FA617E3
:102C6000B70710F0A61BB70B881F991F5A95A9F735
:102C700080959095BC01CD010895A1E21A2EAA1B62
:102C8000BB1BFD010DC0AA1FBB1FEE1FFF1FA2171C
:102C9000B307E407F50720F0A21BB30BE40BF50B19
:102CA000661F771F881F991F1A9469F760957095A2
:102CB000809590959B01AC01BD01CF010895EE0F69
:102CC000FF1F881F8BBF0790F691E02D1994A29FDC
:102CD000B001B39FC001A39F700D811D1124911DF0
:102CE000B29F700D811D1124911D0895F0DFB7FF73
:102CF0000895821B930B0895EADFA59F900DB49F62
:102D0000900DA49F800D911D11240895FB01DC01FD
:102D10000D900020E9F7119701900D920020E1F746
:102D20000895FB01DC0101900D920020E1F7089568
:102D3000BB274A3031F4992322F4BDE29095819566
:102D40009F4F30C0BB272A3051F4992342F4BDE293
:102D500090958095709561957F4F8F4F9F4F01C0E3
:102D6000BB27FA01A62F6217710581059105330B68
:102D700030FB66F0AA27660F771F881F991FAA1FCE
:102D8000A21710F0A21B63953850A9F7A05DAA33D3
:102D900008F0A95DA19336F7B111B1931082CA0171
:102DA00019C0BB27FB015527AA27880F991FAA1F07
:102DB000A41710F0A41B83955051B9F7A05DAA3356
:102DC00008F0A95DA193009779F7B111B193119221
:102DD000CB0100C0DC01FC01672F71917723E1F783
:102DE000329704C07C916D9370836291AE17BF07D8
:102DF000C8F30895F999FECF92BD81BDF89A99273D
:102E000080B50895A6E1B0E044E050E01DC0A8E11F
:102E1000B0E042E050E018C0262FF999FECF1FBA6B
:102E200092BD81BD20BD0FB6F894FA9AF99A0FBEF3
:102E300001960895242FF1DF252FEFDF00C0ECDF8E
:102E4000272FEBCFDC01CB01FC01F999FECF06C0A7
:102E5000F2BDE1BDF89A319600B40D924150504058
:082E6000B8F70895F894FFCFC4
:102E680001012500013030303030303030007265DB
:102E7800626F6F7400666163746F72792072657334
:102E880065740053454E3D310053454E3D30004674
:102E98004F524D415420455252005350533D31003A
:102EA8005350533D30005353533D31005353533D1A
:102EB80030005344533D31005344533D3000534D8B
:102EC800533D3100534D533D30004E554D42455210
:102ED80020455252005348503D00206D7300534D19
:102EE800503D00534E443D005354443D005350520E
:102EF8003D00434F4D4D414E4420455252005349E9
:102F08004E00534843204C45443D00206D4100533A
:102F18004D43204C45443D00534843204D4F5346B4
:102F280045543D00534D43204D4F534645543D00B5
:102F3800534D56204D4F534645543D0020560046AC
:102F4800756E6374696F6E206E6F74207265616C44
:102F5800697A656420796574210053574F20416D63
:102F6800703D00206D560053535420536C6F742DE0
:102F7800546573743A200053524200423D31004276
:102F88003D300053524C00535243005352440047C3
:102F9800454E3D004748433D00474D433D004748A7
:102FA800563D00474D563D004748503D00474D505F
:102FB8003D0046573D005274685445435F6D435F7A
:102FC800556E69742056302E302E350049443D0028
:102FD800527468544543205454412D4571756970A5
:102FE8006D656E742056315F3000504152414D532B
:082FF8003D002C006A6100009D
:00000001FF
