S01800004D435F5274685445435F56305F305F352E737265630B
S11300007BC000009AC0000098C0000096C00000A9
S113001094C0000092C0000090C000008EC0000098
S11300208CC000008AC0000088C0000086C00000A8
S113003084C000000C94F41480C000007EC0000052
S11300407CC000007AC0000078C0000076C00000C8
S113005074C0000072C0000070C000006EC00000D8
S11300600C9405210C948B1E68C000000C94DF1EB8
S113007064C0000062C0000060C000005EC00000F8
S11300805CC000005AC0000058C0000056C0000008
S113009054C0000052C0000050C000004EC0000018
S11300A04CC000004AC0000048C0000046C0000028
S11300B044C0000042C0000040C000000C94C016C0
S11300C00C94EE160C9470170C9448160C94B620ED
S11300D034C0000032C0000030C000002EC0000058
S11300E02CC00000A60E920E940E960E980E9A0E38
S11300F09C0E9E0EA00EA20E11241FBECFEFD1E2C5
S1130100DEBFCDBF00E00CBF13E0A0E0B2E0EAEA3E
S1130110F6E400E00BBF02C007900D92AC3EB107BD
S1130120D9F727E0ACEEB3E001C01D92A633B207C5
S1130130E1F70E9456140C94532362CFCF93DF93BC
S11301400197EC01CC0FDD1FCE01845D9F4F0E940F
S11301502F23FE01E358FB4F91838083CE01845EFD
S11301609F4F0E942F23C357DB4F99838883DF91CE
S1130170CF9108950F931F93CF93DF930197EC01D1
S1130180CC0FDD1FFE01E358FB4F82E090E091832A
S113019080838E0103571B4F88EB9BE0F80191830A
S11301A0808362E070E0CE01845D9F4F0E94502303
S11301B0F80160817181CE01845E9F4F0E945023BB
S11301C0DF91CF911F910F910895CF93CFEFC60F79
S11301D09C01AFEFBFEF0E94322220E137E240E002
S11301E050E00E94EC21DA01C90120E04C2F62E2C8
S11301F070E00E945C11CF9108950F931F93CF93E9
S1130200DF938C01E2E0F1E02081EC01219781E0B1
S113021090E00C2E02C0880F991F0A94E2F7982FE1
S1130220909529232083E8E0F1E0208192239083B4
S113023092B1982B92B9E5E0F1E09081982B9083EC
S11302409BB1982B9BB998B1982B98B9E1E0F1E058
S11302509081982B9083E7E0F1E09081982B908334
S113026091B1982B91B9E4E0F1E09081982B9083BF
S11302709AB1982B9AB997B1892B87B92FEF200F90
S113028042E250E061E080E00E943111CC0FDD1FBA
S1130290C357DB4FB8018881998197DFDF91CF91F4
S11302A01F910F910895EF92FF920F931F93CF9395
S11302B0DF931F921F92CDB7DEB7FC01228130E09D
S11302C0322F22278181282B038100531A8219821D
S11302D029348EE4380749F027358FE4380771F163
S11302E02735374409F0C9C079C085818A3029F09F
S11302F087E192E00E940219C4C0002E000C110B89
S1130300F801E55AFA4F81E4808348E050E06CE359
S113031070E08CE595E00E943423C8012BDFC8010E
S11303206CDF82E292E00E94001961E0C8010E9441
S1130330041989E792E00E940219A3C0AE014F5F3D
S11303405F4F64E0CF0106960E94CD17811105C06E
S113035087E192E00E94021994C089819A818131D7
S1130360974228F086E292E00E9402198AC081E353
S113037092E00E940019002E000C110B61E0C801EC
S11303800E94041985E392E00E94001943E061E0B1
S113039089819A810E94D21988E392E00E9402190D
S11303A0C801019769817A81FC01EE0FFF1FE357B1
S11303B0FB4F208131812617370709F462C0880F6B
S11303C0991F7F0171836083845E9F4F0E94502335
S11303D0B801F70180819181F8DE53C0AE014F5F0F
S11303E05F4F64E0CF0106960E94CD17811105C0CE
S11303F087E192E00E94021944C089819A810297A0
S113040029F086E292E00E9402193BC08BE392E05D
S11304100E940019002E000C110B61E0C8010E941B
S1130420041985E392E00E94001961E082E090E003
S11304300E9404198FE392E00E94021901501109ED
S1130440F801EE0FFF1FE358FB4F208131818981B2
S11304509A8128173907A9F0000F111FF801E358F2
S1130460FB4F82E090E09183808362E070E0C801FA
S1130470845D9F4F0E94502304C089E492E00E944F
S113048002190F900F90DF91CF911F910F91FF9060
S1130490EF900895CF93DF93FC01C381C053228171
S11304A030E0322F22278181282B273587E4380733
S11304B009F127353F44D9F585E592E00E940019FA
S11304C00C2E000CDD0B61E0CE010E94041985E3C3
S11304D092E00E940019CC0FDD1FC557DB4F43E0AB
S11304E061E0888199810E94D21988E392E00E9498
S11304F0021921C089E592E00E9400190C2E000C1B
S1130500DD0B61E0CE010E94041985E392E00E94B4
S11305100019CC0FDD1FC558DB4F61E0888199813C
S11305200E9404198FE392E00E94021904C089E436
S113053092E00E940219DF91CF910895CF93DF9347
S11305400197EC01CC0FDD1FCE01845D9F4F0E940B
S11305502F23FE01E255FB4F91838083CE01845EFD
S11305609F4F0E942F23C256DB4F99838883DF91CC
S1130570CF9108950F931F93CF93DF930197EC01CD
S1130580CC0FDD1FFE01E255FB4F89E190E0918322
S113059080838E0102561B4F88EB9BE0F801918308
S11305A0808369E170E0CE01845D9F4F0E945023F7
S11305B0F80160817181CE01845E9F4F0E945023B7
S11305C0DF91CF911F910F9108958233910571F0BE
S11305D084369105A1F04997D1F42FEF260F45E019
S11305E051E064E08AE00C94001208952FEF260F86
S11305F045E051E065E08AE00C94001208952FEF85
S1130600260F45E051E066E08AE00C94001208955C
S1130610CF93CFEFC60F9C01AFEFBFEF0E94322202
S113062020E137E240E050E00E94EC21DA01C90108
S113063020E04C2F62E270E00E945C11CF9108959B
S11306400F931F93CF93DF93E2E0F1E020818C01BD
S11306500150110941E050E0002E02C0440F551F23
S11306600A94E2F7942F909529232083E8E0F1E09F
S113067020819223908392B1942B92B9E5E0F1E02A
S11306809081942B90839BB1942B9BB998B1942B1C
S113069098B9E1E0F1E09081942B9083E7E0F1E0F8
S11306A09081942B908391B1942B91B9E4E0F1E083
S11306B09081942B90839AB1942B9AB997B1492B3A
S11306C047B9CFEFC80F2C2F42E250E061E081E040
S11306D00E9431112C2F45E051E068EF80E00E9428
S11306E000122C2F45E051E064E08AE00E940012E1
S11306F0E801CC0FDD1FFE01E255FB4FB8018081FC
S1130700918163DFC256DB4FB8018881998180DF14
S1130710DF91CF911F910F9108956FEF680F8BE2D6
S113072090E00E9481119C01A0E1B7E20C94322276
S11307300895CF93DF93DFEFD80F4D2F65E071E07D
S113074089E00E942212C82FC3702D2F45E051E08A
S11307506C2F8AE00E9400126C2F64602D2F45E0FC
S113076051E08AE00E940012DF91CF910895EF9248
S1130770FF920F931F93CF93DF931F921F92CDB7D6
S1130780DEB7FC01228130E0322F22278181282B21
S1130790038100531A821982273587E43807C1F18F
S11307A028F42235364409F4D9C0F2C029348EE441
S11307B0380729F027353F4409F481C0E9C0858111
S11307C08A3029F087E192E00E940219E5C0002EE8
S11307D0000C110BF801E55AFA4F86E4808348E0D7
S11307E050E06CE370E08CE595E00E943423C8018E
S11307F0C1DEC80125DF82E292E00E94001961E0B7
S1130800C8010E94041982E692E00E940219C4C041
S1130810AE014F5F5F4F64E0CF0106960E94CD1793
S1130820811105C087E192E00E940219B5C0898157
S11308309A818436910551F08233910539F04997B4
S113084029F086E292E00E940219A6C08BE392E0AE
S11308500E940019002E000C110B61E0C8010E94D7
S113086004198DE592E00E94001961E089819A8162
S11308700E9404198FE392E00E940219C8010197B3
S113088069817A81FC01EE0FFF1FE255FB4F208145
S113089031812617370709F47FC0880F991FFC019F
S11308A0E255FB4F7F0171836083845D9F4F0E94FB
S11308B05023B801F7018081918187DE6DC0AE01BC
S11308C04F5F5F4F64E0CF0106960E94CD17811100
S11308D005C087E192E00E9402195EC089819A8175
S11308E08131974228F086E292E00E94021954C0B6
S11308F081E392E00E940019002E000C110B61E0CC
S1130900C8010E9404198DE592E00E94001943E099
S113091061E089819A810E94D21988E392E00E9461
S11309200219C801019769817A81FC01EE0FFF1F4A
S1130930E256FB4F208131812617370769F1880F72
S1130940991F7F0171836083845E9F4F0E945023AF
S1130950B801F701808191815BDE1EC085818A30F8
S113096029F087E192E00E94021916C0002E000CC3
S1130970110BC801DEDE80E692E00E94001961E0FE
S1130980C8010E94041982E692E00E94021904C080
S113099089E492E00E9402190F900F90DF91CF91A9
S11309A01F910F91FF90EF900895CF93DF93FC0177
S11309B0D381C0EDCD0F228130E0322F22278181F7
S11309C0282B273587E4380779F028F42635364470
S11309D009F461C079C0233589E4380709F43FC0BC
S11309E027353F44F1F070C089E592E00E94001978
S11309F00C2E000CDD0B61E0CE010E9404198DE584
S1130A0092E00E940019CC0FDD1FC455DB4F61E05A
S1130A10888199810E9404198FE392E00E9402194F
S1130A2057C085E592E00E9400190C2E000CDD0BE6
S1130A3061E0CE010E9404198DE592E00E94001944
S1130A40CC0FDD1FC456DB4F43E061E08881998100
S1130A500E94D21988E392E00E94021939C084E608
S1130A6092E00E94001961E08C2FCC0F990B0E9438
S1130A7004198DE592E00E9400194FEC4D0F65E0DA
S1130A8071E089E00E9422120E949B1A84E093E0A4
S1130A900E9402191DC088E692E00E9400190C2EE3
S1130AA0000CDD0B61E0CE010E9404198DE592E09B
S1130AB00E940019CE0131DE61E00E9404198CE627
S1130AC092E00E94021904C089E492E00E94021993
S1130AD0DF91CF910895CF93DF930197EC01CC0F71
S1130AE0DD1FCE01845D9F4F0E942F23FE01E25340
S1130AF0FB4F91838083CE01845E9F4F0E942F23FE
S1130B00C254DB4F99838883DF91CF9108950F936B
S1130B101F93CF93DF930197EC01CC0FDD1FFE01F0
S1130B20E253FB4F84EF91E0918380838E01025462
S1130B301B4F88EC90E0F8019183808364EF71E0AF
S1130B40CE01845D9F4F0E945023F8016081718122
S1130B50CE01845E9F4F0E945023DF91CF911F915D
S1130B600F9108951F93CF93DF931F921F92CDB7D8
S1130B70DEB7162F9C01AFEFBFEF0E9432222CED9F
S1130B8035E040E050E00E94EC213A8329838981DA
S1130B909A814FEF410F20E062E270E00E945C1105
S1130BA00F900F90DF91CF911F910895CF93CFEFC6
S1130BB0C60F9C01AFEFBFEF0E9432222AEF30E054
S1130BC040E050E00E94EC21DA01C90122E04C2F00
S1130BD062E270E00E945C11CF9108950F931F931D
S1130BE0CF93DF938C01E2E0F1E02081EC012197C7
S1130BF081E090E00C2E02C0880F991F0A94E2F75E
S1130C00982F909529232083E8E0F1E02081922316
S1130C10908392B1982B92B9E5E0F1E09081982B02
S1130C2090839BB1982B9BB998B1982B98B9E1E02C
S1130C30F1E09081982B9083E7E0F1E09081982B8C
S1130C40908391B1982B91B9E4E0F1E09081982BD5
S1130C5090839AB1982B9AB997B1892B87B92FEFC2
S1130C60200F42E250E065E080E00E943111CC0F99
S1130C70DD1FFE01E253FB4FB8018081918172DFD9
S1130C80C254DB4FB8018881998190DFDF91CF9105
S1130C901F910F910895EF92FF920F931F93CF939B
S1130CA0DF931F921F92CDB7DEB7FC01228130E0A3
S1130CB0322F22278181282B038100531A82198223
S1130CC02D3483E4380709F481C029348EE43807CD
S1130CD029F02834334409F0C9C029C085818A30F9
S1130CE029F087E192E00E940219C4C0002E000C92
S1130CF0110BF801E55AFA4F8CE4808348E050E088
S1130D006CE370E08CE595E00E943423C801FFDEBB
S1130D10C80164DF82E292E00E94001961E0C80128
S1130D200E94041985E992E00E940219A3C0AE0151
S1130D304F5F5F4F64E0CF0106960E94CD1781118B
S1130D4005C087E192E00E94021994C089819A81CA
S1130D508D3D954028F086E292E00E9402198AC0F7
S1130D6080E792E00E940019002E000C110B61E054
S1130D70C8010E94041984E792E00E94001961E00E
S1130D8089819A810E94041987E792E00E940219DE
S1130D90C801019769817A81FC01EE0FFF1FE253BC
S1130DA0FB4F208131812617370709F463C0880F70
S1130DB0991F7F0171836083845D9F4F0E9450233C
S1130DC0B801F70180819181CDDE54C0AE014F5F3F
S1130DD05F4F63E0CF0106960E94CD17811105C0D5
S1130DE087E192E00E94021945C089819A81C297E5
S1130DF0893C910528F086E292E00E9402193AC0EB
S1130E008BE792E00E940019002E000C110B61E0A8
S1130E10C8010E94041984E792E00E94001941E08D
S1130E2061E089819A810E94D21987E792E00E9449
S1130E300219C801019769817A81FC01EE0FFF1F35
S1130E40E254FB4F208131812617370799F0880F30
S1130E50991F7F0171836083845E9F4F0E9450239A
S1130E60B801F70180819181A1DE04C089E492E098
S1130E700E9402190F900F90DF91CF911F910F9153
S1130E80FF90EF900895CF93DF93FC01C381C0538B
S1130E90228130E0322F22278181282B283483E4D9
S1130EA0380721F02D343344F1F03BC08FE792E052
S1130EB00E9400190C2E000CDD0B61E0CE010E9493
S1130EC0041984E792E00E940019CC0FDD1FC4537B
S1130ED0DB4F61E0888199810E94041987E792E0E1
S1130EE00E94021922C083E892E00E9400190C2E8D
S1130EF0000CDD0B61E0CE010E94041984E792E04E
S1130F000E940019CC0FDD1FC454DB4F41E061E0A7
S1130F10888199810E94D21987E792E00E94021980
S1130F2004C089E492E00E940219DF91CF910895F0
S1130F30CF93DF930197EC01CC0FDD1FCE01845DCD
S1130F409F4F0E942F23C252DB4F99838883DF91E6
S1130F50CF9108950197880F991FFC01E252FB4F2E
S1130F601182108260E070E0845D9F4F0C945023E6
S1130F700895CF93CFEFC80F2C2F48E250E060E0E4
S1130F808AE00E9400122FEF81EE94E0215080400D
S1130F909040E1F700C000002C2F48E250E064E2EA
S1130FA08AE00E940012CF910895CF93CFEFC80F2B
S1130FB02C2F48E250E060E08AE00E9400122FEFFC
S1130FC081EE94E0215080409040E1F700C00000A1
S1130FD02C2F48E250E06AE08AE00E940012CF9190
S1130FE00895CF93CFEFC80F2C2F48E250E060E074
S1130FF08AE00E9400122FEF81EE94E0215080409D
S11310009040E1F700C000002C2F48E250E061E17D
S11310108AE00E940012CF910895CF93CFEFC80FBA
S11310202C2F48E250E060E08AE00E9400122FEF8B
S113103081EE94E0215080409040E1F700C0000030
S11310402C2F48E250E064E18AE00E940012CF9124
S113105008952FEF280F48E250E060E08AE00E94F4
S113106000122FEF81EE94E0215080409040E1F790
S113107000C000000895CF93CFEFC60F2FEF3FEFCE
S1131080DC010E94412220E43CE940E050E00E945F
S11310900E22DA01C90120E04C2F62E270E00E94C6
S11310A05C11CF9108950F931F93CF93E2E0F1E089
S11310B020818C010150110941E050E0002E02C052
S11310C0440F551F0A94E2F7942F90952923208307
S11310D0E8E0F1E020819223908392B1942B92B9BD
S11310E0E5E0F1E09081942B90839BB1942B9BB924
S11310F098B1942B98B9E1E0F1E09081942B90831E
S1131100E7E0F1E09081942B908391B1942B91B915
S1131110E4E0F1E09081942B90839AB1942B9AB9F6
S113112097B1492B47B9CFEFC80F2C2F42E250E0BB
S113113061E083E00E9431112C2F48E250E060E02E
S113114080E00E9400122C2F48E250E060E08AE028
S11311500E940012F801EE0FFF1FE252FB4FB8018C
S11311608081918188DFCF911F910F9108956FEF56
S1131170680F85E091E00E9481119C01A0E4BCE924
S11311800C94322208956FEF680F8BE290E00E9476
S113119081119C01A0EDB7E00C9432220895EF92E6
S11311A0FF920F931F93CF93DF931F921F92CDB79C
S11311B0DEB7FC01228130E0322F22278181282BE7
S11311C0038100531A821982223584E4380709F412
S11311D0DDC048F4223582E43807E1F12235334496
S11311E009F4A0C058C122358CE4380709F466C05C
S11311F029348EE4380729F02635374409F04BC1E9
S1131200F9C095819A3029F087E192E00E94021991
S113121046C1002E000C110BF801E55AFA4F82E486
S1131220808348E050E06CE370E08CE595E00E9438
S11312303423C8018FDEC80136DF82E292E00E94C7
S1131240001961E0C8010E94041989E892E00E9433
S1131250021925C196819133A9F487818A3049F511
S1131260002E000C110BC80184DE87E892E00E9476
S1131270001961E0C8010E9404198BE892E00E9401
S113128002190DC19033A9F487818A3091F4002E9C
S1131290000C110BC801DDDE87E892E00E94001902
S11312A061E0C8010E9404198FE892E00E940219CB
S11312B0F6C087E192E00E940219F1C09681913351
S11312C0A9F487818A3049F5002E000C110BC8015E
S11312D06CDE83E992E00E94001961E0C8010E947B
S11312E004198BE892E00E940219D9C09033A9F442
S11312F087818A3091F4002E000C110BC801A9DEFD
S113130083E992E00E94001961E0C8010E94041977
S11313108FE892E00E940219C2C087E192E00E9425
S11313200219BDC096819133A9F487818A3049F5A9
S1131330002E000C110BC80154DE87E992E00E94D4
S1131340001961E0C8010E9404198BE892E00E9430
S11313500219A5C09033A9F487818A3091F4002E34
S1131360000C110BC80175DE87E992E00E94001998
S113137061E0C8010E9404198FE892E00E940219FA
S11313808EC087E192E00E94021989C09681913350
S1131390A9F487818A3049F5002E000C110BC8018D
S11313A03CDE8BE992E00E94001961E0C8010E94D2
S11313B004198BE892E00E94021971C09033A9F4D9
S11313C087818A3091F4002E000C110BC80141DE94
S11313D08BE992E00E94001961E0C8010E9404199F
S11313E08FE892E00E9402195AC087E192E00E94BD
S11313F0021955C0AE014F5F5F4F65E0CF010696FD
S11314000E94CD17811105C087E192E00E94021964
S113141046C029813A81205E314B21343C4928F071
S113142086E292E00E9402193AC08FE992E00E949B
S11314300019002E000C110B61E0C8010E94041970
S113144083EA92E00E94001943E061E089819A8175
S11314500E94D21988E392E00E940219C801019700
S113146069817A81FC01EE0FFF1FE252FB4F20815C
S113147031812617370799F0880F991F7F017183EF
S11314806083845D9F4F0E945023B801F7018081DF
S11314909181F1DD04C089E492E00E9402190F9069
S11314A00F90DF91CF911F910F91FF90EF900895CE
S11314B0CF93DF93FC01C381C053228130E0322FEC
S11314C022278181282B263584E4380731F12635FB
S11314D087E4380729F02334344409F050C036C077
S11314E086EA92E00E9400190C2E000CDD0B61E0EC
S11314F0CE010E94041983EA92E00E940019CC0FE5
S1131500DD1FC452DB4F61E0888199810E94041978
S113151088E392E00E94021936C08AEA92E00E94AF
S113152000190C2E000CDD0B61E0CE010E940419A1
S113153083EA92E00E940019CE0119DE61E00E9464
S113154004198CE692E00E9402191DC08EEA92E012
S11315500E9400190C2E000CDD0B61E0CE010E94EC
S1131560041983EA92E00E940019CE010CDE61E0C6
S11315700E94041987E792E00E94021904C089E4DA
S113158092E00E940219DF91CF910895CF93DF93E7
S11315900197EC01CC0FDD1FCE01845D9F4F0E94AB
S11315A02F23FE01E250FB4F91838083CE01845EA2
S11315B09F4F0E942F23FE01E251FB4F91838083B2
S11315C0CE01845F9F4F0E942F23C25FDA4F99831D
S11315D08883DF91CF910895EF92FF920F931F9329
S11315E0CF93DF930197EC01CC0FDD1FFE01E25096
S11315F0FB4F84EF91E091838083CE0182519B4F16
S11316007C0188EC90E0F701918380838E01025F76
S11316101A4F88EE93E0F8019183808364EF71E0C0
S1131620CE01845D9F4F0E945023F7016081718138
S1131630CE01845E9F4F0E945023F8016081718126
S1131640CE01845F9F4F0E945023DF91CF911F9161
S11316500F91FF90EF900895CF93CFEFC60F9C01A9
S1131660AFEFBFEF0E94322228E833E140E050E0C0
S11316700E94EC21DA01C90120E04C2F62E270E003
S11316801BD6CF910895CF93CFEFC60F9C01AFEF38
S1131690BFEF0E9432222AEF30E040E050E00E9487
S11316A0EC21DA01C90122E04C2F62E270E004D699
S11316B0CF9108958F929F92AF92BF92CF92DF9273
S11316C0EF92FF920F931F93CF93DF931F921F927A
S11316D0CDB7DEB7162FA0E0B0E0880F991FAA1F80
S11316E0BB1FAC01BD01440F551F661F771F440F7C
S11316F0551F661F771F6C017D01C40ED51EE61EA3
S1131700F71EC701B6012BEA3AEA4AEA5AEA0E94EE
S1131710512200E20E947A22822E932EA42EB52E0C
S1131720A50194015695479537952795AFEFBFEFDF
S11317300E944722665B794F8944964028E833E14A
S113174040E050E00E94EC213A83298389819A8108
S11317504FEF410F20E065E071E0AED50F900F90A0
S1131760DF91CF911F910F91FF90EF90DF90CF9079
S1131770BF90AF909F908F900895FF920F931F9307
S1131780CF93DF938C01E2E0F1E02081EC0121971B
S113179081E090E00C2E02C0880F991F0A94E2F7B2
S11317A0982F909529232083E8E0F1E0208192236B
S11317B0908392B1982B92B9E5E0F1E09081982B57
S11317C090839BB1982B9BB998B1982B98B9E1E081
S11317D0F1E09081982B9083E7E0F1E09081982BE1
S11317E0908391B1982B91B9E4E0F1E09081982B2A
S11317F090839AB1982B9AB997B1892B87B9FF2412
S1131800FA94F00E2F2D42E250E065E080E029D5F5
S11318102F2D45E051E065E080E023D5CC0FDD1F9E
S1131820FE01E250FB4FB8018081918115DFFE017A
S1131830E251FB4FB8018081918125DFC25FDA4F0D
S1131840B8018881998136DFDF91CF911F910F9183
S1131850FF900895880F991FFC01E65BFA4F2081E1
S11318603181ACE6BBE60E9432222FEF3FEF40E02D
S113187050E00E94EC21C9010895880F991FFC01D2
S1131880EC5CFA4F20813181ACE6BBE60E94322247
S11318902FEF3FEF40E050E00E94EC21C901089592
S11318A06FEF680F8BE290E078C508956FEF680FD3
S11318B08BE290E072C508956FEF680F8BE290E0C1
S11318C06CC50895EF92FF920F931F93CF93DF930C
S11318D01F921F92CDB7DEB7FC01228130E0322F78
S11318E022278181282B038100531A8219822D34E7
S11318F083E4380709F47EC020F42834334499F192
S11319000BC129348EE4380729F02D34364509F407
S1131910BAC002C185818A3029F087E192E00E9431
S11319200219FEC0002E000C110BF801E55AFA4F03
S11319308DE4808348E050E06CE370E08CE595E052
S11319400E943423C80148DEC80117DF82E292E016
S11319500E94001961E0C8010E9404198FED92E011
S11319600E940219DDC0AE014F5F5F4F64E0CF01FA
S113197006960E94CD17811105C087E192E00E946E
S11319800219CEC089819A818938934128F086E270
S113199092E00E940219C4C082EB92E00E940019F6
S11319A061E089819A810E94041987E792E00E948C
S11319B00219002E000C110BC801019769817A816C
S11319C0FC01EE0FFF1FE250FB4F208131812617EF
S11319D0370709F4A5C0880F991F7F0171836083BD
S11319E0845D9F4F0E945023B801F701808191814B
S11319F033DE96C0AE014F5F5F4F63E0CF010696C2
S1131A000E94CD17811105C087E192E00E9402195E
S1131A1087C089819A81C297893C910528F086E222
S1131A2092E00E9402197CC08EEB92E00E940019A1
S1131A3041E061E089819A810E94D21987E792E0AE
S1131A400E940219002E000C110BC8010197698134
S1131A507A81FC01EE0FFF1FE251FB4F208131819F
S1131A602617370709F45CC0880F991F7F0171831B
S1131A706083845E9F4F0E945023B801F7018081E8
S1131A80918101DE4DC0AE014F5F5F4F64E0CF0135
S1131A9006960E94CD17811105C087E192E00E944D
S1131AA002193EC089819A81845691098D369740E6
S1131AB028F086E292E00E94021932C08AEC92E099
S1131AC00E94001942E061E089819A810E94D21942
S1131AD088E392E00E940219002E000C110BC80149
S1131AE0019769817A81FC01EE0FFF1FE25FFA4FD3
S1131AF0208131812617370799F0880F991F7F01BC
S1131B0071836083845F9F4F0E945023B801F70163
S1131B1080819181CFDD04C089E492E00E940219A2
S1131B200F900F90DF91CF911F910F91FF90EF9045
S1131B300895CF93DF93FC01C381C053228130E029
S1131B40322F22278181282B28348DE4380709F489
S1131B506BC040F4283483E4380769F02D343344EF
S1131B6039F196C02D348DE4380709F477C02D344B
S1131B703645E1F18DC08FE792E00E9400190C2EEA
S1131B80000CDD0B61E0CE010E94041986ED92E0A9
S1131B900E940019CC0FDD1FC450DB4F61E0888127
S1131BA099810E94041987E792E00E94021974C087
S1131BB083E892E00E9400190C2E000CDD0B61E01A
S1131BC0CE010E94041986ED92E00E940019CC0F08
S1131BD0DD1FC451DB4F41E061E0888199810E949F
S1131BE0D21987E792E00E94021956C089ED92E06B
S1131BF00E9400190C2E000CDD0B61E0CE010E9446
S1131C00041986ED92E00E940019CC0FDD1FC45F19
S1131C10DA4F42E062E0888199810E94D21988E318
S1131C2092E00E94021938C08DED92E00E940019E2
S1131C300C2E000CDD0B61E0CE010E94041986ED30
S1131C4092E00E940019CE0105DE43E063E00E94A9
S1131C50D21988E392E00E9402191EC081EE92E03C
S1131C600E9400190C2E000CDD0B61E0CE010E94D5
S1131C70041986ED92E00E940019CE01FEDD43E0D6
S1131C8063E00E94D21988E392E00E94021904C022
S1131C9089E492E00E940219DF91CF910895CF93D5
S1131CA0DF930197EC01CC0FDD1FCE01845D9F4FC4
S1131CB00E942F23C25EDA4F99838883DF91CF91EC
S1131CC008959C0121503109220F331FF901E25E6E
S1131CD0FA4F91838083BC01C901845D9F4F0C94AA
S1131CE050230895CF93DF939C0188B1A9014150FB
S1131CF05109C1E0D0E002C0CC0FDD1F4A95E2F7E4
S1131D008C2B88B98FE99FE00197F1F700C00000A0
S1131D106A307105C8F4FB018827EE58FF4F8F4FD6
S1131D200C942A226FEC13C065E211C065E80FC061
S1131D3069EC0DC061E90BC061E109C067EC07C043
S1131D4061E005C061E803C06FEF01C063E0DFEF4D
S1131D50D20F2D2F48E250E08AE052D38FE99FE062
S1131D600197F1F700C000002D2F48E250E060E039
S1131D7080E046D38FE99FE00197F1F700C00000AF
S1131D8088B1C095C823C8B9DF91CF910895EF9267
S1131D90FF920F931F93CF93DF937C01E2E0F1E076
S1131DA020818C010150110981E090E0002E02C0D5
S1131DB0880F991F0A94E2F7C82FC095922F9C238D
S1131DC09083E8E0F1E090819C23908392B19C237E
S1131DD092B9E5E0F1E090819C2390839BB19C2330
S1131DE09BB998B19C2398B9E1E0F1E09081982BDC
S1131DF09083E7E0F1E09081982B908391B1982B48
S1131E0091B9E4E0F1E09081982B90839AB1982BFA
S1131E109AB997B1982B97B998B1892B88B98FE95A
S1131E209FE00197F1F700C00000DFEFDE0D2D2FDA
S1131E3048E250E060E080E0E3D22D2F48E250E039
S1131E406FEF8AE0DDD288B1C823C8B98FE99FE07B
S1131E500197F1F700C00000000F111FF801E25EC6
S1131E60FA4F60817181C7013DDFDF91CF911F91EE
S1131E700F91FF90EF900895CF93DF9328B1AC01B9
S1131E8041505109C1E0D0E002C0CC0FDD1F4A959A
S1131E90E2F79C2F922B98B9EFE9FFE03197F1F725
S1131EA000C000004FEF480F68E270E08AE0CAD239
S1131EB0813881F158F4833099F118F4813039F183
S1131EC02CC08131F1F0853281F027C0873CE1F0EC
S1131ED028F4853869F0813989F01FC0893C59F0AC
S1131EE08F3CD9F421E030E01DC022E030E01AC07C
S1131EF023E030E017C024E030E014C025E030E0F7
S1131F0011C026E030E00EC027E030E00BC028E02E
S1131F1030E008C029E030E005C02FEF3FEF02C0F9
S1131F2020E030E08FE99FE00197F1F700C0000066
S1131F3098B1C095C923C8B9C901DF91CF9108955B
S1131F40CF92DF92EF92FF920F931F93CF93DF9381
S1131F508C0192DF7C016894CC24C1F8DD24D394F5
S1131F60F6018081980121503109C1E0D0E002C01E
S1131F70CC0FDD1F2A95E2F78C2BF601808361E0FC
S1131F8070E0C801AFDEFFEF29E688E1F1502040A0
S1131F908040E1F700C00000A895F6018081DC2FA5
S1131FA0D0958D2380836894CC24C3F8DD24D39406
S1131FB0F60180818C2BF601808362E070E0C80119
S1131FC091DEFFEF29E688E1F15020408040E1F7FF
S1131FD000C00000A89582B18C2B82B9F6018081E3
S1131FE08D23808363E070E0C8017CDEFFEF29E687
S1131FF088E1F15020408040E1F700C00000A8953E
S11320000F2EF5E0CF2EDD24D394F02DF601808140
S11320108C2BF601808382B18D2382B964E070E059
S1132020C80160DEFFEF29E688E1F15020408040DE
S1132030E1F700C00000A8958BB18C2B8BB9F60199
S113204080818D23808365E070E0C8014BDEFFEF63
S113205029E688E1F15020408040E1F700C000000B
S1132060A89588B1C82BC8B98BB18D238BB966E00C
S113207070E0C80137DE9FEFE9E6F8E19150E040F7
S1132080F040E1F700C00000A89588B1D823D8B982
S1132090B701C80127DEDF91CF911F910F91FF9007
S11320A0EF90DF90CF9008950F931F93CF93DF931A
S11320B01F921F92CDB7DEB7FC01228130E0322F90
S11320C022278181282B038100531A821982293403
S11320D08EE4380751F0233584E5380709F470C0DD
S11320E024343E4409F086C029C085818A3029F011
S11320F087E192E00E94021981C0002E000C110BAE
S1132100F801E55AFA4F84E5808348E050E06CE337
S113211070E08CE595E00E943423C801D2DDC8014B
S113212036DE82E292E00E94001961E0C8010E945A
S1132130041985EE92E00E94021960C0AE014F5F5F
S11321405F4F64E0CF01069628D7811105C087E16F
S113215092E00E94021952C069817A816A30710545
S113216028F086E292E00E94021948C0002E000C7A
S1132170110BC8010197880F991FFC01E25EFA4F09
S113218071836083845D9F4F0E94502369817A81AB
S1132190C801A8DD87EE92E00E94001961E0C80141
S11321A00E9404198BEE92E00E94001961E089817B
S11321B09A810E94041984E093E00E9402191EC0CF
S11321C085818A3029F087E192E00E94021916C0C5
S11321D0002E000C110BC801B3DE80EF92E00E94C8
S11321E0001961E0C8010E94041984E093E00E9490
S11321F0021904C089E492E00E9402190F900F9022
S1132200DF91CF911F910F910895CF93DF93FC013C
S1132210228130E0322F22278181282B24343E442E
S1132220D1F4C38185E093E0EBD7C0530C2E000CAE
S1132230DD0B61E0CE01E8D78DEA93E0E1D7CC0F66
S1132240DD1FC45EDA4F61E088819981DDD784E0C7
S113225093E0D8D703C089E492E0D4D7DF91CF913B
S11322600895FF920F931F93CF93DF93D82FC62F18
S11322708A01F22E0E94A0208111FCCF23E041E0CC
S11322806F2DC8010E9432208CE00E94892180E0D9
S11322900E9489218D2F0E94892180E10E94892139
S11322A080E00E9489218C2F0E948921DF91CF91A7
S11322B01F910F91FF900895EF92FF920F931F9338
S11322C0CF93DF93C82FD92F7B01042F122F0E94A5
S11322D0A0208111FCCF23E041E0602FC7010E94C0
S11322E03220812F0E9489218D2F0E9489218C2FD9
S11322F00E948921DF91CF911F910F91FF90EF9060
S11323000895FF920F931F93CF93DF931F921F9211
S1132310CDB7DEB78C01F62E0E94A0208111FCCF30
S113232022E041E06F2DC8010E943220F801208193
S113233081E090E002C0880F991FFA94E2F7982F89
S1132340909592239083FAE0FA95F1F700C0F80192
S11323509081892B8083FAE1FA95F1F700C0198204
S11323601A8262E0CE0101960E94D3210E94942039
S11323708230E0F382E00E946920E4E6F5E08081A7
S113238090E0982F88272181822B0F900F90DF9166
S1132390CF911F910F91FF900895FF920F931F9378
S11323A0CF93DF931F921F92CDB7DEB78C01F62E29
S11323B00E94A0208111FCCF22E041E06F2DC801D2
S11323C00E94322019821A8262E0CE0101960E9494
S11323D0D3210E9494208230E0F382E00E9469209D
S11323E0E4E6F5E0808190E0982F88272181822B14
S11323F00F900F90DF91CF911F910F91FF9008954F
S1132400FF920F931F93CF93DF93D82FC62F8A0188
S1132410F22E0E94A0208111FCCF23E041E06F2D19
S1132420C8010E94322080E40E9489218D2F0E94DD
S113243089218C2F0E948921DF91CF911F910F91C7
S1132440FF900895EF92FF920F931F93CF93DF9322
S113245000D0CDB7DEB7182F7B01042F0E94A02037
S11324608111FCCF23E041E0602FC7010E9432209C
S113247081E489831A831B8263E0CE0101960E9462
S1132480D3210E9494208330E0F383E00E946920EA
S1132490809166050F900F900F90DF91CF911F915F
S11324A00F91FF90EF900895AF92BF92DF92EF9259
S11324B0FF920F931F93CF93DF93A398A298A098B2
S11324C0A1989B9A9A9A999A989A20E030E002E00F
S11324D011E0EE24E394F12C68E071E045E051E072
S11324E0C1E0D1E0A7E0B1E06894AA24A2F8BB243B
S11324F0B394F801D080C701022E02C0880F991F3F
S11325000A94E2F7982F9095D922D082FB01D080CB
S11325109D21908392B1982B92B9FA019081982BC6
S113252090839881982B98839C91982B9C9391B13C
S1132530982B91B9F5019081892B80832F5F3F4FB0
S113254027303105B1F6749A719A6C9A699A729827
S11325506A9A2E98269A2798DF91CF911F910F910E
S1132560FF90EF90DF90BF90AF90089586E0909138
S1132570A5059A3068F01092A5059091A8059F5F73
S11325809093A8059A3021F41092A8058150A8953B
S1132590863011F4A39A0AC0853019F4A398A29A3C
S11325A00BC0843019F4A39AA29A0BC0833021F48F
S11325B0A398A298A09A09C0823019F4A098A19A6D
S11325C0D6CF813011F4A198D2CF8111D0CF089504
S11325D0CF93DF93CDB7DEB728970FB6F894DEBF5D
S11325E00FBECDBF68E070E085E490E00E94502308
S11325F049E150E060E070E088E090E00E944B2305
S113260049E150E060E070E084E090E00E944B23F8
S11326106AE070E082E090E00E94502364E670E09B
S113262080E090E00E94502360E084E490E00E9407
S11326303D2388E0E5E0F2E0DE01119601900D9281
S11326408A95E1F748E050E0BE016F5F7F4F8CE36D
S113265090E00E94342328960FB6F894DEBF0FBE94
S1132660CDBFDF91CF9108950F931F93CF93DF9345
S113267088E090E00E942A2360933005709331052E
S1132680809332059093330584E090E00E942A23DE
S113269060934605709347058093480590934905D8
S11326A082E090E00E942F2390932F0580932E05C3
S11326B080E090E00E942F239093350580933405A9
S11326C084E490E00E94222380934B0548E050E08C
S11326D06CE370E08CE595E00E9412230CE515E0B4
S11326E0C1E0D0E0F80181918F018634C9F028F46B
S11326F0813451F08234C1F01DC08D3469F08435C9
S1132700B9F08C34B9F404C0CE010E949E0012C00A
S1132710CE010E946B050EC0CE010E94C60A0AC0FB
S1132720CE010E949E0206C0CE010E94980702C0FC
S1132730CE01B5DA2196C930D105A1F6DF91CF914A
S11327401F910F910895EF92FF920F931F93CF93D0
S1132750DF937C01062F172FC1E0D0E0F7018191B0
S11327607F01F80191918F01891709F442C08634E1
S1132770C1F128F4813451F0823419F13AC08D3416
S1132780B9F0843539F18C34A1F509C0913219F0CE
S1132790CE010E94BA00CE010E94FD002AC09132EF
S11327A019F0CE010E948705CE010E94EE0521C0DA
S11327B0913219F0CE010E94EC0ACE010E94BD0BA9
S11327C018C0913219F0CE010E94AA07CE010E94CE
S11327D053080FC0913211F0CE0173DACE01D7DA6B
S11327E008C0913219F0CE010E94BA02CE010E94B3
S11327F020032196C930D10509F0B0CFDF91CF91E4
S11328001F910F91FF90EF900895CF93DF93CDB771
S1132810DEB728970FB6F894DEBF0FBECDBF90E0A9
S113282080E80FB6F89480936100909361000FBE26
S11328309EE088E10FB6F894A895809360000FBEDF
S113284090936000A895C3D0E0D00FD167D02CDE60
S113285085E490E00E942F23089731F0A39AA29A6E
S1132860A09AA19AB5DEA8957894D6D6FDDE1092EA
S11328704A058DE790E00E941E2088E0EEE0F2E039
S1132880DE01119601900D928A95E1F7BE016F5F0A
S11328907F4F8CE595E057DF69DE28960FB6F894F4
S11328A0DEBF0FBECDBFDF91CF910895AEDF0E9492
S11328B05E1FA8950E947E1E8091A5058A3040F077
S11328C01092A5058091A8058F5F8093A805F1CF8C
S11328D08091A8058A30D8F01092A8058091A605A9
S11328E08F5F8093A60580919D04882329F08150F1
S11328F080939D04A09A01C0A09880914A058823E2
S113290019F0A39AA29AD5CFA39AA298D2CF809174
S1132910A6058A3070F21092A605CBCF9AD01092F9
S1132920080110920201A198089593D081E0809348
S1132930A7051092A4051092A905B5D0A19A80917B
S1132940300590913105A0913205B0913305892B62
S11329508A2B8B2B21F080914B058093020180916F
S11329604B05809308016FC00895A19A80914B058F
S11329708093080108956DD081E08093A40510929E
S1132980A7051092A90551D1A19A109202011092A3
S1132990080159C008955DD081E08093A405109288
S11329A0A7051092A90541D1A19A4DC00895B6DF9B
S11329B080914B05809308012FEF89EF90E021501F
S11329C080409040E1F700C00000A8CF089583E064
S11329D08093B0008CE08093B10089EF8093B300C2
S11329E082E08093700008951F920F920FB60F92A9
S11329F011248F938091A5058F5F8093A5058F91F6
S1132A000F900FBE0F901F90189588E1809381005E
S1132A1082E8809380008FE396E090938700809310
S1132A20860080E190E090938900809388008FEF86
S1132A309FEF90938B0080938A0090938D008093F6
S1132A408C00259A0895E1E8F0E08081816080831C
S1132A500895E1E8F0E080818E7F80838FEF9FEF1F
S1132A60909385008093840008958FE180932101E1
S1132A7080E69AEE909327018093260182E080936A
S1132A8020018FE08093730081E090E0909329010E
S1132A908093280190932B0180932A0190932D0118
S1132AA080932C0108958FE59AEE909325018093ED
S1132AB0240180E69AEE9093270180932601809169
S1132AC0300590913105A0913205B09133058037DE
S1132AD027E19207A105B10550F59C01220F331F90
S1132AE0880F991F880F991F880F991F820F931FB2
S1132AF0909329018093280120913005309131056C
S1132B00C901880F991F220F331F220F331F220F71
S1132B10331F820F931F9093AF058093AE051092DD
S1132B20AD05C29790932D0180932C0125C08FEFA2
S1132B309FEF909329018093280160913005709153
S1132B403105809132059091330520E737E140E06B
S1132B5050E00E94EC21AB01440F551F660F771F14
S1132B60660F771F660F771F640F751F7093AF058D
S1132B706093AE052093AD0580914605909147057D
S1132B80A0914805B0914905803727E19207A10536
S1132B90B10528F59C01220F331F880F991F880F58
S1132BA0991F880F991F820F931F90932B01809375
S1132BB02A0180914605909147059C01220F331FFD
S1132BC0880F991F880F991F880F991F820F931FD1
S1132BD09093B2058093B1051092B00508958FEFDC
S1132BE09FEF90932B0180932A0160914605709189
S1132BF04705809148059091490520E737E140E079
S1132C0050E00E94EC21AB01440F551F660F771F63
S1132C10660F771F660F771F640F751F7093B205D9
S1132C206093B1052093B005089580912E0590918D
S1132C302F05880F991F01979093270180932601F0
S1132C4080912E0590912F0581509048880F991FEF
S1132C50909325018093240180912E0590912F0556
S1132C60019790932901809328018FEF9FEF909310
S1132C702B0180932A0190932D0180932C01809144
S1132C803405909135059093AC058093AB05089578
S1132C901F920F920FB60F9211240BB60F922F931F
S1132CA03F934F935F936F937F938F939F93AF93D0
S1132CB0BF93EF93FF938091A4058823C1F0809183
S1132CC04B058093020180914B058093080180910C
S1132CD0AB059091AC059C01215031093093AC05B2
S1132CE02093AB05892BC9F5B4DE1FDE36C0809175
S1132CF0A7058823F9F08091AD0581508093AD0537
S1132D00811108C08091AE059091AF05909329017F
S1132D10809328018091B00581508093B005811182
S1132D201CC08091B1059091B20590932B018093C2
S1132D302A0113C08091A905882379F08091AD05FB
S1132D4081508093AD05811108C08091AE059091AA
S1132D50AF059093290180932801FF91EF91BF91D2
S1132D60AF919F918F917F916F915F914F913F911F
S1132D702F910F900BBE0F900FBE0F901F901895C0
S1132D801F920F920FB60F9211240BB60F922F932E
S1132D903F934F935F936F937F938F939F93AF93DF
S1132DA0BF93EF93FF938091A905882311F0F3DD7E
S1132DB002C010920201FF91EF91BF91AF919F91D8
S1132DC08F917F916F915F914F913F912F910F90D0
S1132DD00BBE0F900FBE0F901F9018951F920F926D
S1132DE00FB60F9211240BB60F92AF92BF92CF92EF
S1132DF0DF92EF92FF920F931F932F933F934F9382
S1132E005F936F937F938F939F93AF93BF93CF936E
S1132E10DF93EF93FF938FB780688FBF1ADE0F2E77
S1132E20FCE4CF2EF5E0DF2EF02D0F2EF6E3EF2E8F
S1132E30F5E0FF2EF02D0CE515E0C0E0D0E0809128
S1132E404B0590E00C2E02C0959587950A94E2F705
S1132E5080FF14C0F80180818D3481F45E01FFEF9E
S1132E60AF1ABF0AC5010E94560CF60191838083F4
S1132E70C5010E945C0CF701918380832196F2E0E6
S1132E80CF0ED11C22E0E20EF11C0F5F1F4FC830A1
S1132E90D105A9F6109208018FEF9FEF90932B01B3
S1132EA080932A01A198FF91EF91DF91CF91BF9177
S1132EB0AF919F918F917F916F915F914F913F91CE
S1132EC02F911F910F91FF90EF90DF90CF90BF90C3
S1132ED0AF900F900BBE0F900FBE0F901F901895E0
S1132EE01F920F920FB60F9211240BB60F922F93CD
S1132EF03F934F935F936F937F938F939F93AF937E
S1132F00BF93EF93FF93CF93DF931F921F92CDB79D
S1132F10DEB78FB780688FBF1A82198289819A8140
S1132F20089724F529813A8180914B0590E002C0ED
S1132F30959587952A95E2F780FF0FC0E981FA817C
S1132F40E45AFA4F80818D3431F489819A81019653
S1132F500E94500C02C089819A8189819A810196CC
S1132F609A83898389819A810897E4F20F900F905C
S1132F70DF91CF91FF91EF91BF91AF919F918F918D
S1132F807F916F915F914F913F912F910F900BBE65
S1132F900F900FBE0F901F901895FF920F931F93E1
S1132FA0CF93DF9300D000D0CDB7DEB78A01DA012A
S1132FB01D921C92FC0120812D3221F40196FF24E4
S1132FC0F39401C0F12CFC013196DC019C9180ED5D
S1132FD0890F89838A3008F046C080E08F5F282FEC
S1132FE030E0519190ED950FA1E0B0E0AC0FBD1F22
S1132FF0A20FB31F9C939A3088F35A3081F5681757
S113300080F1882309F1982F60E070E0F901E91B51
S1133010F10941E050E04C0F5D1FE40FF51F4081C2
S1133020FB01EE0FFF1F660F771F660F771F660FFA
S1133030771F6E0F7F1F640F711D915039F7D801F0
S11330406D937C9301C080E0FF2081F0F801208122
S113305031813195219531093183208307C080E086
S113306005C080E003C09A3071F380E026960FB665
S1133070F894DEBF0FBECDBFDF91CF911F910F91AA
S1133080FF9008958F929F92AF92BF92CF92DF925A
S1133090EF92FF920F931F93CF93DF93CDB7DEB7D9
S11330A02B970FB6F894DEBF0FBECDBF8A01DA01AD
S11330B01D921D921D921C921397FC0120812D32AA
S11330C019F4019641E001C040E0FC013196DC01B5
S11330D09C9180ED890F89838A3008F05DC080E07F
S11330E08F5F282F30E0519190ED950FA1E0B0E073
S11330F0AC0FBD1FA20FB31F9C939A3088F35A30B4
S113310009F046C0681708F445C0882371F1982F68
S1133110C12CD12C7601F901E91BF10961E070E0C1
S11331206C0F7D1FE60FF71F5081CC0CDD1CEE1CCD
S1133130FF1C46015701880C991CAA1CBB1C880C57
S1133140991CAA1CBB1CC80CD91CEA1CFB1CC50E70
S1133150D11CE11CF11C9150F1F6D801CD92DD9205
S1133160ED92FC92139701C080E04423C1F0F80172
S1133170408151816281738170956095509541952C
S11331805F4F6F4F7F4F408351836283738307C0C8
S113319080E005C080E003C09A3031F380E02B96D4
S11331A00FB6F894DEBF0FBECDBFDF91CF911F9154
S11331B00F91FF90EF90DF90CF90BF90AF909F90D2
S11331C08F900895FC0120E030E080E0A1E0B0E0C1
S11331D09191903351F0913389F4AD01022E02C0E4
S11331E0440F551F0A94E2F7840F2F5F3F4F283096
S11331F0310571F7FB01808381E0089580E0089533
S1133200F7C6089506C70895CF92DF92EF92FF9212
S11332100F931F93CF93DF93CDB7DEB72C970FB6E1
S1133220F894DEBF0FBECDBFE62E992344F42DE201
S113323030E038872F8391958195910901C01F82D1
S11332404AE0BE016F5F7F4F0E94B022BE016F5FF4
S11332507F4FCE0107960E949E22BE01695F7F4F79
S1133260CE0101960E94A922E1100FC020C0D88689
S1133270CF82B801CE0107960E949E22BE01695FEB
S11332807F4FC8010E94A92208C08E010F5F1F4F03
S1133290F12C6894CC24C5F8D12CF80101900020BD
S11332A0E9F73197E01BF10BEE15FF0500F3CE01B2
S11332B001969ED62C960FB6F894DEBF0FBECDBFF6
S11332C0DF91CF911F910F91FF90EF90DF90CF90FE
S11332D00895CF92DF92EF92FF920F931F93CF93B3
S11332E0DF93CDB7DEB766970FB6F894DEBF0FBE97
S11332F0CDBFE42E992364F42DE230E03D872C8782
S113330090958095709561957F4F8F4F9F4F01C029
S11333101C862AE0AE014F5F5F4F0E94BA22BE01B5
S11333206F5F7F4FCE010C960E949E22BE01645FA8
S11333307F4FCE0101960E94A922E1100FC020C048
S1133340DD86CC86B801CE010C960E949E22BE0179
S1133350645F7F4FC8010E94A92208C08E010F5FDD
S11333601F4FF12C6894CC24C5F8D12CF80101909E
S11333700020E9F73197E01BF10BEE15FF0500F390
S1133380CE01019635D666960FB6F894DEBF0FBE11
S1133390CDBFDF91CF911F910F91FF90EF90DF9000
S11333A0CF9008955F926F927F928F929F92AF9287
S11333B0BF92CF92DF92EF92FF920F931F93CF931E
S11333C0DF93CDB7DEB764970FB6F894DEBF0FBEB8
S11333D0CDBF4C01762EC42E442389F0842F01E006
S11333E010E09801220F331F000F111F000F111F4F
S11333F0000F111F020F131F815099F702C001E043
S113340010E0C401992024F4882799278819990980
S1133410582E692EB801CCD74AE0BE016F5F7F4FAA
S11334200E94B022CE0101967C01D12C0F2EF0E334
S1133430AF2EB12CF02D0DC0BC86AB86B701CE01EA
S11334400B960E949E22BE01655F7F4FC7010E94BA
S1133450A922F70101900020E9F73197EE19FF093D
S1133460EC15FD0548F37E019BE0E90EF11C852D6A
S1133470962DB8019DD7CB014AE0B7010E94B02236
S1133480F70101900020E9F731978EE290E09183F3
S11334908083BE016F5F7F4FC7010E949E229920E7
S11334A02CF48DE290E09A83898301C01982BE01D5
S11334B0655F7F4FCE0101960E949E2271100FC05E
S11334C021C0DC86CB86B801CE010B960E949E22D9
S11334D0BE01655F7F4FC8010E94A92209C08E0109
S11334E00F5F1F4FE72CF12C6894CC24C5F8D12C26
S11334F0F80101900020E9F73197E01BF10BEE157C
S1133500FF05F8F2CE01019673D564960FB6F894D0
S1133510DEBF0FBECDBFDF91CF911F910F91FF9002
S1133520EF90DF90CF90BF90AF909F908F907F905F
S11335306F905F900895CF93DF93CDB7DEB729974F
S11335400FB6F894DEBF0FBECDBF99E0E9E0F3E01B
S1133550DE01119601900D929A95E1F7FE013196E4
S113356027E030E090E070E361E3AC01022E02C09A
S1133570559547950A94E2F740FF02C0608301C065
S113358070832150310931962F3F4FEF340769F78B
S1133590CE0101962DD529960FB6F894DEBF0FBE45
S11335A0CDBFDF91CF910895CF93DF93CDB7DEB731
S11335B029970FB6F894DEBF0FBECDBF99E0E9E0BE
S11335C0F3E0DE01119601900D929A95E1F7FE0168
S11335D0319620E030E090E070E361E3AC01022E2C
S11335E002C0559547950A94E2F740FF02C06083F4
S11335F001C070832F5F3F4F31962830310571F73A
S1133600CE010196F5D429960FB6F894DEBF0FBE0D
S1133610CDBFDF91CF9108954DD41092B505089593
S11336200F931F93CF93DF93CDB7DEB72F970FB6CA
S1133630F894DEBF0FBECDBF8C01FC0132818181C5
S113364019821B821A821C821D821E821F82208183
S1133650223509F03AC0833509F045C3343509F001
S113366042C383818A3081F410924A0582E193E057
S1133670C9DD98E088E10FB6F894A89580936000BE
S11336800FBE90936000FFCF803209F02CC3F80185
S11336908481813309F027C385818A3009F023C3EB
S11336A010924A056FEF7FEF85E490E0F9D789E146
S11336B093E0A8DD98E088E10FB6F894A89580938C
S11336C060000FBE90936000FFCF90E0932B2335F2
S11336D009F033C2F8012381203209F0FBC180359F
S11336E0F2E59F0709F497C1C8F48534EEE49E0718
S11336F071F150F48E3424E4920709F435C1843511
S1133700944409F45CC1E2C18834F0E59F0709F4EC
S1133710ABC08D34904509F4E7C0D8C18035E3E5EA
S11337209E07B1F150F4843423E5920709F466C08E
S11337308D34934509F47DC0C9C18335F3E59F07F2
S113374009F441C08334944509F48DC1BFC1F80123
S11337508481813359F485818A30B1F481E0809386
S11337604A05729A87E293E04DDDBDC2803361F46D
S1133770F80185818A3041F410924A05CFD87298B5
S11337808DE293E03FDDAFC287E192E03BDDABC267
S1133790F8018481813341F485818A3081F4C5D86C
S11337A083E393E02FDD9FC2803349F4F8018581E0
S11337B08A3029F4B3D889E393E024DD94C287E105
S11337C092E020DD90C2F8018481813341F4858147
S11337D08A3081F4CAD88FE393E014DD84C2803345
S11337E049F4F80185818A3029F498D885E493E076
S11337F009DD79C287E192E005DD75C2F8018481B3
S1133800813341F485818A3081F48BE493E0FADCDE
S1133810B2D869C2803349F4F80185818A3029F429
S11338207DD881E593E0EEDC5EC287E192E0EADCDC
S11338305AC2F8018481813341F485818A3081F44C
S113384087E593E0DFDCB3D84EC2803349F4F80156
S113385085818A3029F462D88DE593E0D3DC43C2B4
S113386087E192E0CFDC3FC2AE014C5F5F4F66E080
S1133870C801049607DC811104C087E192E0C2DC30
S113388032C28C819D81AE81BF81AC01BD014951A1
S1133890510961097109483A544D6140710540F07C
S11338A0892B8A2B8B2B21F086E292E0ABDC1BC2A6
S11338B083E693E0A5DC6C817D818E819F8141E06C
S11338C008DD88E693E09EDC4C815D816E817F811A
S11338D0409330055093310560933205709333055E
S11338E088E090E0D8D6FFC1AE014C5F5F4F66E040
S11338F0C8010496C7DB811104C087E192E082DC31
S1133900F2C18C819D81AE81BF81AC01BD01495161
S1133910510961097109483A544D6140710540F0FB
S1133920892B8A2B8B2B21F086E292E06BDCDBC1A6
S11339308CE693E065DC6C817D818E819F8141E022
S1133940C8DC88E693E05EDC4C815D816E817F811A
S11339504093460550934705609348057093490585
S113396084E090E098D6BFC1AE014E5F5F4F66E041
S1133970C801049612DB811104C087E192E042DCA5
S1133980B2C18A819B810197883E934020F086E2F0
S113399092E038DCA8C181E793E032DC61E08A81FF
S11339A09B8132DC86E793E02DDC6A817B81709316
S11339B035056093340580E090E072D694C1AE0181
S11339C04E5F5F4F66E0C8010496E7DA811104C0D8
S11339D087E192E017DC87C18A819B810197883E49
S11339E0934020F086E292E00DDC7DC18EE793E007
S11339F007DC41E061E08A819B81D4DC88E693E0C6
S1133A0001DC6A817B8170932F0560932E0582E02F
S1133A1090E046D668C1F80101900020E9F7CF0193
S1133A200E978017910721F087E192E0EBDB5BC1F1
S1133A30BE016F5F7F4FC8010496C4DB811104C0CF
S1133A4087E192E0DFDB4FC183E893E0D9DB898132
S1133A50ABDD84E093E0D6DB698160934B0584E4BD
S1133A6090E00BD640C1F80101900020E9F7CF01A6
S1133A700E978017910721F087E192E0C3DB33C1F1
S1133A806CE575E0CE01089664D588E0F8013496BB
S1133A90ACE5B5E001900D928A95E1F748E050E07D
S1133AA06CE370E08CE595E0DFD5BE01685F7F4F85
S1133AB08CE595E00E94A31388E893E0A1DB8CE5F4
S1133AC095E09EDB84E093E09DDB0DC189E492E008
S1133AD099DB09C12053283060F5F80184818634CC
S1133AE0A1F028F48134A9F08234B9F01EC08D34D9
S1133AF041F08435B1F08C34C1F4C8010E944B0606
S1133B00F2C0C8010E94620CEEC0C8010E94B70353
S1133B10EAC0C8010E945301E6C0C8010E94CF0850
S1133B20E2C0C8010E945410DEC089E492E06ADB5E
S1133B30DAC089E492E066DBD6C0273409F0D0C04D
S1133B40F80123812A3009F098C08834F0E59F07F2
S1133B50A9F1A0F48E34E4E49E0709F44DC028F4DE
S1133B608934944409F47EC084C08435E4E49E0717
S1133B7009F44FC085349E44A9F07BC0803522E50A
S1133B80920709F454C020F48D34904541F171C07A
S1133B90833424E5920709F454C08634974509F424
S1133BA05AC067C08DE893E02BDB80914A0561E041
S1133BB090E02ADB84E093E025DB95C082E993E082
S1133BC01FDB609130057091310580913205909131
S1133BD0330541E07EDB88E693E014DB84C087E9AB
S1133BE093E00EDB61E080914605909147050CDB84
S1133BF088E693E007DB77C08CE993E001DB61E0C2
S1133C008091340590913505FFDA86E793E0FADA7E
S1133C106AC081EA93E0F4DA41E061E080912E0524
S1133C2090912F05BFDB88E693E0ECDA5CC086EA6E
S1133C3093E0E6DA80914B05B7DC84E093E0E2DAC6
S1133C4052C08BEA93E0DCDA8CE595E0D9DA84E0C3
S1133C5093E0D8DA48C080EB93E0D2DA84EB93E0C7
S1133C60D1DA41C08DEC93E0CBDA81ED93E0CADA8E
S1133C703AC089E492E0C6DA36C02053283060F5B1
S1133C80F80184818634A1F028F48134A9F08234C7
S1133C90B9F01EC08D3441F08435B1F08C34C1F4D8
S1133CA0C8010E9443071FC0C8010E94990D1BC090
S1133CB0C8010E94D50417C0C8010E944A0213C05B
S1133CC0C8010E94580A0FC0C8010E9405110BC008
S1133CD089E492E097DA07C089E492E093DA03C0BA
S1133CE089E492E08FDA2F960FB6F894DEBF0FBE08
S1133CF0CDBFDF91CF911F910F910895F5D080939F
S1133D00B505882339F08CEF93E09093B405809344
S1133D10B30586CC08951F920F920FB60F9211240B
S1133D200BB60F928F939F93EF93FF938091EE03C3
S1133D30882329F08091C60080939D0435C080912A
S1133D40F00381112DC0E091F103F0E08091C600F1
S1133D50EA5CF94F8083E091F103F0E0EA5CF94F0B
S1133D6080818A3029F48091EF038F5F8093EF0381
S1133D708091F1038F5F8093F1038091F103803888
S1133D8011F41092F1039091F1038091F2039813CE
S1133D9003C081E08093F00385E080939D0404C018
S1133DA08091C60080939D04FF91EF919F918F9124
S1133DB00F900BBE0F900FBE0F901F9018951F927F
S1133DC00F920FB60F9211240BB60F928F939F93FD
S1133DD0EF93FF938091000281111DC08091ED0348
S1133DE08F5F8093ED038091ED03803811F410927E
S1133DF0ED039091ED038091EC03981304C081E0EE
S1133E008093000208C0E091ED03F0E0EA54FA4F19
S1133E1080818093C60085E080939D04FF91EF919B
S1133E209F918F910F900BBE0F900FBE0F901F901C
S1133E3018958F929F92AF92BF92CF92DF92EF929A
S1133E40FF92699AE1ECF0E02081286120832081CF
S1133E5020682083208120642083E2ECF0E020812C
S1133E60266020836C01E12CF12CA0E2B3E0A701D1
S1133E7096010DD34B015C0124E2920E24EFA21EA5
S1133E80B11CA0E4B6E0A701960101D39B01AC01EB
S1133E90C501B401A1D2215031093093C50020934A
S1133EA0C400FF90EF90DF90CF90BF90AF909F90B1
S1133EB08F90089580E492E0BCCF0895E1ECF0E0A7
S1133EC080818F778083A6ECB0E02C911092F2036E
S1133ED01092F1038C911092F0031092EF039081F1
S1133EE090689083820F0895CF93C091EF03CC2301
S1133EF009F440C080E0A1ECB0E0282F30E0E0916C
S1133F00F203F0E0EA5CF94F9081F901E450FC4FD0
S1133F1090839C919F779C939091F2039F5F9093E1
S1133F20F2039091F203903811F41092F20310927C
S1133F30F0039C9190689C93F901E450FC4F9081AC
S1133F409A3091F4E1ECF0E090819F779083909126
S1133F50EF0391509093EF03908190689083F9015F
S1133F60E450FC4F11820CC091118F5F88232CF612
S1133F7080E006C08091F003882311F09FDF8C2F2E
S1133F80CF910895382F2091EC039091ED032913DC
S1133F9004C080910002882351F1E091EC03F0E029
S1133FA0EA54FA4F3083E1ECF0E080818F7B808328
S1133FB08091EC038F5F8093EC038091EC03803855
S1133FC011F41092EC0380910002882351F0E091E7
S1133FD0ED03F0E0EA54FA4F80818093C60010921A
S1133FE00002E1ECF0E080818064808381E0089548
S1133FF0CF93DF93EC018881882341F08881C2DF6D
S11340008823E1F3219688818111F8CFDF91CF9144
S11340100895CF93DF93EC018881882341F0888150
S1134020B1DF8823E1F3219688818111F8CF8AE0FA
S1134030A9DF8823E1F3DF91CF9108951092D50091
S11340401092D400289A2398229A219A84E58CBD50
S11340508CB580688CBD8CB580688CBD8CB5836054
S11340608CBD089590930302809302026093F5033C
S11340704093F4032093010208959091F40399234B
S113408019F08823A9F002C0811112C0E091020244
S1134090F0910302208181E090E00090F50302C0DA
S11340A0880F991F0A94E2F78095822380830895EC
S11340B0E0910202F0910302208181E090E00090FF
S11340C0F50302C0880F991F0A94E2F7822B8083BC
S11340D00895813408F080E4A4E6B5E020E015C03A
S11340E0E091FB03F0E0EA50F94F90819D932F5F3C
S11340F09091FB039F5F9093FB039091FB0390349B
S113410011F41092FB031092F9033091FB03909188
S1134110FA03391304C09091F903992319F0281371
S1134120DFCF0895822F08958091F903811106C08D
S11341308091FA039091FB03891B089580E408950C
S11341408091F6039091F703891B08958CB58F77BE
S11341508CBD2EB51092FB031092FA038EB510920B
S1134160F9039CB590689CBD820F08951F920F922D
S11341700FB60F9211240BB60F922F933F934F93C8
S11341805F936F937F938F939F93AF93BF93EF93BB
S1134190FF938091F903811124C0E091FA03F0E0C8
S11341A08EB5EA50F94F80838091FA038F5F809334
S11341B0FA038091FA03803411F41092FA03909177
S11341C0FA038091FB03981303C081E08093F90301
S11341D09091F30380910102981304C01092F803A4
S11341E001C0B4DFFF91EF91BF91AF919F918F9187
S11341F07F916F915F914F913F912F910F900BBEE3
S11342000F900FBE0F901F9018951F920F920FB62C
S11342100F9211240BB60F922F933F934F935F93FA
S11342206F937F938F939F93AF93BF93EF93FF937A
S11342308091F803882349F18091F903811124C006
S1134240E091FA03F0E08EB5EA50F94F8083809153
S1134250FA038F5F8093FA038091FA03803411F498
S11342601092FA039091FA038091FB03981303C010
S113427081E08093F9039091F303809101029813F4
S11342800EC01092F80307C061DF9091F303809190
S11342900102981304C080E0F0DE1092F3038091D1
S11342A00402811123C08091F7038F5F8093F70389
S11342B08091F703803411F41092F7039091F60380
S11342C08091F703981304C081E0809304020EC028
S11342D081E0D3DEE091F703F0E0EA54F94F808106
S11342E08EBD8091F3038F5F8093F303FF91EF9171
S11342F0BF91AF919F918F917F916F915F914F91FA
S11343003F912F910F900BBE0F900FBE0F901F90F7
S11343101895382F2091F6039091F703291304C0C0
S113432080910402882361F1E091F603F0E0EA54FD
S1134330F94F30838CB58F778CBD8091F6038F5FF6
S11343408093F6038091F603803411F41092F603FF
S113435080910402882381F081E08FDEE091F703ED
S1134360F0E0EA54F94F80818EBD8091F3038F5FB2
S11343708093F303109204028CB580688CBD81E0B5
S113438008951F93CF93DF93EC01162F662339F022
S11343908881BFDF8823E1F321961150C9F7DF91AB
S11343A0CF911F91089521E02093F803EACF089557
S11343B0AA1BBB1B51E107C0AA1FBB1FA617B70747
S11343C010F0A61BB70B881F991F5A95A9F7809563
S11343D09095BC01CD010895A1E21A2EAA1BBB1B26
S11343E0FD010DC0AA1FBB1FEE1FFF1FA217B307BD
S11343F0E407F50720F0A21BB30BE40BF50B661FD3
S1134400771F881F991F1A9469F760957095809596
S113441090959B01AC01BD01CF010895052E97FB3A
S113442016F400940FD057FD05D0D6DF07FC02D058
S113443046F408C050954095309521953F4F4F4F15
S11344405F4F089590958095709561957F4F8F4F3C
S11344509F4F0895EE0FFF1F881F8BBF0790F691A3
S1134460E02D1994A29FB001B39FC001A39F700DCA
S1134470811D1124911DB29F700D811D1124911D68
S11344800895F0DFB7FF0895821B930B0895EADFC8
S1134490A59F900DB49F900DA49F800D911D112494
S11344A00895E894DF93CF93FC01DB01DBDF7F9376
S11344B06F93E9019A01AC01BF93AF933F932F939C
S11344C0DF01D0DF26F46C1B7D0B820B930B9E0166
S11344D0EB01FC012BD0AF91BF912F913F9126D0DE
S11344E0BE01CF01F9012F913F91CF91DF91089542
S11344F097FB10F8169400080F93083098F00850B2
S1134500232F342F452F562F672F782F892F902D47
S1134510F4CF059497958795779567955795479523
S1134520379527950A95AAF70F9108959BDF460FB3
S1134530571FC81FD91F08F431960895FB01DC01E9
S11345400D900020E9F7119701900D920020E1F7FA
S11345500895FB01DC0101900D920020E1F708951C
S1134560BB274A3031F4992322F4BDE2909581951A
S11345709F4F30C0BB272A3051F4992342F4BDE247
S113458090958095709561957F4F8F4F9F4F01C097
S1134590BB27FA01A62F6217710581059105330B1C
S11345A030FB66F0AA27660F771F881F991FAA1F82
S11345B0A21710F0A21B63953850A9F7A05DAA3387
S11345C008F0A95DA19336F7B111B1931082CA0125
S11345D019C0BB27FB015527AA27880F991FAA1FBB
S11345E0A41710F0A41B83955051B9F7A05DAA330A
S11345F008F0A95DA193009779F7B111B1931192D5
S1134600CB0100C0DC01FC01672F71917723E1F736
S1134610329704C07C916D9370836291AE17BF078B
S1134620C8F30895DC01CB01FC01F999FECF06C063
S1134630F2BDE1BDF89A319600B40D92415050405C
S1134640B8F70895F999FECF92BD81BDF89A9927DC
S113465080B50895A6E1B0E044E050E0E5CFA8E1DC
S1134660B0E042E050E0E0CFDC01CB0102C02D918C
S113467005D041505040D8F70895262FF999FECF20
S11346801FBA92BD81BD20BD0FB6F894FA9AF99A6B
S11346900FBE01960895242FF1DF252FEFDF00C010
S10D46A0ECDF272FEBCFF894FFCFD7
S11346AA0101250001303030303030303000212112
S11346BA21212121212100464F524D4154204552A6
S11346CA520053494E004E554D42455220455252CE
S11346DA0053574F00413D002056005357470020CE
S11346EA572F4F2D556E697400434F4D4D414E441B
S11346FA204552520047574F0047574700463D004E
S113470A535246004753490047564600206D560007
S113471A534843004C3D00206D4100534D4300472C
S113472A484300474D430053524200423D31004240
S113473A3D300053524C00535243005352440053E9
S113474A564700423D0047564700475644004743F0
S113475A4400534843204D4F534645543D00534D5E
S113476A43204D4F534645543D00534D56204D4F1B
S113477A534645543D004D3D00474D560047484D6C
S113478A00474D4D00540053444E0054203D200030
S113479A536C6F742D546573742066696E697368FB
S11347AA65643A200047444E0030303030303030AF
S11347BA30007265626F6F7400666163746F727938
S11347CA2072657365740053454E3D310053454E5E
S11347DA3D30005350533D31005350533D30005344
S11347EA53533D31005353533D30005344533D31E9
S11347FA005344533D3000534D533D3100534D5300
S113480A3D30005348503D00206D7300534D503DD8
S113481A00534E443D002070756C73657300535405
S113482A443D005350523D005343543D0047454EC6
S113483A3D004748503D00474D503D00474E443DDA
S113484A004754443D004750523D004743543D00FD
S113485A46573D005274685445435F6D435F556E35
S113486A69745F56322056302E302E380049443D42
S113487A00527468544543205454412D4571756956
S10F488A706D656E742056315F300000C4
S9030000FC
