:100000007BC0000099C0000097C0000095C00000B0
:1000100093C0000091C000008FC000008DC00000A0
:100020008BC0000089C0000087C0000085C00000B0
:1000300083C000002FC600007FC000007DC000000C
:100040007BC0000079C0000077C0000075C00000D0
:1000500073C0000071C000006FC000006DC00000E0
:100060000C940C130C948E1067C000000C94E210DA
:1000700063C0000061C000005FC000005DC0000000
:100080005BC0000059C0000057C0000055C0000010
:1000900053C0000051C000004FC000004DC0000020
:1000A0004BC0000049C0000047C0000045C0000030
:1000B00043C0000041C000003FC00000A3C70000D3
:1000C000ADC70000ECC7000039C700000C94B9129E
:1000D00033C0000031C000002FC000002DC0000060
:1000E0002BC00000A0028C028E02900292029402A9
:1000F000960298029A029C0211241FBECFEFD1E211
:10010000DEBFCDBF00E00CBF13E0A0E0B2E0E4ED45
:10011000F9E200E00BBF02C007900D92AC37B107C7
:10012000D9F726E0ACE7B3E001C01D92A630B207D4
:10013000E1F729D50C94E81463CF0F931F93CF9365
:10014000DF93D82F8B01C42F80917C03841307C0C9
:1001500080917D0390917E038617970799F00E9406
:10016000A3128111FCCF10937E0300937D03C093F3
:100170007C0323E041E06C2FC8010E9435128CB54E
:1001800084608CBD8D2F0E949013DF91CF911F91C1
:100190000F9108951F93CF93DF93EC01162F462FF5
:1001A000BC018CE0CADF412FBE0180E0C6DF412FD9
:1001B000BE0180E0C2DF412FBE0180E1BEDF412FE2
:1001C000BE0180E0BADF412FBE0185E0B6DFDF91DE
:1001D000CF911F9108951F93CF93DF93C62F9C015A
:1001E000AFEFBFEF0E941D142CED35E040E050E072
:1001F0000E94F313D22F132F4C2F62E270E080E0A5
:100200009CDF4C2F62E270E0812F97DF4C2F62E27F
:1002100070E08D2F92DFDF91CF911F9108951F9392
:10022000CF93DF93C62F9C01AFEFBFEF0E941D1449
:100230002AEF30E040E050E00E94F313D22F132F5A
:100240004C2F62E270E082E078DF4C2F62E270E0D7
:10025000812F73DF4C2F62E270E08D2F6EDFDF9114
:10026000CF911F9108951F93CF93DF93C62F9C01C9
:10027000AFEFBFEF0E941D1428E833E140E050E0EB
:100280000E94F313D22F132F4C2F62E270E080E014
:1002900054DF4C2F62E270E0812F4FDF4C2F62E27F
:1002A00070E08D2F4ADFDF91CF911F9108951F934A
:1002B000CF93DF93C62F9C01AFEFBFEF0E941D14B9
:1002C0002AEF30E040E050E00E94F313D22F132FCA
:1002D0004C2F62E270E082E030DF4C2F62E270E08F
:1002E000812F2BDF4C2F62E270E08D2F26DFDF9114
:1002F000CF911F9108951F93CF93DF93C62F9C0139
:10030000ABEABAEA0E941D14DC01B695A79526EF68
:100310003FEF49E050E00E943214665B794F894418
:10032000964028E833E140E050E00E94F313D22FDA
:10033000132F4C2F65E071E080E0FFDE4C2F65E06D
:1003400071E0812FFADE4C2F65E071E08D2FF5DE34
:10035000DF91CF911F9108951F93CF93DF93C62F05
:100360009C01AFEFBFEF0E941D1420E137E240E097
:1003700050E00E94F313D22F132F4C2F62E270E053
:1003800080E0DBDE4C2F62E270E0812FD6DE4C2F66
:1003900062E270E08D2FD1DEDF91CF911F91089541
:1003A0007498719A6C9A699A8DE790E00E94211274
:1003B000749A60E082E290E0EDDE60E080912504D6
:1003C0009091260408DF60E0809120049091210440
:1003D00026DF61E082E290E0DDDE61E080912204D0
:1003E00090912304B9DF62E082E290E0D3DE62E024
:1003F00085E091E0CFDE62E08091250490912604B3
:1004000032DF62E0809120049091210450DF62E0AD
:1004100080919303909194036EDF71980895CF9328
:10042000DF93E2E0F1E02081BC016150710941E01D
:1004300050E002C0440F551F6A95E2F7C42FC095E3
:10044000922F9C239083E8E0F1E090819C2390839D
:1004500092B19C2392B9E5E0F1E090819C239083D6
:100460009BB19C239BB998B19C2398B9E1E0F1E042
:100470009081942B9083E7E0F1E09081942B90831E
:1004800091B1942B91B9E4E0F1E09081942B9083A9
:100490009AB1942B9AB997B1942B97B998B1492BEB
:1004A00048B9EFE9FFE03197F1F700C00000DFEF56
:1004B000D80F2D2F48E250E060E080E048D12D2F8A
:1004C00048E250E06FEF8AE042D188B1C823C8B952
:1004D000DF91CF9108950F931F93CF939C0188B123
:1004E000A9014150510901E010E002C0000F111FA5
:1004F0004A95E2F7802B88B98FE99FE00197F1F7E1
:1005000000C000002A303105C8F4F9018827EE58F0
:10051000FF4F8F4F0C9415146FEC13C065E211C0A0
:1005200065E80FC069EC0DC061E90BC061E109C06D
:1005300067EC07C061E005C061E803C06FEF01C070
:1005400063E0CFEFC20F2C2F48E250E08AE0FFD0EB
:100550008FE99FE00197F1F700C000002C2F48E2DF
:1005600050E060E080E0F3D08FE99FE00197F1F781
:1005700000C0000088B10095082308B9CF911F91F1
:100580000F910895CF93DF9328B1AC0141505109E9
:10059000C1E0D0E002C0CC0FDD1F4A95E2F79C2FEE
:1005A000922B98B9EFE9FFE03197F1F700C0000016
:1005B0004FEF480F68E270E08AE0EBD0813881F1BC
:1005C00058F4833099F118F4813039F12CC081311D
:1005D000F1F0853281F027C0873CE1F028F48538BE
:1005E00069F0813989F01FC0893C59F08F3CD9F4FA
:1005F00021E030E01DC022E030E01AC023E030E00E
:1006000017C024E030E014C025E030E011C026E03F
:1006100030E00EC027E030E00BC028E030E008C03A
:1006200029E030E005C02FEF3FEF02C020E030E0CE
:100630008FE99FE00197F1F700C0000098B1C095E5
:10064000C923C8B9C901DF91CF910895E2E0F1E073
:100650002081AC014150510981E090E002C0880F37
:10066000991F4A95E2F7282B20832FEF39E648E1BE
:10067000215030404040E1F700C00000A8952081A3
:10068000982F909529232083E8E0F1E02081282B02
:1006900020832FEF39E648E1215030404040E1F718
:1006A00000C00000A89522B1282B22B9208129235F
:1006B00020832FEF39E648E1215030404040E1F7F8
:1006C00000C00000A895E5E0F1E02081282B208300
:1006D00022B1292322B92FEF39E648E121503040D9
:1006E0004040E1F700C00000A8952BB1282B2BB9A2
:1006F0002081292320832FEF39E648E12150304023
:100700004040E1F700C00000A89528B1822B88B9CD
:100710008BB189238BB98FEF29E638E181502040D6
:100720003040E1F700C00000A89588B1982398B93F
:100730000895CF93DF93EC01CEDECE0123DFC817FF
:10074000D90711F4CE0182DFDF91CF910895FF9296
:100750000F931F93CF93DF93D82FC62F8A01F22ECA
:100760000E94A3128111FCCF23E041E06F2DC8014C
:100770000E94351280E40E9490138D2F0E949013E6
:100780008C2F0E949013DF91CF911F910F91FF90BA
:100790000895EF92FF920F931F93CF93DF9300D0B2
:1007A000CDB7DEB7182F7B01042F0E94A312811151
:1007B000FCCF23E041E0602FC7010E94351281E4A5
:1007C00089831A831B8263E0CE0101960E94DA13AB
:1007D0000E9497128330E0F383E00E946C128091B4
:1007E0002A040F900F900F90DF91CF911F910F91DE
:1007F000FF90EF900895CF93DF931F921F92CDB794
:10080000DEB722E041E066E08BE290E00E94351224
:100810005A988AE18A95F1F700C05A9A8AE18A9536
:10082000F1F700C019821A8262E0CE0101960E949F
:10083000DA130E9497128230E0F382E00E946C1279
:10084000E8E2F4E0A081B0E0BA2FAA278181A82BCA
:100850002CE63BE60E942C14BC01882799270F90B8
:100860000F90DF91CF910895CF93DF931F921F9246
:10087000CDB7DEB722E041E066E08BE290E00E9477
:1008800035125A988AE18A95F1F700C05A9A8AE19E
:100890008A95F1F700C019821A8262E0CE010196B2
:1008A0000E94DA130F900F90DF91CF91089582E0AC
:1008B0000E946C12E8E2F4E0A081B0E0BA2FAA270F
:1008C0008181A82B2CE63BE60E942C14BC018827D2
:1008D00099270895AF92BF92DF92EF92FF920F9304
:1008E0001F93CF93DF93A398A298A098A1989B9A67
:1008F0009A9A999A989A20E030E002E011E0EE246A
:10090000E394F12C68E071E045E051E0C1E0D1E012
:10091000A7E0B1E06894AA24A2F8BB24B394F8013C
:10092000D080C701022E02C0880F991F0A94E2F7F7
:10093000982F9095D922D082FB01D0809D21908361
:1009400092B1982B92B9FA019081982B908398815B
:10095000982B98839C91982B9C9391B1982B91B94B
:10096000F5019081892B80832F5F3F4F2730310520
:10097000B1F6529A5A9872986A9A2E98269A27989F
:10098000DF91CF911F910F91FF90EF90DF90BF907B
:10099000AF90089586E080936E0439C080919703EC
:1009A0008A3090F010929703809176048F5F8A309E
:1009B00019F08093760408C01092760480916E043A
:1009C000815080936E04A89580916E04863009F45E
:1009D000A39A80916E04853011F4A398A29A809115
:1009E0006E04843011F4A39AA29A80916E0483302D
:1009F00019F4A398A298A09A80916E04823011F401
:100A0000A098A19A80916E04813009F4A1988091F8
:100A10006E048111C3CF089572D110920801109213
:100A20000201A19808959EE088E10FB6F894A89578
:100A3000809360000FBE90936000A8951ED13BD1BB
:100A40006AD1EADF47DF87E190E00E94BD14059795
:100A500009F444C0A39AA29AA09AA19A65E070E012
:100A600087E190E00E94D51462E370E085E190E0B8
:100A70000E94D51462E370E08FE090E00E94D514EC
:100A800060EE7EE285E090E00E94D51468EB7BE0AA
:100A900087E090E00E94D51449E150E060E070E00A
:100AA00081E190E00E94D01449E150E060E070E004
:100AB0008BE090E00E94D0146AE070E083E090E068
:100AC0000E94D51464E670E081E090E00E94D514A5
:100AD00060E080E090E00E94C214A895789409D369
:100AE00085E190E00E94BD14909326048093250434
:100AF0008FE090E00E94BD14909321048093200425
:100B000081E190E00E94B814609398037093990378
:100B100080939A0390939B038BE090E00E94B8141B
:100B2000609368047093690480936A0490936B04E3
:100B300085E090E00E94BD14909375048093740446
:100B400087E090E00E94BD149093230480932204D8
:100B500083E090E00E94BD149093960380939503E8
:100B600081E090E00E94BD1490939D0380939C03CC
:100B700080E090E00E94B0148093790410926D049C
:100B80000FDC08CF08954FDF0E946111A8950E94E5
:100B90008110809197038A3040F0109297038091E2
:100BA00076048F5F80937604F1CF809176048A304B
:100BB000D8F01092760480919E038F5F80939E03FD
:100BC00080917704882329F0815080937704A09A3C
:100BD00001C0A09880916D04882319F0A39AA29A6D
:100BE000D5CFA39AA298D2CF80919E038A3070F27B
:100BF00010929E03CBCF83D081E080937304109238
:100C00007804A7D0A19A8091980390919903A0911C
:100C10009A03B0919B03892B8A2B8B2B21F0809117
:100C2000790480930201809179048093080161C066
:100C30000895A19A809179048093080108955FD066
:100C400081E0809378041092730445D1A19A1092A8
:100C50000201109208014DC00895DEDE80917904F2
:100C6000809308012FEF89EF90E021508040904061
:100C7000E1F700C00000D0CE089583E08093B0007B
:100C80008CE08093B10089EF8093B30082E0809381
:100C9000700008951F920F920FB60F9211248F9338
:100CA000809197038F5F809397038F910F900FBE72
:100CB0000F901F90189588E18093810082E88093BF
:100CC00080008FE396E0909387008093860080E118
:100CD00090E090938900809388008FEF9FEF90932E
:100CE0008B0080938A0090938D0080938C00259ACE
:100CF0000895E1E8F0E08081816080830895E1E873
:100D0000F0E080818E7F80838FEF9FEF909385004E
:100D10008093840008958FE18093210180E69AEE0C
:100D2000909327018093260182E0809320018FE039
:100D30008093730081E090E09093290180932801D3
:100D400090932B0180932A0190932D0180932C0185
:100D500008958FE59AEE909325018093240180E613
:100D60009AEE9093270180932601809198039091A9
:100D70009903A0919A03B0919B03803727E19207D2
:100D8000A105B10550F59C01220F331F880F991F53
:100D9000880F991F880F991F820F931F9093290125
:100DA000809328012091980330919903C901880FFD
:100DB000991F220F331F220F331F220F331F820F61
:100DC000931F90937F0480937E0410927D04C297BA
:100DD00090932D0180932C0125C08FEF9FEF90936E
:100DE0002901809328016091980370919903809163
:100DF0009A0390919B0320E737E140E050E00E9486
:100E0000F313AB01440F551F660F771F660F771F53
:100E1000660F771F640F751F70937F0460937E04C5
:100E200020937D048091680490916904A0916A04E4
:100E3000B0916B04803727E19207A105B10528F531
:100E40009C01220F331F880F991F880F991F880F4D
:100E5000991F820F931F90932B0180932A018091F9
:100E60006804909169049C01220F331F880F991F19
:100E7000880F991F880F991F820F931F90938204E8
:100E8000809381041092800408958FEF9FEF9093D8
:100E90002B0180932A01609168047091690480910C
:100EA0006A0490916B0420E737E140E050E00E9433
:100EB000F313AB01440F551F660F771F660F771FA3
:100EC000660F771F640F751F70938204609381040F
:100ED0002093800408958091950390919603880F44
:100EE000991F019790932701809326018091950384
:100EF0009091960381509048880F991F90932501F7
:100F0000809324018091950390919603019790938B
:100F10002901809328018FEF9FEF90932B018093FD
:100F20002A0190932D0180932C0180919C03909134
:100F30009D0390937C0480937B0408951F920F92ED
:100F40000FB60F9211240BB60F922F933F934F932E
:100F50005F936F937F938F939F93AF93BF93EF9321
:100F6000FF93809178048823C1F080917904809365
:100F70000201809179048093080180917B04909113
:100F80007C049C012150310930937C0420937B0424
:100F9000892B29F5B4DE2FDE22C0809173048823CB
:100FA000F1F080917D04815080937D04811108C00F
:100FB00080917E0490917F04909329018093280171
:100FC00080918004815080938004811108C08091B9
:100FD00081049091820490932B0180932A01FF91C8
:100FE000EF91BF91AF919F918F917F916F915F91A1
:100FF0004F913F912F910F900BBE0F900FBE0F900E
:101000001F9018951F920F920FB60F9211241092F5
:1010100002010F900FBE0F901F9018951F920F9214
:101020000FB60F9211240BB60F922F933F934F934D
:101030005F936F937F938F939F93AF93BF93EF9340
:10104000FF938FB780688FBF5ADE31DC60938F03C8
:10105000709390038093910390939203CCDB7093F1
:10106000940360939303109208018FEF9FEF909386
:101070002B0180932A01A198FF91EF91BF91AF912D
:101080009F918F917F916F915F914F913F912F91A0
:101090000F900BBE0F900FBE0F901F9018951F92D0
:1010A0000F920FB60F9211240BB60F922F933F930E
:1010B0004F935F936F937F938F939F93AF93BF9360
:1010C000EF93FF938FB780688FBFCEDBFF91EF91D7
:1010D000BF91AF919F918F917F916F915F914F9150
:1010E0003F912F910F900BBE0F900FBE0F901F904E
:1010F00018950E945D11109285040895FF920F9338
:101100001F93CF93DF9300D000D0CDB7DEB78A0115
:10111000DA011D921C92FC0120812D3221F40196EE
:10112000FF24F39401C0F12CFC013196DC019C9169
:1011300080ED890F89838A3008F046C080E08F5F98
:10114000282F30E0519190ED950FA1E0B0E0AC0F69
:10115000BD1FA20FB31F9C939A3088F35A3081F5BC
:10116000681780F1882309F1982F60E070E0F90199
:10117000E91BF10941E050E04C0F5D1FE40FF51F42
:101180004081FB01EE0FFF1F660F771F660F771F71
:10119000660F771F6E0F7F1F640F711D915039F717
:1011A000D8016D937C9301C080E0FF2081F0F801AD
:1011B000208131813195219531093183208307C008
:1011C00080E005C080E003C09A3071F380E026968D
:1011D0000FB6F894DEBF0FBECDBFDF91CF911F9148
:1011E0000F91FF9008958F929F92AF92BF92CF92EE
:1011F000DF92EF92FF920F931F93CF93DF93CDB7C0
:10120000DEB72B970FB6F894DEBF0FBECDBF8A01B5
:10121000DA011D921D921D921C921397FC012081F0
:101220002D3219F4019641E001C040E0FC013196F5
:10123000DC019C9180ED890F89838A3008F05DC0C4
:1012400080E08F5F282F30E0519190ED950FA1E065
:10125000B0E0AC0FBD1FA20FB31F9C939A3088F370
:101260005A3009F046C0681708F445C0882371F168
:10127000982FC12CD12C7601F901E91BF10961E00D
:1012800070E06C0F7D1FE60FF71F5081CC0CDD1C4A
:10129000EE1CFF1C46015701880C991CAA1CBB1CA4
:1012A000880C991CAA1CBB1CC80CD91CEA1CFB1C72
:1012B000C50ED11CE11CF11C9150F1F6D801CD9264
:1012C000DD92ED92FC92139701C080E04423C1F0BF
:1012D000F8014081518162817381709560955095CC
:1012E00041955F4F6F4F7F4F40835183628373837C
:1012F00007C080E005C080E003C09A3031F380E091
:101300002B960FB6F894DEBF0FBECDBFDF91CF9105
:101310001F910F91FF90EF90DF90CF90BF90AF9013
:101320009F908F900895CF93DF93CDB7DEB72A9724
:101330000FB6F894DEBF0FBECDBF9C012F5F3F4FAD
:10134000DC018C91805389838A3058F5F9019E0124
:101350002E5F3F4F40E001C0492F91E0940F8191F3
:101360008053D9018D939D018A3008F59930A1F7FA
:101370001EC08191882321F08130A9F4852F01C0FE
:10138000842F90E0022E02C0880F991F0A94E2F782
:10139000DB019C91890F8C932150310950F781E03A
:1013A0000FC080E00DC080E00BC080E009C0473076
:1013B000E1F7FE01319627E030E040E051E0D9CF7F
:1013C0002A960FB6F894DEBF0FBECDBFDF91CF9146
:1013D00008950C940C120895CF92DF92EF92FF9231
:1013E0000F931F93CF93DF93CDB7DEB72C970FB634
:1013F000F894DEBF0FBECDBFE62E992344F42DE254
:1014000030E038872F8391958195910901C01F8223
:101410004AE0BE016F5F7F4F0E944E14BE016F5FB6
:101420007F4FCE0107960E943C14BE01695F7F4F3B
:10143000CE0101960E944714E1100FC020C0D8864B
:10144000CF82B801CE0107960E943C14BE01695FAD
:101450007F4FC8010E94471408C08E010F5F1F4FC5
:10146000F12C6894CC24C5F8D12CF801019000200F
:10147000E9F73197E01BF10BEE15FF0500F3CE0104
:101480000196B9D72C960FB6F894DEBF0FBECDBF2C
:10149000DF91CF911F910F91FF90EF90DF90CF9050
:1014A0000895CF92DF92EF92FF920F931F93CF9305
:1014B000DF93CDB7DEB766970FB6F894DEBF0FBEE9
:1014C000CDBFE42E992364F42DE230E03D872C87D4
:1014D00090958095709561957F4F8F4F9F4F01C07C
:1014E0001C862AE0AE014F5F5F4F0E945814BE0178
:1014F0006F5F7F4FCE010C960E943C14BE01645F6B
:101500007F4FCE0101960E944714E1100FC020C00A
:10151000DD86CC86B801CE010C960E943C14BE013B
:10152000645F7F4FC8010E94471408C08E010F5F9F
:101530001F4FF12C6894CC24C5F8D12CF8010190F0
:101540000020E9F73197E01BF10BEE15FF0500F3E2
:10155000CE01019650D766960FB6F894DEBF0FBE47
:10156000CDBFDF91CF911F910F91FF90EF90DF9052
:10157000CF9008955F926F927F928F929F92AF92D9
:10158000BF92CF92DF92EF92FF920F931F93CF9370
:10159000DF93CDB7DEB764970FB6F894DEBF0FBE0A
:1015A000CDBF4C01762EC42E442389F0842F01E058
:1015B00010E09801220F331F000F111F000F111FA1
:1015C000000F111F020F131F815099F702C001E095
:1015D00010E0C401992024F48827992788199909D3
:1015E000582E692EB8010E94DF134AE0BE016F5FDA
:1015F0007F4F0E944E14CE0101967C01D12C0F2EFC
:10160000F0E3AF2EB12CF02D0DC0BC86AB86B70138
:10161000CE010B960E943C14BE01655F7F4FC7014F
:101620000E944714F70101900020E9F73197EE1965
:10163000FF09EC15FD0548F37E019BE0E90EF11C66
:10164000852D962DB8010E94DF13CB014AE0B7012A
:101650000E944E14F70101900020E9F731978EE2C5
:1016600090E091838083BE016F5F7F4FC7010E942E
:101670003C1499202CF48DE290E09A83898301C078
:101680001982BE01655F7F4FCE0101960E943C1416
:1016900071100FC021C0DC86CB86B801CE010B963D
:1016A0000E943C14BE01655F7F4FC8010E94471431
:1016B00009C08E010F5F1F4FE72CF12C6894CC24DA
:1016C000C5F8D12CF80101900020E9F73197E01B13
:1016D000F10BEE15FF05F8F2CE0101968CD664965B
:1016E0000FB6F894DEBF0FBECDBFDF91CF911F9133
:1016F0000F91FF90EF90DF90CF90BF90AF909F90B1
:101700008F907F906F905F900895CF93DF93CDB7C8
:10171000DEB729970FB6F894DEBF0FBECDBF99E0B4
:10172000E5E0F2E0DE01119601900D929A95E1F765
:10173000FE01319627E030E090E070E361E3AC0118
:10174000022E02C0559547950A94E2F740FF02C069
:10175000608301C070832150310931962F3F4FEFD4
:10176000340769F7CE01019646D629960FB6F8944C
:10177000DEBF0FBECDBFDF91CF9108950F931F93B2
:10178000CF93DF93CDB7DEB727970FB6F894DEBFC0
:101790000FBECDBFFC013281818119821B821A826A
:1017A0001C821D821E821F822081223509F03AC0D0
:1017B000833509F09BC4343509F098C483818A309D
:1017C00081F410926D048EE092E026D698E088E1D4
:1017D0000FB6F894A895809360000FBE90936000B8
:1017E000FFCF803209F082C48481813309F07EC446
:1017F00085818A3009F07AC410926D046FEF7FEF13
:1018000087E190E00E94D51485E192E005D698E04A
:1018100088E10FB6F894A895809360000FBE90936E
:101820006000FFCF90E0932B233509F077C303814D
:10183000003209F0ACC18D3420E5920709F4F1C003
:10184000A0F4843524E4920709F456C128F48E34B8
:10185000944409F426C197C185342EE49207F1F02F
:101860008834904509F49DC08EC18D3423E59207DC
:1018700009F47EC050F4803522E5920709F468C16E
:101880008434934509F45BC07EC1803523E592071B
:1018900021F18335934509F439C075C184818133C1
:1018A00059F485818A30A9F481E080936D04729A9D
:1018B00083E292E0B1D51AC4803359F485818A302D
:1018C00041F410926D04A8D8729889E292E0A4D5F0
:1018D0000DC48FE292E0A0D509C48481813341F424
:1018E00085818A3079F487D98AE392E095D5FEC361
:1018F000803341F485818A3029F48ED880E492E0E7
:101900008BD5F4C38FE292E087D5F0C38481813315
:1019100041F485818A3079F48CD986E492E07CD5D3
:10192000E5C3803341F485818A3029F475D88CE48D
:1019300092E072D5DBC38FE292E06ED5D7C384818B
:10194000813341F485818A3079F482E592E064D56F
:1019500076D9CCC3803341F485818A3029F45CD8B0
:1019600088E592E059D5C2C38FE292E055D5BEC357
:101970008481813341F485818A3079F48EE592E067
:101980004BD56BD9B3C3803341F485818A3029F4B8
:1019900043D884E692E040D5A9C38FE292E03CD5DB
:1019A000A5C3AE014C5F5F4F66E0CF0104961BDC20
:1019B000811104C08FE292E02FD598C38C819D8164
:1019C000AE81BF81AC01BD01495151096109710965
:1019D000483A544D6140710540F0892B8A2B8B2B7E
:1019E00021F08AE692E018D581C385E792E003D51D
:1019F0006C817D818E819F8141E053DD8AE792E099
:101A00000BD54C815D816E817F814093980350930B
:101A1000990360939A0370939B0381E190E0C0D790
:101A200065C3AE014C5F5F4F66E0CF010496DBDB20
:101A3000811104C08FE292E0EFD458C38C819D8164
:101A4000AE81BF81AC01BD014951510961097109E4
:101A5000483A544D6140710540F0892B8A2B8B2BFD
:101A600021F08AE692E0D8D441C38EE792E0C3D455
:101A70006C817D818E819F8141E013DD8AE792E058
:101A8000CBD44C815D816E817F81409368045093FB
:101A9000690460936A0470936B048BE090E080D7D4
:101AA00025C3AE014E5F5F4F66E0CF01049626DB93
:101AB000811104C08FE292E0AFD418C38A819B8168
:101AC0000197883E934020F08AE692E0A5D40EC3A9
:101AD00083E892E090D461E08A819B817DDC81E1A2
:101AE00093E09AD46A817B8170939D0360939C03F9
:101AF00081E090E05AD7FAC2AE014E5F5F4F66E0D8
:101B0000CF010496FBDA811104C08FE292E084D405
:101B1000EDC28A819B810197883E934020F08AE63E
:101B200092E07AD4E3C288E892E065D441E061E0D3
:101B30008A819B811FDD8AE792E06ED46A817B8176
:101B4000709396036093950383E090E02ED7CEC206
:101B5000BE016F5F7F4FCF010496E5DB811104C0AA
:101B60008FE292E059D4C2C28DE892E044D48981D8
:101B7000CCDD82E193E050D469816093790480E008
:101B800090E000D7B3C282E992E046D4AFC20053DE
:101B9000083008F0BFC124812C3479F038F42134A6
:101BA00009F450C1223409F449C1B0C12D3409F4FB
:101BB00085C0243509F48CC1A9C1883423E4920777
:101BC00029F08D34934409F43AC074C0AE014E5FDD
:101BD0005F4F64E0CF01069691DA811104C08FE275
:101BE00092E01AD483C28A819B818D3D954020F07A
:101BF0008AE692E011D47AC28EE992E0FCD361E0E9
:101C00008A819B81E9DB87EA92E006D46A817B8145
:101C100080912504909126048617970709F466C2DF
:101C2000709326046093250485E190E0BED6602F72
:101C300080912504909126040E94EB0057C2AE01CA
:101C40004E5F5F4F63E0CF01069658DA811104C002
:101C50008FE292E0E1D34AC28A819B81C297893C9C
:101C6000910520F08AE692E0D7D340C28BEA92E059
:101C7000C2D341E061E08A819B817CDC87EA92E00B
:101C8000CBD36A817B8180912004909121048617B7
:101C9000970709F42BC270932104609320048FE00E
:101CA00090E083D6602F80912004909121040E94BF
:101CB0000F011CC282E992E0AFD318C28D3423E435
:101CC000920709F442C08D3426E5920709F478C0E2
:101CD0008834934409F0AEC0AE014E5F5F4F64E0BC
:101CE000CF0106960BDA811104C08FE292E094D303
:101CF000FDC18A819B818938934120F08AE692E078
:101D00008BD3F4C184EB92E076D361E08A819B812E
:101D100063DB87EA92E080D36A817B81809125042E
:101D2000909126048617970709F4E0C17093260462
:101D30006093250485E190E038D6602F80912504DA
:101D4000909126040E943301D1C1AE014E5F5F4FD6
:101D500063E0CF010696D2D9811104C08FE292E0F0
:101D60005BD3C4C18A819B81C297893C910520F0D5
:101D70008AE692E051D3BAC180EC92E03CD341E0D4
:101D800061E08A819B81F6DB87EA92E045D36A8134
:101D90007B8180912004909121048617970709F494
:101DA000A5C170932104609320048FE090E0FDD5DD
:101DB000602F80912004909121040E94570196C1C8
:101DC000AE014E5F5F4F64E0CF01069697D9811157
:101DD00004C08FE292E020D389C18A819B8184561E
:101DE00091098D36974020F08AE692E015D37EC1A6
:101DF0008CEC92E000D342E061E08A819B81BADB07
:101E000088ED92E009D36A817B8180919303909160
:101E100094038617970709F469C17093940360933C
:101E2000930389E090E0C1D5602F8A819B810E9455
:101E30007B015CC182E992E0EFD258C18BED92E068
:101E4000EBD254C187359F4409F050C1AE014E5FBB
:101E50005F4F64E0CF01069651D9811104C08FE233
:101E600092E0DAD243C18A819B818131974220F08E
:101E70008AE692E0D1D23AC186EF92E0BCD261E02C
:101E80008A819B81A9DA8FEF92E0C6D26A817B8139
:101E9000709323046093220487E090E086D56A81E2
:101EA0007B8180912204909123048617970709F47F
:101EB0001DC1709323046093220487E090E075D5E0
:101EC000602F80912204909123040E94AC010EC1E6
:101ED0008335944509F00AC185818A3021F08FE26B
:101EE00092E09AD203C183E093E085D2002E000CE9
:101EF000110B61E0C80170DA82E193E08DD2C80174
:101F00000E940F02C8010E949903F0C082E992E08A
:101F100083D2ECC082E992E07FD2E8C0273409F096
:101F2000E2C023812A3009F0DEC085342EE4920716
:101F300071F198F4883423E49207A9F128F48035EC
:101F4000914409F497C0CBC08D3423E49207C1F1CA
:101F50008934944409F487C0C2C0883426E59207C6
:101F600009F43CC050F4883420E5920709F456C0C7
:101F70008D34904509F463C0B2C08D3426E59207D4
:101F800009F43DC08634974509F466C0A8C083E1D2
:101F900093E031D280916D0461E090E01DDA82E13E
:101FA00093E03AD2A3C088E193E025D261E080912A
:101FB00025049091260410DA87EA92E02DD296C08B
:101FC0008DE193E018D241E061E08091200490918E
:101FD0002104D0DA87EA92E01FD288C082E293E03F
:101FE0000AD260918F037091900380919103909138
:101FF000920341E056DA8FEF92E00ED277C087E28B
:1020000093E0F9D1609193037091940380E090E0A4
:1020100041E047DA8FEF92E0FFD168C08CE293E0B5
:10202000EAD1609198037091990380919A039091FD
:102030009B0341E036DA8AE792E0EED157C081E3B4
:1020400093E0D9D161E08091680490916904C4D98A
:102050008AE792E0E1D14AC086E393E0CCD18AE3FB
:1020600093E0DAD143C080E593E0C5D184E593E005
:10207000D3D13CC08EE693E0BED180916D0461E087
:1020800090E0AAD986E793E0B6D161E0809125047B
:1020900090912604A1D986E793E0ADD141E061E0BB
:1020A000809120049091210465DA86E793E0A3D122
:1020B000609198037091990380919A0390919B038A
:1020C00041E0EFD986E793E096D161E08091680422
:1020D0009091690481D982E193E09ED107C082E9A1
:1020E00092E09AD103C082E992E096D127960FB68A
:1020F000F894DEBF0FBECDBFDF91CF911F910F913E
:102100000895F5D080938504882339F08FE993E012
:10211000909384048093830431CB08951F920F928F
:102120000FB60F9211240BB60F928F939F93EF93DC
:10213000FF9380918103882329F08091C6008093CA
:10214000770435C08091830381112DC0E091840311
:10215000F0E08091C600EA5FFA4F8083E09184034B
:10216000F0E0EA5FFA4F80818A3029F4809182039F
:102170008F5F80938203809184038F5F80938403B9
:1021800080918403803811F4109284039091840329
:1021900080918503981303C081E08093830385E0D9
:1021A0008093770404C08091C60080937704FF91E8
:1021B000EF919F918F910F900BBE0F900FBE0F90DC
:1021C0001F9018951F920F920FB60F9211240BB605
:1021D0000F928F939F93EF93FF9380910002811151
:1021E0001DC0809180038F5F809380038091800366
:1021F000803811F4109280039091800380917F03C6
:10220000981304C081E08093000208C0E09180032D
:10221000F0E0EA57FB4F80818093C60085E0809311
:102220007704FF91EF919F918F910F900BBE0F90CC
:102230000FBE0F901F9018958F929F92AF92BF92F2
:10224000CF92DF92EF92FF92699AE1ECF0E0208169
:1022500028612083208120682083208120642083BE
:10226000E2ECF0E02081266020836C01E12CF12C6F
:10227000A0E2B3E0A7019601F5D24B015C0124E294
:10228000920E24EFA21EB11CA0E4B6E0A7019601B5
:10229000E9D29B01AC01C501B401A5D2215031099D
:1022A0003093C5002093C400FF90EF90DF90CF9053
:1022B000BF90AF909F908F90089580E492E0BCCF44
:1022C0000895E1ECF0E080818F778083A6ECB0E0A8
:1022D0002C9110928503109284038C9110928303A9
:1022E00010928203908190689083820F0895CF931B
:1022F000C0918203CC2309F440C080E0A1ECB0E09F
:10230000282F30E0E0918503F0E0EA5FFA4F9081FA
:10231000F901E156FC4F90839C919F779C9390919B
:1023200085039F5F9093850390918503903811F406
:1023300010928503109283039C9190689C93F901FD
:10234000E156FC4F90819A3091F4E1ECF0E09081FD
:102350009F77908390918203915090938203908114
:1023600090689083F901E156FC4F11820CC09111E5
:102370008F5F88232CF680E006C08091830388233A
:1023800011F09FDF8C2FCF910895382F20917F037C
:1023900090918003291304C080910002882351F199
:1023A000E0917F03F0E0EA57FB4F3083E1ECF0E08F
:1023B00080818F7B808380917F038F5F80937F03F9
:1023C00080917F03803811F410927F038091000286
:1023D000882351F0E0918003F0E0EA57FB4F8081C1
:1023E0008093C60010920002E1ECF0E080818064EE
:1023F000808381E00895CF93DF93EC018881882367
:1024000041F08881C2DF8823E1F321968881811120
:10241000F8CFDF91CF910895CF93DF93EC018881BE
:10242000882341F08881B1DF8823E1F321968881F8
:102430008111F8CF8AE0A9DF8823E1F3DF91CF9102
:1024400008951092D5001092D400289A2398229AC9
:10245000219A84E58CBD8CB580688CBD8CB5806874
:102460008CBD8CB583608CBD0895909303028093DE
:10247000020260938803409387032093010208952A
:1024800090918703992319F08823A9F002C0811144
:1024900012C0E0910202F0910302208181E090E0FD
:1024A0000090880302C0880F991F0A94E2F7809574
:1024B000822380830895E0910202F091030220813B
:1024C00081E090E00090880302C0880F991F0A9471
:1024D000E2F7822B80830895813408F080E4A8E23B
:1024E000B4E020E015C0E0918E03F0E0EA53FA4F2B
:1024F00090819D932F5F90918E039F5F90938E03A9
:1025000090918E03903411F410928E0310928C03EC
:1025100030918E0390918D03391304C090918C03F8
:10252000992319F02813DFCF0895822F0895809101
:102530008C03811106C080918D0390918E03891BBD
:10254000089580E408958091890390918A03891BFE
:1025500008958CB58F778CBD2EB510928E03109296
:102560008D038EB510928C039CB590689CBD820F34
:1025700008951F920F920FB60F9211240BB60F926F
:102580002F933F934F935F936F937F938F939F937B
:10259000AF93BF93EF93FF9380918C03811124C07D
:1025A000E0918D03F0E08EB5EA53FA4F808380917D
:1025B0008D038F5F80938D0380918D03803411F4A0
:1025C00010928D0390918D0380918E03981303C018
:1025D00081E080938C03909186038091010298138F
:1025E00004C010928B0301C0B4DF88E793E00E941F
:1025F000E909FF91EF91BF91AF919F918F917F91E9
:102600006F915F914F913F912F910F900BBE0F9063
:102610000FBE0F901F9018951F920F920FB60F923A
:1026200011240BB60F922F933F934F935F936F93A9
:102630007F938F939F93AF93BF93EF93FF9380917B
:102640008B03882349F180918C03811124C0E09190
:102650008D03F0E08EB5EA53FA4F808380918D03AD
:102660008F5F80938D0380918D03803411F41092DD
:102670008D0390918D0380918E03981303C081E0A8
:1026800080938C03909186038091010298130EC071
:1026900010928B0307C05DDF909186038091010249
:1026A000981304C080E0ECDE10928603809104024F
:1026B000811123C080918A038F5F80938A03809168
:1026C0008A03803411F410928A03909189038091D7
:1026D0008A03981304C081E0809304020EC081E055
:1026E000CFDEE0918A03F0E0EA57FA4F80818EBD99
:1026F000809186038F5F80938603FF91EF91BF9156
:10270000AF919F918F917F916F915F914F913F9189
:102710002F910F900BBE0F900FBE0F901F9018952A
:10272000382F2091890390918A03291304C0809146
:102730000402882361F1E0918903F0E0EA57FA4F3F
:1027400030838CB58F778CBD809189038F5F8093A8
:10275000890380918903803411F410928903809158
:102760000402882381F081E08BDEE0918A03F0E0AF
:10277000EA57FA4F80818EBD809186038F5F8093E8
:102780008603109204028CB580688CBD81E00895A8
:102790001F93CF93DF93EC01162F662339F08881C6
:1027A000BFDF8823E1F321961150C9F7DF91CF9164
:1027B0001F91089521E020938B03EACF0895AA1B6F
:1027C000BB1B51E107C0AA1FBB1FA617B70710F01C
:1027D000A61BB70B881F991F5A95A9F7809590954E
:1027E000BC01CD010895A1E21A2EAA1BBB1BFD015D
:1027F0000DC0AA1FBB1FEE1FFF1FA217B307E407E0
:10280000F50720F0A21BB30BE40BF50B661F771F37
:10281000881F991F1A9469F7609570958095909517
:102820009B01AC01BD01CF010895EE0FFF1F881F72
:102830008BBF0790F691E02D1994A29FB001B39F32
:10284000C001A39F700D811D1124911DB29F700DB9
:10285000811D1124911D0895F0DFB7FF0895821B9B
:10286000930B0895EADFA59F900DB49F900DA49F50
:10287000800D911D11240895FB01DC010D900020B5
:10288000E9F7119701900D920020E1F70895FB01FF
:10289000DC0101900D920020E1F70895BB274A303A
:1028A00031F4992322F4BDE2909581959F4F30C079
:1028B000BB272A3051F4992342F4BDE290958095CC
:1028C000709561957F4F8F4F9F4F01C0BB27FA01D5
:1028D000A62F6217710581059105330B30FB66F059
:1028E000AA27660F771F881F991FAA1FA21710F02B
:1028F000A21B63953850A9F7A05DAA3308F0A95D23
:10290000A19336F7B111B1931082CA0119C0BB2748
:10291000FB015527AA27880F991FAA1FA41710F09B
:10292000A41B83955051B9F7A05DAA3308F0A95DA7
:10293000A193009779F7B111B1931192CB0100C027
:10294000DC01FC01672F71917723E1F7329704C016
:102950007C916D9370836291AE17BF07C8F30895A1
:10296000F999FECF92BD81BDF89A992780B5089557
:10297000A6E1B0E044E050E01DC0A8E1B0E042E0D4
:1029800050E018C0262FF999FECF1FBA92BD81BD25
:1029900020BD0FB6F894FA9AF99A0FBE01960895E1
:1029A000242FF1DF252FEFDF00C0ECDF272FEBCF47
:1029B000DC01CB01FC01F999FECF06C0F2BDE1BDFF
:1029C000F89A319600B40D9241505040B8F70895EE
:0429D000F894FFCFA9
:1029D4000101250001303030303030303000726574
:1029E400626F6F7400666163746F727920726573CD
:1029F40065740053454E3D310053454E3D3000460D
:102A04004F524D415420455252005350533D3100D2
:102A14005350533D30005353533D31005353533DB2
:102A240030005344533D31005344533D3000534D23
:102A3400533D3100534D533D30004E554D424552A8
:102A440020455252005348503D00206D7300534DB1
:102A5400503D00534E443D005354443D00535052A6
:102A64003D00434F4D4D414E442045525200534882
:102A740043204C45443D00206D4100534D43204CC0
:102A840045443D00534843204D4F534645543D0073
:102A9400534D43204D4F534645543D00534D56200E
:102AA4004D4F534645543D0020560046756E6374A1
:102AB400696F6E206E6F74207265616C697A6564EB
:102AC40020796574210053574F20416D703D0020DB
:102AD4006D560053535420536C6F742D54657374A6
:102AE4003A200047454E3D004748433D00474D438B
:102AF4003D004748563D00474D563D004748503D30
:102B040000474D503D0046573D00527468544543BC
:102B14005F6D435F556E69742056302E302E35003C
:102B240049443D00527468544543205454412D4552
:102B3400717569706D656E742056315F3000504157
:0C2B440052414D533D002C006A6100001E
:00000001FF
